:020000040800F2
:10000000480900209D9200083D0200083F020008B8
:1000100043020008470200084B02000800000000ED
:100020000000000000000000000000004F02000877
:1000300051020008000000005302000855020008A9
:10004000B7920008B7920008B7920008B79200086C
:10005000B7920008B7920008B7920008B79200085C
:10006000B7920008B7920008B7920008B79200084C
:10007000B7920008B7920008B7920008B79200083C
:10008000B7920008B7920008B7920008B79200082C
:10009000B7920008B7920008B7920008B79200081C
:1000A000B7920008B7920008B7920008B79200080C
:1000B000B12900089B280008B7920008B7920008F1
:1000C000B7920008B7920008B7920008B7920008EC
:1000D000B7920008B7920008B7920008AB32000848
:1000E000B7920008B7920008B7920008B7920008CC
:1000F000B7920008B7920008B7920008B7920008BC
:10010000B7920008B7920008B7920008B7920008AB
:10011000B7920008B7920008B7920008B79200089B
:10012000B7920008B7920008B7920008B79200088B
:1001300000F002F800F03AF80AA090E8000C8244BF
:100140008344AAF10107DA4501D100F02FF8AFF29C
:10015000090EBAE80F0013F0010F18BFFB1A43F0A5
:10016000010318476492000084920000103A24BFF3
:1001700078C878C1FAD8520724BF30C830C144BF0C
:1001800004680C607047000000230024002500264E
:10019000103A28BF78C1FBD8520728BF30C148BFEA
:1001A0000B6070471FB51FBD10B510BD09F0CBF82F
:1001B0001146FFF7F7FF00F009F809F0E9F803B47A
:1001C000FFF7F2FF03BC09F0EDF8000010B503F0F3
:1001D000A3F819480078012802D103F0A3FA29E016
:1001E00015480078052802D104F08EF822E0124864
:1001F000007806281ED010480078072802D104F0A5
:10020000D5FC17E00C480078082802D105F01EFE46
:1002100010E00948007802280CD00748007803282D
:1002200002D106F0B9FB05E003480078042801D1AB
:1002300005F090FA002010BD5E000020704700BF5E
:10024000FEE700BFFEE700BFFEE700BFFEE7704726
:1002500070477047704700000CB500200190009077
:100260006B48006840F480306949086000BF684806
:10027000006800F4003000900198401C0190009844
:1002800018B90198B0F5A06FF1D16148006810F479
:10029000003F02D00120009001E000200090009873
:1002A000012842D15B48006840F0100059490860BD
:1002B0000846006820F0030008600846006840F027
:1002C000020008605248406851494860084640684A
:1002D00048600846406840F48060486008464068CE
:1002E00020F47C1048600846406840F4E8104860FC
:1002F0000846006840F08070086000BF444800680D
:1003000010F0007FFAD04248406820F003004049D6
:1003100048600846406840F00200486000BF3C4822
:10032000406800F00C000828F9D10CBD10B5FFF7AB
:1003300093FF10BD10B53648006840F00100344905
:10034000086008464068344908403149486008461A
:100350000068324908402E4908600846006820F4C9
:10036000802008600846406820F4FE0048604FF492
:100370001F008860FFF7DAFF4FF00060284908602F
:1003800010BD10B5002100200022214B5B6803F056
:100390000C0121B1042906D0082928D107E0214BFE
:1003A000214C236027E01F4B1F4C236023E0184B98
:1003B0005B6803F47010164B5B6803F48032022311
:1003C00003EB904022B9194B4343174C23600DE0D7
:1003D0000F4B5B6813F4003F04D0144B4343124CA3
:1003E000236003E00F4B43430F4C236003E00D4BAE
:1003F0000D4C236000BF00BF054B5B68C3F30313C4
:100400000B4CE15C084B1B68CB40074C236010BDD4
:1004100000100240002002400000FFF8FFFFF6FE3F
:1004200008ED00E000127A000000002000093D0005
:10043000040000201748806940F0100015498861C9
:100440001548006820F0706013490860084600688D
:1004500040F0407008600846C068C86070472DE9E9
:10046000F04107460C46154600260EE001200B49D8
:100470000860384603F060F800200949C1F8980187
:10048000204603F059F8701CC6B2AE42EEDBBDE860
:10049000F08100000010024000100140980122424B
:1004A000000022422DE9FF4106460F4614461D4634
:1004B0008DF80A6000208DF80B0001208DF80C00EB
:1004C000780140EA543080B2ADF80000E004000C3E
:1004D000ADF802005D2000EA1540ADF804004FF6CB
:1004E000F8702840ADF806000020ADF808000120A3
:1004F0008DF80D00684606F0DCFDBDE8FF8170B5A3
:1005000004462078C000617840EA61156078984917
:1005100001EA4030A17840EA4110E17840EAE10682
:10052000944B324629460020FFF7BCFF70BD10B542
:1005300086B0044690A0006805900121480607F0A7
:1005400040FD0121042007F02FFD8C480068C043C6
:10055000000A8B4948704FF48050ADF8100003201A
:100560008DF8120018208DF8130004A9854807F0B3
:1005700065FA4FF40060ADF8100004208DF8130008
:1005800004A9804807F05AFA7F4806F0EFFC01A85A
:1005900006F010FE00208DF80A008DF80B008DF893
:1005A0000C008DF80D008DF80E008DF80F008DF801
:1005B00006008DF8070007208DF8080006208DF84A
:1005C0000900ADF8044001A96F4806F0E8FC6C484A
:1005D00040788DF8140005A8FFF791FF0022022152
:1005E000694807F078F806B010BD70B586B00446CB
:1005F0002078C0F3801008B1022000E000208DF8C0
:100600000D0020780121B1EBD01F01D1042000E0C2
:1006100000208DF80C00207800F00F008DF80E00FF
:100620006078C000A17840EA611001902079C01084
:10063000E17840EA4110A17840EA4130029000257B
:1006400006E0681D215C0DF10F004155681CC5B224
:10065000207800F00F00A842F3DC01A94A4806F018
:1006600017FE0646042E04D12420FFF760FF06B0D3
:1006700070BD002501E0681CC5B23146424806F055
:10068000B2FE012801D0FF2DF5D1002501E0681C44
:10069000C5B200213C4806F086FF012801DAFF2D93
:1006A000F5D100BFE3E770B505462846FFF79DFF8B
:1006B000002404E0285D35490855601CC4B20D2CA7
:1006C000F8DB40F2E7303249086070BD00212E4867
:1006D0000C30006800F00301012904D0022904D085
:1006E000032906D103E0012070470220FCE7032024
:1006F000FAE70020F8E72DE9F04786B082460C467D
:1007000017462448006800F00F082348006840F2AC
:10071000FF7101EA505920480068154901EAD006E6
:100720004FEAD90020704FF01F0000EA563009F060
:10073000030140EA41106070C6F34710A0704FEA11
:10074000C6604FEA1060E07001AA4FF000010E4849
:1007500006F0A6FE002505E00DF10F00405D78557E
:10076000681CC5B24545F7DB404606B0BDE8F087DA
:10077000FFFF03000000FFFF00010000081401401C
:100780005E00002000080140006400408401002059
:1007900018000020B4650040B0650040FB48806947
:1007A00040F00800F9498861F948006820F0FF002E
:1007B000F74908600846006840F033000860F448D4
:1007C0000830006840F44070F14908310860704713
:1007D00010B5EF48006820F0F000ED4908600846C9
:1007E000006840F0300008600120EA490860EA49EA
:1007F000C1F8A0014FF0040002F07BFE0020E549A3
:1008000008604FF0040002F074FE0020E249C1F8D5
:10081000A00110BD10B5DE48006820F0F000DC49F2
:1008200008600846006840F0300008600020DB499E
:100830000860D949C1F8A4014FF0040002F059FE44
:100840000120D6490860D449C1F8A4014FF0040042
:1008500002F04FFE10BD10B50024CD48006820F016
:10086000F000CB4908600846006840F0800008604E
:100870000120C849086002F03CFE0120C649C1F8C9
:10088000A00102F036FE07E0601CC4B2FA2C03DDC2
:10089000FFF7C0FF012010BDC14800680028F3D158
:1008A000BE49086000BFF6E710B50020BB490860EC
:1008B000B748006820F0F000B549086008460068B5
:1008C00040F0300008604FF00000B349C1F8A401C7
:1008D0004FF0020002F00DFE0120B04908604FF019
:1008E000020002F006FE0020AB49C1F8A00110BDD5
:1008F00010B50020A9490860A548006820F0F00064
:10090000A34908600846006840F0300008604FF0D6
:100910000100A149C1F8A4014FF0020002F0E9FD75
:1009200001209E4908604FF0020002F0E2FD002025
:100930009949C1F8A00110BD70B5044694480068FB
:1009400020F0F000924908600846006840F030004E
:100950000860002091490860054620E0E00903D0C6
:1009600001208C49086002E000208A4908604FEAB3
:1009700044604FEA10644FF0020002F0BAFD01201B
:10098000864908604FF0020002F0B3FD0020824962
:10099000C1F8A001022002F0ACFD681CC5B2082D10
:1009A000DCDB70BD70B5054600247948006820F096
:1009B000F000774908600846006840F08000086051
:1009C000002616E00020754908604FF0020002F092
:1009D00090FD01207049C1F8A0016006040E704826
:1009E000006808B1601CC4B2012002F082FD701CD6
:1009F000C6B2082EE6DB15B9FFF77AFF01E0FFF774
:100A000053FF204670BD00B5FFF7C8FE00BD70B5AE
:100A100004460026FFF7DCFEA020FFF78DFFFFF75E
:100A20001AFF2012FFF788FFFFF715FF2546E11791
:100A300004EB11610912A4EB0121C8B2FFF77CFF9E
:100A4000FFF709FFFFF7C4FEA120FFF775FFFFF7CF
:100A500002FF0020FFF7A6FF0646FFF7DBFE304649
:100A600070BD2DE9F04105460E46002700240CE03C
:100A7000291988B2FFF7CBFF291988B2FFF7C7FF02
:100A8000E10088400743601CC4B2B442F0DB384642
:100A9000BDE8F08170B504460E46FFF799FEA02030
:100AA000FFF74AFFFFF7D7FE2012FFF745FFFFF7DA
:100AB000D2FE2546E11704EB11610912A4EB0121D6
:100AC000C8B2FFF739FFFFF7C6FE3046FFF734FF25
:100AD000FFF7C1FEFFF79EFE0A2002F02DFD70BD5C
:100AE0002DE9F04105460E461746002406E0291977
:100AF00088B23946FFF7CEFF601CC4B2B442F6DBC1
:100B0000BDE8F08170B504460D46E9B2A0B2FFF72A
:100B1000C1FFC5F30721621C90B2FFF7BBFFC5F30D
:100B20000741A21C90B2FFF7B5FF290EE21C90B25C
:100B3000FFF7B0FF70BD2DE9F04105460E461746A0
:100B4000002409E0E20026FA02F2D1B22A1990B29A
:100B5000FFF7A0FF601CC4B2BC42F3DBBDE8F0812C
:100B60002DE9F04107460C460026002509E0360233
:100B70003919491B491E88B2FFF749FF0644681C12
:100B8000C5B2A542F3DB3046BDE8F081001002405B
:100B9000040C0140A481214200802142A081214215
:100BA0002481214210B547F6FF70FFF730FF04465D
:100BB000552C01D1002010BD552147F6FF70FFF7DD
:100BC00069FF47F6FF70FFF722FF0446552C01D15D
:100BD0000020F0E70120EEE770B506460C4615460A
:100BE00008E03046721C96B2FFF711FF04F8010BC3
:100BF000681E85B2002DF4D170BD70B505460C4657
:100C0000164606E021782846FFF744FF681C85B2A7
:100C1000641C3000A6F101018EB2F3D170BD00005A
:100C2000FE48806940F00400FC49886108468069FC
:100C300040F0100088610846806940F040008861FB
:100C4000F74800684FF2F0018843F549086008460C
:100C5000006848F280010843F1490860F1480068E3
:100C600020F0F020EF4908600846006840F080203E
:100C700008600846406820F0FF0048600846406869
:100C800040F088004860E848006820F07F60E6494E
:100C900008600846006840F008600860704710B5BA
:100CA000E248006880B9E248007800280BD10320B0
:100CB00002F042FCDD4800680028F7D10120DC4941
:100CC0000870DC49087088E0DB48006880B9D848C3
:100CD00000780028F7D1032002F02EFCD6480068E7
:100CE00000287AD10120D2490870D449087074E0F4
:100CF000D348006880B9CE48007800286DD1032021
:100D000002F01AFCCE480068002866D10120C849CC
:100D10000870CC49087060E0CB48006880B9C448CE
:100D20000078002859D1032002F006FCC64800686C
:100D3000002852D10120BE490870C44908704CE017
:100D4000C348006880B9BA480078002845D103201C
:100D500002F0F2FBBE48006800283ED10120B449F1
:100D60000870BC49087038E0BB48006870B9B048EA
:100D7000007870BB032002F0DFFBB748006840BB7F
:100D80000120AB490870B549087026E0B4480068F6
:100D900070B9A7480078E0B9032002F0CDFBB04855
:100DA0000068B0B90120A2490870AE49087014E08B
:100DB000AD48006870B99E48007850B9032002F031
:100DC000BBFBA948006820B9012099490870A749D0
:100DD000087002E000209649087010BD10B5FFF7BA
:100DE0005EFF94480078012858D10020914908708E
:100DF0000122C8210846FFF732FB9D4800780228EF
:100E00004CD19C480078082831D19B4800684EF6A8
:100E1000544188420AD9984800684FF224418842D8
:100E200004D249F6607000F02AFD37E0924800686D
:100E300049F6783188420AD98F4800684AF2483129
:100E4000884204D244F6BC5000F019FD26E08A48DE
:100E5000006844F6D411884220D98748006845F2DA
:100E6000A41188421AD2002000F009FD16E0814842
:100E70000078012803D1002000F001FD0EE07D483C
:100E80000078052803D17D4800F0F9FC06E0794898
:100E90000078072802D1002000F0F1FC67480078B4
:100EA000012855D10020654908700122C821084653
:100EB000FFF7D5FA6E480078022849D16D480078CE
:100EC00008282ED16C48006848B16B480068B0F51E
:100ED0007A7F04D244F6BC5000F0D1FC38E066487A
:100EE000006844F6D41188420AD96348006845F284
:100EF000A411884204D249F6607000F0C0FC27E0DB
:100F00005D48006849F67831884221D95A4800681E
:100F10004AF2483188421BD24FF23C0000F0AFFC4D
:100F200016E054480078012803D1554800F0A7FC8A
:100F30000EE050480078052803D1002000F09FFC07
:100F400006E04C480078072802D14E4800F097FC94
:100F50003C48007801281FD100203A4908704A48CF
:100F60000078012818D14948007802280BDA474850
:100F70000078401C45490870084602786421C82062
:100F8000FFF76DFA08E00120404908700846027832
:100F90006421C820FFF763FA2C480078012815D196
:100FA00000202A49087001226421C820FFF757FA5F
:100FB0002F48007850B12E480078401C2C4908700A
:100FC00008460078062801D10220087021480078E0
:100FD000012802D100201F4908702048007801280C
:100FE00075D100201D49087027480078012874D168
:100FF00026480078012852D12549087020480A3037
:1010000000F03DFC234801681F20FFF77BFD012213
:10101000C8210846FFF723FA00203DE000100240F7
:101020000008014000100140001801400C0122425C
:101030002A0000202B000020040121422C00002067
:10104000100121422D000020140123422E00002017
:10105000180123422F0000201C01224230000020F2
:1010600020012242310000202401224232000020CF
:10107000360000205E00002044000020888402002A
:10108000B0AD0100400D0300350000203400002009
:10109000500000209400002000F0F1FB1DE06E489D
:1010A0000078022814D101206C4908706C4800F0C7
:1010B000E6FB6C4801682320FFF724FD0222C821CB
:1010C0000846FFF7CCF9002000F0D9FB05E061E00D
:1010D0000322C8210846FFF7C2F9634800780228B6
:1010E00005D100214FF4486000F0E4F952E05E4879
:1010F0000078032814D15D480078082803D1012026
:1011000000F061FE46E059480078072804D10A2122
:10111000012000F01AFC3DE0022000F03FFD39E024
:101120005148007804280FD10020514908605149E6
:1011300008704FF4FA7002F0FFF901204E49C1F82F
:10114000B4014C49087025E047480078052821D1B2
:101150004A494B4801F00EFD4A490870084600789C
:10116000C0B9474801780020FFF794FC4448417813
:101170000120FFF78FFC424881780220FFF78AFCAC
:101180003F48C1780320FFF785FC0222322164200A
:10119000FFF765F93C48007801284DD100203A4915
:1011A000087031480078022805D101214FF44860C9
:1011B00000F080F940E02C480078032814D12B4837
:1011C0000078082803D1022000F0FDFD34E0274814
:1011D0000078072804D10A21022000F0B6FB2BE09A
:1011E000012000F0DBFC27E01F480078042817D11D
:1011F00002F01DFA22480078FF280BD120484078E1
:10120000FF2807D11E488078FF2803D11C48C078EA
:10121000FF2811D003226421C820FFF720F90BE03A
:1012200011480078052807D110480078012803D11B
:1012300002F023FC02F02BFD14480078012809D1AC
:1012400000201249087008480078022802D10020C6
:1012500000F015FB10BD00003400002050000020FD
:10126000BAAD010094000020360000205E0000208E
:10127000B401224292000020000022426E000020B1
:1012800057000020520000203100002032000020D2
:101290004F48806940F010004D4988614D48006812
:1012A0006FF30B004B4908600846006840F2333189
:1012B0000843484908600846C06840F01C00C86000
:1012C00070474548807810F0040F05D0012043494D
:1012D0000870434908703CE04248007830B101286A
:1012E00010D002281AD0032831D123E0FA203E4939
:1012F00008803E490880002038490870012038499C
:10130000087025E0FA203849088038490880012013
:101310003249087000203249087019E0FA20324939
:1013200008803249088002202C49087000202C498E
:1013300008700DE04FF4FA702B4908802B490880A3
:1013400002202649087000202549087000E000BFEF
:1013500000BF70472348007830B1012810D0022820
:101360001AD0032831D123E0FA201F4908801F49F1
:10137000088000201949087001201949087025E0EB
:10138000FA2019490880194908800120134908707A
:1013900000201349087019E0FA2013490880134906
:1013A000088002200D49087000200D4908700DE0EA
:1013B0004FF4FA700C4908800C4908800220074954
:1013C000087000200649087000E000BF00BF7047A9
:1013D00000100240001001405E000020400000208C
:1013E00041000020920000203C0000203E00002030
:1013F000F948806940F00800F7498861084680692B
:1014000040F0100088610846806940F04000886123
:10141000F2480068C0F31300F0490860084600680D
:10142000EF490843ED490860EE480068EE4908407E
:10143000EC49086008460068EC490843E94908603F
:10144000EB48406820F47020E9494860084640684D
:1014500040F4002048607047F0B504460A4642F266
:1014600010777D10AE102321E2480078082804D1BF
:101470002F464FF4FA65AE108C21BC4202D201EB2C
:10148000810315E0AA4208D201FB02F0B0FBF6F09E
:1014900001EB810CACEB00030AE0601B904201D928
:1014A0000B4605E0A01A281A4843B0FBF6F0431893
:1014B00098B2F0BD2DE9F05F80460F464FBB01208A
:1014C000CD490860CB480078052802D1002008608B
:1014D0004DE0C8480078072809D10120C6490860B6
:1014E000C648D0F80801002841D1BDE8F09FC148A6
:1014F0000078012802D1C049086038E0BD48007872
:10150000082834D1642002F017F80020BA49086096
:101510002DE0012F2BD10020B74908604FF47A6AE3
:10152000B4480078052802D1012008601FE0B148C6
:101530000078072805D10020AF4908604FF47A6A87
:1015400015E0AC480078012805D10020AA490860C0
:101550004FF47A6A0BE0A7480078082807D1642086
:1015600001F0EAFF0120A44908604FF4C87A4FF067
:101570000004A1467EE149464046FFF76DFF8346E1
:1015800001209F4908604FF0020001F0B2FF0020E7
:101590009C49C1F8BC01584601F0ABFF2FB99A48ED
:1015A0000068401C9849086009E0012F07D196485F
:1015B000006820B194480068401E93490860012FDC
:1015C00056D19248006810B90CB9012450E08F48F8
:1015D000006818B9012C01D1022449E08B48006849
:1015E00018B9022C01D1032442E08848006818B9D8
:1015F000032C01D104243BE08448006818B9042C72
:1016000001D1052434E08148006818B9052C01D1C6
:1016100006242DE07D48006818B9062C01D1072466
:1016200026E07A48006818B9072C01D108241FE089
:101630007648006818B9082C01D1092418E07348CD
:10164000006818B9092C01D10A2411E06F4800681C
:1016500040B90A2C06D1FF24A8EB0A096A48C0F851
:1016600000A005E06948006810B1FF2C00D00024FC
:1016700060480078012879D1654800686549097893
:10168000884210D06248006868B96148006850B963
:1016900061480078012806D100205F4908705A4847
:1016A00000685E4908605A48006808B1012000E0FF
:1016B0000020584908705A48804557D1002F55D10D
:1016C0005348006810B90DB901254FE05048006833
:1016D00018B9012D01D1022548E04D48006818B91C
:1016E000022D01D1032541E04948006818B9032DB6
:1016F00001D104253AE04648006818B9042D01D10B
:10170000052533E04248006818B9052D01D10625AA
:101710002CE03F48006818B9062D01D1072525E0C7
:101720003B48006818B9072D01D108251EE038484C
:10173000006818B9082D01D1092517E03448006860
:1017400018B9092D01D10A2510E03148006838B9CF
:101750000A2D05D1FF25A8F5C049A9F5D47905E0E2
:101760002A48006810B1FF2D00D0002521480078DC
:1017700007287DD107BB2B48006810B90EB9012698
:1017800076E02848006818B9012E01D102266FE0E2
:101790002448006818B9022E01D1032668E02148C8
:1017A000006818B9032E01D1042661E01D480068C5
:1017B00018B9042E01D105265AE01A48006818B954
:1017C000052E01D1062653E01648006818B9062EEA
:1017D0002AD107264CE027E000100240040C01400B
:1017E0000000303304180140FFFFF0000000022227
:1017F000001001405E000020B8812142008022429A
:10180000BC81214200802142440000200C0123427F
:10181000008122424C000020500000209400002053
:10182000BAAD010008812242F648006818B9072EB7
:1018300001D108261CE0F348006818B9082E01D130
:10184000092615E0EF48006818B9092E01D10A26CB
:101850000EE0EC48006828B90A2E03D1FF26A8EB59
:101860000A0905E0E748006810B1FF2E00D0002605
:1018700009F10109C145FFF47EAE002035E670B5DF
:101880000446E148844215D1E048006868B101216E
:10189000DD480A38FFF70EFE4FF4FA7001F04CFEF7
:1018A00000212046FFF706FE1DE00021D648FFF785
:1018B00001FE18E0D6480068A0420AD9D448006862
:1018C000051BB5F57A6F0ED901212846FFF7F2FD09
:1018D00009E0CF480068251AB5F57A6F03D90021D1
:1018E0002846FFF7E7FD70BD10B50020C949087014
:1018F000C9480068C949087040F6B830C84908802E
:101900001DE0C548006808B1012000E00020044641
:10191000012C12D100228103C24806F03EF90022B8
:10192000E103C04806F039F900222103BD4806F062
:1019300034F90020BA49088010BDB8480470B8488E
:1019400000880028DDD10120F6E770B504460D4679
:10195000012C7DD1B448006808B9002070BD40F268
:101960008A20B24908800FE001229103AD4806F0B9
:1019700014F900224FF40041AA4806F00EF90122A2
:101980001103A84806F009F9A84800880028EBD1FF
:1019900000224FF48041A34806F0FFF800224FF4E4
:1019A0000041A04806F0F9F8012211039D4806F015
:1019B000F4F84FF4FA7001F0BFFD40F6B8309C49DE
:1019C00008806DE001229103964806F0E6F80022B7
:1019D0004FF40041934806F0E0F8012211039148CA
:1019E00006F0DBF89048006890B900224FF480417F
:1019F0008C4806F0D2F800224FF40041894806F0E6
:101A0000CCF801221103874806F0C7F80020A5E7AB
:101A10004FF48051874806F0A2F8E0B900224FF455
:101A20008041804806F0B9F800224FF400417D481B
:101A300006F0B3F8012211037A4806F0AEF84FF42D
:101A4000FA7001F079FD0A210220FFF77EFF00E025
:101A50002BE0012082E776480088052820DA002262
:101A60004FF480416F4806F098F800224FF400418F
:101A70006C4806F092F8012211036A4806F08DF8CE
:101A80004FF4FA7001F058FD6B48006810B1F02077
:101A90006A4988700A210220FFF757FF01205DE79D
:101AA0006348008800288DD176E0022C74D1644808
:101AB000006808B9002051E740F6B8305C4908805A
:101AC00066E000224FF48041564806F066F8012295
:101AD000D103544806F061F801221103514806F081
:101AE0005CF85748006890B900224FF480414D4897
:101AF00006F053F800224FF400414A4806F04DF832
:101B000001221103474806F048F8002026E74FF469
:101B10008051484806F023F8D0B900224FF48041A4
:101B2000404806F03AF800224FF400413D4806F0E4
:101B300034F8012211033B4806F02FF84FF4FA70F5
:101B400001F0FAFC0A210120FFF7FFFE012005E762
:101B50003748008805281BDA00224FF480413148BD
:101B600006F01BF800224FF400412E4806F015F84D
:101B7000012211032B4806F010F84FF4FA7001F01F
:101B8000DBFC0A210220FFF7E0FE0120E6E603E08D
:101B900027480088002894D10020DFE610B50446CD
:101BA000012C72D12048006808B9002010BD40F611
:101BB000B830244908808AE001229103194805F0D1
:101BC000ECFF00224FF40041164805F0E6FF012229
:101BD0001103144805F0E1FF13480068A0BB002280
:101BE0004FF480410F4805F0D8FF00224FF4004128
:101BF0000C4805F0D2FF012211030A4805F0CDFF81
:101C00000020D3E708812242BAAD01000C01234233
:101C100044000020B1000020100123429000002069
:101C20004E0000200018014014012142380000201D
:101C3000CC000020001001402C0122425E00002058
:101C400018012142BE000020FFE74FF48051FC48FC
:101C500005F085FFD0B900224FF48041F94805F026
:101C60009CFF00224FF40041F64805F096FF012248
:101C70001103F44805F091FF4FF4FA7001F05CFC99
:101C80000220FFF78BFF012090E726E0EE48008856
:101C900005281CDA00224FF48041EA4805F07DFF58
:101CA00000224FF40041E74805F077FF01221103BD
:101CB000E44805F072FF4FF4FA7001F03DFCF020AB
:101CC000E24988700220FFF769FF01206EE7DE48D5
:101CD000008800287FF470AF73E0022C71D1DC48DB
:101CE000006808B9002061E740F6B830D64908809E
:101CF00063E000224FF48041D24805F04EFF0122FC
:101D0000D103D04805F049FF01221103CD4805F069
:101D100044FFCF48006890B900224FF48041C94881
:101D200005F03BFF00224FF40041C64805F035FFA7
:101D300001221103C34805F030FF002036E74FF4BD
:101D40008051BF4805F00BFFC8B900224FF4804115
:101D5000BC4805F022FF00224FF40041B94805F0CD
:101D60001CFF01221103B74805F017FF4FF4FA706A
:101D700001F0E2FB0120FFF711FF012016E7B24856
:101D80000088052819DA00224FF48041AD4805F09B
:101D900004FF00224FF40041AA4805F0FEFE012294
:101DA0001103A84805F0F9FE4FF4FA7001F0C4FBE6
:101DB0000120FFF7F3FE0120F8E6A3480088002881
:101DC00097D10020F2E610B50446A2480068B0F5AD
:101DD000FA7F01D2012010BD012C7DD19E48006800
:101DE00008B90020F7E740F68C709C49088074E041
:101DF00001229103934805F0D0FE00224FF40041E8
:101E0000904805F0CAFE012211038E4805F0C5FE78
:101E100091480068B0B94FF4967001F08DFB002234
:101E20004FF48041874805F0B8FE00224FF400418E
:101E3000844805F0B2FE01221103824805F0ADFE90
:101E40000020C8E74FF480517D4805F088FEF8B9BE
:101E500000224FF480417B4805F09FFE00224FF4A2
:101E60000041784805F099FE01221103754805F0FC
:101E700094FE4FF4FA7001F05FFB0220FFF7A3FF1E
:101E8000F020724988700020754908700120A2E78F
:101E900072480088052820DA00224FF48041694802
:101EA00005F07BFE00224FF40041664805F075FE08
:101EB00001221103634805F070FE4FF4FA7001F03F
:101EC0003BFB0220FFF77FFFF02060498870002075
:101ED0006349087001207EE704E06048008800281C
:101EE00086D178E0022C76D15948006808B90020E4
:101EF00071E741F270705949088068E000224FF4A0
:101F00008041504805F049FE0122D1034D4805F0BB
:101F100044FE012211034B4805F03FFE4C48006887
:101F2000B0B94FF4967001F007FB00224FF48041E6
:101F3000444805F032FE00224FF40041414805F0CC
:101F40002CFE012211033F4805F027FE002042E746
:101F50004FF480513A4805F002FEC8B900224FF410
:101F60008041384805F019FE00224FF40041354801
:101F700005F013FE01221103324805F00EFE4FF466
:101F8000FA7001F0D9FA0120FFF71DFF012022E7C6
:101F90003248008805281ADA00224FF48041294887
:101FA00005F0FBFD00224FF40041264805F0F5FD49
:101FB00001221103234805F0F0FD4FF4FA7001F0FF
:101FC000BBFA0120FFF7FFFE012004E703E02348EE
:101FD0000088002892D10020FDE610B51D48006859
:101FE000B0F5FA7F00D210BD40F68C701B49088016
:101FF00038E001229103134805F0CFFD00224FF491
:102000000041104805F0C9FD012211030D4805F0FB
:10201000C4FD12480088052824DA00224FF48041CC
:10202000084805F0BAFD00224FF40041054805F0CC
:10203000B4FD01221103034805F0AFFDD3E7000012
:102040000010014000180140BE0000205E0000208A
:10205000180121424400002014012142CC0000203C
:1020600092000020024800880028C2D100BFBAE7D1
:10207000CC0000201348806940F0100011498861AD
:102080001148406820F470000F49486008464068D5
:1020900040F4801048600846C06840F40050C860B2
:1020A000704710B50948006850B900200849086019
:1020B0004FF0960001F040FA01200649C1F8B40142
:1020C00010BD00000010024000100140100123422A
:1020D000B40122420000224210B5FE48806940F05F
:1020E0000400FC4988610846806940F0100088615E
:1020F0000846806940F0200088610846806940F009
:1021000040008861F44800680020F34908600846F0
:10211000006840F088300860F0480068C0F31300A1
:10212000EE49086008460068ED490843EB4908603D
:10213000EC48406820F47040EA494860084640682E
:1021400040F400404860E448001F006840F60F710A
:102150008843E149091F08600846006840F6080105
:102160000843DD49091F0860DF48006820F47F202C
:10217000DD4908600846006840F408200860D94836
:10218000406820F47060D74948600846406840F4D1
:10219000407048600846C06840F48060C8604FF4F2
:1021A000FA7001F0C9F910BDCB48001D0068C043AA
:1021B000000ACE4948707047CC48407888B3CB4875
:1021C0004078A02805DBC9484078AA2801DC012016
:1021D0007047C6484078AB2805DBC4484078AF2834
:1021E00001DC0420F4E7C1484078B02805DBBF4893
:1021F0004078BA2801DC0720EAE7BC484078BB28D1
:1022000005DBBA484078BF2801DC0320E0E7B74887
:102210004078C02808DBB5484078CF2804DC062089
:10222000D6E7FFE70020D3E70020D1E700B5FFF7AE
:10223000C3FFAE49087008468078F02800D100BD81
:10224000AA48007800287CD0A8480078092879D2CC
:10225000DFE800F0780578F0EF4C78B4EE00A348A2
:10226000807820F03800A1498870A148006888B9BA
:102270000846807840F0400088700846807820F05A
:10228000800088709B48006878B9F0208870084604
:102290008078D4E79548807840F080009349887032
:1022A0000846807820F0400088709348006830B974
:1022B0008E48807840F001008C49887005E08B489A
:1022C000807820F00100894988708A48006830B918
:1022D0008648807840F002008449887005E0834891
:1022E000807820F002008149887060E280480068B0
:1022F00058B97E48807840F040007C498870084694
:10230000807820F0800088700FE07C4800687C496D
:1023100088420AD97548807840F0800073498870F7
:102320000846807820F04000887076480068B0B990
:102330007548006838B9F0206C4988700846807884
:102340007DE738E232E26948807840F01000674962
:1023500088700846807820F0200088700AE0634882
:10236000807840F02000614988700846807820F02D
:10237000100088706548008841F28731884206DD88
:102380005A48807840F004005849887005E0574862
:10239000807820F00400554988705648006830B9AC
:1023A0005248807840F002005049887005E04F485C
:1023B000807820F002004D498870F8E14C480068B0
:1023C000C8B95348006828B9F020484988700846C1
:1023D000807834E74548807820F040004349887091
:1023E0000846807820F0080088700846807840F021
:1023F0008000887043E046480068E0B93D480068C6
:1024000028B9F020394988700846807817E737489E
:10241000807820F08000354988700846807820F068
:10242000080088700846807840F04000887026E0F8
:10243000C0E08FE0A1E12D48807820F080002B499A
:1024400088700846807820F0400088702B4800682B
:1024500049F6346188420CD22848006849F64C217C
:10246000884206D92148807840F008001F498870CA
:1024700005E01E48807820F008001C49887021483B
:102480000068A0B92048006828B9F0201749887072
:1024900008468078D3E61548807820F0100013496C
:1024A00088700846807840F0200088700DE016485B
:1024B000006850B90D48807820F020000B498870E2
:1024C0000846807840F0100088701048008841F27B
:1024D00087311FE000100240041401400008014051
:1024E0000000808800100140001801405E000020BC
:1024F0000C012342008122421001234244000020AB
:10250000087802001401214218012142CE00002067
:1025100008812242884206DDA848807840F0040005
:10252000A649887005E0A548807820F00400A349FA
:102530008870A348006830B9A048807840F0020055
:102540009E49887005E09D48807820F002009B49F4
:1025500088702CE19948807800F00F0097498870C6
:102560009848006850B90846807840F008008870A4
:102570000846807820F0040088700AE08F48807850
:1025800040F004008D4988700846807820F00800EB
:1025900088708B48006830B98848807840F0020025
:1025A0008649887005E08548807820F002008349DC
:1025B0008870FCE084480068B0F5FA7F0BD27F4851
:1025C000807840F080007D4988700846807820F04F
:1025D0004000887081E07C48006842F21C518842CB
:1025E00016D97948006842F60411884210D273481F
:1025F000807820F04000714988700846807820F08B
:10260000800088700846807840F00800887064E098
:102610006D48006844F6C83188421BD96A48006892
:1026200044F6B071884215D26848006818B9012094
:102630006749087051E00020654908705F4880785C
:1026400040F040005D4988700846807820F08000A6
:10265000887042E05C48006849F66C5188421BD99A
:10266000594800684AF25411884215D25748006808
:1026700018B90120574908702FE00020554908700B
:102680004E48807840F040004C4988700846807879
:1026900020F08000887020E04B4800684EF64861CA
:1026A00088421AD9484800684FF23021884214D233
:1026B0004648006818B901204749087002E0002028
:1026C000454908703D48807840F040003B4988709B
:1026D0000846807820F08000887040480068A0B9E3
:1026E0003F48006828B9F02034498870084680784F
:1026F000A5E53248807820F01000304988700846FF
:10270000807840F0200088700DE03548006850B9AE
:102710002A48807820F02000284988700846807870
:1027200040F0100088702C48007801280ED129480C
:10273000007801280AD126480078012806D11F48D0
:10274000807840F004001D49887005E01B488078BF
:1027500020F00400194988701948006830B91748FA
:10276000807840F002001549887005E013488078B1
:1027700020F002001149887019E01148006850B932
:102780001048006818B903200C4988700DE0022039
:102790000A49887009E00B48006818B90120074908
:1027A000887002E000200549887000E000BF00BF8B
:1027B0000248807843E5F02041E500005E000020FB
:1027C0000081224210012342440000202C012242B9
:1027D000D9000020D8000020D70000201401214299
:1027E000180121427FB505460C460121022005F063
:1027F000E8FBADF80850ADF804400020ADF80A0041
:10280000ADF8060001A9704805F00AFD0122114645
:102810006D4806F07CF81D208DF8000000208DF832
:10282000010003208DF8020001208DF803006846A6
:1028300004F033FB0121644806F04EF87FBD7FB5FC
:1028400005460C460121084605F0BBFBADF80850D3
:10285000ADF804400020ADF80A00ADF8060001A96B
:102860004FF0804005F0DCFC01221146900706F095
:102870004EF81C208DF8000001208DF80100032087
:102880008DF8020001208DF80300684604F005FB76
:102890000121880706F020F87FBD10B501214A48C4
:1028A00006F0E3FA002869D00121474806F0EEFA65
:1028B0004648007800B34648007844490978884281
:1028C00007D042480078401E424908700020424923
:1028D00008803E4800783E4908703E48007858B16C
:1028E0003D480088401C3C49088008460088C828AC
:1028F00003DA01203949086010E037480088B0F554
:10290000FA7F03DA00203549086007E000203249E9
:10291000088030480078401E2E49087030480088F2
:10292000002804DD2E480088401E2D4908802D48CF
:10293000006820B12B480068401E2A4908602A48D8
:10294000008820B128480088401E27490880274871
:10295000008820B125480088401E2449088024486A
:102960000088002804DD22480088401E2049088095
:1029700020480078012802D101F0D7F817E01D485F
:102980000078072803D01B480078052802D102F000
:10299000C9FA0CE017480078042802D102F05BFF66
:1029A00005E014480078082801D103F0B9FC10BDF7
:1029B00010B50121880706F058FA18B101218807DF
:1029C00006F064FA10BD000000040040360000204C
:1029D00033000020680000206600002088012242A9
:1029E00016000020180000206400002028000020AD
:1029F000620000205E00002010B586B00446012170
:102A0000880405F0DEFA0121082005F0CDFAF74828
:102A100006F040FA4FF48060ADF8140003208DF802
:102A2000160018208DF8170005A9F14805F006F8E2
:102A30004FF40060ADF8140004208DF8170005A9CC
:102A4000EB4804F0FBFF01940020ADF80800ADF85E
:102A50000A00ADF80C00ADF810000C20ADF80E0027
:102A600001A9E24806F059FA0121E04806F0E1FA2E
:102A70008021DE4806F0C5FB27208DF800000220EB
:102A80008DF8010003208DF8020001208DF803006D
:102A9000684604F002FA06B010BD002106E00A21E3
:102AA00000BF0A00A1F1010399B2FAD10200A0F11E
:102AB000010398B2F3D1704770B5002603242CE0CF
:102AC0002021CA4806F022FB2820FFF7E6FF20213C
:102AD000C64806F01BFB1E2503E06420FFF7DDFF60
:102AE0006D1E2021C14806F07FFB08B9002DF4D1EE
:102AF00015B9601EC4B210E0BC4806F00BFBC6B2AC
:102B0000062E07D1012240F22551B84806F09DFA61
:102B1000012070BD601EC4B200BF002CD0D10020C7
:102B2000F7E7B448007818B3B3480078401EB24BBA
:102B3000185C032819D118460378C078801D834299
:102B400013D10022002104E0AB48405C4240481C05
:102B5000C1B2A9480078401E8842F5DCFF2A04D1A2
:102B60000020A44B1870012070470020A14B187062
:102B70000020F9E7F0B585B006460F4608208DF82D
:102B8000000002208DF801004D208DF80200022087
:102B90008DF8030000208DF8040052208DF8050008
:102BA0009DF800500021A81E0DF80010002409E037
:102BB000A81E1DF800001DF804104840A91E0DF8BD
:102BC0000100641CA81EA042F2D81DF80000C043FA
:102BD000C1B2A81E0DF800100321681E0DF80010E8
:102BE00000240CE000BF4021804806F0FDFA0128D7
:102BF000F9D11DF804107D4806F088FA641C9DF890
:102C00000000A042EED84FF4FA707C49088003E03F
:102C1000FFF787FF00B103E0784800880028F7D16C
:102C200000BF7648008810B9042005B0F0BD724896
:102C30008078002872D17048C07A30706E48807AEF
:102C400070706D48407AB0706B48007AF07042F254
:102C50001070FFF722FF12208DF8000002208DF87F
:102C6000010046208DF802000C208DF80300602042
:102C70008DF80400F0788DF80500B0788DF8060026
:102C800070788DF8070030788DF80800FF208DF8F7
:102C900009008DF80A008DF80B008DF80C008DF8F6
:102CA0000D008DF80E0008208DF80F009DF80050E3
:102CB0000021A81E0DF80010002409E0A81E1DF830
:102CC00000001DF804104840A91E0DF80100641C06
:102CD000A81EA042F2D81DF80000C043C1B2A81E31
:102CE0000DF800100321681E0DF8001000240CE000
:102CF00000BF40213D4806F077FA0128F9D11DF8C0
:102D000004103A4806F002FA641C9DF80000A04244
:102D1000EED84FF4FA703949088004E08EE0FFF7EE
:102D200000FF00B103E0354800880028F7D100BF5C
:102D30003248008808B9042077E72F4880780028B7
:102D40007AD107208DF8000002208DF8010047207D
:102D50008DF8020001208DF8030008208DF8040092
:102D60009DF800500021A81E0DF80010002409E075
:102D7000A81E1DF800001DF804104840A91E0DF8FB
:102D80000100641CA81EA042F2D81DF80000C04338
:102D9000C1B2A81E0DF800100321681E0DF8001026
:102DA00000240CE000BF4021104806F01DFA012865
:102DB000F9D11DF804100D4806F0A8F9641C9DF81F
:102DC0000000A042EED84FF4FA700C49088003E0EE
:102DD000FFF7A7FE00B103E0084800880028F7D1FC
:102DE00000BF0648008858B904201EE7004800408C
:102DF000000C0140860000208A020020880000208C
:102E0000FE488078B0B900240FE0042000EB4400B5
:102E1000401CFA49085C3038042101EB4401F74AB0
:102E2000515C40EA01103855641C082CEDD3002099
:102E3000FBE601E00320F8E60220F6E60120F4E6D6
:102E400070B5032543E0C820ED49088000BF20216C
:102E5000EC4806F0C9F918B9E94800880028F6DC02
:102E60002021E84806F0CDF9E64806F053F9E64996
:102E70000870E348008810B9681EC5B227E0002436
:102E800020E01420DE49088000BF2021DD4806F044
:102E9000ABF918B9DA4800880028F6DC2021D948B7
:102EA00006F0AFF9D74806F035F9C1B2D64A601C32
:102EB0001154D348008810B9681EC5B200E000BFA5
:102EC000601CC4B2D0480078A042DADC00BF002DFC
:102ED000B9D170BD10B5CD4A10780023821ECB4CFD
:102EE000A354002109E0821EC84B9A5C5B5C5A40E7
:102EF000831EC64CE2544A1CD1B2821E8A42F2DCC6
:102F0000C24B9A5CD243D3B2821EC04CA35403235B
:102F1000421EA35410BD70B505460E4600240CE0B9
:102F200000BF4021B74806F05FF90128F9D1295DBB
:102F3000B44806F0EBF8601CC4B2B442F0DB70BDDC
:102F40002DE9F04706460F4690469946DDE90854BC
:102F50000820AE490870022048704D208870022079
:102F6000C8700020087152204871FFF7B3FF082194
:102F7000A648FFF7D0FFFFF763FFA348807898B912
:102F8000A148C07AA249087020709F48807A487092
:102F900060709D48407A8870A0709B48007AC87025
:102FA000E0700120BDE8F0870020FBE770B5044623
:102FB000002503E00020944948556D1C142DF9DBD1
:102FC00012209249087002204870462088700C2018
:102FD000C870602008718F48C07848718D4880782B
:102FE00088718C484078C8718A48007808722078C7
:102FF000487260788872A078C872E0780873207987
:103000004873607988730820C873FFF763FF7F48AF
:103010000178FFF780FFFFF713FF002503E0002092
:103020007A4948556D1C0F2DF9DB7748807808B92F
:10303000012070BD0020FCE710B588B003241422E5
:10304000754903A806F04AF922E072487349744BA7
:10305000744ACDE9001052210020FFF771FF10B92A
:10306000002008B010BDC4F1030101EB410103AA27
:1030700002EB4100FFF79AFF40B9601EC4B20CB9E1
:103080000020EEE7052000F057FA01E00120E8E714
:10309000002CDAD10020E4E710B5044607205B4994
:1030A000087002204870472088700120C8700846C8
:1030B0000471FFF70FFF55480178FFF72CFFFFF76A
:1030C000BFFE5148807800287ED14F4800793038C3
:1030D000554908704C484079303848704A488079E2
:1030E000303888704848C0793038C8704648007A0F
:1030F000303808714448407A303848714248807A04
:10310000303888714048C07A3038C8713E48007BFA
:10311000303808723C48407B303848723A48807BEF
:10312000303888723848C07B3038C8723648007CE6
:10313000303808733448407C303848733248807CDB
:10314000303888733048C07C3038C87308464078BF
:10315000097840EA0110354908703348C07832498F
:10316000897840EA0110314948702F4840792E494A
:10317000097940EA01102D4988702B48C0792A4905
:10318000897940EA01102949C8702748407A2649C0
:10319000097A40EA0110254908712348C07A22497A
:1031A000897A40EA0110214948711F48407B1E4935
:1031B000097B40EA01101D4988711B48C07B1A49F0
:1031C000897B40EA011000E003E01849C871012042
:1031D00010BD0020FCE710B5044617200B4908700D
:1031E00002204870482088701120C8700846047179
:1031F000052048718871C871087219E08A020020A0
:10320000620000200048004032020020EA01002055
:103210006A00002057000020B493000856000020E8
:1032200055000020530000207A0200206E0000208C
:1032300048728872C872087348738873C8730874B8
:1032400048748874C8740875FFF744FE2C480178E8
:10325000FFF761FEFFF7F4FD2A48807808B90120E6
:1032600010BD0020FCE710B5FFF7E6FE08B900200E
:1032700010BD0A2000F060F90820FFF70DFF08B923
:103280000020F5E70120F3E72DE9F041044625464B
:103290000E4617469C464FEA0C6848EA074848EA3B
:1032A000062848EA0500BDE8F08110B540F2255136
:1032B000154805F0D9FF144805F02CFF1349144AAE
:1032C000127888541248007840B9084600780628D9
:1032D00003DB08460078482800DD10BD0C48007864
:1032E000401C0B490870094800780978884205DCC1
:1032F00001200849087000200549087000BFECE76C
:10330000EA01002032020020004800408A0200202A
:10331000850000208600002010B500F0D1F8FDF7F0
:10332000B7FFFDF787F8FDF77BFCFEF7A3FEFEF77E
:103330005FF8FEF7D1FE4FF41650FFF75DFB00F08B
:1033400027F941F61F410920FFF74CFA41F61F41CA
:1033500040F6C310FFF773FA2420FDF7E8F8FEF7F4
:1033600023FFFDF750FBFDF71DFC48B1032264214C
:10337000C820FDF774F800204C49087000BFFEE734
:10338000FEF754FF0446F02C0BD10020474908708B
:1033900003226421C820FDF762F801E0FDF71EFD5D
:1033A000FCE74348007801280BD041480078072803
:1033B00007D03F480078042803D03D48007808280B
:1033C00012D1FFF779FB28B101226421C820FDF753
:1033D00046F809E002226421C820FDF740F80020E9
:1033E0003249087000BFFEE73248006878BB3220DF
:1033F00000F0A2F82CE001202C4908702E4908703A
:1034000000202E4908602A480078012802D100F0E7
:1034100034FB13E026480078072802D101F036FD7E
:103420000CE023480078082802D102F0BFFE05E036
:103430001F480078052801D101F0D6F800BF1D48CB
:1034400000680028FBD001E0FDF7C8FCFCE703E0C2
:10345000184800680028CED015480078052802D109
:1034600001F0C2F821E012480078072802D101F0EB
:103470000DFD1AE00E480078012802D100F0FDFA97
:1034800013E00B480078042802D102F0A1F90CE007
:1034900007480078032802D103F0B8FA05E0044891
:1034A0000078082801D102F081FE10BD92000020B2
:1034B0005E000020140123423600002088012242D1
:1034C00010B56FF0040003F033FD2D4800682D495E
:1034D000B0FBF1F02C4908700846007800EB400181
:1034E000C1EBC0104FF6FF7101EAC0002749088008
:1034F00010BD0146244A12784A434FF0E0235A6136
:1035000000229A611A46126942F001021A6100BF54
:103510004FF0E022106910F0010F02D010F4803F4C
:10352000F6D04FF0E022126922F001024FF0E023C2
:103530001A6100229A6170470146144A12884A4370
:103540004FF0E0235A6100229A611A46126942F054
:1035500001021A6100BF4FF0E022106910F0010F64
:1035600002D010F4803FF6D04FF0E022126922F032
:1035700001024FF0E0231A6100229A6170470000B7
:103580000000002000127A008A0000208C00002039
:1035900010B54FF4A06003F07BFC10BD012080F358
:1035A000138800BF00BF0748006800F4E0600649C8
:1035B0000843001D03490860BFF3408F00BF00BFF0
:1035C000FEE700000CED00E00000FA0510B541F246
:1035D0008830FE490860FE480078401CFC490870AD
:1035E00008460078002821DDFEF77EF90446012C0C
:1035F0001CD10020F7490870F020F749887081201D
:10360000F64948700121F5488170F3484178F34844
:10361000C1701321017110214171EF488178EF4889
:103620008171401CFCF7E1FF00BFFEE710BD10B543
:10363000EB49EC48FFF79EFA28B10020E949C87031
:10364000887048700870E7480078C0B9E54840784D
:10365000A8B9E448807890B9E248C07878B9FF20EA
:10366000E049C8708870487008700020DC49C87153
:10367000887148710871C87088704870087010BDF2
:1036800070B500240120D8490870D8480068012886
:1036900001D1002070BDD648FEF7F1F84FF4FA7062
:1036A000FFF74AFFD348006808B1012000E000207E
:1036B00005465DB944F0010401226421C820FCF7ED
:1036C000CEFECB480A38FEF7DAF803E024F0010416
:1036D0002020DFE7C5480068012801D1FF20D9E795
:1036E000C5480068C5490968884208D9C2480068C9
:1036F000C3490968884202D244F0200410E0BE4861
:103700000068C0490968884208D9BB480068BE49BA
:103710000968884202D244F0100401E0FF20B9E7B2
:103720002046B7E786B0A7E1FDF758FBB748007819
:103730000028F8D1B64800780028F4D100F0F8FC51
:10374000B4480068B0F52F7F08D0B2480068B0F5E3
:10375000C87F03D0AF480068642807D1AD4800682F
:10376000401EAC490860AC48FCF73FFFAB480088FE
:10377000D0B90B20A9490880FEF758FD0546BD4287
:1037800012D02F46812095494870012193488170BD
:10379000914841789148C170132101711021417104
:1037A0008771401CFCF721FF9D4800689D490978FE
:1037B000884206D09A48006818B941F658309A49AC
:1037C00008809748006808B1012000E00020954972
:1037D00008708648006808B1012000E00020064615
:1037E00092480078B04212D08EB90320FFF7A4FEB1
:1037F0006EB901226421C820FCF731FE8C480068B4
:1038000028B901208B49087000207049086087485A
:1038100006706E48006890B16C48006864280ED24B
:103820007248006830B98248006840B90120814977
:10383000087004E0002065490860654908707D480B
:103840000078012873D100207A4908705F49086028
:10385000FFF716FF0446002067490860212C01D0BD
:10386000112C01D1FFF7E3FE202C61D006DC002CE7
:103870007ED0102C7DD0112C2FD12FE0212C04D004
:10388000FE2C77D0FF2CF7D1E9E059480A38FDF734
:10389000F6FF01226421C820FCF7E1FD00204C491D
:1038A0000870504800788DF804004E4840788DF834
:1038B00005004C4880788DF806004A48C0788DF89D
:1038C000070001208DF80800052301AA0121084600
:1038D00000F0BEFC00203E490870CCE044480A38A5
:1038E000FDF7CDFF01226421C820FCF7B8FD0020C0
:1038F000374908703B4800788DF804003948407813
:103900008DF80500374880788DF806003548C07876
:103910008DF8070000208DF80800052301AA012179
:10392000084600F095FC002029490870A3E0A3E0B8
:1039300002226421C820FCF792FD0020FDF79FFFC2
:10394000FDF7D2FF0446012C20D100202149087048
:10395000F0202149887081202049487001211F48AA
:1039600081701D4841781D48C1701321017102E02A
:103970006FE00CE07EE01021417117488178174814
:103980008171401CFCF731FE00BFFEE773E00222AC
:103990006421C820FCF763FD0020FDF770FFFDF7F0
:1039A000A3FF0446012C53D100200A490870F020DF
:1039B00009498870812009494870012107488170B0
:1039C000054841780548C170132135E0B400002056
:1039D000B1000020920000205E00002018010020AD
:1039E0006E000020570000205000002010012342EC
:1039F000BAAD01000881224294000020A0000020FE
:103A00009C000020AC000020A80000203600002010
:103A100035000020180000208401002064000020F0
:103A20002C01224291000020BA00002090000020CA
:103A30000C012342B0000020017110214171CC48DB
:103A40008178CC488171401CFCF7CFFD00BFFEE7B8
:103A500011E003226421C820FCF701FD0BE00422E1
:103A60006421C820FCF7FBFC0020FDF708FFFFF7EE
:103A7000ADFD00E000BF00BF56E610B504211F20D9
:103A8000FCF7EFFFBC49086004212320FCF7E9FFA5
:103A9000BA490860B848006800F5AF50B8490860F6
:103AA000B5480068A0F5AF50B6490860B348006853
:103AB00000F5AF50B4490860B0480068A0F5AF50B9
:103AC000B2490860B2480068A0B93220FFF734FD5F
:103AD0000CE000BFAE4800680028FBD04FF00100AA
:103AE000AC49087001E0FDF779F9FCE7A8480068E7
:103AF0000028EED0A8480068012804D10121A74879
:103B0000FDF7D8FC0DE0002144F62060FDF7D2FC63
:103B10004FF4FA70FFF710FD012145F2F050FDF768
:103B2000C9FC01209E49087010BD10B59D48007861
:103B3000002862D19C480068C0B397480068A8BBC1
:103B40009A48008800281ADD98480088401E974946
:103B500008800020964908604FF001024FF4804130
:103B6000944804F01AF800224FF40041914804F000
:103B700014F8012211038F4804F00FF83DE00120F2
:103B80008B4908604FF000024FF48041894804F0EF
:103B900004F800224FF40041864803F0FEFF0022A3
:103BA0004FF48051834803F0F8FF26E0FFE7824896
:103BB000008880B1012291037E4803F0EEFF0022CD
:103BC0004FF400417B4803F0E8FF012211037948DC
:103BD00003F0E3FF11E000224FF48041754803F049
:103BE000DCFF00224FF40041724803F0D6FF0022B0
:103BF0004FF480516F4803F0D0FFFDF762FB6F4830
:103C00000088401C6D490880084600886C49098876
:103C100088420ADA6B48007818B900206A490860BF
:103C20001AE001206849086016E065480088674985
:103C3000098808446149098888420ADD614800789A
:103C4000012802D16049086006E000205E49086052
:103C500002E00020594908805D48007818B900202A
:103C60005C49086002E001205A4908605248008817
:103C700020B151480088401E4F49088056480068CE
:103C800020B155480068401E5349086010BD10B56A
:103C9000012044490870002467E00122910345484F
:103CA00003F07BFF00224FF40041424803F075FF10
:103CB000012211033F4803F070FF00BF3A4800683B
:103CC0000128FBD00520FFF737FC00224FF480418C
:103CD000384803F062FF00224FF40041354803F0FA
:103CE0005CFF00224FF48051324803F056FF2B480E
:103CF000FDF7C5FD4FF47A70FFF71EFC0020FDF7BD
:103D0000BEFD4FF47A70FFF717FC00224FF480419C
:103D1000284803F042FF0122D103264803F03DFF6B
:103D200001221103234803F038FF00BF2B4800682D
:103D30000128FBD00520FFF7FFFB00224FF4804154
:103D40001C4803F02AFF00224FF40041194803F0F9
:103D500024FF00224FF48051164803F01EFF4FF459
:103D60007A70FFF7E9FB601CC4B2322C95DB10BD02
:103D70005E0000201801002098000020A400002010
:103D80009C000020A0000020A8000020AC00002023
:103D900010012142350000200C012342B0AD01008A
:103DA00092000020BD00002010012342BA00002034
:103DB000B4012242001801404E0000203A000020C9
:103DC0003C00002040000020840122423E000020F0
:103DD0004100002080012242B40000202C01224238
:103DE00070B50026FC4890F82C50002407E0FA48F3
:103DF0002930611C405C3044C6B2601CC4B2E81C6F
:103E00008442F4DBF4482930291D405CB0426ED175
:103E1000F14890F829004028F9D1EF4890F82A009D
:103E2000F728F4D1EC4890F82B00F728EFD1EA48B6
:103E300090F82C0005285ADBE74890F82D0010F088
:103E4000800F54D0E44890F82E00E4494978884225
:103E500004D0E14890F82E000228D8D1DE4890F82E
:103E6000300000F010001028D1D1DB4890F82F006E
:103E70000128CCD1D84890F8300010F0030006D0CB
:103E8000012812D002287CD003280DD13DE1D24870
:103E900090F83200012807D10020D1490880012282
:103EA0001E210846FCF7DBFA40E1CB4890F83100D0
:103EB000C010192840D2DFE800F03F0D40689C3F59
:103EC0003F3F3F3FB7BA3F3FB63F3F3F9DBBBCBDC3
:103ED000BEBFF200C148007801282DD1BE4890F83D
:103EE0003200802804D1BF48FDF7C9FC08E01EE17C
:103EF000B94890F83200402802D10020FDF7BFFCFD
:103F0000FEF794F98320B44948700121B2488170CA
:103F1000B2484178B048C170112101710821417146
:103F2000AE48807800F0F701AB4881710021C17183
:103F30000172401CFCF759FBDAE0FEF777F98720A5
:103F4000A54948700121A4488170A4484178A2483D
:103F5000C1701121017110214171A048807800F0D9
:103F6000F7019D4881714121C171442101725321A2
:103F70004172432181723121C17230210173401C91
:103F800000E0B7E0FCF731FBB2E0812092494870D5
:103F9000012191488170914841788F48C170112169
:103FA00001711821417101218171401CFCF71DFB39
:103FB000894890F8320080B98B48006838B90020F1
:103FC000FDF75DFC4EF660208849086005E00120A1
:103FD000874908700020854908607F4890F83200C2
:103FE000012805D10020834908700120804908700C
:103FF0007EE07DE086207849487001217648817016
:10400000764841787448C170112101719021417145
:1040100000218171C171017241728172C172401CB3
:10402000FCF7E3FA64E063E0FFF7B8FA60E05FE012
:104030005EE05DE05CE05BE088206749487001215C
:1040400065488170654841786348C17011210171EC
:10405000B8214171684801785F48817166484178AC
:104060005D48C171644881785B4801726248C178DB
:104070005948417260480179574881725E484179D8
:104080005548C1725C488179534801735A48C179D7
:1040900051484173401CFCF7A8FA29E0FFE74E485D
:1040A00090F83200554908704B4890F83300544955
:1040B000087081204849487001214748817047486D
:1040C00041784548C17011210171C0214171012120
:1040D0008171401CFCF789FA3F4890F8340018B908
:1040E00003204349087002E002204149087000BFE4
:1040F00000BF1BE0384890F83100C010082802D1FA
:10410000FFF74CFA00BF00BF10E000203D490860F7
:10411000314890F83100C010022805D100203A49FA
:1041200008803A49087000BF00BF00BF00BF70BDE3
:10413000FEB5002000900190FCF7C8FA00284AD094
:104140006A4602A90020FCF7D6FA0546402022491B
:1041500081F82900F721204880F82A1080F82B10D8
:10416000681DC1B21C4880F82C1005F18000C1B256
:10417000194880F82D109DF8081080F82E109DF831
:10418000091080F82F109DF80A1080F830109DF863
:104190000B1080F8311090F82E00104949788842B1
:1041A00004D00D4890F82E00022847D1002408E0E2
:1041B0001DF8042004F10900074929310A54601C44
:1041C000C4B2AC42F4DB002205F1090002492931F6
:1041D0000A5400242BE03AE0180100205E00002081
:1041E00028000020B0AD010010012342B4000020DF
:1041F00092000020B10000206E0000202500002069
:1042000026000020180000201600002014000020C6
:1042100005F1090039490A5C0846611C405C1044FC
:10422000C2B205F1090035490A54601CC4B205F157
:1042300008008442ECDBFFF7D3FD08E0002604E031
:1042400000212E480155701CC6B2082EF8DBFEBDB9
:104250002DE9F04106460F4690461D4640F2DC50DF
:104260002749088043E026480088A0F5A061DC3992
:1042700009D023480088B0F57A7F04D02048008810
:10428000B0F5FA7F27D11E480088401E1C490880DF
:1042900045F0800019492939487008468770194847
:1042A000417816482938C17010210171F006010EBD
:1042B000124829384171002407E018F80420601DD5
:1042C0000E4928390A54601CC4B2AC42F5DB0B48D5
:1042D0002838FCF78AF9FFF72BFF094800880128E6
:1042E00005D10020064908800120BDE8F08104487E
:1042F00000880028B7D100BFF7E700004101002087
:10430000280000205E0000206DE1FCF767FDD54825
:1043100000780028F8D1D44800780028F4D100F0C3
:104320005CFBD2480068B0F52F7F08D0CF4800680A
:10433000B0F5C87F03D0CD480068642807D1CB48CA
:104340000068401EC9490860C948FCF74EF9C948D1
:104350000088D0B90B20C7490880FDF767FF0446E5
:10436000B44212D026468120C34948700121C24878
:104370008170C2484178C048C17013210171102179
:1043800041718671401CFCF730F9BD480078012866
:10439000BAD10020BA490870BA4800780128B3D1D0
:1043A000B949BA48FEF7E6FB0546002DACD1B74F38
:1043B000FB78BA7879783878FEF766FFB4490860F8
:1043C000B44800680968884228D1B348007880B9A9
:1043D000B1480078401CB049087042F21070AF49F3
:1043E0000880FDF75EFE0122C8210846FCF737F879
:1043F000F9E0A9480078012886D1A7480078401C38
:10440000A549087042F21070A4490880FDF749FEE2
:104410000222C8210846FCF722F8E4E09E48007812
:1044200000287DD09C48007802282AD19A4800783C
:10443000401C99490870954801780420FCF72AFB34
:10444000924841780520FCF725FB904881780620AA
:10445000FCF720FB8D48C1780720FCF71BFB0121EE
:104460001E20FCF717FB8A4800688A494860012231
:10447000C8210846FBF7F3FF42F210708749088015
:10448000B1E08548007803282AD183480078401C91
:10449000814908707D4801780820FCF7FBFA7B48C9
:1044A00041780920FCF7F6FA784881780A20FCF771
:1044B000F1FA7648C1780B20FCF7ECFA02211E20B5
:1044C000FCF7E8FA72480068724988600222C82145
:1044D0000846FBF7C4FF42F210707049088082E082
:1044E0006D48007804282CD16B480078401C6A493C
:1044F0000870664801780C20FCF7CCFA63484178D4
:104500000D20FCF7C7FA614881780E20FCF7C2FA4B
:104510005E48C1780F20FCF7BDFA03211E2000E0A1
:104520003CE0FCF7B7FA5A4800685A49C8600322D1
:10453000C8210846FBF793FF42F2107057490880E4
:1045400051E05548007805284DD1002052490870A7
:104550004E4801781020FCF79DFA4C484178112014
:10456000FCF798FA494881781220FCF793FA4748FB
:10457000C1781320FCF78EFA04211E20FCF78AFA7A
:1045800043480068434908610422C8210846FBF7F4
:1045900066FF42F210704149088024E03D484068BF
:1045A0003B490968884211D03A488068384909680F
:1045B00088420BD03748C06835490968884205D021
:1045C0003448006932490968884207D10122C8216C
:1045D0000846FBF744FFFDF764FD04E00322C82111
:1045E0000846FBF73CFF90E610B504210020FCF7DD
:1045F00038FA2849086004210846FCF732FA2549B0
:10460000486004210820FCF72CFA22498860042124
:104610000C20FCF726FA1F49C86004211020FCF783
:1046200020FA1C4908610120FDF7B8FA1C4800680F
:10463000012804D101211B48FCF73CFF0DE00021BB
:1046400044F62060FCF736FF4FF4FA70FEF774FF73
:10465000012145F2F050FCF72DFF012009490870B7
:1046600010BD00003600002035000020180000209A
:104670008401002064000020180100205E0000205A
:10468000C6000020920000206E000020570000208D
:10469000C8000020D4020020C2000020C400002076
:1046A0000C012342400D030070B50026FE4890F82F
:1046B0002C50002407E0FC482930611C405C304449
:1046C000C6B2601CC4B2E81C8442F4DBF648293050
:1046D000291D405CB0427DD1F34890F82900402864
:1046E000F9D1F14890F82A00F728F4D1EE4890F873
:1046F0002B00F728EFD1EC4890F82C00052869DB57
:10470000E94890F82D0010F0800F63D0E64890F84B
:104710002E00E6494978884204D0E34890F82E00FC
:104720000228D8D1E04890F8300000F0100010289E
:10473000D1D1DD4890F82F000128CCD1DA4890F88B
:10474000300010F0030006D0012812D002287DD0DE
:1047500003280DD12EE1D44890F83200012807D16A
:104760000020D349088001221E210846FBF777FE6E
:1047700031E1CD4890F83100C01019284FD2DFE860
:1047800000F04E0D4F778E4E4E4E4E4EA9AC4E4E13
:10479000A84E4E4E8FADAEAFB0B1E3008320C249FC
:1047A00048700121C0488170C0484178BE48C1703E
:1047B0001121017108214171BC48807800F0F70196
:1047C000B94881710021C1710172401CFBF70DFFD6
:1047D000B54800E000E190F83200802803D1B548E8
:1047E000FDF74DF819E0B04890F83200402803D1A9
:1047F0000020FDF744F810E0AB4890F83200202884
:1048000003D10220FDF7CAF907E0A74890F832006B
:10481000102802D10120FDF7C1F9FDF707FDBCE02A
:10482000FDF704FD8720A049487001219E48817052
:104830009E4841789C48C17011210171102141713D
:104840009A48807800F0F701974800E0A7E081716E
:104850004121C1714521017253214172412181726F
:104860003121C17230210173401CFBF7BEFE94E080
:1048700081208D49487001218B4881708B48417897
:104880008948C17011210171182141710121817183
:10489000401CFBF7AAFE0120874908707DE07CE000
:1048A00086208149487001217F4881707F48417886
:1048B0007D48C170112101719021417100218171E8
:1048C000C171017241728172C172401CFBF78DFE91
:1048D00063E062E0FEF762FE5FE05EE05DE05CE008
:1048E0005BE05AE088207049487001216E48817071
:1048F0006E4841786C48C17011210171B821417135
:104900006E480178684881716C4841786648C17189
:104910006A488178644801726848C1786248417287
:104920006648017960488172644841795E48C17285
:10493000624881795C4801736048C1795A48417383
:10494000401CFBF752FE28E0574890F832005C49C3
:104950000870554890F833005A4908708120524930
:104960004870012150488170504841784E48C170CC
:1049700011210171C021417101218171401CFBF79E
:1049800034FE494890F8340018B903204A490870A9
:1049900002E002204849087000BF00BF1BE0424807
:1049A00090F83100C010082802D1FEF7F7FD00BFD3
:1049B00000BF10E00020444908603B4890F83100F7
:1049C000C010022805D100204049088040490870E5
:1049D00000BF00BF00BF00BF70BDFEB5002000904B
:1049E0000190FBF773FE002874D06A4602A90020EC
:1049F000FBF781FE054640202B4981F82900F7216D
:104A0000294880F82A1080F82B10681DC1B226486A
:104A100080F82C1005F18000C1B2234880F82D10D9
:104A20009DF8081080F82E109DF8091080F82F10BE
:104A30009DF80A1080F830109DF80B1080F83110A6
:104A400090F82E0019494978884204D0164890F809
:104A50002E00022844D1002408E01DF8042004F1AF
:104A60000900114929310A54601CC4B2AC42F4DB7C
:104A7000002205F109000C4929310A54002410E0F4
:104A800005F10900084929310A5C0846611C405CAF
:104A90001044C2B205F10900034929310A54601CCF
:104AA000C4B205F1080016E0180100205E000020E5
:104AB0002800002088840200920000206E00002060
:104AC00025000020260000201800002016000020ED
:104AD000140000200DE08442D2DBFFF7E5FD08E082
:104AE000002604E000212E480155701CC6B2082E95
:104AF000F8DBFEBD2DE9F04106460F4690461D4607
:104B000040F2DC502749088043E026480088A0F5A1
:104B1000A061DC3909D023480088B0F57A7F04D041
:104B200020480088B0F5FA7F27D11E480088401E33
:104B30001C49088045F08000194929394870084609
:104B400087701948417816482938C17010210171C1
:104B5000F006010E124829384171002407E018F8C8
:104B60000420601D0E4928390A54601CC4B2AC42AE
:104B7000F5DB0B482838FBF738FDFFF72EFF094817
:104B80000088012805D10020064908800120BDE8E1
:104B9000F081044800880028B7D100BFF7E7000083
:104BA00041010020280000205E0000206DE1FCF79C
:104BB00015F9F74800780028F8D1F6480078002861
:104BC000F4D100F022FCF4480068B0F52F7F08D043
:104BD000F1480068B0F5C87F03D0EF48006864284A
:104BE00007D1ED480068401EEB490860EB48FBF731
:104BF000FCFCEB480088D0B90B20E9490880FDF7A0
:104C000015FB0446B44212D026468120E54948707F
:104C10000121E4488170E4484178E248C1701321E1
:104C20000171102141718671401CFBF7DEFCDF48E9
:104C300000780128BAD10020DC490870DC480078EF
:104C40000128B3D1DB49DC48FDF794FF0546002D70
:104C5000ACD1D94FFB78BA7879783878FEF714FB65
:104C6000D6490860D64800680968884228D1D548E6
:104C7000007880B9D3480078401CD249087042F2CD
:104C80001070D1490880FDF70CFA0122C8210846AE
:104C9000FBF7E5FBF9E0CB480078012886D1C9484D
:104CA0000078401CC749087042F21070C64908805D
:104CB000FDF7F7F90222C8210846FBF7D0FBE4E034
:104CC000C048007800287DD0BE48007802282AD14C
:104CD000BC480078401CBB490870B74801780420E4
:104CE000FBF7D8FEB44841780520FBF7D3FEB24865
:104CF00081780620FBF7CEFEAF48C1780720FBF78E
:104D0000C9FE01211E20FBF7C5FEAC480068AC4976
:104D100048600122C8210846FBF7A1FB42F210704F
:104D2000A9490880B1E0A748007803282AD1A548FE
:104D30000078401CA34908709F4801780820FBF7C1
:104D4000A9FE9D4841780920FBF7A4FE9A48817886
:104D50000A20FBF79FFE9848C1780B20FBF79AFECC
:104D600002211E20FBF796FE944800689449886053
:104D70000222C8210846FBF772FB42F210709249EA
:104D8000088082E08F48007804282CD18D48007874
:104D9000401C8C490870884801780C20FBF77AFE8B
:104DA000854841780D20FBF775FE834881780E20F9
:104DB000FBF770FE8048C1780F20FBF76BFE0321E4
:104DC0001E2000E03CE0FBF765FE7C4800687C4963
:104DD000C8600322C8210846FBF741FB42F210706D
:104DE0007949088051E07748007805284DD10020A6
:104DF00074490870704801781020FBF74BFE6E482C
:104E000041781120FBF746FE6B4881781220FBF7B2
:104E100041FE6948C1781320FBF73CFE04211E20A7
:104E2000FBF738FE65480068654908610422C8211F
:104E30000846FBF714FB42F210706349088024E037
:104E40005F4840685D490968884211D05C488068C5
:104E50005A49096888420BD05948C06857490968BF
:104E6000884205D05648006954490968884207D1EC
:104E70000122C8210846FBF7F2FAFDF712F904E017
:104E80000322C8210846FBF7EAFA90E610B5042190
:104E90000020FBF7E6FD4A49086004210846FBF7BD
:104EA000E0FD4749486004210820FBF7DAFD44494A
:104EB000886004210C20FBF7D4FD4149C86004211F
:104EC0001020FBF7CEFD3E4908613148007828BB31
:104ED0003E48006858B164210120FCF736FD4FF4CC
:104EE0007A70FEF729FB64210220FCF72EFD38487A
:104EF0000068012804D101213648FCF7DBFA0DE0F7
:104F0000002144F62060FCF7D5FA4FF4FA70FEF762
:104F100013FB012145F2F050FCF7CCFA01202449A3
:104F2000087010BD10B52C48008820B12A480088B0
:104F3000401E294908802948008820B12748008858
:104F4000401E264908802648008820B12448008851
:104F5000401E2349088023480088401C21490880BE
:104F600008460088FA2804D10020088001200F4953
:104F700008701D480068D8BB1C48008841F2883181
:104F8000884239DA19480088401C1849088033E003
:104F90003600002035000020180000208401002089
:104FA00064000020180100205E000020C6000020E0
:104FB000920000206E00002057000020C800002052
:104FC000D4020020C2000020C400002018012142A9
:104FD0000C012342400D0300CC00002038000020CB
:104FE000BE000020C00000202C012242CE00002084
:104FF000FFE70020284908802848008820B127487A
:105000000088401E2549088024480088002808DDC3
:1050100022480088052804DA002020490880204919
:105020000870FCF74EF91F480088401C1D49088095
:10503000084600881C49098888420ADA1B4800781B
:1050400018B900201A4908601AE0012018490860C0
:1050500016E015480088174909880844114909884D
:1050600088420ADD11480078012802D11049086001
:1050700006E000200E49086002E00020094908808F
:105080000D48007818B900200C49086002E00120A2
:105090000A49086010BD0000CE000020C4000020B6
:1050A000C20000203A0000203C0000204000002008
:1050B000840122423E000020410000208001224263
:1050C00070B50026FA4890F82C50002407E0F84804
:1050D0002930611C405C3044C6B2601CC4B2E81C7C
:1050E0008442F4DBF2482930291D405CB0427DD176
:1050F000EF4890F829004028F9D1ED4890F82A00AF
:10510000F728F4D1EA4890F82B00F728EFD1E848C7
:1051100090F82C00052869DBE54890F82D0010F088
:10512000800F63D0E24890F82E00E2494978884227
:1051300004D0DF4890F82E000228D8D1DC4890F83F
:10514000300000F010001028D1D1D94890F82F007D
:105150000128CCD1D64890F8300010F0030006D0DA
:10516000012812D0022873D003280DD13AE1D0488B
:1051700090F83200012807D10020CF490880012291
:105180001E210846FBF76BF93DE1C94890F8310054
:10519000C01019285BD2DFE800F05A0D5C82995AE2
:1051A0005A5A5A5AB4B75A5AB35A5A5A9AB8B9BAF2
:1051B000BBBCEF008320BE4948700121BC48817010
:1051C000BC484178BA48C170112101710821417170
:1051D000B848807800F0F701B54881710021C171AD
:1051E0000172401CFBF701FAB14800E00CE190F8B5
:1051F0003200802803D10020FCF741FB25E0AC48B9
:1052000090F83200402803D1AC48FCF738FB1CE092
:10521000A74890F83200202804D164210120FCF72F
:1052200094FB12E0A24890F83200102804D16421C7
:105230000220FCF78AFB08E09D4890F8320008281D
:1052400003D149F64040FCF71AFBFCF7EFFFBCE046
:10525000BDE0FCF7EBFF8720954948700121944899
:105260008170944841789248C170112101711021D8
:1052700041719048807800F0F7018D48817141219B
:10528000C171452101725321417244218172312142
:10529000C17230210173401CFBF7A7F995E0812012
:1052A0008349487001218248817082484178804852
:1052B000C170112101711821417101218171401CBE
:1052C000FBF793F901207E4908707EE07DE086209F
:1052D0007749487001217648817076484178744852
:1052E000C170112101719021417100218171C17141
:1052F000017241728172C172401CFBF776F964E061
:1053000063E0FEF74BF960E05FE05EE05DE05CE0EB
:105310005BE08820664948700121654881706548D6
:1053200041786348C17011210171B821417165480C
:1053300001785F488171634841785D48C171614877
:1053400081785B4801725F48C178594841725D4875
:105350000179574881725B4841795548C172594873
:105360008179534801735748C17951484173401CB2
:10537000FBF73BF929E0FFE74D4890F8320052492E
:1053800008704B4890F83300504908708120484914
:105390004870012146488170464841784448C170B0
:1053A00011210171C021417101218171401CFBF764
:1053B0001CF93F4890F8340018B9032040490870A0
:1053C00002E002203E49087000BF00BF1BE03848E1
:1053D00090F83100C010082802D1FEF7DFF800BFB6
:1053E00000BF10E000203A490860314890F83100D1
:1053F000C010022805D100203649088036490870BF
:1054000000BF00BF00BF00BF70BDFEB50020009010
:105410000190FBF75BF900287FD06A4602A90020C3
:10542000FBF769F905464020214981F82900F72159
:105430001F4880F82A1080F82B10681DC1B21C4844
:1054400080F82C1005F18000C1B2194880F82D10A9
:105450009DF8081080F82E109DF8091080F82F1084
:105460009DF80A1080F830109DF80B1080F831106C
:1054700090F82E000F494978884204D00C4890F8E3
:105480002E00022840D1002408E01DF8042004F179
:105490000900074929310A54601CC4B2AC42F4DB4C
:1054A000002205F10900024929310A54002424E0B0
:1054B000180100205E00002028000020400D03009D
:1054C000920000206E000020250000202600002011
:1054D00018000020160000201400002005F109002B
:1054E00039490A5C0846611C405C1044C2B205F1AF
:1054F000090035490A54601CC4B205F10800844211
:10550000ECDBFFF7DDFD08E0002604E000212E487B
:105510000155701CC6B2082EF8DBFEBD2DE9F04126
:1055200006460F4690461D4640F2DC50274908804B
:1055300043E026480088A0F5A061DC3909D0234863
:105540000088B0F57A7F04D020480088B0F5FA7F53
:1055500027D11E480088401E1C49088045F0800065
:105560001949293948700846877019484178164802
:105570002938C17010210171F006010E1248293836
:105580004171002407E018F80420601D0E492839F5
:105590000A54601CC4B2AC42F5DB0B482838FBF758
:1055A00024F8FFF732FF09480088012805D10020C0
:1055B000064908800120BDE8F081044800880028E1
:1055C000B7D100BFF7E7000041010020280000200C
:1055D0005E00002010B5BE48006808B1012000E060
:1055E00000200446BB480078A04205D024B901221F
:1055F0006421C820FAF733FF012C0ED10022A10349
:10560000B54802F0CAFA0022E103B34802F0C5FA35
:1056100001221103B04802F0C0FAAE48047010BD78
:1056200000B585B0AD48007801287ED10020AB4997
:105630000870A7480068002852D1A94800680028CF
:1056400048D101229103A44802F0A7FA00224FF4A6
:105650000041A14802F0A1FA012211039E4802F084
:105660009CFAFDF7E4FF9F480068C8B99E4800789F
:105670008DF800009C4840788DF801009A488078A9
:105680008DF802009848C0788DF8030001208DF84D
:10569000040005236A460121084600F07BFB44E034
:1056A000914800788DF800008F4840788DF801000F
:1056B0008D4880788DF802008B48C0788DF8030003
:1056C00000208DF8040005236A460121084600F0F9
:1056D00061FB2AE002226421C820FAF7C0FE24E020
:1056E00080480068E0B9002080490870F0208049B7
:1056F000887081207F49487001217E4881707C48F4
:1057000041787C48C17013210171102141717848A2
:10571000817878488171401CFAF767FF00BFFEE787
:1057200002226421C820FAF79AFE73480078012803
:105730000ED10020704908706C480078012802D111
:10574000FCF7AFFC04E002226421C820FAF787FED0
:1057500005B000BD3BE0FBF741FB00F090FA674865
:105760000068B0F52F7F08D064480068B0F5C87FA6
:1057700003D062480068642807D160480068401E72
:105780005E4908605E48FAF730FF5E480088D0B98D
:105790000B205C490880FCF749FD0446AC4212D05E
:1057A0002546812053494870012152488170504854
:1057B00041785048C17013210171102141718571E8
:1057C000401CFAF712FFFFF72BFFFFF703FFC2E7BA
:1057D0004748807840F01000454988700846807836
:1057E00020F0200088700846807840F040008870E3
:1057F0000846807820F08000887001203B490870BE
:10580000704741480068B0B940480088401C3F4993
:10581000088008460088B0F57A7F02D101202F4920
:1058200008703A480088B0F57A7F13DD40F2E9301D
:10583000364908800EE035480088002807DD3348E7
:105840000088B0F57A7F02DA01202B490870002029
:105850002E490880704710B5FBF77CFD2C48008866
:10586000401C2B490880084600882A49098888423C
:105870000ADA2948007818B90020284908601AE097
:1058800001202649086016E022480088244909883A
:1058900008441F49098888420ADD1F48007801280A
:1058A00002D11E49086006E000201C49086002E0A1
:1058B0000020174908801B48007818B900201A49B1
:1058C000086002E0012018490860FFF79AFF10BD48
:1058D00000812242D000002000180140D1000020A9
:1058E000100123420C0123425700002092000020A7
:1058F0005E00002018010020D200002018000020C7
:10590000840100206400002008812242D40000208D
:105910003A0000203C000020400000208401224288
:105920003E000020410000208001224270B5002688
:10593000FC4890F82C50002407E0FA482930611CFC
:10594000405C3044C6B2601CC4B2E81C8442F4DB44
:10595000F4482930291D405CB0427DD1F14890F8CF
:1059600029004028F9D1EF4890F82A00F728F4D10F
:10597000EC4890F82B00F728EFD1EA4890F82C007B
:10598000052869DBE74890F82D0010F0800F63D000
:10599000E44890F82E00E4494978884204D0E14870
:1059A00090F82E000228D8D1DE4890F8300000F0A0
:1059B00010001028D1D1DB4890F82F000128CCD15D
:1059C000D84890F8300010F0030006D0012812D01B
:1059D00002287DD003280DD13EE1D24890F8320054
:1059E000012807D10020D149088001221E21084644
:1059F000FAF735FD41E1CB4890F83100C010192885
:105A000046D2DFE800F0450D466C9D4545454545CD
:105A1000B8BB4545B74545459EBCBDBEBFC0F300BC
:105A20008320C04948700121BE488170BE4841783A
:105A3000BC48C1701121017108214171BA488178B7
:105A4000B84881710021C1710172401CFAF7CDFD87
:105A5000B44890F8320000E010E1042806D1B448C0
:105A60000078012812D1FCF71CFB0FE0AD4890F83C
:105A7000320008280AD105E001224FF47A7164202F
:105A8000FAF7EDFCAB4800680128F5D0FCF7CEFB37
:105A9000D5E0FCF7CBFB8720A24948700121A14843
:105AA0008170A14841789F48C17011210171102176
:105AB00041719D4881789B4881714121C1714D217F
:105AC000017253214172442181723121C17200E07F
:105AD000B7E030210173401CFAF787FDAFE0812069
