:020000040800F2
:1000000060130020158D0008490200084B0200080B
:100010004F020008530200085702000800000000C9
:100020000000000000000000000000005B0200086B
:100030005D020008000000005F0200086102000885
:100040002F8D00082F8D00082F8D00082F8D0008A0
:100050002F8D00082F8D0008A52B0008D12A00083D
:100060002F8D00082F8D0008352C00082F8D0008DB
:100070002F8D00082F8D00082F8D00082F8D000870
:100080002F8D00082F8D00082F8D00082F8D000860
:100090002F8D00082F8D00082F8D00082F8D000850
:1000A0002F8D00082F8D00082F8D00082F8D000840
:1000B0001F1800082F8D00082F8D00082F8D0008B5
:1000C0002F8D00082F8D00082F8D00082F8D000820
:1000D0002F8D00082F8D00087D5C0008015400085A
:1000E0002F8D00082F8D00082F8D00082F8D000800
:1000F0002F8D00082F8D00082F8D00082F8D0008F0
:100100002F8D00082F8D0008BB0900082F8D0008D7
:100110002F8D00082F8D00082F8D00082F8D0008CF
:100120002F8D00082F8D00082F8D00082F8D0008BF
:10013000DFF80CD009F0CAF9004800474501000873
:10014000601300201CB501F0ADFB5CE002F06CFB1D
:1001500002F064FA03F0BEFF33480078012852D160
:1001600005F039F800203049087003F0C8FD00F0B0
:1001700032FA06F0DCFB2D4A918A508A03F02FF9FF
:100180002A4A918A508A03F023FB04F06BF828482E
:10019000007800EB0010274901EB400090F82100A7
:1001A000012827D103223221084600F060F90020FF
:1001B0001F49097801EB01111E4A02EB410181F848
:1001C00021001B49097801EB011102EB4101481C98
:1001D0001E2108F0B8FD0020FF2161236D22CDE92A
:1001E000001004F0FBFA0021134808F05EFC012027
:1001F0001249087012480078012804D100201149E2
:1002000008600F490870A1E770B504460D46E1B2D9
:10021000094808F0B7FC00BF0748008800F08000DC
:100220000028F9D0204670BD330000206C03002068
:10023000B70000208C03002000480040AE000020E2
:10024000AC00002094012142704700BFFEE700BFD0
:10025000FEE700BFFEE700BFFEE77047704770474C
:10026000704700000CB50020019000906C480068B9
:1002700040F480306A49086000BF6948006800F4B3
:10028000003000900198401C0190009818B9019826
:10029000B0F5A06FF1D16248006800F4003010B1F1
:1002A0000120009001E0002000900098012843D137
:1002B0005C48006840F010005A4908600846006831
:1002C00020F0030008600846006840F00200086063
:1002D00053484068524948600846406848600846AC
:1002E000406840F4806048600846406820F47C1014
:1002F00048600846406840F4E810486008460068D6
:1003000040F08070086000BF4548006800F0007051
:100310000028F9D04248406820F003004049486076
:100320000846406840F00200486000BF3C48406812
:1003300000F00C000828F9D10CBD10B5FFF792FFB2
:1003400010BD10B53648006840F00100344908601F
:10035000084640683449084031494860084600680A
:10036000324908402E4908600846006820F4802081
:1003700008600846406820F4FE0048604FF41F0003
:100380008860FFF7DAFF4FF000602949086010BD70
:1003900010B5002100200022214B5B6803F00C0106
:1003A00021B1042906D0082928D107E0214B224C8D
:1003B000236027E01F4B204C236023E0184B5B6831
:1003C00003F47010164B5B6803F48032022303EBD6
:1003D000904022B9194B4343174C23600DE0104B5A
:1003E0005B6803F4003323B1144B4343124C236086
:1003F00003E0104B4343104C236003E00D4B0E4CC5
:10040000236000BF00BF064B5B68C3F303130C4CB3
:10041000E15C094B1B68CB40074C236010BD00001A
:1004200000100240002002400000FFF8FFFFF6FE2F
:1004300008ED00E000127A000000002000093D00F5
:10044000040000201748806940F0100015498861B9
:100450001548406820F470401349486008464068D9
:1004600040F4405048600846C068C86070472DE9B5
:10047000F04107460C46154600260EE001200B49C8
:100480000860384601F023FB00200949C1F8AC019F
:10049000204601F01CFB701CC6B2AE42EEDBBDE88C
:1004A000F08100000010024000100140AC01224227
:1004B0000000224208B50121202007F0B5FABD2036
:1004C000ADF8000048208DF803006946D44806F0D6
:1004D000CFFF08BD10B5D348006880B9D248007876
:1004E000002877D1032001F0F2FACE4800680028F6
:1004F00070D10120CC490870CC4908706AE0C94825
:100500000C38006888B9C8480078002862D10320F8
:1005100001F0DDFAC3480C38006800285AD10120E8
:10052000C1490870C249087054E0BE4808380068E4
:1005300088B9BD48007800284CD1032001F0C7FAE3
:10054000B84808380068002844D10120B64908702E
:10055000B84908703EE0B3481438006878B9B2482A
:100560000078F8B9032001F0B2FAAE4814380068F8
:10057000C0B90120AC490870AF4908702AE0A94809
:100580001038006878B9A848007858B9032001F0FD
:100590009EFAA4481038006820B90120A2490870CA
:1005A000A649087016E09F481C38006878B99E4834
:1005B000007878B9032001F08AFA9A481C3800685C
:1005C00040B90120984908709D49087002E0002058
:1005D0009549087010BD10B5FFF77CFF934800786F
:1005E00001280CD1002091490870012211460520F4
:1005F00001F0CBFC0122C8210846FFF738FF8C48E8
:10060000007801280CD100208949087000220121BE
:10061000052001F0BAFC0122C8210846FFF727FF98
:100620008448007801280CD10020824908700022FB
:100630001146052001F0A9FC01226421C820FFF722
:1006400016FF7D48007801280CD100207A490870F7
:1006500001207C49C8704870087001226421C820BC
:10066000FFF705FF7548007801280CD10020734979
:10067000087000220221052001F087FC01223221AE
:100680000846FFF7F4FE6E48007801287ED100206E
:100690006B490870012232210846FFF7E8FE1E2050
:1006A0006949086001220421674806F04CFC66484D
:1006B00000686649086066496648674AC2E90010F2
:1006C0000A220821644806F0D9FB634903C9634A3A
:1006D00003C223206249086019220421604806F001
:1006E000CDFB5F4800685F4908605F495F48604A2A
:1006F000C2E90010232208215D4806F0BFFB5C49D7
:1007000003C95C4A03C2E3205B490860322204212A
:10071000594806F0B3FB5848006858490860002063
:10072000574908603C220421554806F0A7FB54486D
:100730000068544908604620534908604622042155
:10074000514806F09BFB50480068504908601E2045
:100750004F490860502204214D4806F08FFB4C4859
:1007600000684C49086040F684004B4908605A22F2
:100770000421494806F082FB474800684749086061
:1007800040F6840046490860642200E046E0042107
:10079000434806F073FB424800684249086040F64F
:1007A0008400414908606E2204213F4806F066FB40
:1007B0003D4800683D49086040F684003C490860B7
:1007C000782204213A4806F059FB39480068394933
:1007D000086040F6840038490860822204213648C7
:1007E00006F04CFB34480068344908606420344902
:1007F00008608C220421324806F040FB3048006833
:1008000030490860AA2030490860962204212E4809
:1008100006F034FB2C4800682C49086010BD00002D
:10082000001401401C812242140000201500002009
:1008300016000020170000201800002019000020DA
:100840001A0000209C000020D80000204400002056
:10085000295C8FC2F528DC3FE00000204800002022
:10086000E800002078000020C3F5285C8FC2D53F47
:10087000F000002050000020F80000207C00002044
:10088000FC00002080000020000100205800002013
:10089000040100205C00002008010020600000200E
:1008A0000C010020640000201001002068000020DE
:1008B000140100206C0000201801002070000020AE
:1008C00020010020840000201C010020880000205E
:1008D00008B50121102007F0A7F80420ADF80000AA
:1008E00010208DF8030003208DF8020069460448AB
:1008F00006F0BEFD0421024806F067FE08BD0000B8
:10090000001001407FB505460C460121082007F084
:1009100098F8ADF80850ADF804400020ADF80A0092
:10092000ADF8060001A9FE4807F0B6F9012211460C
:10093000FB4807F028FD32208DF8000000208DF8DC
:10094000010003208DF8020001208DF803006846A5
:1009500006F037FC0121F24807F0FAFC7FBD7FB5B5
:1009600005460C460121084607F06BF8ADF8085023
:10097000ADF804400020ADF80A00ADF8060001A96A
:100980004FF0804007F088F901221146900707F0E8
:10099000FAFC1C208DF8000001208DF801000320D6
:1009A0008DF8020001208DF80300684606F009FC6E
:1009B0000121880707F0CCFC7FBD00B589B001217B
:1009C000D74807F08EFF00287ED00121D44807F0D9
:1009D00099FFD448007800B3D3480078D14909780A
:1009E000884207D0CF480078401ED04908700020C8
:1009F000CF490880CB480078CB490870CB480078B5
:100A000058B1CB480088401CC94908800846008876
:100A1000C82803DA0120C749086010E0C4480088EC
:100A2000B0F5FA7F03DA0020C249086007E0002031
:100A3000BF490880BD480078401EBC4908700120AD
:100A4000BD490870BD48007802287DD1BB48406987
:100A5000401CBA494861084690F8720007284AD2FB
:100A6000DFE800F049044ABEDEFDFC00B348C06F79
:100A70000790B248C0680690079908F04DFC33D241
:100A8000AE484068AD4988610846406948630846F9
:100A90004069069008F0BBFB0790A848806F0146AC
:100AA0000690079808F0B2F9A449C8600846406962
:100AB000049008F0ACFB0590A048C0680146049083
:100AC000059808F0A3F900E0FEE34FF0804106909E
:100AD00008F0CEF99A49079008F040F997498860E4
:100AE00008468068486506E0944890F87200401C0B
:100AF000924981F872006BE19048C068002107902C
:100B000008F014FC64D28D484168C1614169816379
:100B1000808A8A49898E401A8849A1F8700008465F
:100B2000B0F87000059008F072FB06908348806F63
:100B300001460590069808F069F907907F48C06F54
:100B400001460690079800E05DE108F05CF97B49FA
:100B5000C8600846B0F87000029008F058FB049096
:100B60007648B0F87000019008F051FB029073488D
:100B7000806F01460190029808F048F903900499AB
:100B800008F044F94FF08041059008F071F90790A2
:100B90006A48B0F87000039008F039FB0490674889
:100BA000C06F01460390049808F030F9059063483F
:100BB000406D01460490059808F0D0F8069007991A
:100BC00008F01EF95D49886008468168816506E085
:100BD0005A4890F87200401C584981F87200F7E0BA
:100BE00056480169C069081A5449496888420FD9B2
:100BF0005248416801624169C163B0F874000790CE
:100C000008F005FB4D49886008468168C16506E02B
:100C10004A4890F87200401C484981F87200D7E0B9
:100C20004648C06F07904548C0680690079908F08D
:100C300073FB3ED241484168416241690164818A47
:100C4000808F081A3D49A1F870000846B0F870007E
:100C5000069008F0DCFA0790384801E0B4E030E094
:100C6000806F01460690079808F0D0F83349C860B5
:100C70000846B0F87000049008F0C9FA05902F48B3
:100C8000C06801460490059808F0C0F84FF0804114
:100C9000069008F0EDF807902848C06D01460690D0
:100CA000079808F0B0F82549886008468168016611
:100CB00006E0224890F87200401C204981F872003A
:100CC00086E01E4880681E49079008F02FFB73D20B
:100CD0001A484168816241694164818AB0F84000E4
:100CE000081A1649A1F870000846B0F8700005907F
:100CF00008F08DFA06901148806F0146059006981D
:100D000008F084F807900D48C06F014606900798D8
:100D100008F079F80949C8600846B0F8700011E099
:100D2000000C00401E0000201F00002030000020AA
:100D30002E0000208801224233000020BC01002048
:100D40000000C842019008F062FA0390FE48B0F833
:100D50007000009008F05BFA0190FB48806F01463C
:100D60000090019808F052F80290039908F04EF8AC
:100D70004FF08041049008F07BF80690F248B0F8FC
:100D80007000039008F043FA0490EF48C06F0146EA
:100D90000390049808F03AF80590069908F030F8A6
:100DA0000790E948006E01460690079808F02BF876
:100DB000E549886007E0FFE7E34890F87200401CCF
:100DC000E14981F8720003E0E048DF49886000BF34
:100DD00000BFDD48806801460790172001F075F8D4
:100DE00008900898B0F57A7F51D34FF2B561089812
:100DF00088424CD20121880707F0AAFA17210898E7
:100E000001F07FF843E0D0480078012823D1D04892
:100E1000007E322148433230CB49A1F87400CC48DF
:100E2000408B00EB800040000A3008610846B0F8B3
:100E30007400069008F0EBF901460790172001F0C6
:100E400044F808901721089801F05BF80121880701
:100E500007F07EFA1BE0BC480078032817D1642015
:100E6000B949A1F874000846B0F87400069008F07B
:100E7000CEF901460790172001F027F808901721B6
:100E8000089801F03EF80121880707F061FAB1489F
:100E9000007802287ED1AF484069401CAD494861C6
:100EA000084690F87200072848D2DFE800F04704AF
:100EB00048BCDCFEFD00A748C06F0790A548C0688D
:100EC0000690079908F028FA31D2A2484068A14953
:100ED000886108464069486308464069069008F002
:100EE00096F907909B48806F01460690079807F097
:100EF0008DFF9849C86008464069049008F087F95A
:100F000005909448C06801460490059807F07EFF5C
:100F10004FF08041069007F0ABFF8F49079007F034
:100F20001DFF8C49886008468068486506E089484E
:100F300090F87200401C874981F8720062E1854890
:100F4000C0680021079008F0F1F964D28148416837
:100F5000C16141698163808A7E49898E401A7D49D9
:100F6000A1F870000846B0F87000059008F04FF93D
:100F700006907848806F01460590069807F046FF76
:100F800007907448C06F01460690079807F03BFF32
:100F9000704900E051E1C8600846B0F87000029066
:100FA00008F035F904906B48B0F87000019008F033
:100FB0002EF902906748806F01460190029807F071
:100FC00025FF0390049907F021FF4FF08041059021
:100FD00007F04EFF07905F48B0F87000039008F0EC
:100FE00016F904905B48C06F01460390049807F01F
:100FF0000DFF05905748406D01460490059807F095
:10100000ADFE0690079907F0FBFE5249886008463E
:101010008168816506E04F4890F87200401C4D4998
:1010200081F87200EEE04B480169C069081A49492D
:10103000496888420FD94748416801624169C163E4
:10104000B0F87400079008F0E2F84249886008465A
:101050008168C16506E03F4890F87200401C3D4938
:1010600081F87200CEE03B48C06F07903948C068F5
:101070000690079908F050F93ED23648416841621F
:1010800041690164818A808F081A3249A1F8700091
:101090000846B0F87000069008F0B9F807902D489F
:1010A000806F0146069001E0A8E02DE0079807F068
:1010B000ADFE2849C8600846B0F87000049008F0FA
:1010C000A6F805902348C06801460490059807F0EB
:1010D0009DFE4FF08041069007F0CAFE07901D4824
:1010E000C06D01460690079807F08DFE194988608B
:1010F00008468168016606E0164890F87200401CB8
:10110000144981F872007DE0124880681249079006
:1011100008F00CF96AD20F48416881624169416464
:10112000818AB0F84000081A0A49A1F87000084600
:10113000B0F87000059008F06AF806900548806FD6
:1011400001460590069809E0BC0100200000C84255
:101150006C0300204C0200200000484207F056FEBD
:101160000790FE48C06F01460690079807F04BFEB7
:10117000FA49C8600846B0F87000019008F047F8D6
:101180000390F648B0F87000009008F040F8019025
:10119000F248806F01460090019807F037FE0290F8
:1011A000039907F033FE4FF08041049007F060FE92
:1011B0000690EA48B0F87000039008F028F8049010
:1011C000E648C06F01460390049807F01FFE0590A3
:1011D000069907F015FE0790E048006E014606905C
:1011E000079807F010FEDD49886006E0DB4890F8BC
:1011F0007200401CD94981F8720003E0D848D749F1
:10120000886000BF00BFD54880680146079017205E
:1012100000F05BFE08900898B0F57A7F51D34FF24A
:10122000B561089888424CD21721089800F096FEC4
:101230000121CC4807F08CF843E0C8480078012829
:1012400023D1C948007E322148433230C349A1F836
:101250007400C548408B00EB8000400032300861CC
:101260000846B0F87400069007F0D1FF01460790D9
:10127000172000F02AFE08901721089800F06EFE53
:101280000121B84807F064F81BE0B448007803284F
:1012900017D15020B149A1F874000846B0F8740085
:1012A000069007F0B4FF01460790172000F00DFEEE
:1012B00008901721089800F051FE0121A94807F075
:1012C00047F8AA48007800E0A7E202287ED1A748A4
:1012D0004069401CA5494861084690F87200012801
:1012E00043D10846C06F07900846C068069007992A
:1012F00008F012F831D29D4840689C498861084640
:101300004069486308464069069007F080FF0790EF
:101310009648806F01460690079807F077FD93493D
:10132000C86008464069049007F071FF05908F4837
:10133000C06801460490059807F068FD4FF08041B1
:10134000069007F095FD8A49079007F007FD874949
:10135000886008468068486595E1844890F8720086
:10136000401C824981F872008DE1804890F872003B
:1013700002287DD17D48C0680021079007F0D6FF84
:101380007BD27A48B0F87400069007F040FF0790CF
:101390007648806801460690079807F0C7FF6CD230
:1013A00072484069B0F5FA7F67D270484168C16100
:1013B00041698163808A6D49898E401A6B49A1F821
:1013C00070000846B0F87000059000E075E107F085
:1013D0001EFF06906548806F01460590069807F04D
:1013E00015FD07906148C06F01460690079807F009
:1013F0000AFD5E49C8600846B0F87000029007F028
:1014000006FF04905948B0F87000019007F0FFFE05
:1014100002905648806F01460190029807F0F6FC52
:101420000390049907F0F2FC4FF08041059007F01B
:101430001FFD07904D48B0F87000039007F0E7FEDD
:1014400004904A48C06F01460390049807F0DEFC00
:1014500005904648406D01460490059807F07EFCD3
:101460000690079907F0CCFC40498860084601E0E7
:101470000BE002E08168816505E13C4890F872006C
:10148000401C3A4981F87200FDE0384890F872003B
:1014900003281FD135480169C069081A33494968D2
:1014A00088420FD93148416801624169C163B0F88F
:1014B0007400079007F0ABFE2C49886008468168ED
:1014C000C165E0E0294890F87200401C274981F886
:1014D0007200D8E0254890F8720004285BD12348B8
:1014E000C06F07902148C0680690079907F014FF65
:1014F00048D21E484168416241690164818A808FF7
:10150000081A1A49A1F870000846B0F87000069051
:1015100007F07DFE07901548806F014606900798FA
:1015200007F074FC1149C8600846B0F870000490D8
:1015300007F06DFE05900D48C068014604900598BF
:1015400007F064FC4FF08041069007F091FC079093
:101550000648C06D0146069007980BE04C0200203B
:1015600000004842000800406C030020DC0200201C
:101570000000C84207F047FCAE4988600846816811
:10158000016680E0AB4890F87200401CC1B2A948E7
:1015900080F8721077E0A74890F8720005286FD1A4
:1015A000A4488068A449079007F0C0FE5FD2A14814
:1015B0004168816241694164818AB0F84000081A3B
:1015C0009C49A1F870000846B0F87000059007F03B
:1015D0001EFE06909748806F01460590069807F01A
:1015E00015FC07909348C06F01460690079807F0D6
:1015F0000AFC9049C8600846B0F87000019007F0F6
:1016000006FE03908B48B0F87000009007F0FFFDD5
:1016100001908848806F01460090019807F0F6FB22
:101620000290039907F0F2FB4FF08041049007F01D
:101630001FFC06907F48B0F87000039007F0E7FDAC
:1016400004907C48C06F01460390049807F0DEFBCD
:101650000590069907F0D4FB07907648006E014686
:101660000690079807F0CFFB724988600BE071483D
:1016700090F87200401C6F4981F8720003E0FFE7A8
:101680006D496C4881606B4880680146079017205F
:1016900000F01BFC08900898B0F57A7F54D34FF205
:1016A000B561089888424FD21721089800F03FFC96
:1016B0000121624806F04CFE46E05E4800780128B1
:1016C00026D15F48007E322148433C305949A1F879
:1016D00074005B48408B00EB8000400032300861B2
:1016E0000846B0F87400069007F091FD0146079097
:1016F000172000F0EAFB08901721089800F017FC6B
:1017000001214E4806F024FE00204E4948711BE09E
:1017100048480078032817D1C8204649A1F874002A
:101720000846B0F87400069007F071FD0146079076
:10173000172000F0CAFB08901721089800F0F7FB6B
:1017400001213E4806F004FE3F48006840BB3F4888
:101750000088401C81B23D480180008840F2DC5185
:10176000884220DD01F062FB0021F12061236D221F
:10177000CDE900010321002003F030F800203349B7
:101780000880012030497C3108603149087040F2FE
:10179000DC5000F09CF940F2DC5000F098F902E0D7
:1017A00000202A49088000F079F82A48008820B1F2
:1017B00028480088401E27490880274800781D498E
:1017C00009780844254909780844254908702548BE
:1017D000007888B124480078401C234908700846E6
:1017E0000078052808DD0121204807F05EF9002077
:1017F0001C4908701C4908701D48008820B11C480D
:101800000088401E1A4908801A480088002804DD14
:1018100018480088401E1749088009B000BD10B55F
:101820000121880707F05DF818B10121880707F04A
:1018300069F810BDDC0200200000C842000400402E
:101840006C030020A4000020180121422600002083
:10185000AC00002036000020BC0100204C0200201B
:1018600035000020AE00002032000020004800407B
:101870002C0000202A00002070B505460C4645F2D9
:10188000555005F043FF284605F043FF204605F07C
:1018900043FF05F044FF05F047FF70BD10B505F0AC
:1018A0003EFF10BD2DE9F04700F0D4F8FFF710F827
:1018B000FEF7C8FDFEF7FEFD00F058F901F066FAEC
:1018C00000F0B6F94FF4965002F026FF4FF4E130E5
:1018D00004F072F901203B49087000F025F941F647
:1018E0001F410920FFF70EF805F07BF940F6B831EB
:1018F0000620FFF7C1FF00203349087005F0DCF82F
:1019000032480068324908603248D0E90010324A53
:10191000C2E900103148006831490860314903C903
:10192000314A03C2314800683149086031480068D3
:101930003149086031480068314908603148006821
:101940003149086031480068314908603148006811
:101950003149086031480068314908602F48006803
:1019600008603048006830490860304800683049F5
:1019700008603048006830490860304800683049E5
:101980000860304800683049486017480CC800209B
:101990002E4907F0C4FB04460D462B49486807F062
:1019A0004CFC064622462B4607F041FB804607F0DA
:1019B00065FC27490860012232210846FEF757FDE1
:1019C000BDE8F08780010020AC000020D800002096
:1019D00044000020E000002048000020E800002033
:1019E00078000020F000002050000020F8000020C7
:1019F0007C000020FC00002080000020000100206E
:101A000058000020040100205C0000200801002094
:101A1000600000200C010020640000201001002064
:101A200068000020140100206C0000201801002034
:101A30007000002020010020840000201C010020F4
:101A400088000020980000209C000020000020401A
:101A50008C00002010B56FF0040005F0FCFB2E4850
:101A600000682E49B0FBF1F02D4908700846007857
:101A700000EB4001C1EBC0104FF6FF7101EAC0005E
:101A80002849088010BD0146254A12784A434FF084
:101A9000E0235A6100229A611A46126942F001025B
:101AA0001A6100BF4FF0E022106900F001021AB184
:101AB00000F48032002AF5D04FF0E022126922F0C3
:101AC00001024FF0E0231A6100229A61704701463B
:101AD000144A12884A434FF0E0235A6100229A6167
:101AE0001A46126942F001021A6100BF4FF0E0226B
:101AF000106900F001021AB100F48032002AF5D01A
:101B00004FF0E022126922F001024FF0E0231A6147
:101B100000229A61704700000000002000127A0045
:101B20003C0000203E00002010B500214FF0006076
:101B300005F079FB4FF4A06005F03EFB10BD0120DD
:101B400080F3138800BF00BF0648006800F4E0601F
:101B500005490843001D03490860BFF34F8F00BFCC
:101B600000BFFEE70CED00E00000FA0508B501211A
:101B70005C2005F059FF0121084605F055FF0121C1
:101B8000264805F046FD48F22000ADF80000102080
:101B90008DF8030003208DF802006946204805F007
:101BA00067FC48F220011E4805F011FD8020ADF8C9
:101BB000000010208DF8030003208DF80200694614
:101BC000184805F055FC8021164805F000FD0B2053
:101BD000ADF8000010208DF8030003208DF80200FE
:101BE0006946114805F044FC0B210F4805F0EFFC55
:101BF0009520ADF8000010208DF8030003208DF82B
:101C000002006946094805F033FC1521074805F034
:101C1000DCFC8021054805F0DAFC08BD000230003C
:101C200000080140000C0140001001400018014074
:101C30001FB501213C2005F0F7FE0121084605F003
:101C4000F3FE0121084605F0FCFE0121022005F00B
:101C5000F8FE0121042005F0F4FE4220ADF80C004E
:101C600018208DF80F0003208DF80E0003A9FC4802
:101C700005F0FEFB0120ADF80C0018208DF80F00D8
:101C800003208DF80E0003A9F64805F0F1FB0020B3
:101C9000F549C880488008724FF0804005F0FCFF8D
:101CA0006020F249088001204880042088800020BC
:101CB000088148814FF0804006F02BF80821C806C3
:101CC00006F076FC00214FF0804006F041FB00203A
:101CD000E549C88048800872E54805F0DDFF6020CE
:101CE000E249088001204880042088800020088183
:101CF0004881DF4806F0E7F80821DD4806F077FC68
:101D00000021DB4806F024FB0020D7490880C8806A
:101D100048800872D74805F0BFFF6020D34908808B
:101D20000120488004208880002008814881D14813
:101D300005F0EFFF0821CF4806F03AFC0021CD481E
:101D400006F006FB0220ADF80C0048208DF80F00CD
:101D500003A9C44805F08CFB0121002005F09EFC7E
:101D60000220019000208DF8080008208DF809005D
:101D700001208DF80A0001A805F09AFA07208DF8D5
:101D8000000001208DF8010002208DF802000120E2
:101D90008DF80300684605F014FA0120ADF80C0038
:101DA00048208DF80F0003A9AD4805F061FB002124
:101DB000012005F073FC0120019000208DF808003F
:101DC00008208DF8090001208DF80A0001A805F00F
:101DD0006FFA06208DF8000001208DF80100032025
:101DE0008DF8020001208DF80300684605F0E9F93E
:101DF0001020ADF80C0048208DF80F0003A99E4874
:101E000005F036FB0421022005F048FC102001906B
:101E100000208DF8080008208DF8090001208DF8B9
:101E20000A0001A805F044FA0A208DF800000120FC
:101E30008DF801008DF802008DF80300684605F06A
:101E4000C0F91520ADF80C0010208DF80F0003200C
:101E50008DF80E0003A9894805F00AFB1521874873
:101E600005F0B5FB1020ADF80C008DF80F00032035
:101E70008DF80E0003A97B4805F0FAFA2020ADF892
:101E80000C0010208DF80F0003208DF80E0003A920
:101E9000794805F0EDFA4FF48050ADF80C001020B1
:101EA0008DF80F0003208DF80E0003A96C4805F093
:101EB000DFFA4FF4E070ADF80C0048208DF80F0009
:101EC00003A9684805F0D4FA1FBD2DE9F041044686
:101ED0000D46601C07F09BF907462946384606F078
:101EE00095FF07463946664806F0C2FF80464FF028
:101EF0007E5106F085FF0646304607F0ABF9BDE897
:101F0000F08170B504460D464FF0804006F0D7FCD6
:101F1000A04204D900214FF0804006F0ADFC4FF004
:101F200080418C850D85C4F34F00888670BD70B5E7
:101F300004460D464E4806F0C2FCA04203D90021DB
:101F40004B4806F099FC4A492C310C80091F0D8042
:101F5000C4F34F0046494031088070BD70B5044657
:101F60000D46444806F0ABFCA04203D9002141488D
:101F700006F082FC3F492C310C80091F0D80C4F310
:101F80004F003C493431088070BD2DE9F05F824636
:101F90008B469146BBF1000F61D13A48C0F894914D
:101FA000394880F884903948006820B9B9F1000FA9
:101FB00001D1BDE8F09F3448007800284ED1324866
:101FC000C0F810A032480CC80020324907F0A7F82A
:101FD00005460E46504607F030F907462A46334676
:101FE00007F066F95ED24FF4FA702749A1F8740041
:101FF000B1F874108900A1F5C87007F0FFF8054624
:10200000254906F035FF2049C867B1F87410C900AA
:10201000A1F5487007F0F2F80546204906F028FFC0
:10202000194988671E48886000204860486100247C
:102030000CE000211448183040F824101C3040F8FF
:102040002410203040F82410601CC4B2072CF0DBB0
:1020500002200D490870012081F872005FE2AAE0B9
:10206000000C014000080140B0010020A001002048
:10207000000400400008004000100140001801402A
:102080004054894C00002242BC01002018812242A9
:102090004800002000407F400000C84300409C47AB
:1020A0000000C842FA480CC80020FA4907F037F887
:1020B00005460E46504607F0C0F807462A46334606
:1020C00007F0F6F83BD24FF44870F349A1F87400DA
:1020D000B1F874108900A1F5C87007F08FF80546B3
:1020E000EE4906F0C5FEEC49C867B1F87410C900A6
:1020F000A1F5487007F082F80546E94906F0B8FEF8
:10210000E5498867E7488860002048604861002406
:102110000CE00021E048183040F824101C3040F852
:102120002410203040F82410601CC4B2072CF0DBCF
:102130000220D9490870012081F87200EFE140F6D1
:10214000FC00D549A1F87400B1F874108900A1F51C
:10215000C87007F053F80546D34906F089FECE490A
:10216000C867B1F87410C900A1F5487007F046F8C7
:102170000546CE4906F07CFEC7498867C948886095
:1021800000204860486100240CE00021C24818305B
:1021900040F824101C3040F82410203040F824105F
:1021A000601CC4B2072CF0DB0220BB490870012080
:1021B00081F87200B3E1BBF1010F7DD1BC48C0F8DA
:1021C000B091BC4880F88490BB48006818B9B9F158
:1021D000000F00D1EDE6B74800780028AED1B54831
:1021E000C0F810A0B5480CC80020B54906F097FF0C
:1021F00005460E46504607F020F807462A46334665
:1022000007F056F83AD27820AA49A1F87400B1F83C
:102210007410C900A1F5C87006F0F0FF0546A94981
:1022200006F026FEA3498867B1F874108900A1F171
:10223000C80006F0E3FF05469A4906F019FE9D49DD
:10224000C867A148886000204860486100240CE00D
:1022500000219848183040F824101C3040F8241011
:10226000203040F82410601CC4B2072CF0DB0220A0
:1022700090490870012081F8720050E18F480CC825
:102280000020924906F04BFF05460E46504606F0E8
:10229000D4FF07462A46334607F00AF83CD2C82046
:1022A0008449A1F87400B1F87410C900A1F5C87090
:1022B00006F0A4FF054600E0B7E0854906F0D8FD2A
:1022C0007C498867B1F874108900A1F1C80006F054
:1022D00095FF05467F4906F0CBFD7649C8677A48E9
:1022E000886000204860486100240CE000217148AB
:1022F000183040F824101C3040F82410203040F8EA
:102300002410601CC4B2072CF0DB0220694908705D
:10231000012081F8720002E168480CC800206E4973
:1023200006F0FDFE05460E46504606F086FF0746BF
:102330002A46334606F0BCFF3BD24FF416705D4987
:10234000A1F87400B1F874108900A1F1C80006F07A
:1023500055FF0546614906F08BFD5649C867B1F83F
:102360007410C900A1F5C87006F048FF05465C4925
:1023700006F07EFD4F49886753488860002048601A
:10238000486100240CE000214A48183040F824102D
:102390001C3040F82410203040F82410601CC4B2D7
:1023A000072CF0DB022043490870012081F87200FD
:1023B000B5E04FF4FA603F49A1F87400B1F8741029
:1023C0008900A1F1C80006F019FF0546454906F04D
:1023D0004FFD3849C867B1F87410C900A1F5C8703D
:1023E00006F00CFF0546404906F042FD314988677A
:1023F0003548886000204860486100240CE00021D6
:102400002C48183040F824101C3040F8241020309C
:1024100040F82410601CC4B2072CF0DB02202549D0
:102420000870012081F8720079E03048C0F890917E
:102430002F4880F88490007840BB2D48C0F810A049
:102440004FF448702A49A1F87400B1F8741089005B
:10245000A1F5C87006F0D2FE0546204906F008FD39
:102460002349C867B1F87410C900A1F5487006F097
:10247000C5FE05461A4906F0FBFC1D498867094858
:10248000886000204860486100243FE047E0000089
:102490004800002000709740BC0100200000FA4472
:1024A0000024F4490000C8420000164500C82F4A25
:1024B000008021424C0200202801234250000020CD
:1024C0000000594000409C450000484200407F40C9
:1024D00000409C470000C84300408F4000007A4401
:1024E0000024F4480000C84400409C4900002142F8
:1024F000DC0200200021FE4840F824101C3040F887
:102500002410203040F82410601CC4B2072CF1DBEA
:102510000220F74918390870012081F8720000BFC5
:1025200047E52DE9F34F83B08A46039806F085FE10
:10253000CDE90001EF480CC8009806F0F0FD074611
:1025400006F0CEFE0290EC49D1F8800006F056FE6F
:102550000746029906F0E0FE0ED20126E649D1F8C0
:10256000800006F04BFE8046029906F04CFC0746C0
:1025700006F070FE04460DE00026DF49D1F8800029
:1025800006F03CFE8046029906F03AFC074606F04B
:1025900061FE0446504606F050FE0746D7480CC878
:1025A000384606F0BCFDCDE9000106F099FE8346F1
:1025B000D349D1F8800006F021FE0746594606F0BF
:1025C000ABFE0FD24FF00109CD49D1F8800006F0E3
:1025D00015FE8046594606F016FC074606F03AFE00
:1025E00005460EE04FF00009C549D1F8800006F01D
:1025F00005FE8046594606F003FC074606F02AFE13
:102600000546324600212046FFF7BFFC4A4601211D
:102610002846FFF7BAFC05B0BDE8F08F10B5B44806
:102620001838007800287DD0B6480068D0BBB5487F
:10263000001D0068B0BBB3480830006890BBAC48D0
:10264000183890F8840001282CD1A948183840681F
:10265000C82827D9AC48407920BBAC480078401C3A
:10266000AA49087008460078012808D1A0481838FF
:102670000069A7490968401A9D491839486000BF98
:102680009B48183800780028FAD199491839087001
:102690000021A04805F05CFE00209C490870944988
:1026A0001839086597480068C8BB9648001D00683F
:1026B000A8BB94480830006888BB8D48183890F84B
:1026C000840060BB8A4818384068C82827D98E48DB
:1026D000407920BB90480078401C8F49087008461C
:1026E0000078012808D18248183800698B490968A8
:1026F000401A7F491839486000BF7D481838007873
:102700000028FAD17A49183908700021814805F06B
:102710001FFE00207649183908657F4908708048F7
:10272000006800E072E0B0BB7D481438006890BBE0
:102730007548407901282ED16D48183890F88400EA
:1027400048BB6B48183840680A2824D9724800787A
:10275000401C7149087008460078012806D1644879
:1027600018380069283862491839486000BF604845
:10277000183800780028FAD15D491839087000210E
:10278000644805F0E5FD002059491839086562499B
:1027900008705D49487162480068B8BB60481438E9
:1027A000006898BB5848407901282FD15048183804
:1027B00090F88400012829D14D48183840680A282B
:1027C00024D955480078401C5349087008460078C1
:1027D000012806D146481838006928384449183974
:1027E000486000BF4248183800780028FAD14049B4
:1027F000183908700021474805F0AAFD00203C491F
:1028000018390865444908703F49487110BD0122D4
:10281000394B83F88420434A11601A461061002224
:102820005A6003221A70704710B53548007858B3C3
:102830003B480C38006890B9314890F88400012872
:102840000DD1012232210846FDF711FE00202C494E
:1028500008700021344805F07BFD00F0E7FA3048AD
:102860001030006880B9264890F8840001280BD108
:1028700000202349087000212B4805F069FD05223E
:1028800032210846FDF7F3FD2848007801281BD1C6
:102890000020264908704FF4FA702549088000BFCF
:1028A000234800880028FBD1012122480068FFF757
:1028B000AEFF00BF104800780028FBD10E49C1F8D8
:1028C00080000120104908710B480078A0B315481A
:1028D0006038006888BB084890F8840068BB002016
:1028E0000549087000214FF0804005F031FD25E0DA
:1028F000F402002048000020BC010020500000200D
:102900004C0200200C812142A4000020760000200F
:102910005C000020000400407700002058000020E8
:102920002C01234294012242000800404000002074
:1029300036000020440000201AE004E00522322185
:102940000846FDF794FDF848006888B9F74890F804
:10295000840001280CD10020F449087000214FF0B8
:10296000804005F0F5FC012232210846FDF77FFD8D
:1029700010BD10B521B101290FD0022926D119E0CF
:10298000EB4B1A60E94B83F884200023E74C63602B
:10299000234618610323237018E0E64B1A60E64BC8
:1029A00083F884200023E44C6360234618610323EA
:1029B00023700BE0E14B1A60E14B83F8842018612F
:1029C0000023DF4C63600323237000BF00BF10BDF2
:1029D00010B5044634BBD748A4380068012813D08A
:1029E000D448A038006801280ED0D2489C3800682E
:1029F000012809D0CC480C380068012804D0CA4806
:102A000020380068012800D110BD0020C8490860A6
:102A1000C64981F8840048604CF2503008610320B8
:102A2000087053E0C348A4380068012813D0C14897
:102A3000A038006801280ED0BE489C3800680128E4
:102A400009D0B9480C380068012804D0B6482038AD
:102A50000068012800D1D7E70120B6490860B649CF
:102A600081F88400C82008610020486003200870B5
:102A700018E002F0B0FBAC481838006890B9AE48D6
:102A800090F8840001280DD10020AB490870002186
:102A9000AC4805F05DFC00F0C9F90122322108467E
:102AA000FDF7E5FCA44800780028E2D14FF4FA7065
:102AB000FFF70DF800209F4908609F4981F88400C6
:102AC00048604CF2503008610320087000BF9BE75B
:102AD00010B5022004F063FC94480078002860D010
:102AE00092484068401C91494860084690F884002C
:102AF000012806D10846D0F88000401CC1F88000AB
:102B00000BE08A48D0F88000002806DD8748D0F81E
:102B10008000401E8549C1F880008B48006870B96C
:102B2000824890F8840050B901208849087000203C
:102B30007E49087000214FF0804005F009FC7B4879
:102B400040687A49096988422BD300214FF08040C0
:102B500005F0FEFB7848007810B902207C49087027
:102B600000207249087048608860C8600861486148
:102B700081F87200A1F87000A1F874008867C86736
:102B800000240CE000216948183040F824101C3063
:102B900040F82410203040F82410601CC4B2072CE8
:102BA000F0DB10BD10B5012004F0F9FB644800789B
:102BB00000283ED062484068401C61494860084691
:102BC00090F88400012804D10846006D401C086577
:102BD00004E05B48006D401E59490865584840684C
:102BE00057490969884224D300215A4805F0B0FBAF
:102BF00000205349087048608860C86008614861D7
:102C000081F87200A1F87000A1F874008867C867A5
:102C100000240CE000214A48183040F824101C30F1
:102C200040F82410203040F82410601CC4B2072C57
:102C3000F0DB10BD10B5102004F0B1FB3E48007869
:102C400000286FD03C484068401C3B49486008461B
:102C500090F88400012806D10846D0F88000401C76
:102C6000C1F8800006E03448D0F88000401E3249A8
:102C7000C1F880002C4810380068A8B92E4890F898
:102C8000840088B93448007801280DD100203249E9
:102C9000087029490870C1F8800001202F49887107
:102CA0000021284805F054FB1F4834380068B8B9A3
:102CB000214890F8840098B92948807801280FD1DC
:102CC0001D48D0F8800027490860254840681A4907
:102CD000C1F880000020087000211A4805F038FB78
:102CE000154840681449096988424BD300211548AA
:102CF00005F02EFB0D48007810B902201449087029
:102D000000200D490870C86048608860086148610B
:102D100081F87200A1F87000A1F874008867C86794
:102D200000242DE02EE0000038012342BC010020E9
:102D300094012242B08121424C02002090012142A4
:102D4000DC020020000800401881224240000020E0
:102D5000750000200004004094000020A400002022
:102D60009C000020900000200021074840F824101B
:102D70001C3040F82410203040F82410601CC4B2ED
:102D8000072CF1DB10BD00006402002008B5012112
:102D9000682004F049FE3820ADF8000048208DF886
:102DA000030069461D4804F063FB4FF40050ADF882
:102DB000000048208DF803006946194804F058FBCC
:102DC0004FF64070ADF8000048208DF803006946CA
:102DD000144804F04DFB4DF28050ADF8000048203F
:102DE0008DF803006946104804F042FB48F648207D
:102DF000ADF8000048208DF8030069460A4804F049
:102E000037FB40F68A20ADF8000048208DF803001B
:102E10006946054804F02CFB08BD7047000C0140D2
:102E200000100140001401400018014010B50020BE
:102E3000FD49087000214FF0804005F089FA00201C
:102E4000FA4908700021FA4805F082FA0020F94991
:102E500008700021F84805F07BFA0020F749C87394
:102E60000874888248820120F5490870F349C870C7
:102E70008870087148718871C871087248720020A2
:102E800088730120EF49487000200870C870EE492F
:102E9000887001204870002008700120C87010BDA3
:102EA00070B504460D461646E4488079012874D171
:102EB000E248C079012822D10020E0498873C87116
:102EC000012E76D108464078012802D108460078C4
:102ED00038B1DA484078022831D1D8480078012842
:102EE0002DD1012C15D1D9480078A04208D1D7485E
:102EF000047022460221D6480068FFF746F885E0B4
:102F0000D248047022460221D2480068FFF73DF8FB
:102F10007CE0CE480078A04208D1CC48047022461C
:102F20000221CD480068FFF730F86FE0C748047011
:102F300022460221C9480068FFF727F866E0BF482B
:102F4000407801281BD1BD480078012817D1BF481F
:102F50000078A04209D1BD48047022460221BC4835
:102F600000685030FFF711F850E0B848047022466E
:102F70000221B84800685030FFF707F846E0B34830
:102F80000078A0420BD1B148047022460221B24819
:102F900000685030FEF7F9FF38E047E009E0AB4841
:102FA000047022460221AD4800685030FEF7EDFF64
:102FB0002CE0012C15D1A5480078A04208D1A348E7
:102FC000047022460221A2480068FEF7DEFF1DE0E1
:102FD0009E480470224602219E480068FEF7D5FFF5
:102FE00014E09A480078A04208D19848047022461C
:102FF000022199480068FEF7C8FF07E09348047073
:103000002246022195480068FEF7BFFF87480078F6
:1030100000284ED101208949C87108468079401C9A
:1030200088714FF4FA70FEF752FD42E083488079D0
:1030300002281AD18148C079012807D100207F4990
:10304000C871002201212846FEF79FFF79480078C9
:1030500048BB01207949C87108468079401C8871B5
:103060004FF4FA70FEF733FD23E0744880790328AB
:103070001AD17248C07901280DD100206F49C8715A
:1030800084F001007149087084F00102022140F6C9
:10309000C410FEF77AFF6548007820B96748807948
:1030A000401C6649887104E001206449C871887138
:1030B000887370BD70B504460D46604800790128DC
:1030C00018D15E48407901280AD100205B498873F5
:1030D000487101205A49087029462046FFF721FA15
:1030E0005748007802280AD154480079401C5349B7
:1030F000087104E00120514988730871487170BD5E
:103100005748006858B901205649086000205649C0
:10311000C1F8800153490831086001207047002040
:10312000FCE770B504460D4616464448007A01286F
:1031300077D14248407A002823D000203F49887345
:103140004872012E6ED108464078012803D1084606
:103150000078102807D039484078022833D1374802
:10316000007811282FD1012C15D138480078A042C1
:1031700008D1364804702246022135480068FEF71F
:1031800004FFAAE031480470224602213148006859
:10319000FEF7FBFEA1E02D480078A04209D12B48A4
:1031A0000470224602212C4800681E30FEF7EDFE16
:1031B00093E02648047022460221284800681E3009
:1031C000FEF7E3FE89E01D48407801281BD11B482B
:1031D0000078112817D11D480078A04209D11B485A
:1031E0000470224602211A4800685030FEF7CDFED6
:1031F00073E01648047022460221164800685030D9
:10320000FEF7C3FE69E011480078A0422ED10F48B6
:10321000047022460221104800685030FEF7B5FEC7
:103220005BE06AE02CE00000BC010020DC02002032
:10323000000400404C020020000800406C03002005
:1032400075000020A40000209C000020AB0000209E
:103250006800002064000020700000206C00002046
:10326000300123428401224200002242FE480470C1
:1032700022460221FD4800685030FEF786FE2CE011
:10328000012C15D1F8480078A04208D1F648047006
:1032900022460221F6480068FEF777FE1DE0F2485C
:1032A000047022460221F3480068FEF76EFE14E027
:1032B000ED480078A04208D1EB4804702246022174
:1032C000ED480068FEF761FE07E0E748047022461B
:1032D0000221E6480068FEF758FEE848007800281A
:1032E0007CD1E748007A401CE54908720120487209
:1032F0004FF4FA70FEF7EBFB70E0E148007A022829
:103300001AD1DF48407A38B10020DD4948720122E5
:1033100011462846FEF739FEDA48007800285DD1CC
:10332000D748007A401CD6490872012048724FF4F1
:10333000FA70FEF7CCFB51E0D148007A03281BD18C
:10334000CF48407A68B184F00100C749087084F022
:10335000010202214FF4C860FEF717FE0020C849A1
:103360004872C648007858BB0120C54948720846D3
:10337000007A401C087231E0C148007A042820D14C
:10338000BF48407A90B184F00100BF49086084F0E2
:103390000100BA4981F884004FF47A700861002076
:1033A0004860032008700020B5494872B34800788F
:1033B00030B90120B24948720846007A401C0872B0
:1033C0000CE00120AE494872087288734FF4FA701D
:1033D000FEF77DFB4FF4FA70FEF779FB70BD2DE927
:1033E000FC4104460D46A648C07B012852D1A448A2
:1033F000C078012862D1A148007820BBA3480068AA
:10340000012804D0A1481438006801281BD10522E6
:1034100032210846FDF72BF801209D490860002065
:103420009C49C1F880019A4908310860FF21612355
:103430006D22CDE90010032101F0D0F90720904959
:10344000C870BDE8FC8100209149086001209149C5
:10345000C1F8800100208E490831086029462046C5
:10346000FFF728FE8648807B0128BFD1844800787A
:10347000202810D107208249C8700020052161232F
:103480006D22CDE90010032101F0A8F94FF4FA7084
:10349000FEF71DFB9AE10020022161236D22CDE998
:1034A0000010032101F09AF97548C078401C744956
:1034B000C8704FF4FA70FEF70AFB87E17048C078D5
:1034C000022871D174480CC80020744905F027FE09
:1034D000064605F0D3FE80466949097801F00101EE
:1034E00081F0010000224146FFF71BFE6448807B0B
:1034F0000128CFD16148007818BB644800680128D2
:1035000004D062481438006801281AD105223221FB
:103510000846FCF7ACFF01205D49086000205D49CA
:10352000C1F880015A4908310860FF2161236D22EA
:10353000CDE90010032101F051F907205049C8706E
:103540007FE74F48407880B9052232210846FCF7D2
:103550008EFF0020032161236D22CDE9001001F0D0
:103560003DF907204649C87030E1FFF7C9FDE0B1D9
:103570000020F02161236D22CDE90010032101F02C
:103580002DF9052232210846FCF771FF0120404940
:10359000086000203F49C1F880013D4908310860BA
:1035A00005203749C870C9E011E0002003216123DC
:1035B0006D22CDE9001001F011F93148C078401CAE
:1035C0002F49C8704FF4FA70FEF781FAFEE02C48DC
:1035D000C078032834D12A484078012803D02848ED
:1035E00040780228C0D1264A928B323291B2244AC6
:1035F000D08BFFF75FFD2248807B0128B4D12048A3
:10360000C07A042808DD00201D49C872887206208F
:10361000C8700120487314E700BF1948C078401CE7
:103620001749C8700020042161236D22CDE90010E4
:10363000032101F0D3F84FF4FA70FEF748FAC5E021
:103640000F48C078042874D10120154988701248A9
:103650000CC80020134905F062FD064605F00EFE79
:103660008046074949781FE0AB0000206C0000202D
:10367000680000206400002070000020DC020020B0
:103680006C0300204C020020900121422C012342B7
:1036900084012242000022425000002000004440E9
:1036A0009C00002000005440491009B9012100E0AD
:1036B0000021084601224146FFF7F2FBFE48807BCD
:1036C0000128BCD10020FD498870FD48007818BB56
:1036D000FC480068012804D0FA4814380068012822
:1036E0001AD1052232210846FCF7C1FE0120F64915
:1036F00008600020F549C1F88001F34908310860ED
:10370000FF2161236D22CDE90010032101F066F84D
:103710000720E949C87094E60020052161236D2245
:10372000CDE90010032101F059F8FFF77FFB4DE0D0
:10373000FFE7E148C07805281BD100BFDE490978C2
:1037400001F0010181F001000022E1490968FFF761
:10375000A7FBD948807B012838D10720D649C870FB
:103760004FF4FA70FEF7B3F94FF4FA70FEF7AFF9C1
:1037700067E6D148C078062826D1CF48407B01288B
:1037800015D10020CC494873012200215A20FFF7AF
:10379000F0F802E0C820FEF79AF9CE480078002839
:1037A000F8D1002211464CF25030FFF7E2F8CA4837
:1037B000007901280AD10020C74908710320BE49B9
:1037C000C8700120487328E7FFF730FB00BF38E6D8
:1037D0002DE9FC4104460D46B748007C012859D12B
:1037E000B5488078012856D1B348407818B90320ED
:1037F000B149887036E0B248007820BBB148006813
:10380000012804D0AF481438006801281BD10522D4
:1038100032210846FCF72BFE0120AB49086000204E
:10382000AA49C1F88001A84908310860FF21612335
:103830006D22CDE90010032100F0D0FF08209E4941
:103840008870BDE8FC8100209F49086001209F49E5
:10385000C1F880010020C1F88C01974A918BD08B70
:10386000FFF728FC9448807B0128B8D10020022172
:1038700061236D22CDE90010032100F0AFFF01208C
:103880008D49087308468078401C88704FF4FA70A0
:10389000FEF71DF9BDE188488078022830D18648BE
:1038A000007B012812D1854988708C480CC8002003
:1038B0008B4905F034FC064605F0E0FC804600220A
:1038C0000121FFF756F800207B49087385480078EE
:1038D0000028DFD1794988707748807A042808DD8C
:1038E000002075498872C87201200873072088700B
:1038F000A7E700BF70488078401C6F49887088E156
:103900006D488078032869D16B494978491009B915
:10391000012100E000210846012273490968323183
:10392000FFF7FFFB6448807B0128B3D1644800782F
:1039300018BB64480068012804D062481438006845
:1039400001281AD1052232210846FCF790FD0120FA
:103950005D49086000205D49C1F880015A4908317D
:103960000860FF2161236D22CDE90010032100F0E2
:1039700035FF08205049887063E7FFF7C1FBD8B1D5
:103980000020F02161236D22CDE90010032100F019
:1039900025FF052232210846FCF769FD01204A492E
:1039A000086000204949C1F8800147490831086092
:1039B000062041498870CBE00020032161236D225D
:1039C000CDE9001000F00AFF3B488078401C3A49DE
:1039D00088704FF4FA70FEF77AF81AE1364880786A
:1039E00004282CD129462046FFF764FB3248807B0F
:1039F000012884D130484078012803D02E484078EF
:103A0000022809D10020042161236D22CDE9001094
:103A1000032100F0E3FE08E00020022161236D2273
:103A2000CDE90010032100F0D9FE23488078401C26
:103A3000214988704FF4FA70FEF749F8E9E01E4812
:103A4000807805287FD125480CC80020274905F03B
:103A500066FB064605F012FC80461749097801F01E
:103A6000010181F0010000224146FFF719FA1248D6
:103A7000807B0128B1D112480078C8BB114800688A
:103A8000012804D00F4814380068012838D10522D5
:103A900032210846FCF7EBFC01200B4908600020AE
:103AA0000A49C1F88001084908310860FF216123F3
:103AB0006D22CDE900101CE06C0300209C0000206A
:103AC000DC0200202C012342840122420000224219
:103AD00084000020BC010020A40000205000002031
:103AE000008056404C0200208800002000804140A9
:103AF00006E0032100F072FE0820FD498870A0E670
:103B0000FB484078012803D0F948407802280CD1BE
:103B10000020052161236D22CDE90010032100F072
:103B20005DFEFFF783F908E00DE00020032161232B
:103B30006D22CDE9001000F051FEED488078C01CE8
:103B4000EB49887065E0EA48807806282BD100BFF1
:103B5000E7494978491009B9012100E000210846E8
:103B60000022E4490968FFF79BF9E148807B0128BE
:103B70004FD1DF488078801CDD4988704FF4FA709F
:103B8000FDF7A5FF4FF4FA70FDF7A1FF4FF4FA70AF
:103B9000FDF79DFF4FF4FA70FDF799FF4FF4FA70AF
:103BA000FDF795FF35E0D2488078072826D1D04828
:103BB000007B012815D10020CD4908730122002186
:103BC0005A20FEF7D6FE02E0C820FDF780FFCA4863
:103BD00000780028F8D10022114641F28830FEF723
:103BE000C8FEC6480079012813D10020C3490871D6
:103BF0000220BF498870012008737BE6FFF716F9A1
:103C00000020BB4908740120887000208873488216
:103C1000888200BF15E670B505460C4625B1012D1A
:103C200039D0022D68D129E0B5480068012812D0AA
:103C3000B348001D006801280DD0B1480830006865
:103C4000012808D0AF480068012804D0AD481438D6
:103C50000068012805D1012232210846FCF707FC43
:103C600070BDA54880F8844090F88400A64908609B
:103C70000020A1494860012008703DE0A34880F879
:103C8000844090F88400A249086000209F49486061
:103C90000120087030E09A480068012818D0984840
:103CA000001D0068012813D09548083000680128DD
:103CB0000ED0012C03D193480C38006840B19148D4
:103CC0000068012804D08F4814380068012805D105
:103CD000012232210846FCF7CAFBC1E78D4880F873
:103CE000844090F884008649A43108600020894906
:103CF00048600120087000BF00BF00BFB0E71CB5DE
:103D00007E48C07801283BD17C484078012838D1D2
:103D10007A48007828BB0120784908707948006803
:103D200001280DD177481438006848B901220221D2
:103D300040F6C410FEF71DFE01207049487110E0E6
:103D400070481438006801280BD16E48006840B9EB
:103D50000022022140F6C410FEF70BFE0120674945
:103D600048716A4800780028CDD164484078401CEA
:103D700062494870002008704FF4FA70FDF7A7FE02
:103D8000EBE05E484078022845D15C48007890BB63
:103D90005C480068012804D05A481438006801289B
:103DA00009D10020FF2161236D22CDE900100321FC
:103DB00000F014FD1CBD53480C38006848B1514850
:103DC0000C38006801280AD14E48001F00680128FD
:103DD00005D103204949487000200870EAE74948A6
:103DE000001F006838B901204449087001221146BB
:103DF000C820FEF7BEFD474800780028C0D13F48E4
:103E00004078401C3D494870002008704FF4FA701B
:103E1000FDF75DFEA1E03948407803282ED13748F0
:103E2000007888B9012035490870002201214CF240
:103E30005030FEF79EFD01203749087000221146E0
:103E40004CF25030FEF795FD32480078002814D12E
:103E500029480078002810D12848007901287CD111
:103E600000202649087108464078401C4870002010
:103E700008704FF4FA70FDF72AFE6EE01F48407894
:103E800004281AD11D48007840B901201B49087048
:103E9000012202214FF4FA70FEF76BFD1B480078F7
:103EA000F0BB16484078401C144948700020087048
:103EB0004FF4FA70FDF70BFE4FE0104840780528EC
:103EC00037D10E48007840B901200C490870002213
:103ED00002214FF47A70FEF74CFD0C480078F8B9D7
:103EE00000200E49087005484078401C034918E03E
:103EF0006C03002088000020BC010020A4000020EA
:103F00000C8121422C01234294012242DC02002038
:103F1000900121424C02002094000020AB000020C0
:103F20001BE04870002008704FF4FA70FDF7CFFDD9
:103F300013E00120FA498870487000200870C870AA
:103F4000052161236D22CDE90010032100F046FC1C
:103F5000012232210846FCF78AFA00BF2AE72DE940
:103F6000F04104460D4616461F46DDF818804346CC
:103F70003A4631462846A047BDE8F08130B5E94CC5
:103F80002468012C12D0E74C241D2468012C0DD08C
:103F9000E44C08342468012C08D0E34C2468012C3C
:103FA00004D0E14C143C2468012C00D130BD032422
:103FB000DE4DEC8220242C706A82AB8200246C706F
:103FC000EC83F024AC830124D94D2C70D74DEC73D5
:103FD000EC700024AC7301242C716C7100BFE5E718
:103FE00030B5D04C2468012C12D0CE4C241D24684E
:103FF000012C0DD0CB4C08342468012C08D0CA4CBD
:104000002468012C04D0C84C143C2468012C00D135
:1040100030BD0324C54DEC822C4621706A8203F129
:104020001404AC822C466070C24C2488EC83C24CD1
:104030002488AC830124BE4D2C70BC4D2C74AC7014
:104040002C716C71AC71EC712C726C720024AC73BD
:1040500000BFDDE730B5B34C2468012C12D0B14C61
:10406000241D2468012C0DD0AE4C08342468012C8A
:1040700008D0AD4C2468012C04D0AB4C143C24680F
:10408000012C00D130BD0324A84DEC822C462170B8
:104090006A82A3F11404AC822C466070A54C24887B
:1040A000EC83A54C2488AC830124A14D2C709F4D3A
:1040B000EC73EC702C716C71AC71EC712C726C72D5
:1040C0000024AC7300BFDDE701209549C8700020D3
:1040D000887070472DE9F0479848007800287BD019
:1040E0009648C07806281AD2DFE800F0B9031A35DE
:1040F0004E7792484078012807D100208F494870B8
:1041000001221146C820FEF734FC8D48007830B9F2
:104110008A48C078401C8949C870012048709EE0D8
:104120008648407801280BD100208449487001203E
:1041300084490870002201214CF25030FEF719FC2E
:104140007F48007830B97D48C078401C7B49C870F2
:104150000120487083E079484078012808D1002088
:1041600076494870012211464CF25030FEF701FCAE
:104170006D482838006830B17048C078401C6F49DD
:10418000C870012048706AE06C484078012818D156
:1041900000206A4948706C480CC800206B4904F044
:1041A000BEFF04460D466649086905F046F8064616
:1041B00022462B4604F03BFF804605F05FF860493D
:1041C00048605F48007830B95C48C078401C5B4963
:1041D000C8700120487042E042E058484078012809
:1041E00013D100205549487057480CC80020584941
:1041F00004F095FF054605F041F804460022012130
:10420000FEF7B7FB01204D4988704D48007828BB68
:1042100000204A4988704A49087000214D4804F03E
:1042200097F84D4800684D490860C82204214B4862
:1042300002F024FE4848006840494860464800684B
:104240003F49C1F8800001203C49C87048700020F7
:104250000870012232210846FCF709F900BF00BFAF
:10426000BDE8F08710B535488078012812D12E4876
:104270002838006801280DD13148D0F8800038492D
:104280000968884206D200202D4908700021314873
:1042900004F05EF810BD0346012A02D0022A3ED186
:1042A0002EE10C2B73D2DFE803F0061B30687E93FF
:1042B000A8BDD2E7FEF10A2910D2DFE801F0050619
:1042C0000708090A0B0C0D0E08E007E006E005E000
:1042D00004E003E002E001E000E000BF00BF0DE108
:1042E0000A2910D2DFE801F005060708090A0B0CBD
:1042F0000D0E08E007E006E005E004E003E002E060
:1043000001E000E000BF00BFF8E00A2933D2DFE897
:1043100001F005292A2B2C2D2E2F30312BE0F9E12D
:10432000A40000200C8121422C0123426C030020B8
:1043300075000020800000207C0000209C000020F0
:104340004C02002094000020500000200000494052
:104350000080564000080040900000209800002097
:104360008C00002007E006E005E004E003E002E046
:1043700001E000E000BF00BFC0E00A2911D2DFE881
:1043800001F0050708090A0B0C0D0E0F09E0B4E057
:1043900007E006E005E004E003E002E001E000E001
:1043A00000BF00BFAAE00A2910D2DFE801F005062D
:1043B0000708090A0B0C0D0E08E007E006E005E00F
:1043C00004E003E002E001E000E000BF00BF95E090
:1043D0000A2910D2DFE801F005060708090A0B0CCC
:1043E0000D0E08E007E006E005E004E003E002E06F
:1043F00001E000E000BF00BF80E00A2910D2DFE842
:1044000001F005060708090A0B0C0D0E08E007E08D
:1044100006E005E004E003E002E001E000E000BFA8
:1044200000BF6BE00A2910D2DFE801F0050607089B
:10443000090A0B0C0D0E08E007E006E005E004E0B9
:1044400003E002E001E000E000BF00BF56E00A29FF
:1044500010D2DFE801F005060708090A0B0C0D0E63
:1044600008E007E006E005E004E003E002E001E028
:1044700000E000BF00BF41E00A2912D2DFE801F0EE
:104480000508090A0B0C0D0E0F100AE020E00AE0E7
:1044900007E006E005E004E003E002E001E000E000
:1044A00000BF00BF2AE00A2910D2DFE801F00506AC
:1044B0000708090A0B0C0D0E08E007E006E005E00E
:1044C00004E003E002E001E000E000BF00BF15E00F
:1044D0000A2910D2DFE801F005060708090A0B0CCB
:1044E0000D0E08E007E006E005E004E003E002E06E
:1044F00001E000E000BF00BF00E000BF00BF09E135
:104500000C2B70D2DFE803F0061B30455A70859AF9
:10451000AFC4D9EE0A2910D2DFE801F0050607087A
:10452000090A0B0C0D0E08E007E006E005E004E0C8
:1045300003E002E001E000E000BF00BFE8E00A297C
:1045400010D2DFE801F005060708090A0B0C0D0E72
:1045500008E007E006E005E004E003E002E001E037
:1045600000E000BF00BFD3E00A2910D2DFE801F06D
:1045700005060708090A0B0C0D0E08E007E006E027
:1045800005E004E003E002E001E000E000BF00BF5E
:10459000BEE00A2910D2DFE801F005060708090A83
:1045A0000B0C0D0E08E007E006E005E004E003E078
:1045B00002E001E000E000BF00BFA9E00A2910D23C
:1045C000DFE801F005060708090A0B0C0D0E08E0EC
:1045D00007E006E005E004E003E002E001E000E0BF
:1045E00000BF00BF94E092E00A2910D2DFE801F09A
:1045F00005060708090A0B0C0D0E08E007E006E0A7
:1046000005E004E003E002E001E000E000BF00BFDD
:104610007EE00A2910D2DFE801F005060708090A42
:104620000B0C0D0E08E007E006E005E004E003E0F7
:1046300002E001E000E000BF00BF69E00A2910D2FB
:10464000DFE801F005060708090A0B0C0D0E08E06B
:1046500007E006E005E004E003E002E001E000E03E
:1046600000BF00BF54E00A2910D2DFE801F00506C0
:104670000708090A0B0C0D0E08E007E006E005E04C
:1046800004E003E002E001E000E000BF00BF3FE023
:104690000A2910D2DFE801F005060708090A0B0C09
:1046A0000D0E08E007E006E005E004E003E002E0AC
:1046B00001E000E000BF00BF2AE00A2910D2DFE8D5
:1046C00001F005060708090A0B0C0D0E08E007E0CB
:1046D00006E005E004E003E002E001E000E000BFE6
:1046E00000BF15E00A2910D2DFE801F0050607082F
:1046F000090A0B0C0D0E08E007E006E005E004E0F7
:1047000003E002E001E000E000BF00BF00E000BF06
:1047100000BF00BF00BF704710B586B0044601213E
:10472000880403F08EF90121082003F07DF9FD488B
:1047300004F0ECF84FF48060ADF8140003208DF81D
:10474000160018208DF8170005A9F74802F090FE12
:104750004FF40060ADF8140004208DF8170005A98F
:10476000F14802F085FE01940020ADF80800ADF894
:104770000A00ADF80C00ADF810000C20ADF80E00EA
:1047800001A9E84804F005F90120E8490860802102
:10479000E44804F072FA0121E24804F086F90122AB
:1047A00040F22551DF4804F08CF927208DF80000F5
:1047B00002208DF8010003208DF8020001208DF801
:1047C0000300684602F0FDFC0020D949097801EB9E
:1047D0000111D84A02F8110006B010BD2DE9F05FB2
:1047E0000546884691469A460B9EE80000F10A0766
:1047F000384604F0D1FE04463946204604F0A3FAB8
:10480000AA20207055206070A57084F8038084F879
:10481000049084F805A00A98A071012D18D1307871
:10482000207270786072B078A072F078E07230799F
:10483000207370796073B079A073F079E073A02170
:10484000E800083021545F21E8000930215407E0D6
:10485000A021E800083021545F21E80009302154EC
:10486000022012E0072809D0082101EBC50181428E
:1048700004D0092101EBC501814200D104E0E179B6
:10488000225C1144E17100BF401CE9000A31814201
:10489000E8DC4FF0000B0DE000BF4021A14804F020
:1048A000DFF90128F9D114F80B109E4804F06AF9D9
:1048B0000BF1010BBB45EFD3204604F045FEBDE8EC
:1048C000F09F2DE9FC5F9C48C08A082805D2DFE8EC
:1048D00000F0040506CFFEFDFCFBD7E2FDE797499B
:1048E000D1F8800004F098FC804695480CC84046FA
:1048F00004F0A3FB06460022924B04F0F7FA0446AC
:104900000022914B04F00BFC824604F0B7FC8F4967
:1049100008708A49D1F8800004F07EFCCDE90001DE
:1049200087480CC8009804F088FB06460022854B97
:1049300004F0DCFA04460022854B04F0F0FB8046CC
:1049400004F09CFC00F0FF0A4FEAEA700AEB1060EA
:104950000012AAEB00207D4948707E49D1F8800002
:1049600004F05AFC80467C480CC8404604F065FBC5
:1049700082460022734B04F0B9FA06460022724BBD
:1049800004F0CDFB044604F079FC7049887071494D
:10499000D1F8800004F040FC80466F480CC84046C7
:1049A00004F04BFB06460022664B04F09FFA0446D7
:1049B0000022674B04F0B3FBCDE9000104F05EFC7C
:1049C00000F0FF0A4FEAEA700AEB10600012AAEB4F
:1049D00000205E49C8706148006D002802DA01209D
:1049E000087102E00020594908715C49086D04F023
:1049F00013FC5B4A5B4BCDE9000104F01EFB06464D
:104A00000022504B04F072FA80460022504B04F012
:104A100086FB044604F032FC00F0FF0A4FEAEA701D
:104A20000AEB10600012AAEB002048494871424886
:104A3000408BB0F57A7F04D03F48807E401C88715F
:104A400002E0F020414988713B48007E3F49C8712F
:104A50000846002161236D22CDE9001002210120CA
:104A6000FFF7BCFE012232210846FBF700FDAFE351
:104A70003148007811287DD005DC48B101287AD072
:104A8000102879D1E6E0202877D03028F9D191E1BB
:104A90002A480078002871D12E48007800286DD16E
:104AA0002E48007800287DD12F480068012817D0B3
:104AB0002D48001D0068012812D02B4808300068DE
:104AC00001280DD0294803E070E31EE396E2DEE101
:104AD0000068012804D025481438006801280FD147
:104AE0000020FF2161236D22CDE900100321FFF793
:104AF00075FE052232210846FBF7B9FCBDE8FC9F94
:104B00000020012161236D22CDE900100321FFF770
:104B100065FE0120164908700749C873C8700871FE
:104B200048712CE000480040000C0140BC012142CB
:104B3000B70000208C0300206C030020BC01002083
:104B4000480000200000E03F00007040AF0000205F
:104B50000000F03F4C02002050000020DC0200204A
:104B60000AD7A3703D0AB73F0C8121422C01234292
:104B700075000020C6E016E087E13BE112E0887195
:104B8000C871087248720846808A143888820020EA
:104B900088730846C07A401CC87201223221084638
:104BA000FBF765FC71E1FE480078002851D1FD4813
:104BB000007800284DD1FC480078002849D1FB48F6
:104BC0000068012812D0F948001D006801280DD0A6
:104BD000F64808300068012808D0F5480068012828
:104BE00004D0F3481438006801280ED10020FF21BA
:104BF00061236D22CDE900100321FFF7EFFD0522AF
:104C000032210846FBF733FC78E7002001216123BD
:104C10006D22CDE900100321FFF7E0FD0120E549F9
:104C20000870E549C873C870087148718871C87107
:104C3000087248720846808A143888820020887377
:104C40000846C07A401CC872012232210846FBF790
:104C50000EFC1AE1D2480078002852D1D1480078E1
:104C600000284ED1D048007800284AD1CF480068AB
:104C7000012812D0CD48001D006801280DD0CB4876
:104C800008300068012808D0C9480068012804D00D
:104C9000C7481438006801280ED105223221084681
:104CA000FBF7E5FB0020FF2161236D22CDE9001019
:104CB0000321FFF793FD21E70020012161236D22ED
:104CC000CDE900100321FFF789FDBB48807A401C25
:104CD000B94988720120B7490870B74908748870CB
:104CE000087148718871C871087248720020887311
:104CF0000846808A14308882012232210846FBF758
:104D0000B6FBC2E0A6480078002852D1A54800783A
:104D100000284ED1A448007800284AD1A348006852
:104D2000012812D0A148001D006801280DD09F481D
:104D300008300068012808D09D480068012804D088
:104D40009B481438006801280ED10020FF21612300
:104D50006D22CDE900100321FFF740FD052232212D
:104D60000846FBF784FBC9E60020012161236D2280
:104D7000CDE900100321FFF731FD8F48807A401CF8
:104D80008D49887201208B4908708B49087488709E
:104D9000087148718871C871087248720020887360
:104DA0000846808A14308882012232210846FBF7A7
:104DB0005EFB6AE07A480078D8B97A480078C0B9D2
:104DC00079480078A8B90020012161236D22CDE93E
:104DD00000100321FFF702FD01207849C870002070
:104DE0008870012076490870012232210846FBF7BD
:104DF0003EFB4AE06A480078F0BB6A480078D8BBBE
:104E000069480078C0BB69480068012812D067482B
:104E1000001D006801280DD0644808300068012892
:104E200008D063480068012804D06148143800683D
:104E300001280ED1052232210846FBF718FB00207D
:104E4000FF2161236D22CDE900100321FFF7C6FC8D
:104E500054E60020012161236D22CDE900100321D9
:104E6000FFF7BCFC0120534908705349C873C87050
:104E700000208873012000E006E0087148710122DB
:104E800032210846FBF7F3FA00BF00BFA0E1012082
:104E9000494948740020012161236D22CDE90010A9
:104EA0000321FFF79BFC4448007800F0300020B15C
:104EB000102850D0202839D139E03C48006801281A
:104EC00012D03A48001D006801280DD0374808303C
:104ED0000068012808D036480068012804D034480A
:104EE0001438006801280ED10020FF2161236D22B3
:104EF000CDE900100321FFF771FC0522322108469D
:104F0000FBF7B5FAFAE52C48007800F0010010B183
:104F100001280AD104E000210846FEF77CFE04E0E7
:104F200001210020FEF777FE00BF00BF5FE02248AE
:104F3000007800F0010010B101280AD104E001213D
:104F40000220FEF768FE04E000210220FEF763FE67
:104F500000BF00BF4BE015480068012812D013487D
:104F6000001D006801280DD0104808300068012895
:104F700008D00F480068012804D00D481438006894
:104F8000012822D10020FF2161236D22CDE90010EC
:104F90000321FFF723FC05223221084612E000001E
:104FA000BC0100204C020020DC0200200C812142C8
:104FB0002C012342750000206C030020A400002077
:104FC00094000020FBF753FA98E5FE48007800F0C3
:104FD000010028B1012808D10021FEF71CFE04E0E1
:104FE00001210846FEF717FE00BF00BF00BF00BF4B
:104FF000012232210846FBF73AFAE9E000200121BC
:1050000061236D22CDE900100321FFF7E7FBED4896
:1050100000780411002C01DD102400E0002404F0CD
:10502000100010B1102869D12DE0E648007800F09A
:105030000F00082821D2DFE800F02004080C10142B
:10504000181C0020DF4908761BE00120DD490876A6
:1050500017E00220DB49087613E00320D9490876DF
:105060000FE00420D74908760BE00520D5490876E3
:1050700007E00620D349087603E00020D1490876EE
:1050800000BF00BF3AE0CF48007800F0F00000F029
:105090000F0169BB001110282AD2DFE800F02908AF
:1050A0000C1014181C202929292929292924002019
:1050B000C449488320E00120C24948831CE0022003
:1050C000C049488318E00320BE49488314E0042007
:1050D000BC49488310E00520BA4948830CE006200B
:1050E000B849488308E04FF47A70B649488303E032
:1050F0000020B449488300BF00BF00BF00BF0122A9
:1051000032210846FBF7B3F962E000200121612358
:105110006D22CDE900100621FFF760FBA948007859
:1051200080BB0020A849087000214FF0804003F0A8
:105130000FF90020A54908700021A54803F008F9DF
:105140000020A44908700021A34803F001F90020C1
:105150009C49C87308748882488201209F4908705E
:105160009849C8708870087148718871C871087250
:105170004872002088730120994948700020087007
:10518000C8700DE0FFE70120964908609649087055
:1051900040F2DC50FCF79BFC40F2DC50FCF797FC43
:1051A000012232210846FBF762F911E000200121BB
:1051B00061236D22CDE900100721FFF70FFB0020CE
:1051C00082490865012232210846FBF750F900BFE9
:1051D00000BF00BF92E410B58448007800287DD05D
:1051E00082480078401E00EB0010814901EB40002E
:1051F00090F820107D480078401E00EB00107C4A9B
:1052000002EB4000007A814226D0002177480078E6
:10521000401E00EB001002EB400080F820107348A5
:105220000078401E00EB001002F810106F4909785A
:10523000491E01EB011102EB4101481C1E2103F044
:1052400082FD6A480078401E6849087003223221B6
:105250000846FBF70CF910BD64480078401E00EBCF
:105260000010634901EB400040796D2836D10021E0
:105270005E480078401E00EB00105D4A02EB4000E3
:1052800001725A480078401E00EB001002F810101E
:1052900056480078401E00EB001002EB400080F8FA
:1052A000201052480078401E00EB0010114601EB20
:1052B000400000794349C8824C480078401E00EB0A
:1052C0000010114601EB4000C0793E490870474884
:1052D0000078401E00EB0010114600E08EE001EB6C
:1052E0004000807800285DD040480078401E00EBE8
:1052F000001001EB4000817A3C480078401E00EB32
:10530000001002EB4000407A01EB00202D4948825A
:1053100036480078401E00EB0010114601EB4000BB
:10532000017B32480078401E00EB001002EB400089
:10533000C07A01EB0020234988822C480078401E67
:1053400000EB0010114601EB4000407B1D49487006
:1053500026480078401E00EB0010114601EB40008B
:10536000C17B22480078401E00EB001002EB400099
:10537000807B01EB00201349C8831C480078401E45
:1053800000EB0010114601EB4000417C174800780B
:10539000401E00EB001002EB4000007C01EB0020FF
:1053A0000849888311490978491E01EB0111104A07
:1053B00002EB4101481C1E2103F0C5FC0B4800789C
:1053C000401E17E06C030020BC010020DC0200201E
:1053D000000400404C02002000080040750000203E
:1053E000A400002094012142AC000020B70000205E
:1053F0008C030020FE490870FFF763FA00BF2AE71C
:1054000010B540F22551FB4803F06AFCF94803F05F
:10541000BDFBF749097801EB0111F74A02EB4101A5
:10542000C877F64800780B2856D2DFE800F0065619
:10543000A6F2F0EFEEEDECEBEA00ED48007800EBC1
:105440000010ED4901EB4000C07FAA2829D1E848AF
:10545000007800EB001001EB4000C17FE4480078C9
:1054600000EB0010E44A02EB4000401CE04A1278D6
:1054700002EB0212E04B13F8122081540120DF49A5
:105480000870DB48007800EB0010194611F8100096
:10549000401CD749097801EB01111A4602F81100A6
:1054A0001AE00020D5490870D149097801EB0111B3
:1054B000D14A02F81100CE49097801EB011102EB43
:1054C000410181F820000120C949097801EB01114F
:1054D00002EB410181F8210065E3C548007800EB4B
:1054E0000010C54901EB4000C07F552829D1C048B4
:1054F000007800EB001001EB4000C17FBC48007851
:1055000000EB0010BC4A02EB4000401CB84A127885
:1055100002EB0212B84B13F8122081540220B74953
:105520000870B348007800EB0010194611F810001D
:10553000401CAF49097801EB01111A4602F811002D
:105540001AE00020AD490870A949097801EB011162
:10555000A94A02F81100A649097801EB011102EBF2
:10556000410181F820000120A149097801EB0111D6
:1055700002EB410181F8210015E39D48007800EB22
:1055800000109D4901EB4000C17F9948007800EB75
:105590000010994A02EB4000401C954A127802EB39
:1055A0000212954B13F8122081540320934908707E
:1055B0008F48007800EB0010194611F81000401CCD
:1055C0008B49097801EB01111A4602F8110088484D
:1055D000007800EB0010114601EB400090F820002D
:1055E0008349097801EB011102EB4101C97F0844AD
:1055F0007F49097801EB011102EB410181F820009C
:10560000D1E27DE22CE27FE11CE1CEE089E044E0E2
:10561000FFE77748007800EB0010774901EB400086
:10562000C17F7348007800EB0010734A02EB400022
:10563000401C6F4A127802EB02126F4B13F81220D3
:10564000815404206D4908706948007800EB00100F
:10565000194611F81000401C6549097801EB011149
:105660001A4602F811006248007800EB001011465B
:1056700001EB400090F820005D49097801EB011131
:1056800002EB4101C97F08445949097801EB011136
:1056900002EB410181F8200085E25548007800EBDB
:1056A0000010554901EB4000C17F5148007800EBE4
:1056B0000010514A02EB4000401C4D4A127802EBA8
:1056C00002124D4B13F81220815405204B490870EB
:1056D0004748007800EB0010194611F81000401CF4
:1056E0004349097801EB01111A4602F811004048BC
:1056F000007800EB0010114601EB400090F820000C
:105700003B49097801EB011102EB4101C97F0844D3
:105710003749097801EB011102EB410181F82000C2
:1057200041E23348007800EB0010334901EB4000C0
:10573000C17F2F48007800EB00102F4A02EB400099
:10574000401C2B4A127802EB02122B4B13F812204A
:1057500081540620294908702548007800EB001084
:10576000194611F81000401C2149097801EB01117C
:105770001A4602F811001E48007800EB001011468E
:1057800001EB400090F820001949097801EB011164
:1057900002EB4101C97F08441549097801EB011169
:1057A00002EB410181F82000FDE11148007800EB97
:1057B0000010114901EB4000C17F0D48007800EB5B
:1057C00000100D4A02EB4000401C094A127802EB1F
:1057D0000212094B13F81220815407200749087060
:1057E0000348007800EB0010194611F8100007E09C
:1057F000B7000020004800408C030020B8000020C3
:10580000401CEA49097801EB01111A4602F811001F
:10581000E648007800EB0010114601EB400090F8DC
:105820002000E249097801EB011102EB4101C97F37
:105830000844DE49097801EB011102EB410181F8CE
:105840002000B0E1D948007800EB0010D84901EB06
:105850004000C17FD548007800EB0010D44A02EB2D
:105860004000401CD14A127802EB0212D04B13F8D0
:10587000122081540820CF490870CC48007800EBF2
:105880000010194611F81000401CC849097801EBB6
:1058900001111A4602F81100C448007800EB00100C
:1058A000114601EB4000C07820B1012806D0022843
:1058B0000CD107E00920BF49087023E00820BD494A
:1058C00008701FE00820BB4908701BE00020B949A0
:1058D0000870B649097801EB0111B54A02F81100C8
:1058E000B249097801EB011102EB410181F8200076
:1058F0000120AE49097801EB011102EB410181F869
:10590000210000BF00BF4EE1A848007800EB001066
:10591000A74901EB4000C078012802D002284DD1F0
:105920004DE0A248007800EB0010A14901EB4000D7
:10593000C17F9E48007800EB00109D4A02EB4000BA
:10594000401C9A4A127802EB0212994B13F812206B
:1059500081549648007800EB0010194611F81000A9
:10596000401C9249097801EB01111A4602F8110016
:105970008E48007800EB0010114601EB400090F8D3
:1059800020008A49097801EB011102EB4101C97F2E
:1059900008448649097801EB011102EB410181F8C5
:1059A00020008248007800EB0010114611F810002A
:1059B000C01F082802D109207E4908704EE07B48AC
:1059C000007800EB00107A4901EB4000C17F774876
:1059D000007800EB0010764A02EB4000401C734A4E
:1059E000127802EB0212724B13F8122081546F48A6
:1059F000007800EB0010194601EB400090F8200001
:105A00006A49097801EB01111A4602EB4101C97F8D
:105A100008446649097801EB011102EB410181F864
:105A200020006248007800EB0010114611F81000C9
:105A3000C01F102802D109205E4908705B48007819
:105A400000EB00105A4911F81000401C5749097822
:105A500001EB0111564A02F8110000BF00BFA2E09D
:105A60005248007800EB0010514901EB4000C07F24
:105A7000A02829D14D48007800EB001001EB400030
:105A8000C17F4A48007800EB0010494A02EB400011
:105A9000401C464A127802EB0212454B13F81220C2
:105AA00081540A20434908704048007800EB0010F8
:105AB000194611F81000401C3C49097801EB01110E
:105AC0001A4602F811001AE000203A4908703749D6
:105AD000097801EB0111364A02F8110033490978BF
