:020000040800F2
:100000003009002001580008090200080B0200080E
:100010000F02000813020008170200080000000089
:100020000000000000000000000000001B020008AB
:100030001D020008000000001F0200082102000845
:100040001B5800081B5800081B5800081B580008C4
:100050001B5800081B5800081B5800081B580008B4
:100060001B5800081B5800081B5800081B580008A4
:100070001B5800081B5800081B5800081B58000894
:100080001B5800081B5800081B5800081B58000884
:100090001B5800081B5800081B5800081B58000874
:1000A0001B5800081B5800081B5800081B58000864
:1000B000EF1F0008AF1D00081B5800081B58000860
:1000C0001B5800081B5800081B5800081B58000844
:1000D0001B5800081B5800081B5800081F2900085F
:1000E0001B5800081B5800081B5800081B58000824
:1000F0001B5800081B5800081B5800081B58000814
:100100001B5800081B5800081B5800081B58000803
:100110001B5800081B5800081B5800081B580008F3
:100120001B5800081B5800081B5800081B580008E3
:1001300000F002F800F03AF80AA090E8000C8244BF
:100140008344AAF10107DA4501D100F02FF8AFF29C
:10015000090EBAE80F0013F0010F18BFFB1A43F0A5
:1001600001031847C8570000E8570000103A24BFA1
:1001700078C878C1FAD8520724BF30C830C144BF0C
:1001800004680C607047000000230024002500264E
:10019000103A28BF78C1FBD8520728BF30C148BFEA
:1001A0000B6070471FB51FBD10B510BD05F07DFB7E
:1001B0001146FFF7F7FF00F009F805F09BFB03B4C9
:1001C000FFF7F2FF03BC05F09FFB000010B502F043
:1001D000DDFB0C480078012802D102F037FF0FE068
:1001E00008480078062802D102F0E4FC08E005483F
:1001F0000078022804D003480078042800D000BF0B
:10020000002010BD59000020704700BFFEE700BF6E
:10021000FEE700BFFEE700BFFEE77047704770478C
:10022000704700000CB50020019000906B480068FA
:1002300040F480306949086000BF6848006800F4F5
:10024000003000900198401C0190009818B9019866
:10025000B0F5A06FF1D16148006810F4003F02D002
:100260000120009001E0002000900098012842D178
:100270005B48006840F01000594908600846006873
:1002800020F0030008600846006840F002000860A3
:1002900052484068514948600846406848600846EE
:1002A000406840F4806048600846406820F47C1054
:1002B00048600846406840F4E81048600846006816
:1002C00040F08070086000BF4448006810F0007F74
:1002D000FAD04248406820F0030040494860084690
:1002E000406840F00200486000BF3C48406800F0B1
:1002F0000C000828F9D10CBD10B5FFF793FF10BD15
:1003000010B53648006840F00100344908600846DE
:10031000406834490840314948600846006832491D
:1003200008402E4908600846006820F480200860D4
:100330000846406820F4FE0048604FF41F008860C3
:10034000FFF7DAFF4FF000602849086010BD10B5D4
:10035000002100200022214B5B6803F00C0121B139
:10036000042906D0082928D107E0214B214C23601D
:1003700027E01F4B1F4C236023E0184B5B6803F4FE
:100380007010164B5B6803F48032022303EB90403D
:1003900022B9194B4343174C23600DE00F4B5B68A8
:1003A00013F4003F04D0144B4343124C236003E08A
:1003B0000F4B43430F4C236003E00D4B0D4C236068
:1003C00000BF00BF054B5B68C3F303130B4CE15C3C
:1003D000084B1B68CB40074C236010BD0010024047
:1003E000002002400000FFF8FFFFF6FE08ED00E0ED
:1003F00000127A000000002000093D0004000020E7
:100400001748806940F01000154988611548006858
:1004100020F07060134908600846006840F04070A2
:1004200008600846C068C86070472DE9F04107467B
:100430000C46154600260EE001200B4908603846A0
:1004400002F06EFB00200949C1F89801204602F035
:1004500067FB701CC6B2AE42EEDBBDE8F081000067
:100460000010024000100140980122420000224288
:100470002DE9FF4106460F4614461D468DF80A60D9
:1004800000208DF80B0001208DF80C00780140EA67
:10049000543080B2ADF80000E004000CADF802006A
:1004A0005D2000EA1540ADF804004FF6F8702840D2
:1004B000ADF806000020ADF8080001208DF80D0011
:1004C000684603F0A8F8BDE8FF8170B504462078BF
:1004D000C000617840EA61156078FE4901EA403069
:1004E000A17840EA4110E17840EAE106FA4B324651
:1004F00029460020FFF7BCFF70BD10B586B004464A
:10050000F6A0006805900121480604F00CF80121CE
:10051000042003F0FBFFF2480068C043000AF149E1
:1005200048704FF48050ADF8100003208DF8120091
:1005300018208DF8130004A9EB4803F031FD4FF4A7
:100540000060ADF8100004208DF8130004A9E648FF
:1005500003F026FDE54802F0BBFF01A803F0DCF83C
:1005600000208DF80A008DF80B008DF80C008DF836
:100570000D008DF80E008DF80F008DF806008DF837
:10058000070007208DF8080006208DF80900ADF857
:10059000044001A9D54802F0B4FFD24840788DF854
:1005A000140005A8FFF791FF00220221CF4803F0B5
:1005B00044FB06B010BD70B586B004462078C0F389
:1005C000801008B1022000E000208DF80D00207896
:1005D0000121B1EBD01F01D1042000E000208DF8F3
:1005E0000C00207800F00F008DF80E006078C0003D
:1005F000A17840EA611001902079C010E17840EACA
:100600004110A17840EA41300290002506E0681DC3
:10061000215C0DF10F004155681CC5B2207800F037
:100620000F00A842F3DC01A9B04803F0E3F8064646
:10063000042E04D12420FFF760FF06B070BD002512
:1006400001E0681CC5B23146A84803F07EF90128D4
:1006500001D0FF2DF5D1002501E0681CC5B20021B5
:10066000A24803F052FA012801DAFF2DF5D100BFAC
:10067000E3E770B505462846FFF79DFF002404E038
:10068000285D9B490855601CC4B20D2CF8DB40F274
:10069000E7309849086070BD002194480C3000682C
:1006A00000F00301012904D0022904D0032906D156
:1006B00003E0012070470220FCE70320FAE7002056
:1006C000F8E72DE9F04786B082460C4617468A487F
:1006D000006800F00F088948006840F2FF7101EAE5
:1006E0005059864800687B4901EAD0064FEAD90094
:1006F00020704FF01F0000EA563009F0030140EA75
:1007000041106070C6F34710A0704FEAC6604FEA10
:100710001060E07001AA4FF00001744803F072F914
:10072000002505E00DF10F00405D7855681CC5B24D
:100730004545F7DB404606B0BDE8F08770B50026BA
:100740006F4890F82C50002407E06D482930611C58
:10075000405C3044C6B2601CC4B2E81C8442F4DB86
:1007600067482930291D405CB0426ED1644890F83A
:1007700029004028F9D1624890F82A00F728F4D1DE
:100780005F4890F82B00F728EFD15D4890F82C00D7
:1007900005285ADB5A4890F82D0010F0800F54D0ED
:1007A000574890F82E004F494978884204D0544861
:1007B00090F82E000228D8D1514890F8300000F06F
:1007C00010001028D1D14E4890F82F000128CCD12C
:1007D0004B4890F8300010F0030006D0012812D0EA
:1007E000022875D003280DD150E1454890F8320019
:1007F000012807D100204349088001221E21084614
:10080000FFF713FE53E13E4890F83100C01019285D
:1008100040D2DFE800F03F0D407FAE3F3F3F3F3F1B
:10082000C9CC3F3FC83F3F3FAFCDCECFD0D1FD0079
:100830002C48007801282DD1314890F832008028CA
:1008400004D1314801F079F808E031E12C4890F802
:100850003200402802D1002001F06FF801F0D9F9F0
:100860008320274948700121254881701D4841781F
:100870002348C17011210171082141711948807804
:1008800000F0F7011E4881710021C1710172401C06
:10089000FFF791FEEDE001F0BCF9862018494870A1
:1008A0000121174881700F4841781548C170112106
:1008B0000171102141710B48807800F0F701104858
:1008C00081710021C171017241728172C1721DE09A
:1008D000D1E00000FFFF03000000FFFF0001000067
:1008E0000814014059000020000801400064004045
:1008F0006801002018000020B4650040B065004089
:10090000FC00002028000020B0AD0100401CFFF7D3
:1009100052FEAEE08120CB4948700121C948817068
:10092000C9484178C748C17011210171182141712E
:1009300001218171401CFFF73EFEC24890F8320051
:1009400058B9C248006810B902F0D6FA05E0012093
:10095000BF4908700020BF490860BA4890F83200CB
:10096000012805D10020BC4908700120B849087051
:100970007FE07EE08620B34948700121B148817054
:10098000B1484178AF48C170112101719021417186
:1009900000218171C171017241728172C172401C6A
:1009A000FFF709FE65E064E002F0ECF861E060E06A
:1009B0005FE05EE05DE05CE08820A24948700121D4
:1009C000A0488170A04841789E48C17011210171F2
:1009D000B8214171A14801789A4881719F484178B6
:1009E0009848C1719D488178964801729B48C178AA
:1009F00094484172994801799248817297484179A7
:100A00009048C172954881798E480173934800E0FF
:100A100006E0C1798B484173401CFFF7CCFD28E00C
:100A2000884890F832008E490870864890F8330064
:100A30008C49087081208349487001218148817068
:100A4000814841787F48C17011210171C0214171F5
:100A500001218171401CFFF7AEFD7A4890F8340007
:100A600018B903207A49087002E00220784908701A
:100A700000BF00BF1BE0734890F83100C010082889
:100A800002D102F07FF800BF00BF10E000207649DD
:100A900008606C4890F83100C010022805D1002091
:100AA000724908807249087000BF00BF00BF00BFD4
:100AB00070BDFEB5002000900190FFF7EDFD00280D
:100AC0006CD06A4602A90020FFF7FBFD05464020D6
:100AD0005C4981F82900F7215A4880F82A1080F8EB
:100AE0002B10681DC1B2574880F82C1005F180000A
:100AF000C1B2544880F82D109DF8081080F82E10CF
:100B00009DF8091080F82F109DF80A1080F8301019
:100B10009DF80B1080F8311090F82E004A49497862
:100B2000884204D0474890F82E0002282CD1002497
:100B300008E01DF8042004F10900424929310A5453
:100B4000601CC4B2AC42F4DB002205F109003D494F
:100B500029310A54002410E005F1090039492931EE
:100B60000A5C0846611C405C1044C2B205F10900F1
:100B7000344929310A54601CC4B205F1080084428A
:100B8000EADBFFF7DBFD09E0002605E000212D4848
:100B900029300155701CC6B2082EF7DBFEBD2DE9C9
:100BA000F04106460F4690461D4640F2DC50314962
:100BB000088040E02F480088A0F5A061DC3909D00A
:100BC0002C480088B0F57A7F04D02A480088B0F518
:100BD000FA7F24D127480088401E2649088045F026
:100BE00080001849487008468770174841781548B2
:100BF000C17010210171F006010E124841710024EC
:100C000007E018F80420601D0E49491C0A54601CB6
:100C1000C4B2AC42F5DB0B48401CFFF7CCFCFFF73D
:100C200048FF14480088012805D100201149088098
:100C30000120BDE8F0810F4800880028BAD100BF2C
:100C4000F7E70000FC0000205900002010012342BB
:100C500096000020B8000020B500002068000020A9
:100C6000250000202600002018000020160000208B
:100C70001400002028000020FB48806940F0080094
:100C8000F9498861F948006820F0FF00F7490860D9
:100C90000846006840F033000860F44808300068F7
:100CA00040F44070F14908310860704710B5EF48D2
:100CB000006820F0F000ED4908600846006840F048
:100CC000300008600120EA490860EA49C1F8A00143
:100CD0004FF0040001F001FF0020E54908604FF0EB
:100CE000040001F0FAFE0020E249C1F8A00110BDA5
:100CF00010B5DE48006820F0F000DC4908600846C6
:100D0000006840F0300008600020DB490860D949E5
:100D1000C1F8A4014FF0040001F0DFFE0120D64924
:100D20000860D449C1F8A4014FF0040001F0D5FED9
:100D300010BD10B50024CD48006820F0F000CB496C
:100D400008600846006840F0800008600120C8493B
:100D5000086001F0C2FE0120C649C1F8A00101F0FF
:100D6000BCFE07E0601CC4B2FA2C03DDFFF7C0FF35
:100D7000012010BDC14800680028F3D1BE490860B9
:100D800000BFF6E710B50020BB490860B74800680F
:100D900020F0F000B54908600846006840F03000D7
:100DA00008604FF00000B349C1F8A4014FF0020001
:100DB00001F093FE0120B04908604FF0020001F0FD
:100DC0008CFE0020AB49C1F8A00110BD10B5002079
:100DD000A9490860A548006820F0F000A349086010
:100DE0000846006840F0300008604FF00100A1495B
:100DF000C1F8A4014FF0020001F06FFE01209E49EE
:100E000008604FF0020001F068FE00209949C1F827
:100E1000A00110BD70B504469448006820F0F000B1
:100E2000924908600846006840F0300008600020E1
:100E300091490860054620E0E00903D001208C4973
:100E4000086002E000208A4908604FEA44604FEAE7
:100E500010644FF0020001F040FE01208649086056
:100E60004FF0020001F039FE00208249C1F8A001D4
:100E7000022001F032FE681CC5B2082DDCDB70BD1B
:100E800070B5054600247948006820F0F0007749E5
:100E900008600846006840F080000860002616E000
:100EA0000020754908604FF0020001F016FE012095
:100EB0007049C1F8A0016006040E7048006808B1CE
:100EC000601CC4B2012001F008FE701CC6B2082EDE
:100ED000E6DB15B9FFF77AFF01E0FFF753FF204685
:100EE00070BD00B5FFF7C8FE00BD70B50446002612
:100EF000FFF7DCFEA020FFF78DFFFFF71AFF20129F
:100F0000FFF788FFFFF715FF2546E11704EB116196
:100F10000912A4EB0121C8B2FFF77CFFFFF709FF1C
:100F2000FFF7C4FEA120FFF775FFFFF702FF0020C7
:100F3000FFF7A6FF0646FFF7DBFE304670BD2DE942
:100F4000F04105460E46002700240CE0291988B21E
:100F5000FFF7CBFF291988B2FFF7C7FFE1008840F0
:100F60000743601CC4B2B442F0DB3846BDE8F081F0
:100F700070B504460E46FFF799FEA020FFF74AFF22
:100F8000FFF7D7FE2012FFF745FFFFF7D2FE2546F9
:100F9000E11704EB11610912A4EB0121C8B2FFF7BC
:100FA00039FFFFF7C6FE3046FFF734FFFFF7C1FEFB
:100FB000FFF79EFE0A2001F0B3FD70BD2DE9F04160
:100FC00005460E461746002406E0291988B2394620
:100FD000FFF7CEFF601CC4B2B442F6DBBDE8F0817F
:100FE00070B504460D46E9B2A0B2FFF7C1FFC5F3E4
:100FF0000721621C90B2FFF7BBFFC5F30741A21C9B
:1010000090B2FFF7B5FF290EE21C90B2FFF7B0FFD8
:1010100070BD2DE9F04105460E461746002409E053
:10102000E20026FA02F2D1B22A1990B2FFF7A0FF2D
:10103000601CC4B2BC42F3DBBDE8F0812DE9F04195
:1010400007460C460026002509E036023919491BDF
:10105000491E88B2FFF749FF0644681CC5B2A54285
:10106000F3DB3046BDE8F08100100240040C014083
:10107000A481214200802142A08121422481214279
:1010800010B547F6FF70FFF730FF0446552C01D12D
:10109000002010BD552147F6FF70FFF769FF47F6A6
:1010A000FF70FFF722FF0446552C01D10020F0E726
:1010B0000120EEE770B506460C46154608E03046BE
:1010C000721C96B2FFF711FF04F8010B681E85B27F
:1010D000002DF4D170BD70B505460C46164606E0ED
:1010E00021782846FFF744FF681C85B2641C300055
:1010F000A6F101018EB2F3D170BD0000FE488069F7
:1011000040F00400FC4988610846806940F0100006
:1011100088610846806940F040008861F7480068AF
:101120004FF2F0018843F54908600846006848F22C
:1011300080010843F1490860F148006820F0F02080
:10114000EF4908600846006840F0802008600846C3
:10115000406820F0FF0048600846406840F0880082
:101160004860E848006820F07F60E649086008466B
:10117000006840F008600860704710B5E2480068F9
:1011800080B9E248007800280BD1032001F0C8FCA8
:10119000DD4800680028F7D10120DC490870DC49EF
:1011A000087088E0DB48006880B9D84800780028DB
:1011B000F7D1032001F0B4FCD648006800287AD1AA
:1011C0000120D2490870D449087074E0D3480068FF
:1011D00080B9CE48007800286DD1032001F0A0FC32
:1011E000CE480068002866D10120C8490870CC4963
:1011F000087060E0CB48006880B9C44800780028D7
:1012000059D1032001F08CFCC6480068002852D157
:101210000120BE490870C44908704CE0C34800680A
:1012200080B9BA480078002845D1032001F078FC45
:10123000BE48006800283ED10120B4490870BC496E
:10124000087038E0BB48006870B9B048007870BBDF
:10125000032001F065FCB748006840BB0120AB49A2
:101260000870B549087026E0B448006870B9A7480E
:101270000078E0B9032001F053FCB0480068B0B931
:101280000120A2490870AE49087014E0AD4800681A
:1012900070B99E48007850B9032001F041FCA9487C
:1012A000006820B9012099490870A749087002E038
:1012B00000209649087010BD10B5FFF75EFF9448F6
:1012C0000078012807D1002091490870012264218B
:1012D000C820FFF7AAF89048007801280AD100201A
:1012E0008D49087001226421C820FFF79EF8002074
:1012F00000F023FB8A48007801281FD1002088498C
:10130000087092480078012818D191480078022886
:101310000BDA8F480078401C8D4908700846027827
:101320006421C820FFF781F808E00120884908708F
:10133000084602786421C820FFF777F87A480078D9
:10134000012815D100207849087001226421C820A5
:10135000FFF76BF87F48007850B17E480078401C5A
:101360007C49087008460078062801D102200870E0
:101370006F480078012802D100206D4908706E483E
:10138000007801287DD100206B4908706F480078F3
:1013900001282ED16E480078012810D16E4800F047
:1013A000CCFA6E4801681F20FFF71AFE0122C821FF
:1013B0000846FFF73AF8002000F0BFFA19E0644849
:1013C0000078022810D1644800F0B7FA6348016839
:1013D0002320FFF705FE0222C8210846FFF725F863
:1013E000002000F0AAFA04E00322C8210846FFF713
:1013F0001CF858480078022805D100214FF44860B5
:1014000000F05AF93DE053480078032839D051489C
:10141000007804280FD10020514908605149087014
:101420004FF4FA7001F07CFB01204F49C1F8B40180
:101430004C49087025E047480078052821D14B49E0
:101440004B4800F0D1FE4B49087008460078C0B9FF
:10145000474801780020FFF78BFD4548417801207F
:10146000FFF786FD424881780220FFF781FD404862
:10147000C1780320FFF77CFD022232216420FEF7B1
:10148000D4FF2F48007801282BD100202C49087068
:1014900030480078022805D101214FF4486000F05F
:1014A0000BF91EE02B48007803281AD02948007851
:1014B000042816D101F054FD2D480078FF280BD1E7
:1014C0002B484078FF2807D129488078FF2803D18E
:1014D0002748C078FF2804D003226421C820FEF7E3
:1014E000A4FF1948007801284AD100201649087045
:1014F0001848007802283FE0001002400008014030
:1015000000100140001801400C0122422A00002076
:101510002B000020040121422C0000201001214258
:101520002D000020140123422E0000201801234228
:101530002F0000201C012242300000202001224206
:10154000310000202401224232000020350000201A
:101550003400002036000020B1AD010098000020CA
:10156000B4012242960000200000224268000020C0
:10157000520000204D00002002D1002000F0DDF9D3
:1015800010BD00002B48806940F010002949886197
:10159000294800686FF30B00274908600846006877
:1015A00040F233310843244908600846C06840F0DF
:1015B0001C00C86070472148007830B1012810D065
:1015C00002281AD0032831D123E0FA201C490880D0
:1015D0001C49088000201C49087001201B49087024
:1015E00025E0FA201649088016490880012016498E
:1015F000087000201549087019E0FA201049088089
:101600001049088002201049087000200F49087016
:101610000DE04FF4FA700A4908800A490880022058
:101620000949087000200949087000E000BF00BFA8
:10163000704700000010024000100140960000209A
:101640003A0000203C0000203E0000203F00002027
:10165000DF48806940F00800DD49886108468069FC
:1016600040F0100088610846806940F040008861C1
:10167000D8480068C0F31300D649086008460068DF
:10168000D5490843D3490860D4480068D449084084
:10169000D249086008460068D2490843CF4908602B
:1016A000D148406820F47020CF494860084640681F
:1016B00040F40020486070472DE9F04706460F4689
:1016C0004FF0010A1FB90120C849086004E0012F4A
:1016D00002D10020C54908604FF0C8094FF000044E
:1016E0004FF0010AA04622E10120C14908604FF0F5
:1016F000020001F0F2F90020BE49C1F8BC014846E1
:1017000001F0EBF92FB9BC480068401CBA490860E9
:1017100009E0012F07D1B848006820B1B648006839
:10172000401EB5490860B5480068B5490978884247
:101730000ED0B248006858B9B048006840B9BAF154
:10174000010F05D14FF0000AAB480068AD490860B1
:10175000AA48006808B1012000E00020A8490870EC
:1017600041F2883080450ED208EB8800C00040F27C
:10177000E241B0FBF1F0C0F1C809B9F1C80F1FD9BF
:101780004FF028091CE0A6F598508838404502D94A
:101790004FF0280914E0A6EB080041F28831081A3E
:1017A00000EB8000C0008910B0FBF1F000F12809C7
:1017B000B9F1280F02D3B9F1C80F01D94FF0C80908
:1017C0009148864257D1002F55D18C48006810B9F6
:1017D0000DB901254FE08948006818B9012D01D1E4
:1017E000022548E08548006818B9022D01D103257B
:1017F00041E08248006818B9032D01D104253AE080
:101800007E48006818B9042D01D1052533E07B48D6
:10181000006818B9052D01D106252CE0774800682D
:1018200018B9062D01D1072525E07448006818B9BC
:10183000072D01D108251EE07048006818B9082D51
:1018400001D1092517E06D48006818B9092D01D1AB
:101850000A2510E06948006838B90A2D05D1FF252E
:10186000A6F5E048A8F5A66805E06848006810B14C
:10187000FF2D00D00025012F57D16448006810B912
:101880000CB9012451E06148006818B9012C01D15C
:1018900002244AE05D48006818B9022C01D10324F3
:1018A00043E05A48006818B9032C01D104243CE0F5
:1018B0005648006818B9042C01D1052435E0534876
:1018C000006818B9052C01D106242EE04F480068A5
:1018D00018B9062C01D1072427E04C48006818B934
:1018E000072C01D1082420E04848006818B9082CCA
:1018F00001D1092419E04548006818B9092C01D123
:101900000A2412E04148006848B90A2C07D1FF2494
:10191000A6F57A684FF47A603749086005E03B48DD
:10192000006810B1FF2C00D0002408F10108B04578
:10193000FFF4DAAE0020BDE8F08770B50446324807
:1019400084420CD13148006820B10121601EFFF7AC
:10195000B3FE1DE000212C48FFF7AEFE18E026483C
:101960000068A0420AD924480068051BB5F57A6FC3
:101970000ED901212846FFF79FFE09E01E480068A6
:10198000251AB5F57A6F03D900212846FFF794FE92
:1019900070BD00201E4908701E4800681E4908706E
:1019A00040F6B8301D4908800BE01A4800681A4913
:1019B0000978884205D017480068012801D1002025
:1019C0007047164800880028EFD10120F8E7000092
:1019D00000100240040C01400000303304180140A4
:1019E000FFFFF0000000022200100140B8812142F8
:1019F000BC8121420080214240000020008122421F
:101A00004800002098000020B1AD01000C012342E5
:101A1000B500002010012342940000204A0000205D
:101A20001148806940F010000F4988610F484068F4
:101A300020F470000D4948600846406840F480106A
:101A400048600846C06840F40050C860704710B550
:101A50000020074908604FF0960001F061F801206E
:101A60000449C1F8B40110BD00100240001001404B
:101A7000B40122420000224210B59348806940F030
:101A80000400914988610846806940F0100088612F
:101A90000846806940F0200088610846806940F06F
:101AA000400088618948006800208849086008462D
:101AB000006840F08830086085480068C0F3130073
:101AC00083490860084600688249084380490860E5
:101AD0008148406820F470407F494860084640686B
:101AE00040F4004048607948001F006840F60F71DC
:101AF00088437649091F08600846006840F60801D7
:101B000008437249091F08607448006820F47F2068
:101B1000724908600846006840F4082008606E4872
:101B2000406820F470606C4948600846406840F4A2
:101B3000407048600846C06840F48060C8604FF458
:101B4000FA7000F0EDFF10BD6048001D0068C04352
:101B5000000A6349487008464078A0280CDB084614
:101B60004078BF2808DC00205E4908604FF0010083
:101B70005D49C1F8840107E001205A4908604FF02F
:101B800000005949C1F88401704755484078002841
:101B90003BD053484078A02805DB51484078AA281C
:101BA00001DC012070474E484078AB2805DB4C48EB
:101BB0004078AF2801DC0220F4E749484078B0289B
:101BC00005DB47484078BA2801DC0320EAE74448AF
:101BD0004078BB2805DB42484078BF2801DC042060
:101BE000E0E73F484078C02805DB3D484078CF28F3
:101BF00001DC0520D6E73A484078E02807DB384882
:101C00004078FF2803DC0620CCE70020CAE700204C
:101C1000C8E700B5FFF7B9FF3149087008460078FA
:101C200000284ED008460078012845D10846807823
:101C300020F0380088702D48006888B90846807800
:101C400040F0400088700846807820F0800088705E
:101C50002748006878B9F02088700846807800BD71
:101C60001F48807840F080001D49887008468078C1
:101C700020F0400088701F48006830B9184880780C
:101C800040F001001649887005E01548807820F082
:101C90000100134988701648006830B910488078F0
:101CA00040F002000E49887005E00D48807820F071
:101CB00002000B49887000E000BF00BF0848807830
:101CC000CDE70020CBE700000010024004140140E3
:101CD0000008014000008088001001400018014009
:101CE0005900002080012242000022420C012342C0
:101CF00000812242100123427FB505460C46012196
:101D0000022002F010FCADF80850ADF804400020AD
:101D1000ADF80A00ADF8060001A9BA4802F032FD9C
:101D200001221146B74803F0A4F81D208DF80000E9
:101D300000208DF8010003208DF8020001208DF8AD
:101D40000300684601F05BFB0121AE4803F076F822
:101D50007FBD7FB505460C460121084602F0E3FB36
:101D6000ADF80850ADF804400020ADF80A00ADF819
:101D7000060001A94FF0804002F004FD0122114647
:101D8000900703F076F81C208DF8000001208DF8F4
:101D9000010003208DF8020001208DF80300684641
:101DA00001F02DFB0121880703F048F87FBD10B535
:101DB0000121944803F00BFB00287DD001219148BC
:101DC00003F016FB9048006878B39048006860BB49
:101DD0008F480088002815DD8D480088401E8C49FA
:101DE0000880012291038B4802F089F900224FF408
:101DF0000041884802F083F901221103854802F06E
:101E00007EF939E000224FF48041824802F077F9F0
:101E100000224FF400417F4802F071F900224FF494
:101E200080517C4802F06BF926E0FFE77A48008891
:101E300080B101229103774802F061F900224FF44A
:101E40000041744802F05BF901221103714802F06D
:101E500056F911E000224FF480416E4802F04FF92C
:101E600000224FF400416B4802F049F900224FF480
:101E70008051684802F043F968480088401C67496F
:101E8000088008460088B0F5FA7F04D10020088059
:101E90000120634908706348007810B362480078F5
:101EA00060490978884209D05E480078401E5F4941
:101EB000087000205E4900E098E0088059480078EA
:101EC000594908705948007858B159480088401C51
:101ED0005749088008460088C82803DA0120554978
:101EE000086010E052480088B0F5FA7F03DA00205D
:101EF0005049086007E000204D4908804B480078B1
:101F0000401E4A490870FFF756FB4B480088401CAA
:101F100049490880084600884849098888420ADA01
:101F20004748007818B90020464908601AE00120A7
:101F30004449086016E0414800884349098808443C
:101F40003D49098888420ADD3D480078012802D1D0
:101F50003C49086006E000203A49086002E00020A1
:101F6000354908803948007818B900203849086098
:101F700002E00120364908602748008820B1264841
:101F80000088401E2449088032480088002804DD6B
:101F900030480088401E2F4908802F4800880028BC
:101FA00004DD2D480088401E2B4908802B4800681E
:101FB00020B12A480068401E284908602848008847
:101FC00020B127480088401E254908802548006820
:101FD00020B124480068401E224908602248008839
:101FE00020B121480088401E1F49088010BD10B54F
:101FF0000121880703F0EBF918B10121880703F0EC
:10200000F7F910BD00040040100123420C012342E7
:10201000BE000020001801404A0000208800002077
:102020008C000020360000203300002062000020D9
:102030006000002088012242380000203A00002081
:102040003E000020840122423C0000203F0000208E
:10205000800122425C0000201600002018000020B1
:102060005E000020B80000202800002010B586B0D7
:1020700004460121880402F056FA0121082002F0EA
:1020800045FAF74803F0B8F94FF48060ADF8140052
:1020900003208DF8160018208DF8170005A9F148C7
:1020A00001F07EFF4FF40060ADF8140004208DF8BD
:1020B000170005A9EB4801F073FF01940020ADF86B
:1020C0000800ADF80A00ADF80C00ADF810000C20C7
:1020D000ADF80E0001A9E24803F0D1F90121E04872
:1020E00003F059FA8021DE4803F03DFB27208DF8EC
:1020F000000002208DF8010003208DF8020001206D
:102100008DF80300684601F07AF906B010BD002191
:1021100006E00A2100BF0A00A1F1010399B2FAD139
:102120000200A0F1010398B2F3D1704770B5002608
:1021300003242CE02021CA4803F09AFA2820FFF754
:10214000E6FF2021C64803F093FA1E2503E0642031
:10215000FFF7DDFF6D1E2021C14803F0F7FA08B933
:10216000002DF4D115B9601EC4B210E0BC4803F0D4
:1021700083FAC6B2062E07D1012240F22551B84893
:1021800003F015FA012070BD601EC4B200BF002C20
:10219000D0D10020F7E7B448007818B3B3480078EE
:1021A000401EB24B185C032819D118460378C0783A
:1021B000801D834213D10022002104E0AB48405C23
:1021C0004240481CC1B2A9480078401E8842F5DC54
:1021D000FF2A04D10020A44B187001207047002072
:1021E000A14B18700020F9E7F0B585B006460F4600
:1021F00008208DF8000002208DF801004D208DF898
:10220000020002208DF8030000208DF80400522007
:102210008DF805009DF800500021A81E0DF8001053
:10222000002409E0A81E1DF800001DF80410484015
:10223000A91E0DF80100641CA81EA042F2D81DF8CA
:102240000000C043C1B2A81E0DF800100321681E93
:102250000DF8001000240CE000BF4021804803F07E
:1022600075FA0128F9D11DF804107D4803F000FA31
:10227000641C9DF80000A042EED84FF4FA707C492F
:10228000088003E0FFF787FF00B103E0784800888B
:102290000028F7D100BF7648008810B9042005B0A7
:1022A000F0BD72488078002872D17048C07A3070D2
:1022B0006E48807A70706D48407AB0706B48007AD2
:1022C000F07042F21070FFF722FF12208DF800002C
:1022D00002208DF8010046208DF802000C208DF8B8
:1022E000030060208DF80400F0788DF80500B078C8
:1022F0008DF8060070788DF8070030788DF80800AA
:10230000FF208DF809008DF80A008DF80B008DF87C
:102310000C008DF80D008DF80E0008208DF80F00D0
:102320009DF800500021A81E0DF80010002409E0BF
:10233000A81E1DF800001DF804104840A91E0DF845
:102340000100641CA81EA042F2D81DF80000C04382
:10235000C1B2A81E0DF800100321681E0DF8001070
:1023600000240CE000BF40213D4803F0EFF90128B4
:10237000F9D11DF804103A4803F07AF9641C9DF86D
:102380000000A042EED84FF4FA703949088004E00A
:102390008EE0FFF700FF00B103E035480088002819
:1023A000F7D100BF3248008808B9042077E72F48EA
:1023B000807800287AD107208DF8000002208DF85F
:1023C000010047208DF8020001208DF8030008204D
:1023D0008DF804009DF800500021A81E0DF8001093
:1023E000002409E0A81E1DF800001DF80410484054
:1023F000A91E0DF80100641CA81EA042F2D81DF809
:102400000000C043C1B2A81E0DF800100321681ED1
:102410000DF8001000240CE000BF4021104803F02C
:1024200095F90128F9D11DF804100D4803F020F9A1
:10243000641C9DF80000A042EED84FF4FA700C49DD
:10244000088003E0FFF7A7FE00B103E0084800881A
:102450000028F7D100BF0648008858B904201EE7BD
:1024600000480040000C0140800000206E02002067
:1024700082000020FE488078B0B900240FE00420DC
:1024800000EB4400401CFA49085C3038042101EBA1
:102490004401F74A515C40EA01103855641C082C8D
:1024A000EDD30020FBE601E00320F8E60220F6E68B
:1024B0000120F4E670B5032543E0C820ED4908800B
:1024C00000BF2021EC4803F041F918B9E948008821
:1024D0000028F6DC2021E84803F045F9E64803F03F
:1024E000CBF8E6490870E348008810B9681EC5B209
:1024F00027E0002420E01420DE49088000BF2021CE
:10250000DD4803F023F918B9DA4800880028F6DC22
:102510002021D94803F027F9D74803F0ADF8C1B21C
:10252000D64A601C1154D348008810B9681EC5B241
:1025300000E000BF601CC4B2D0480078A042DADCE2
:1025400000BF002DB9D170BD10B5CD4A1078002361
:10255000821ECB4CA354002109E0821EC84B9A5C1A
:102560005B5C5A40831EC64CE2544A1CD1B2821EA8
:102570008A42F2DCC24B9A5CD243D3B2821EC04C78
:10258000A3540323421EA35410BD70B505460E4646
:1025900000240CE000BF4021B74803F0D7F8012821
:1025A000F9D1295DB44803F063F8601CC4B2B442A9
:1025B000F0DB70BD2DE9F04706460F469046994680
:1025C000DDE908540820AE490870022048704D200B
:1025D00088700220C8700020087152204871FFF7EF
:1025E000B3FF0821A648FFF7D0FFFFF763FFA3481A
:1025F000807898B9A148C07AA249087020709F4895
:10260000807A487060709D48407A8870A0709B48BE
:10261000007AC870E0700120BDE8F0870020FBE779
:1026200070B50446002503E00020944948556D1C10
:10263000142DF9DB122092490870022048704620C0
:1026400088700C20C870602008718F48C07848716D
:102650008D48807888718C484078C8718A480078A5
:1026600008722078487260788872A078C872E07822
:10267000087320794873607988730820C873FFF75E
:1026800063FF7F480178FFF780FFFFF713FF002506
:1026900003E000207A4948556D1C0F2DF9DB77487F
:1026A000807808B9012070BD0020FCE710B588B023
:1026B00003241422754903A803F0C2F822E07248EB
:1026C0007349744B744ACDE9001052210020FFF782
:1026D00071FF10B9002008B010BDC4F1030101EB77
:1026E000410103AA02EB4100FFF79AFF40B9601EC7
:1026F000C4B20CB90020EEE7052000F011FA01E0A9
:102700000120E8E7002CDAD10020E4E710B5044608
:1027100007205B490870022048704720887001201C
:10272000C87008460471FFF70FFF55480178FFF79E
:102730002CFFFFF7BFFE5148807800287ED14F481C
:1027400000793038554908704C4840793038487025
:102750004A488079303888704848C0793038C87025
:102760004648007A303808714448407A3038487119
:102770004248807A303888714048C07A3038C87111
:102780003E48007B303808723C48407B3038487205
:102790003A48807B303888723848C07B3038C872FD
:1027A0003648007C303808733448407C30384873F1
:1027B0003248807C303888733048C07C3038C873E9
:1027C00008464078097840EA0110354908703348D6
:1027D000C0783249897840EA0110314948702F4861
:1027E00040792E49097940EA01102D4988702B481B
:1027F000C0792A49897940EA01102949C8702748D7
:10280000407A2649097A40EA01102549087123488F
:10281000C07A2249897A40EA0110214948711F484B
:10282000407B1E49097B40EA01101D4988711B4805
:10283000C07B1A49897B40EA011000E003E0184997
:10284000C871012010BD0020FCE710B50446172018
:102850000B49087002204870482088701120C87009
:1028600008460471052048718871C871087219E022
:102870006E0200205C00002000480040160200208C
:10288000CE010020640000205200002018590008EA
:1028900051000020500000204E0000205E02002069
:1028A0006800002048728872C87208734873887381
:1028B000C873087448748874C8740875FFF744FEB8
:1028C0002C480178FFF761FEFFF7F4FD2A48807875
:1028D00008B9012010BD0020FCE710B5FFF7E6FEA7
:1028E00008B9002010BD0A2000F01AF90820FFF7EF
:1028F0000DFF08B90020F5E70120F3E72DE9F041CD
:10290000044625460E4617469C464FEA0C6848EAA0
:10291000074848EA062848EA0500BDE8F08110B5F6
:1029200040F22551154802F051FF144802F0A4FE70
:102930001349144A127888541248007840B908465E
:102940000078062803DB08460078482800DD10BD23
:102950000C480078401C0B49087009480078097839
:10296000884205DC012008490870002005490870EC
:1029700000BFECE7CE010020160200200048004016
:102980006E0200207F0000208000002010B500F0C3
:102990008BF8FEF7F7FDFDF733FDFEF7AFFBFFF712
:1029A0003FF8FEF755FEFFF767F84FF41650FFF7B4
:1029B0005DFB00F0E1F841F61F410920FFF79CF9AB
:1029C00041F61F4140F6C310FFF7C3F92420FDF77D
:1029D00094FDFFF7B9F8FEF784FAFEF751FB48B112
:1029E00003226421C820FDF720FD0020294908703A
:1029F00000BFFEE7FFF70DF9044634B90020254972
:102A0000087001E0FEF758FCFCE723480078012835
:102A100003D021480078062812D1FFF787FB28B1A0
:102A200001226421C820FDF700FD09E00222642193
:102A3000C820FDF7FAFC00201649087000BFFEE729
:102A400016480068C0B9322000F06AF810E0012092
:102A5000104908701249087000201249086000BF30
:102A60000E4800680028FBD001E0FEF725FCFCE7DB
:102A70000A4800680028EAD007480078062801D1F3
:102A800000F0F8F904480078012801D100F008FCB2
:102A900010BD0000960000205900002014012342C0
:102AA000360000208801224210B56FF0040000F0CB
:102AB000F1FC2D4800682D49B0FBF1F02C4908705D
:102AC0000846007800EB4001C1EBC0104FF6FF71E3
:102AD00001EAC0002749088010BD0146244A127847
:102AE0004A434FF0E0235A6100229A611A46126964
:102AF00042F001021A6100BF4FF0E022106910F0AD
:102B0000010F02D010F4803FF6D04FF0E02212699E
:102B100022F001024FF0E0231A6100229A6170470F
:102B20000146144A12884A434FF0E0235A610022BA
:102B30009A611A46126942F001021A6100BF4FF011
:102B4000E022106910F0010F02D010F4803FF6D09F
:102B50004FF0E022126922F001024FF0E0231A61E7
:102B600000229A61704700000000002000127A00E5
:102B7000840000208600002010B54FF4A06000F013
:102B800039FC10BD012080F3138800BF00BF074847
:102B9000006800F4E06006490843001D034908602E
:102BA000BFF3408F00BF00BFFEE700000CED00E068
:102BB0000000FA055DE1FEF77FFBC04800780028C1
:102BC000F8D1BF4800780028F4D1FDF772FFBD4866
:102BD0000068B0F52F7F08D0BA480068B0F5C87F0C
:102BE00003D0B8480068642807D1B6480068401E82
:102BF000B4490860B448FDF7DEFCB4480088D0B999
:102C00000B20B2490880FFF704F80446B44212D002
:102C100026468120AE4948700121AD488170AD48FB
:102C20004178AB48C1701321017110214171867147
:102C3000401CFDF7C0FCA84800780128BAD100204C
:102C4000A5490870A54800780128B3D1A449A54832
:102C5000FFF7CAFA0546002DACD1A24FFB78BA782F
:102C600079783878FFF74AFE9F4908609F480068E6
:102C70000968884228D19E48007880B99C4800782D
:102C8000401C9B49087042F210709A490880FEF778
:102C9000DEFE0122C8210846FDF7C7FBE9E09448A3
:102CA0000078012886D192480078401C904908702D
:102CB00042F210708F490880FEF7C9FE0222C82137
:102CC0000846FDF7B2FBD4E08948007800287CD0A4
:102CD00087480078032826D185480078401C84491D
:102CE0000870804801780420FEF742F97D48417859
:102CF0000520FEF73DF97B4881780620FEF738F97C
:102D00007848C1780720FEF733F901211E20FEF72D
:102D10002FF90122C8210846FDF787FB42F2107007
:102D200074490880A5E072480078042826D17048CC
:102D30000078401C6E4908706A4801780820FEF748
:102D400017F9684841780920FEF712F9654881783B
:102D50000A20FEF70DF96348C1780B20FEF708F949
:102D600002211E20FEF704F90222C8210846FDF7C1
:102D70005CFB42F210705F4908807AE05C480078A2
:102D8000052828D15A480078401C594908705548F0
:102D900001780C20FEF7ECF8524841780D20FEF740
:102DA000E7F8504881780E20FEF7E2F84D48C178E8
:102DB0000F20FEF7DDF803211E20FEF7D9F80322CD
:102DC000C8210846FDF731FB00E02DE042F210700B
:102DD000484908804DE046480078062849D100203F
:102DE000434908703F4801781020FEF7C1F83D487C
:102DF00041781120FEF7BCF83A4881781220FEF79E
:102E0000B7F83848C1781320FEF7B2F804211E2025
:102E1000FEF7AEF80222C8210846FDF706FB42F293
:102E200010703449088024E0304840682E49096811
:102E3000884211D02D4880682B49096888420BD000
:102E40002A48C06828490968884205D0274800698F
:102E500025490968884207D10122C8210846FDF7A3
:102E6000E4FAFEF7F4FD04E00322C8210846FDF76A
:102E7000DCFAA0E610B504210020FEF760F81B493B
:102E8000086004210846FEF75AF8184948600421F2
:102E90000820FEF754F81549886004210C20FEF73D
:102EA0004EF81249C86004211020FEF748F80F4977
:102EB000086101200949087010BD0000360000209B
:102EC0003500002018000020680100205E0000206E
:102ED000FC000020590000208C00002096000020FB
:102EE000680000205200002090000020B80200205E
:102EF0008D0000208A00002010B541F28830FD4985
:102F00000860FD480078401CFB49087008460078BE
:102F1000022824DD0020F9490860FEF73AFD044646
:102F2000012C1CD10020F6490870F020F54988706A
:102F30008120F54948700121F3488170F1484178BA
:102F4000F148C1701321017110214171ED48817860
:102F5000ED488171401CFDF72EFB00BFFEE710BD60
:102F600010B5EA49EA48FFF73FF928B10020E849DF
:102F7000C870887048700870E5480078C0B9E448A7
:102F80004078A8B9E248807890B9E148C07878B92B
:102F9000FF20DF49C8708870487008700020DB4946
:102FA000C871887148710871C8708870487008705D
:102FB00010BD10B50024D7480068012801D10020B9
:102FC00010BDD548FEF7B9FC4FF4FA70FFF7A8FD25
:102FD000D248006838B944F0010401226421C820B5
:102FE000FDF723FA06E024F0010402226421C82040
:102FF000FDF71BFAC848401EFEF79FFCC548006855
:10300000012801D1FF20DBE7C5480068C5490968F0
:10301000884208D9C2480068C3490968884202D278
:1030200044F0200410E0BE480068C04909688842A6
:1030300008D9BB480068BE490968884202D244F0FA
:10304000100401E0FF20BBE72046B9E786B026E187
:10305000FEF732F9B74800780028F8D1B648007872
:103060000028F4D1FDF725FDB4480068B0F52F7FA6
:1030700008D0B2480068B0F5C87F03D0AF480068F8
:10308000642807D1AD480068401EAC490860AC48D0
:10309000FDF791FAAB480088D0B90B20A949088008
:1030A000FEF7B7FD0546BD4212D02F468120964956
:1030B0004870012194488170924841789248C170CB
:1030C00013210171102141718771401CFDF773FAC2
:1030D0009D4800689D490978884206D09A48006852
:1030E00018B941F658309A4908809748006808B1E5
:1030F000012000E00020954908708648006808B16A
:10310000012000E00020064692480078B04212D02C
:103110008EB90320FFF704FD6EB901226421C82097
:10312000FDF783F98C48006828B901208B490870A5
:10313000002070490860874806706E48006890B1AA
:103140006C48006864280ED27248006830B9824822
:10315000006840B901208149087004E000206549F9
:103160000860654908707D480078012876D1002004
:103170007A4908705F490860FFF71BFF044600208A
:1031800067490860212C01D0112C01D1FFF7E8FE1E
:10319000202C58D006DC002C6CD0102C5FD0112CC9
:1031A0007CD12BE0212C04D0FE2C76D0FF2C75D1C5
:1031B00066E001226421C820FDF737F900204E495E
:1031C0000870534800788DF80400514840788DF815
:1031D00005004F4880788DF806004D48C0788DF87E
:1031E000070001208DF80800052301AA01210846E7
:1031F000FDF7D5FC0020404908704FE00122642112
:10320000C820FDF712F900203B49087040480078BB
:103210008DF804003E4840788DF805003C488078E1
:103220008DF806003A48C0788DF8070000208DF828
:103230000800052301AA01210846FDF7B0FC002083
:103240002D4908702AE002226421C820FDF7EDF81C
:103250000020FEF772FBFFF74FFE1FE01FE0022287
:103260006421C820FDF7E1F80020FEF766FBFFF7B8
:1032700043FE13E003226421C820FDF7D6F80DE0D9
:1032800004226421C820FDF7D0F801213448FEF75C
:1032900013FAFFF731FE01E0FFE700BF00BFD7E6FA
:1032A00010B504211F20FDF74AFE2E4908600421B5
:1032B0002320FDF744FE2C4908602A48006800F5E9
:1032C0007A601949086027480068A0F57A601549B6
:1032D00008602548006800F57A60154908602248B2
:1032E0000068A0F57A601149086020480068F8BBC2
:1032F00032203EE0B8000020B500002088012242C4
:103300009600002059000020FC00002068000020EA
:103310005200002010012342B1AD01000881224279
:1033200098000020A4000020A0000020B000002091
:10333000AC000020360000203500002018000020DE
:10334000680100205E0000202C0122429500002030
:10335000BE000020940000200C012342B400002095
:1033600038C101009C000020A8000020100121426B
:1033700013E0FFF7D5FB0CE000BF184800680028F9
:10338000FBD04FF001001649087001E0FDF794FFF3
:10339000FCE7124800680028EED012480078C8B94F
:1033A0000F480078B0B910480068012804D1012105
:1033B0000E48FEF781F90DE0002144F62060FEF78B
:1033C0007BF94FF4FA70FFF7ABFB012145F2F050A7
:1033D000FEF772F901200649087010BD1001214264
:1033E00035000020360000200C012342B0AD010062
:1033F0009600002031490143314A1160704770B591
:10340000002100230F22C4780CB32D4C246804F44F
:10341000E064C4F5E064210AC1F10403CA404478C1
:1034200004FA03F18478144021430901254C0678FD
:10343000A155047804F01F050124AC4005786D11F6
:103440004FF0E02606EB8505C5F8004109E0047859
:1034500004F01F050124AC401B4D0678761145F899
:10346000264070BD194A0A400243154B1B1F1A60C3
:10347000704739B1124A121D12680243104B1B1DCE
:103480001A6006E00E4A121D126882430C4B1B1D87
:103490001A607047042808D14FF0E021096941F013
:1034A00004014FF0E022116107E04FF0E0210969CB
:1034B00021F004014FF0E022116170470000FA058D
:1034C0000CED00E000E400E080E100E080FFFF1F81
:1034D00010B50446FE48844209D10121480601F096
:1034E0003CF800214FF0007001F037F808E00121AE
:1034F000880601F032F800214FF0806001F02DF8CD
:1035000010BD30B5024600200023146824F00204E8
:103510001460146844F00104146000E05B1C5468FB
:1035200014F0010F03D1A3F57F44FF3CF6D154689A
:1035300014F0010F01D100206CE08C79012C04D132
:10354000146844F08004146003E0146824F08004DC
:103550001460CC79012C04D1146844F04004146048
:1035600003E0146824F0400414600C7A012C04D1A8
:10357000146844F02004146003E0146824F020046C
:1035800014604C7A012C04D1146844F010041460C7
:1035900003E0146824F0100414608C7A012C04D128
:1035A000146844F00804146003E0146824F008046C
:1035B0001460CC7A012C04D1146844F00404146023
:1035C00003E0146824F0040414608C78A407CD7818
:1035D00044EA05640D7944EA05444D7944EA05540A
:1035E0000D886D1E2C43D461146824F0010414600E
:1035F000002300E05B1C546814F0010F03D0A3F516
:103600007F44FF3CF6D1546814F0010F01D0002034
:1036100000E0012030BD10B50021837A012202FABA
:1036200003F1AC4A126842F00102AA4B1A60A94A9F
:103630001C3212688A43A74B1C331A60027BCAB93A
:10364000A44A0C3212688A43A24B0C331A60428897
:10365000C38842EA03439F4A4032847A42F83430B6
:103660000288838842EA03439A4A4032847A02EB12
:10367000C4025360027B012A19D1964A0C321268A7
:103680000A43944B0C331A604288038842EA03438E
:10369000904A4032847A42F83430C288838842EAC1
:1036A00003438C4A4032847A02EBC4025360C27AEC
:1036B0003AB9884A121D12688A43864B1B1D1A604C
:1036C00006E0844A121D12680A43824B1B1D1A60D1
:1036D000028932B97F4A143212688A437D4B14330F
:1036E0001A600289012A06D17A4A143212680A4302
:1036F000784B14331A60427B012A06D1754A1C327A
:1037000012680A43734B1C331A60724A126822F023
:103710000102704B1A6010BD00218171C1710172EC
:1037200041728172C1728170C170032101710221E5
:1037300041710121018070476649096841F001012A
:10374000644A11601146096843F60E729143614A5A
:1037500011601146096841EA0021116011460968AB
:1037600021F001011160704721B1026842F48032FA
:10377000026003E0026822F4803202607047E1B127
:10378000026842F0800202604FF4C272125842F4A2
:1037900080734FF4C27213504FF4CA72125842F43D
:1037A00080734FF4CA7213504FF4D272125842F41D
:1037B00080734FF4D27213501BE0026822F0800233
:1037C00002604FF4C272125822F480734FF4C27236
:1037D00013504FF4CA72125822F480734FF4CA7215
:1037E00013504FF4D272125822F480734FF4D272F5
:1037F0001350704710B502460020936803F08063B1
:10380000B3F1806F00D110E0936803F00063B3F16F
:10381000006F01D1012008E0936803F08053B3F1F9
:10382000805F01D1022000E0042004287ED002F550
:10383000C07303EB00131B6803F0010402F5C073AF
:1038400003EB00131C600B7A7BB94B7A0C8843EABC
:10385000445302F5C07404EB00142468234302F5BA
:10386000C07404EB0014236021E04B6823F0604334
:103870004B600B88C3F30A030B600B885B050B607E
:103880004B68DB004B60D1E9004323434B600C7A6B
:103890004B6823434C7A234302F5C07404EB0014B5
:1038A0002468234302F5C07404EB001423608B7A70
:1038B00003F00F038B7202F5C07303EB00135B6818
:1038C00023F00F0402F5C07303EB00135C6003E008
:1038D000006400400066004002F5C07303EB001373
:1038E0005B688C7A234302F5C07404EB00146360B8
:1038F0008B7B1C064B7B44EA03440B7B44EA03238B
:10390000CC7A234302F5C07404EB0014A3608B7CD3
:103910001C064B7C44EA03440B7C44EA0323CC7B27
:10392000234302F5C07404EB001400E00CE0E360F4
:1039300002F5C07303EB00131B6843F0010402F5AA
:10394000C07303EB00131C6010BD10B502460023CA
:1039500021B1012907D002290FD109E09068F84C64
:1039600000EA04030BE09068F64C00EA040306E06A
:103970009068F54C00EA040301E0002300BF00BF9B
:10398000F24C181BA34216D007DC83B16FF08060A5
:1039900018180ED0022818D111E0B0F5007F10D011
:1039A000EB4C001909D0B0F5003F0ED10BE002231B
:1039B0000DE000230BE0002309E0002307E00123D2
:1039C00005E0012303E0012301E0002300BF00BF65
:1039D000D8B210BD21B1012907D002290FD109E0C9
:1039E000826842F0800282600AE0826842F400420B
:1039F000826005E0826842F40002826000E000BF5D
:103A000000BF704710B500F5D87303EB01131B68B6
:103A100003F004031372137A53B900F5D87303EB60
:103A200001131B6840F2FF7404EA5353136009E06A
:103A300000F5D87303EB01131B686FF0604404EAD0
:103A4000D303536000F5D87303EB01131B6803F035
:103A50000203537200F5D87303EB01135B6803F0A4
:103A60000F03937200F5D87303EB01135B681B0A15
:103A7000D37400F5D87303EB01139B68D37200F580
:103A8000D87303EB01139B681C0A147300F5D873F9
:103A900003EB01139B681C0C547300F5D87303EB04
:103AA00001139B681B0E937300F5D87303EB01138E
:103AB000DB68D37300F5D87303EB0113DB681C0AD2
:103AC000147400F5D87303EB0113DB681C0C5474F9
:103AD00000F5D87303EB0113DB681B0E937421B957
:103AE000C36843F02003C36003E0036943F020038D
:103AF000036110BD21B9C26842F02002C26003E038
:103B0000026942F02002026170470246002019B9A2
:103B1000D36803F0030006E0012903D1136903F021
:103B2000030000E00020704710B502460B4600205D
:103B30004FF6FF71BBB9146824F0020444F001048D
:103B4000146000E0491E546804F00304012C01D005
:103B50000029F7D1546804F00304012C01D000209F
:103B600032E0012030E0012B13D1146824F003046B
:103B7000146000E0491E546814F0030F01D00029BE
:103B8000F8D1546814F0030F01D000201CE001208C
:103B90001AE0022B17D1146824F0010444F0020447
:103BA000146000E0491E546804F00304022C01D0A4
:103BB0000029F7D1546804F00304022C01D000203E
:103BC00002E0012000E0002010BD014600200A684C
:103BD00022F0010242F002020A604A6802F0030287
:103BE000022A00D10120704701464FF6FF720020E3
:103BF0000B6823F002030B6000E0521E4B6803F0D9
:103C00000203022B01D1002AF7D14B6803F0020313
:103C1000022B00D001207047014600208A6902F083
:103C200070007047014600208A69100E70470146F7
:103C300000208A69C2F3074070471AB143690B43F9
:103C4000436102E043698B434361704710B502460C
:103C5000002011F4700F08D09369C1F313042342BC
:103C600001D001202DE000202BE011F0807F08D052
:103C70005368C1F31304234201D0012021E0002046
:103C80001FE011F0006F08D09368C1F313042342C2
:103C900001D0012015E0002013E011F0007F08D0D2
:103CA000D368C1F31304234201D0012009E00020AE
:103CB00007E01369C1F31304234201D0012000E09F
:103CC000002010BD0022234B994202D100238361C2
:103CD00011E0C1F3130211F0007F01D0C2600AE0CD
:103CE00011F0806F01D0026105E011F0006F01D08A
:103CF000826000E042607047024600200A4201D024
:103D0000012000E00020704770B504460D460026F3
:103D10006069284271D0B5F5807F68D01CDC082D21
:103D200041D006DC012D2CD0022D30D0042D7ED1C7
:103D300033E0102D3DD0202D41D0402D77D144E0EF
:103D40000300000400030008000003100001000845
:103D50000001FFF77000F030B5F5004F61D009DCCD
:103D6000B5F5007F4AD0B5F5806F4DD0B5F5006F41
:103D70005DD150E0B5F5803F2DD0B5F5003F56D16F
:103D80002FE0A0685549FFF7B7FF064651E0E0680D
:103D90000321FFF7B1FF06464BE0E0680821FFF77B
:103DA000ABFF064645E0E0681021FFF7A5FF064699
:103DB0003FE020690321FFF79FFF064639E02069B5
:103DC0000821FFF799FF064633E020691021FFF72D
:103DD00093FF06462DE060680821FFF78DFF064639
:103DE00027E060681021FFF787FF064621E0A06901
:103DF0000121FFF781FF06461BE01BE0A0690221BD
:103E0000FFF77AFF064614E0A0690421FFF774FF6C
:103E100006460EE00BE0A0697021FFF76DFF064635
:103E200007E060680421FFF767FF064601E000260F
:103E300000BF00E00026304670BDB1F5007F3AD0EB
:103E40000FDC202928D006DC01291CD004291DD034
:103E5000082940D11DE0402921D0B1F5807F3AD119
:103E600026E0B1F5004F31D006DCB1F5806F25D0EA
:103E7000B1F5006F2FD124E0B1F5803F12D0B1F53C
:103E8000003F28D111E0154A826025E00822C26077
:103E900022E01022C2601FE0082202611CE0102212
:103EA000026119E00822426016E01022426013E02D
:103EB0000422426010E0042242600DE004224260CD
:103EC0000AE0002282610422426005E00022826151
:103ED0000422426000E000BF00BF70470101010002
:103EE00010B50446CA48844208D10121042000F0DC
:103EF00027FB0021042000F023FB46E0C548844254
:103F000008D10121082000F01BFB0021082000F04F
:103F100017FB3AE0C048844208D10121102000F08C
:103F20000FFB0021102000F00BFB2EE0BB48844269
:103F300008D10121202000F003FB0021202000F007
:103F4000FFFA22E0B648844208D10121402000F067
:103F5000F7FA0021402000F0F3FA16E0B14884425D
:103F600008D10121802000F0EBFA0021802000F030
:103F7000E7FA0AE0AC48844207D10121801500F03D
:103F8000DFFA0021A01500F0DBFA10BD10B5012109
:103F9000084600F0D5FA0021012000F0D1FA10BD4A
:103FA0002DE9F041024600250026002000230024D0
:103FB000002791F803C00CF00F0591F803C01CF026
:103FC000100F03D091F802C04CEA050591F800C02B
:103FD000BCF1000F31D0146800202BE04FF0010C31
:103FE0000CFA00F3B1F800C00CEA03069E4220D19F
:103FF00083004FF00F0C0CFA03F7BC4305FA03FCE7
:104000004CEA040491F803C0BCF1280F06D14FF02C
:10401000010C0CFA00FCC2F814C00AE091F803C0CD
:10402000BCF1480F05D14FF0010C0CFA00FCC2F8AE
:1040300010C0401C0828D1D31460B1F800C0BCF1F6
:10404000FF0F34DD546800202EE000F1080C4FF023
:10405000010808FA0CF3B1F800C00CEA03069E420E
:1040600021D183004FF00F0C0CFA03F7BC4305FA83
:1040700003FC4CEA040491F803C0BCF1280F05D1FD
:1040800000F1080C08FA0CF8C2F8148091F803C08B
:10409000BCF1480F07D100F1080C4FF0010808FAF5
:1040A0000CF8C2F81080401C0828CED35460BDE83C
:1040B000F0814FF6FF710180022181700421C170EF
:1040C00070470246002093680B4201D0012000E0B7
:1040D000002070470146886880B270470246002081
:1040E000D3680B4201D0012000E000207047014658
:1040F000C86880B2704701617047416170470AB17A
:10410000016100E041617047C16070474FF4803247
:104110000A438261816182618269826970470246D5
:104120000020424B18684FF68073184040EA021096
:1041300008433E4B186070473D49C8617047F0B571
:104140000A46002300240021002500F00046B6F1B5
:10415000004F02D1354EF16901E0344E7168C0F371
:10416000034583B200F44016B6F5401F08D121F094
:1041700070612E4E766826F070662C4F7E6012E0DD
:1041800000F48016B6F5801F06D1032606FA05F462
:10419000A14341F0706106E0460D360103FA06F6D0
:1041A000B14341F0706122B1460D360103FA06F6C3
:1041B000314300F00046B6F1004F02D11B4EF161D1
:1041C00001E01A4E7160F0BD30B500228B071C0F64
:1041D0000F2303FA04F2154B08338C1053F82430E4
:1041E0009343124C08348D1044F8253023468C102C
:1041F00053F824308C07240F00FA04F423430B4CAB
:1042000008348D1044F8253030BD0A4908607047E5
:1042100000080140000C0140001001400014014062
:1042200000180140001C0140002001400000014036
:1042300000002042DC002042DD48006840F0010020
:10424000DB49086008464068DA490840D8494860B8
:1042500008460068D8490840D54908600846006803
:1042600020F4802008600846406820F4FE00486082
:104270004FF41F0088607047CD49096821F48031F0
:10428000CB4A11601146096821F480211160B0F514
:10429000803F03D0B0F5802F0ED106E0C4490968F5
:1042A00041F48031C24A116007E0C149096841F414
:1042B000A021BF4A116000E000BF00BF704710B5E9
:1042C00001460022002300204A11012A02D1B84CE5
:1042D000236806E0022A02D1B54C236A01E0B44CFF
:1042E000636A01F01F02012494401C4201D00120A6
:1042F00000E0002010BD38B500200090002400250B
:1043000000BF3120FFF7DBFF05460098401C0090FE
:104310000098B0F5A06F01D0002DF2D03120FFF74A
:10432000CEFF08B1012400E00024204638BD01463C
:1043300000209F4A106820F0F80040EAC100106099
:1043400070479E490860704702460020984B5868A5
:1043500020F47C1042EA01031843954B58607047E3
:1043600096490866704701460020914A506820F03F
:1043700003000843506070478D48406800F00C000F
:104380007047014600208A4A506820F0F000084338
:104390005060704701460020854A506820F4E06074
:1043A00008435060704701460020814A506820F45D
:1043B000605040EAC1005060704729B17C4A527A8F
:1043C00002437B4B5A7204E0794A527A8243784B1B
:1043D0005A7270477A490860704701460020744A53
:1043E000506820F440400843506070470021754AEF
:1043F00011706F4A82F82010012802D0042808D1D9
:1044000003E001216F4A117004E005216D4A11702B
:1044100000E000BF00BF70476B4908607047644907
:10442000096A0143624A116270476749443908606A
:10443000704730B500210022002400235C4D6D68D8
:1044400005F00C0121B1042905D0082923D105E08C
:104450005E4D056022E05D4D05601FE0544D6D68C6
:1044600005F47012524D6D6805F48034022505EB99
:1044700092421CB9564D554305600BE04C4D6D689A
:1044800015F4003F03D0524D5543056002E04F4DF7
:104490005543056002E04D4D056000BF00BF444D2F
:1044A0006D6805F0F00109094A4D6B5C0568DD4057
:1044B00045603F4D6D6805F4E061090A454D6B5C50
:1044C0004568DD4085603A4D6D6805F46051C90A64
:1044D000404D6B5C4568DD40C560354D6D6805F449
:1044E0004041890B3C4D6B5CC568B5FBF3F505613C
:1044F00030BD29B12E4A526902432D4B5A6104E066
:104500002B4A526982432A4B5A61704729B1284A83
:1045100092690243264B9A6104E0254A92698243DC
:10452000234B9A61704729B1214AD2690243204B3B
:10453000DA6104E01E4AD26982431D4BDA6170479A
:1045400029B11B4AD2680243194BDA6004E0184AC9
:10455000D2688243164BDA60704729B1144A126957
:104560000243134B1A6104E0114A12698243104B53
:104570001A61704714494039086070470F49C86490
:1045800070470B49C87170470948406A40F0807015
:1045900007494862704701460020054A92680A426E
:1045A00001D0012000E00020704701498872704767
:1045B000001002400000FFF8FFFFF6FE000042423C
:1045C000D8004242201002408004424200127A0089
:1045D00000093D00C0000020D000002010B50446B6
:1045E000FE48844208D10121C014FFF7A9FF002131
:1045F000E014FFF7A5FFC4E0B4F1804F08D101211A
:104600000846FFF7AAFF00210120FFF7A6FFB8E048
:10461000F348844208D101210220FFF79EFF0021C8
:104620000220FFF79AFFACE0EE48844208D1012156
:104630000420FFF792FF00210420FFF78EFFA0E087
:10464000E948844208D101210820FFF786FF0021B4
:104650000820FFF782FF94E0E448844208D101215A
:104660001020FFF77AFF00211020FFF776FF88E087
:10467000DF48844208D101212020FFF76EFF00218E
:104680002020FFF76AFF7CE0DA48844208D101214C
:104690004014FFF755FF00216014FFF751FF70E051
:1046A000D548844209D10121C804FFF749FF002100
:1046B0004FF40020FFF744FF63E0D048844209D163
:1046C00001210805FFF73CFF00214FF48010FFF7A0
:1046D00037FF56E0CA48844209D101214805FFF757
:1046E0002FFF00214FF40010FFF72AFF49E0C548D3
:1046F000844208D101214020FFF72FFF00214020F4
:10470000FFF72BFF3DE0C048844208D10121802003
:10471000FFF723FF00218020FFF71FFF31E0BB4898
:10472000844208D101218015FFF717FF0021A01551
:10473000FFF713FF25E0B648844209D101210804A0
:10474000FFF7FEFE00214FF48030FFF7F9FE18E07E
:10475000B048844209D101214804FFF7F1FE00214D
:104760004FF40030FFF7ECFE0BE0AB48844208D179
:1047700001218804FFF7E4FE00214FF48020FFF7B9
:10478000DFFE10BD00220288944B98420ED0994B58
:1047900098420BD0B0F1804F08D0914B984205D091
:1047A000904B984202D0904B984204D14FF68F73B1
:1047B0001A404B881A438D4B984207D08C4B984235
:1047C00004D04FF6FF431A40CB881A4302808B88EF
:1047D00083850B880385814B98420BD0854B98428B
:1047E00008D08B4B984205D08A4B984202D08A4B16
:1047F000984201D10B7A038601238382704770B5FA
:10480000002400220023058C4FF6FE7635400584F7
:10481000028C8388048B4FF68F752C40B51E2C407C
:104820000D882C43751E2A400D892A434D882A4342
:104830006A4DA8420BD06F4DA84208D0744DA842D3
:1048400005D0744DA84202D0734DA84213D14FF643
:10485000F7752A404D892A434FF6FB752A408D880B
:104860002A434FF6FF652B404FF6FF552B408D89AD
:104870002B43CD892B4383800483CD888586028496
:1048800070BD70B5002400220023058C4FF6EF7632
:1048900035400584028C8388048B48F6FF752C40D4
:1048A0004FF6FF452C400D884FF6FF7606EA0525AA
:1048B0002C434FF6DF752A400D8906EA05152A4379
:1048C0004D8806EA05152A43444DA84202D0494DB9
:1048D000A8421DD14FF67F752A404D894FF6FF76CD
:1048E00006EA05152A434FF6BF752A408D8806EA69
:1048F00005152A434FF6FF352B404FF2FF752B402D
:104900008D8906EA85052B43CD8906EA85052B436B
:1049100083800483CD880587028470BD70B5002430
:1049200000220023058C4FF6FF6635400584028C7B
:104930008388848B4FF68F752C404FF6FC752C4086
:104940000D882C434FF6FF552A400D894FF6FF7610
:1049500006EA05252A434D8806EA05252A431F4D08
:10496000A84202D0234DA8421DD14FF2FF752A4024
:104970004D894FF6FF7606EA05252A434FF6FF35A7
:104980002A408D8806EA05252A434EF6FF752B40FE
:104990004DF6FF752B408D8906EA05152B43CD8911
:1049A00006EA05152B4383808483CD88858702849E
:1049B00070BD70B5002200230024058C4EF6FF76F2
:1049C00035400584038C8488828B48F6FF752A4025
:1049D0004FF6FF452A400D8820E00000002C0140E2
:1049E0000004004000080040000C0040001000409F
:1049F0000014004000340140004C014000500140D0
:104A00000054014000180040001C004000200040FD
:104A10000040014000440140004801404FF6FF764D
:104A200006EA05252A434DF6FF752B400D8906EA57
:104A300005352B434D8806EA05352B43FA4DA84230
:104A400002D0FA4DA84208D14BF6FF752C408D8953
:104A50004FF6FF7606EA85152C4384808283CD8845
:104A6000A0F84050038470BD828B4FF2FF331A4090
:104A70008283828B4FF6FF7303EA01231A438283FA
:104A80007047F0B50C461546002200210026078C21
:104A90004EF6FF7C07EA0C070784828B018C4FF6E9
:104AA000FF7707EA043640F6FF473A404FF6FF77B4
:104AB00007EA05273A434FF6FF7707EA03373A43F9
:104AC000D94FB8420ED0D94FB8420BD0B0F1804F79
:104AD00008D0D74FB84205D0D64FB84202D0D64FF3
:104AE000B84206D14DF6FF77394046F48057394336
:104AF00005E047F6FF57394044F480573943828335
:104B00000184F0BD828B4FF6F3731A408283828B4F
:104B10000A4382837047F0B50C46154600220021F7
:104B20000026078C4FF6FF6C07EA0C070784828B80
:104B3000018C4FF6FF7707EA04264FF60C773A40D0
:104B40004FF6FF7707EA03172F433A43B64FB842B1
:104B50000ED0B64FB8420BD0B0F1804F08D0B44F52
:104B6000B84205D0B34FB84202D0B34FB84206D1D5
:104B70004FF6FF57394046F48077394305E04FF24E
:104B8000FF57394044F48077394382830184F0BD74
:104B9000028B4FF2FF331A400283028B4FF6FF73F2
:104BA00003EA01231A4302837047F0B50C46154609
:104BB000002200210026078C4FF6EF7C07EA0C0745
:104BC0000784028B018C4FF6FF7707EA041640F644
:104BD000FF473A404FF6FF7707EA03373A434FF66D
:104BE000FF7707EA05273A438F4FB8420ED08F4F21
:104BF000B8420BD0B0F1804F08D08D4FB84205D0ED
:104C00008C4FB84202D08C4FB84206D14FF6DF77B6
:104C1000394046F01007394305E04FF65F773940D9
:104C200044F01007394302830184F0BD028B4FF634
:104C3000F3731A400283028B0A4302837047F0B574
:104C40000C46154600220021068C4FF6FE773E40AA
:104C50000684028B018C4FF60C7632407E1C06EAED
:104C600003162E433243704EB0420ED06F4EB04208
:104C70000BD0B0F1804F08D06D4EB04205D06D4ED4
:104C8000B04202D06C4EB04206D14FF6FD763140B4
:104C900044F00106314305E04FF6F576314044F02B
:104CA0000106314302830184F0BD70B505460C4610
:104CB0005D4885420ED05D4885420BD0B5F1804FEE
:104CC00008D05B48854205D05A48854202D05A48F0
:104CD000854200D100E000BF208850B92389A28816
:104CE00061882846FFF7ABFFE1882846FFF79EFF63
:104CF00025E0208804280AD12389A28861882846D3
:104D0000FFF753FFE1882846FFF742FF17E02088AE
:104D100008280AD12389A28861882846FFF7FBFE6C
:104D2000E1882846FFF7EEFE09E02389A288618822
:104D30002846FFF7A6FEE1882846FFF795FE70BDDE
:104D40002DE9F04105460C4600260127608808B988
:104D5000022600E00026A088012801D1022700E0F9
:104D600001272088A0B92389A28861882846FFF7F7
:104D700066FFE1882846FFF759FF23893A46314606
:104D80002846FFF712FFE1882846FFF701FF13E0EE
:104D90002389A28861882846FFF707FFE188284613
:104DA000FFF7F6FE23893A4631462846FFF747FFCC
:104DB000E1882846FFF73AFFBDE8F0810A884B8872
:104DC0001A438B881A43CB881A430B891A434B89A1
:104DD0001A438B891A43A0F8442070474FF6FF719D
:104DE000818000210180C1804180017270470021D3
:104DF000018041808180C180018141818181C181A7
:104E00007047002101804180012181800021C18003
:104E1000018170470021018041808180C180018132
:104E20004181818170470000002C01400034014025
:104E30000004004000080040000C004021B102883E
:104E400042F00102028004E002884FF6FE731A402D
:104E50000280704731B1B0F8442042F40042A0F81B
:104E6000442005E0B0F84420C2F30E02A0F844202C
:104E700070471AB183890B43838102E083898B4396
:104E8000838170478182704741EA0203A0F848306D
:104E900070471AB183890B43838102E083898B4376
:104EA0008381704701894FF6F87211400181704784
:104EB0000A46002101894FF68F7319401143018181
:104EC000704730B504460D4629462046FFF7F0FFEF
:104ED000208940F00700208130BD2DE9F0410446D3
:104EE0000D4616461F46602D06D13B46012231462F
:104EF0002046FFF75AFE05E03B4601223146204698
:104F0000FFF79DFE29462046FFF7D2FF208940F09B
:104F100007002081BDE8F08130B50C4600210189F1
:104F2000C9B24FF6FF7505EA03251543254329430A
:104F3000018130BD2DE9F04105460E4617469846E1
:104F4000002443463A4631462846FFF7E5FF2C89C0
:104F50004FF6F870044044F007044FF68F70044099
:104F600044F070042C81BDE8F081F0B504460D4694
:104F700016461F463B46324629462046FFF7CCFFE1
:104F8000208940F480402081F0BD018582827047F5
:104F90000A46002101884FF68F73194011430180A2
:104FA0007047F0B50C4615461E460021002200232E
:104FB0000189028B038C4FF6F877394021434FF675
:104FC000FC473A4040F201173A434FF6DD773B4049
:104FD0004FF6FF7707EA06172F433B430181028311
:104FE0000384F0BD0A460021018B4FF68F731940F0
:104FF0001143018370470A460021018B48F6FF7375
:1050000019404FF6FF7303EA0223194301837047E7
:105010000A460021818B4FF68F731940114381831B
:1050200070470A460021818B48F6FF7319404FF6FE
:10503000FF7303EA022319438183704721B1028879
:1050400042F08002028004E002884FF67F731A402B
:105050000280704721B1828842F00402828004E01D
:1050600082884FF6FB731A408280704721B1828894
:1050700042F00802828004E082884FF6F7731A40FB
:105080008280704721B1828842F00102828004E070
:1050900082884FF6FE731A40828070470A460021CC
:1050A000018B4FF6F77319401143018370470A468D
:1050B0000021018B4FF2FF7319404FF6FF7303EA93
:1050C00002231943018370470A460021818B4FF662
:1050D000F77319401143818370470A460021818B81
:1050E0004FF2FF7319404FF6FF7303EA022319438F
:1050F000818370470A460021018B4FF6FB731940EC
:105100001143018370470A460021018B4FF6FF339C
:1051100019404FF6FF7303EA0223194301837047D6
:105120000A460021818B4FF6FB731940114381839E
:1051300070470A460021818B4FF6FF3319404FF626
:10514000FF7303EA02231943818370470A46002153
:10515000018B4FF67F7319401143018370470A4654
:105160000021018BC1F30E014FF6FF7303EA022306
:105170001943018370470A460021818B4FF67F73E4
:1051800019401143818370470A460021818BC1F386
:105190000E014FF6FF7303EA022319438183704720
:1051A0000A460021018C4FF6FD731940114301841A
:1051B00070470A460021018C4FF6F77319401143DE
:1051C000018470470A460021018C4FF6DF731940B5
:1051D0004FF6FF7303EA02131943018470470A462E
:1051E0000021018C4FF67F7319404FF6FF7303EADD
:1051F00002131943018470470A460021018C4FF6BF
:10520000FF5319404FF6FF7303EA02231943018449
:1052100070470A460021018C4FF2FF7319404FF688
:10522000FF7303EA02231943018470470A460021F1
:10523000018C4DF6FF7319404FF6FF7303EA0233FA
:1052400019430184704730B5002301248C40A3B278
:10525000048C9C430484048C02FA01F5ADB22C4307
:10526000048430BD30B5002304248C40A3B2048CE8
:105270009C430484048C02FA01F5ADB22C430484EF
:1052800030BD70B5034600200024184618300125B3
:105290008D40ACB21D8CA5431D8409B1082909D1EC
:1052A00000EB6100056825F0700505600568154391
:1052B00005600EE00D1FC5F34E052844056825F472
:1052C000E045056005684FF6FF7606EA022635439D
:1052D000056070BD21B1028842F00202028004E044
:1052E00002884FF6FD731A400280704721B1028890
:1052F00042F00402028004E002884FF6FB731A4079
:105300000280704721B1828842F08002828004E0EE
:1053100082884FF67F731A408280704702884FF66A
:10532000F7731A40028002880A430280704782881D
:105330004FF68F731A40828082880A4382807047BA
:1053400002894FF6F8731A40028102890A430281EA
:10535000704702894FF67F731A40028102890A431F
:1053600002817047818470478185704781867047CC
:105370000187704781877047A0F840107047028806
:105380004FF6FF431A40028002880A4302807047AA
:105390000146888E70470146088F70470146888F06
:1053A00070470146B1F8400070470146888C70474D
:1053B0000146088D704702460020138A0B4201D037
:1053C000012000E000207047CA430282704730B5D8
:1053D0000246002000230024158A05EA010395896E
:1053E00005EA010413B10CB1012000E0002030BD3A
:1053F000CA4302827047000010B50446FB4884424D
:1054000009D101218803FFF79BF800214FF4804068
:10541000FFF796F832E0F648844209D101214804AA
:10542000FFF79BF800214FF40030FFF796F825E0D6
:10543000F048844209D101218804FFF78EF8002149
:105440004FF48020FFF789F818E0EB48844209D137
:105450000121C804FFF781F800214FF40020FFF775
:105460007CF80BE0E548844208D101210805FFF7EC
:1054700074F800214FF48010FFF76FF810BD2DE98C
:10548000F04786B005460E460024A24600BFA1465E
:105490000027B08900B100BF2F462C8A4CF6FF7060
:1054A0000440F08804432C82AC894EF6F31004408B
:1054B000B08831890843718908430443AC81AC8AC0
:1054C0004FF6FF400440B0890443AC8201A8FEF7C8
:1054D000B0FFC648874202D1DDF810A001E0DDF838
:1054E0000CA0A88910F4004F08D00AEBCA0000EB0A
:1054F0000A1031684900B0FBF1F807E00AEBCA0076
:1055000000EB0A1031688900B0FBF1F86420B8FBA9
:10551000F0F004012009642101FB1089A88910F42E
:10552000004F08D0322000EBC900B0FBF1F000F0D2
:105530000700044308E0322000EB09106421B0FBAF
:10554000F1F000F00F0004432C8106B0BDE8F087B5
:105550004FF41651016000218180C18001810C212E
:10556000418100218181704710B502460020108AD8
:105570004FF2FF0318400B884C8823438C88234349
:10558000CC8823431843108210BD00210180418044
:105590008180C180704721B1828942F400528281AA
:1055A00004E082894DF6FF731A4082817047F0B59E
:1055B00003460024002600250020A1F510676A3F5D
:1055C00000D100BF1846C1F3421401F01F060127A5
:1055D00007FA06F5012C01D10C3004E0022C01D1B0
:1055E000103000E014301AB107682F43076002E062
:1055F0000768AF430760F0BD1AB1838A0B4383820B
:1056000002E0838A8B4383827047028A4FF6F073ED
:105610001A400282028A0A430282704782894FF24C
:10562000FF731A40828182890A438281704721B1C7
:10563000828942F00202828104E082894FF6FD7382
:105640001A4082817047028A4FF6DF731A40028245
:10565000028A0A430282704721B1028A42F48042E0
:10566000028204E0028A4BF6FF731A4002827047FE
:10567000C1F308028280704701468888C0F30800A1
:105680007047818941F0010181817047028BD2B25C
:105690000283028B42EA012202837047028B02F4EA
:1056A0007F420283028B0A430283704721B1828AC0
:1056B00042F02002828204E0828A4FF6DF731A40B1
:1056C0008282704721B1828A42F01002828204E015
:1056D000828A4FF6EF731A408282704721B1828A24
:1056E00042F00802828204E0828A4FF6F7731A4081
:1056F0008282704721B1828942F40042828103E0B4
:105700008289C2F30E028281704721B1828A42F4FB
:105710000062828204E0828A4FF2FF731A40828222
:105720007047828A4FF6FB731A408282828A0A434C
:105730008282704721B1828A42F00202828204E0B2
:10574000828A4FF6FD731A4082827047024600201B
:10575000B1F5007F00D100BF13880B4201D00120BA
:1057600000E00020704701F40072B2F5007F00D124
:1057700000BFCA430280704770B502460024002370
:1057800000250020A1F510666A3E00D100BFC1F3DC
:10579000421501F01F03012606FA03F3012D02D181
:1057A0009689334006E0022D02D1168A334001E08B
:1057B000968A33400C12012606FA04F41688344007
:1057C00013B10CB1012000E0002070BD10B5002223
:1057D0000023A1F510646A3C00D100BF0A12012425
:1057E0009440A3B2DC43048010BD000000380140A7
:1057F0000044004000480040004C00400050004081
:105800000948804709480047FEE7FEE7FEE7FEE754
:10581000FEE7FEE7FEE7FEE7FEE7FEE70448054990
:10582000054A064B704700000103000831010008DB
:105830003003002030090020300500203005002012
:1058400010B5203AC0F00B80B1E81850203AA0E81B
:105850001850B1E81850A0E81850BFF4F5AF5FEA4F
:10586000027C24BFB1E81850A0E8185044BF18C902
:1058700018C0BDE810405FEA827C24BF51F8043BA9
:1058800040F8043B08BF7047D20728BF31F8023BFD
:1058900048BF11F8012B28BF20F8023B48BF00F891
:1058A000012B7047704770477047754600F028F825
:1058B000AE4605006946534620F00700854618B0FD
:1058C00020B5FFF7ABFFBDE820404FF000064FF0DA
:1058D00000074FF000084FF0000B21F00701AC4625
:1058E000ACE8C009ACE8C009ACE8C009ACE8C00944
:1058F0008D4670470446AFF300802046FAF75FFC00
:1059000000487047CC02002001491820ABBEFEE7DA
:105910002600020070470000FFFFFFFFFFFFA1B25B
:10592000C3D4E5F600000000000000004C59000858
:1059300000000020D40000006C010008205A00087C
:10594000D40000205C0800008801000800A24A047E
:10595000000000000000000001020304060708091F
:105960000000000000000000000000000000000037
:105970000000000000000000000000000000000126
:105980000000000000000000000000000000000017
:105990000000000001000000000000000000000006
:1059A00000000000000000000000000000000000F7
:1059B00000000000000000000000000000000000E7
:1059C00000000000000000000000000000000000D7
:1059D00000000000000000000000000000000000C7
:1059E00001010000000000000000000000000000B5
:1059F00000000000000000000000000000000000A7
:105A00000000000000000000000000000000000096
:105A10000102030401020304060708090204060840
:0400000508000131BD
:00000001FF
