:020000040800F2
:1000000048130020058B0008890100088B010008B7
:100010008F0100089301000897010008000000000C
:100020000000000000000000000000009B0100082C
:100030009D010008000000009F010008A1010008C8
:100040001F8B00081F8B00081F8B00081F8B0008E8
:100050001F8B00081F8B0008652A000893290008E1
:100060001F8B00081F8B0008F52A00081F8B000853
:100070001F8B00081F8B00081F8B00081F8B0008B8
:100080001F8B00081F8B00081F8B00081F8B0008A8
:100090001F8B00081F8B00081F8B00081F8B000898
:1000A0001F8B00081F8B00081F8B00081F8B000888
:1000B000571700081F8B00081F8B00081F8B0008B4
:1000C0001F8B00081F8B00081F8B00081F8B000868
:1000D0001F8B00081F8B0008E158000867500008BC
:1000E0001F8B00081F8B00081F8B00081F8B000848
:1000F0001F8B00081F8B00081F8B00081F8B000838
:100100001F8B00081F8B0008F30800081F8B0008D6
:100110001F8B00081F8B00081F8B00081F8B000817
:100120001F8B00081F8B00081F8B00081F8B000807
:10013000DFF80CD009F0C2F800480047450100087C
:100140004813002001F04AFB08E00D480078012820
:1001500004D100200A49087000F0DDF9F5E770B518
:1001600004460D46E1B2074808F004FC00BF05480C
:10017000008800F080000028F9D0204670BD000003
:100180003300002000480040704700BFFEE700BF7A
:10019000FEE700BFFEE700BFFEE77047704770470D
:1001A000704700000CB50020019000906C4800687A
:1001B00040F480306A49086000BF6948006800F474
:1001C000003000900198401C0190009818B90198E7
:1001D000B0F5A06FF1D16248006800F4003010B1B2
:1001E0000120009001E0002000900098012843D1F8
:1001F0005C48006840F010005A49086008460068F2
:1002000020F0030008600846006840F00200086023
:10021000534840685249486008464068486008466C
:10022000406840F4806048600846406820F47C10D4
:1002300048600846406840F4E81048600846006896
:1002400040F08070086000BF4548006800F0007012
:100250000028F9D04248406820F003004049486037
:100260000846406840F00200486000BF3C484068D3
:1002700000F00C000828F9D10CBD10B5FFF792FF73
:1002800010BD10B53648006840F0010034490860E0
:1002900008464068344908403149486008460068CB
:1002A000324908402E4908600846006820F4802042
:1002B00008600846406820F4FE0048604FF41F00C4
:1002C0008860FFF7DAFF4FF000602949086010BD31
:1002D00010B5002100200022214B5B6803F00C01C7
:1002E00021B1042906D0082928D107E0214B224C4E
:1002F000236027E01F4B204C236023E0184B5B68F2
:1003000003F47010164B5B6803F48032022303EB96
:10031000904022B9194B4343174C23600DE0104B1A
:100320005B6803F4003323B1144B4343124C236046
:1003300003E0104B4343104C236003E00D4B0E4C85
:10034000236000BF00BF064B5B68C3F303130C4C74
:10035000E15C094B1B68CB40074C236010BD0000DB
:1003600000100240002002400000FFF8FFFFF6FEF0
:1003700008ED00E000127A000000002000093D00B6
:10038000040000201748806940F01000154988617A
:100390001548406820F4704013494860084640689A
:1003A00040F4405048600846C068C86070472DE976
:1003B000F04107460C46154600260EE001200B4989
:1003C0000860384601F0FDFA00200949C1F8AC0187
:1003D000204601F0F6FA701CC6B2AE42EEDBBDE874
:1003E000F08100000010024000100140AC012242E8
:1003F0000000224208B50121202007F00DFABD209F
:10040000ADF8000048208DF803006946D24806F098
:1004100027FF08BD10B5D148006880B9D0480078E2
:10042000002877D1032001F0CCFACC4800680028DE
:1004300070D10120CA490870CA4908706AE0C748EB
:100440000C38006888B9C6480078002862D10320BB
:1004500001F0B7FAC1480C38006800285AD10120D1
:10046000BF490870C049087054E0BC4808380068AB
:1004700088B9BB48007800284CD1032001F0A1FACC
:10048000B64808380068002844D10120B4490870F3
:10049000B64908703EE0B1481438006878B9B048F1
:1004A0000078F8B9032001F08CFAAC4814380068E1
:1004B000C0B90120AA490870AD4908702AE0A748D0
:1004C0001038006878B9A648007858B9032001F0C0
:1004D00078FAA2481038006820B90120A0490870B5
:1004E000A449087016E09D481C38006878B99C48FB
:1004F000007878B9032001F064FA98481C38006845
:1005000040B90120964908709B49087002E000201C
:100510009349087010BD10B5FFF77CFF9148007833
:10052000012808D100208F4908700122114647F2A6
:10053000305001F0A4FC8C48007801280AD100203A
:10054000894908700C2005F0F2FB0122C8210846F9
:10055000FFF72DFF8548007801280BD10020834943
:1005600008700121084603F059FA01226421C820CD
:10057000FFF71DFF7E48007801280CD100207C4940
:10058000087001226421C820FFF711FF02207B4977
:10059000087006F02DFC7748007801280BD1002068
:1005A0007449087006F085FC044600BF0122322120
:1005B0000846FFF7FCFE7048007801287DD1002036
:1005C0006D490870012232210846FFF7F0FE3C20F9
:1005D0006B49086001220421694806F0D0FA684896
:1005E00000686849086068496848694AC2E90010BB
:1005F0000A220821664806F05DFA6548D0E9001035
:10060000644AC2E900102F206349086019220421BE
:10061000614806F04FFA6048006860490860604928
:100620006048614AC2E90010232208215E4806F0B2
:1006300041FA5D48D0E900105C4AC2E90010E320AD
:100640005B49086032220421594806F033FA5848C1
:100650000068584908600020574908603C2204217E
:10066000554806F027FA5448006854490860462067
:100670005349086046220421514806F01BFA5048AD
:100680000068504908601E204F490860502204212C
:100690004D4806F00FFA4C4800684C49086040F697
:1006A00006104B4908605A220421494806F002FA14
:1006B000474800684749086000E04BE040F6980072
:1006C0004549086064220421434806F0F3F9424892
:1006D00000684249086040F68400414908606E2283
:1006E00004213F4806F0E6F93D4800683D490860AE
:1006F00040F6BB003C490860782204213A4806F0E5
:10070000D9F9394800683949086040F698003849F5
:10071000086082220421364806F0CCF9344800688B
:10072000344908606420344908608C22042132482E
:1007300006F0C0F93048006830490860AA20304906
:100740000860962204212E4806F0B4F92C4800686F
:100750002C49086010BD0000001401401C81224299
:1007600014000020150000201600002017000020B3
:1007700018000020190000201A0000206801002045
:10078000C000002044000020295C8FC2F528DC3F17
:10079000C800002048000020D00000207800002081
:1007A00017D9CEF753E3D53FD800002050000020E2
:1007B000E00000207C000020E400002080000020F9
:1007C000E800002058000020EC0000205C00002021
:1007D000F000002060000020F400002064000020F1
:1007E000F800002068000020FC0000206C000020C1
:1007F000000100207000002008010020840000207B
:10080000040100208800002008B50121102007F015
:1008100003F80420ADF8000010208DF80300032039
:100820008DF802006946044806F01AFD04210248CA
:1008300006F0C3FD08BD0000001001407FB505466D
:100840000C460121082006F0F4FFADF80850ADF881
:1008500004400020ADF80A00ADF8060001A9FE48EA
:1008600007F012F901221146FB4807F084FC322000
:100870008DF8000000208DF8010003208DF80200A3
:1008800001208DF80300684606F093FB0121F24831
:1008900007F056FC7FBD7FB505460C460121084692
:1008A00006F0C7FFADF80850ADF804400020ADF8E1
:1008B0000A00ADF8060001A94FF0804007F0E4F807
:1008C00001221146900707F056FC1C208DF800000D
:1008D00001208DF8010003208DF8020001208DF821
:1008E0000300684606F065FB0121880707F028FC35
:1008F0007FBD00B589B00121D74807F0EAFE002886
:100900007ED00121D44807F0F5FED448007800B32A
:10091000D3480078D1490978884207D0CF48007879
:10092000401ED04908700020CF490880CB4800788D
:10093000CB490870CB48007858B1CB480088401CA0
:10094000C949088008460088C82803DA0120C74939
:10095000086010E0C4480088B0F5FA7F03DA002090
:10096000C249086007E00020BF490880BD48007800
:10097000401EBC4908700120BD490870BD48007880
:1009800002287DD1BB484069401CBA4948610846ED
:1009900090F8720007284AD2DFE800F049044ABE06
:1009A000DEFDFC00B348C06F0790B248C0680690F7
:1009B000079908F0A9FB33D2AE484068AD49886179
:1009C00008464069486308464069069008F017FBEE
:1009D0000790A848806F01460690079808F00EF926
:1009E000A449C86008464069049008F008FB0590D7
:1009F000A048C06801460490059808F0FFF800E0A0
:100A0000FEE34FF08041069008F02AF99A490790DA
:100A100008F09CF89749886008468068486506E0B9
:100A2000944890F87200401C924981F872006BE182
:100A30009048C0680021079008F070FB64D28D4890
:100A40004168C16141698163808A8A49898E401AFF
:100A50008849A1F870000846B0F87000059008F0C9
:100A6000CEFA06908348806F01460590069808F0FC
:100A7000C5F807907F48C06F01460690079800E0D0
:100A80005DE108F0B8F87B49C8600846B0F870002E
:100A9000029008F0B4FA04907648B0F87000019023
:100AA00008F0ADFA02907348806F014601900298F9
:100AB00008F0A4F80390049908F0A0F84FF08041E2
:100AC000059008F0CDF807906A48B0F870000390E0
:100AD00008F095FA04906748C06F014603900498A7
:100AE00008F08CF805906348406D01460490059825
:100AF00008F02CF80690079908F07AF85D498860AC
:100B000008468168816506E05A4890F87200401CEA
:100B1000584981F87200F7E056480169C069081A1F
:100B20005449496888420FD9524841680162416975
:100B3000C163B0F87400079008F061FA4D4988600D
:100B400008468168C16506E04A4890F87200401C7A
:100B5000484981F87200D7E04648C06F0790454881
:100B6000C0680690079908F0CFFA3ED24148416824
:100B7000416241690164818A808F081A3D49A1F868
:100B800070000846B0F87000069008F038FA079038
:100B9000384801E0B4E030E0806F014606900798E5
:100BA00008F02CF83349C8600846B0F8700004908B
:100BB00008F025FA05902F48C06801460490059872
:100BC00008F01CF84FF08041069008F049F80790B3
:100BD0002848C06D01460690079808F00CF8254992
:100BE000886008468168016606E0224890F8720035
:100BF000401C204981F8720086E01E4880681E492A
:100C0000079008F08BFA73D21A48416881624169F3
:100C10004164818AB0F84000081A1649A1F87000B2
:100C20000846B0F87000059008F0E9F90690114800
:100C3000806F01460590069807F0E0FF07900D4889
:100C4000C06F01460690079807F0D5FF0949C860B4
:100C50000846B0F8700011E0000C00401E000020B3
:100C60001F000020300000202E00002088012242BA
:100C700033000020A40100200000C842019008F0C9
:100C8000BEF90390FE48B0F87000009008F0B7F984
:100C90000190FB48806F01460090019807F0AEFF7D
:100CA0000290039907F0AAFF4FF08041049007F0EB
:100CB000D7FF0690F248B0F87000039008F09FF953
:100CC0000490EF48C06F01460390049807F096FF28
:100CD0000590069907F08CFF0790E948006E0146E1
:100CE0000690079807F087FFE549886007E0FFE76F
:100CF000E34890F87200401CE14981F8720003E07B
:100D0000E048DF49886000BF00BFDD4880680146D9
:100D10000790172001F053F808900898B0F57A7FF3
:100D200051D34FF2B561089888424CD2012188070F
:100D300007F006FA1721089801F05DF843E0D04863
:100D40000078012823D1D048007E32214843323038
:100D5000CB49A1F87400CC48408B00EB80004000E8
:100D60000A3008610846B0F87400069008F047F9A8
:100D700001460790172001F022F8089017210898E3
:100D800001F039F80121880707F0DAF91BE0BC48C7
:100D90000078032817D16420B949A1F874000846E7
:100DA000B0F87400069008F02AF901460790172061
:100DB00001F005F808901721089801F01CF80121AE
:100DC000880707F0BDF9B148007802287ED1AF4806
:100DD0004069401CAD494861084690F872000728F8
:100DE00048D2DFE800F0470448BCDCFEFD00A7481D
:100DF000C06F0790A548C0680690079908F084F96D
:100E000031D2A2484068A1498861084640694863D8
:100E100008464069069008F0F2F807909B48806FFA
:100E200001460690079807F0E9FE9849C860084611
:100E30004069049008F0E3F805909448C0680146C2
:100E40000490059807F0DAFE4FF08041069007F015
:100E500007FF8F49079007F079FE8C4988600846A4
:100E60008068486506E0894890F87200401C874910
:100E700081F8720062E18548C0680021079008F09F
:100E80004DF964D281484168C16141698163808ABA
:100E90007E49898E401A7D49A1F870000846B0F855
:100EA0007000059008F0ABF806907848806F014616
:100EB0000590069807F0A2FE07907448C06F01469F
:100EC0000690079807F097FE704900E051E1C8606E
:100ED0000846B0F87000029008F091F804906B4852
:100EE000B0F87000019008F08AF802906748806FAF
:100EF00001460190029807F081FE0390049907F0E3
:100F00007DFE4FF08041059007F0AAFE07905F48F4
:100F1000B0F87000039008F072F804905B48C06F5E
:100F200001460390049807F069FE05905748406D0C
:100F300001460490059807F009FE0690079907F00E
:100F400057FE5249886008468168816506E04F482F
:100F500090F87200401C4D4981F87200EEE04B4859
:100F60000169C069081A4949496888420FD9474848
:100F7000416801624169C163B0F87400079008F0EC
:100F80003EF84249886008468168C16506E03F48EE
:100F900090F87200401C3D4981F87200CEE03B4859
:100FA000C06F07903948C0680690079908F0ACF800
:100FB0003ED236484168416241690164818A808F2E
:100FC000081A3249A1F870000846B0F8700006907F
:100FD00008F015F807902D48806F0146069001E053
:100FE000A8E02DE0079807F009FE2849C8600846E8
:100FF000B0F87000049008F002F805902348C0682B
:1010000001460490059807F0F9FD4FF080410690E5
:1010100007F026FE07901D48C06D01460690079810
:1010200007F0E9FD1949886008468168016606E015
:10103000164890F87200401C144981F872007DE057
:10104000124880681249079008F068F86AD20F4881
:101050004168816241694164818AB0F84000081AA0
:101060000A49A1F870000846B0F87000059007F032
:10107000C6FF06900548806F01460590069809E076
:10108000A40100200000C8425403002034020020C4
:101090000000484207F0B2FD0790FE48C06F0146CD
:1010A0000690079807F0A7FDFA49C8600846B0F80F
:1010B0007000019007F0A3FF0390F648B0F87000AD
:1010C000009007F09CFF0190F248806F014600906D
:1010D000019807F093FD0290039907F08FFD4FF000
:1010E0008041049007F0BCFD0690EA48B0F870001B
:1010F000039007F084FF0490E648C06F0146039018
:10110000049807F07BFD0590069907F071FD0790A4
:10111000E048006E01460690079807F06CFDDD4937
:10112000886006E0DB4890F87200401CD94981F8DD
:10113000720003E0D848D749886000BF00BFD54897
:10114000806801460790172000F039FE0890089843
:10115000B0F57A7F51D34FF2B561089888424CD2EE
:101160001721089800F074FE0121CC4806F0E8FF32
:1011700043E0C8480078012823D1C948007E3221C5
:1011800048433230C349A1F87400C548408B00EB96
:1011900080004000323008610846B0F874000690C4
:1011A00007F02DFF01460790172000F008FE089079
:1011B0001721089800F04CFE0121B84806F0C0FF46
:1011C0001BE0B4480078032817D15020B149A1F89A
:1011D00074000846B0F87400069007F010FF01464E
:1011E0000790172000F0EBFD08901721089800F0F9
:1011F0002FFE0121A94806F0A3FFAA48007800E0CD
:10120000A7E202287ED1A7484069401CA549486151
:10121000084690F87200012843D10846C06F079035
:101220000846C0680690079907F06EFF31D29D48C6
:1012300040689C498861084640694863084640699F
:10124000069007F0DCFE07909648806F01460690F6
:10125000079807F0D3FC9349C8600846406904909A
:1012600007F0CDFE05908F48C068014604900598B0
:1012700007F0C4FC4FF08041069007F0F1FC8A496A
:10128000079007F063FC87498860084680684865D6
:1012900095E1844890F87200401C824981F8720000
:1012A0008DE1804890F8720002287DD17D48C068A9
:1012B0000021079007F032FF7BD27A48B0F8740023
:1012C000069007F09CFE07907648806801460690DD
:1012D000079807F023FF6CD272484069B0F5FA7F97
:1012E00067D270484168C16141698163808A6D49F4
:1012F000898E401A6B49A1F870000846B0F870005A
:10130000059000E075E107F07AFE06906548806F71
:1013100001460590069807F071FC07906148C06F80
:1013200001460690079807F066FC5E49C8600846CB
:10133000B0F87000029007F062FE04905948B0F8CF
:101340007000019007F05BFE02905648806F0146E6
:101350000190029807F052FC0390049907F04EFCAC
:101360004FF08041059007F07BFC07904D48B0F8A6
:101370007000039007F043FE04904A48C06F014696
:101380000390049807F03AFC05904648406D0146EA
:101390000490059807F0DAFB0690079907F028FCFF
:1013A00040498860084601E00BE002E08168816501
:1013B00005E13C4890F87200401C3A4981F87200FF
:1013C000FDE0384890F8720003281FD135480169C4
:1013D000C069081A3349496888420FD931484168C1
:1013E00001624169C163B0F87400079007F007FE1D
:1013F0002C49886008468168C165E0E0294890F87A
:101400007200401C274981F87200D8E0254890F806
:10141000720004285BD12348C06F07902148C06840
:101420000690079907F070FE48D21E484168416255
:1014300041690164818A808F081A1A49A1F87000F5
:101440000846B0F87000069007F0D9FD07901548DF
:10145000806F01460690079807F0D0FB1149C860DD
:101460000846B0F87000049007F0C9FD05900D48DB
:10147000C06801460490059807F0C0FB4FF080411A
:10148000069007F0EDFB07900648C06D01460690F8
:1014900007980BE03402002000004842000800409A
:1014A00054030020C40200200000C84207F0A3FB40
:1014B000AE49886008468168016680E0AB4890F8D4
:1014C0007200401CC1B2A94880F8721077E0A748AA
:1014D00090F8720005286FD1A4488068A44907904D
:1014E00007F01CFE5FD2A1484168816241694164F6
:1014F000818AB0F84000081A9C49A1F8700008469B
:10150000B0F87000059007F07AFD06909748806F5C
:1015100001460590069807F071FB07909348C06F4D
:1015200001460690079807F066FB9049C860084698
:10153000B0F87000019007F062FD03908B48B0F89E
:101540007000009007F05BFD01908848806F0146B5
:101550000090019807F052FB0290039907F04EFBB0
:101560004FF08041049007F07BFB06907F48B0F875
:101570007000039007F043FD04907C48C06F014663
:101580000390049807F03AFB0590069907F030FBAA
:1015900007907648006E01460690079807F02BFBEF
:1015A000724988600BE0714890F87200401C6F49E6
:1015B00081F8720003E0FFE76D496C4881606B4879
:1015C000806801460790172000F0F9FB0890089802
:1015D000B0F57A7F54D34FF2B561089888424FD264
:1015E0001721089800F01DFC0121624806F0A8FDB3
:1015F00046E05E480078012826D15F48007E32210F
:1016000048433C305949A1F874005B48408B00EBDB
:1016100080004000323008610846B0F8740006903F
:1016200007F0EDFC01460790172000F0C8FB08907A
:101630001721089800F0F5FB01214E4806F080FDC7
:1016400000204E4948711BE048480078032817D114
:10165000C8204649A1F874000846B0F87400069006
:1016600007F0CDFC01460790172000F0A8FB08907A
:101670001721089800F0D5FB01213E4806F060FDD7
:101680003F48006840BB3F480088401C81B23D484D
:101690000180008840F2DC51884220DD01F0F2FA3E
:1016A0000021F12061236D22CDE9000103210020FA
:1016B00002F0D6FE002033490880012030497C31F9
:1016C00008603149087040F2DC5000F07AF940F2CD
:1016D000DC5000F076F902E000202A49088000F092
:1016E00079F82A48008820B128480088401E2749F8
:1016F0000880274800781D49097808442549097859
:101700000844254908702548007888B124480078A5
:10171000401C2349087008460078052808DD01218F
:10172000204807F0BAF800201C4908701C490870CE
:101730001D48008820B11C480088401E1A490880B6
:101740001A480088002804DD18480088401E174900
:10175000088009B000BD10B50121880706F0B9FF67
:1017600018B10121880706F0C5FF10BDC402002092
:101770000000C84200040040540300208C000020F8
:10178000180121422600002094000020360000208D
:10179000A401002034020020350000209600002023
:1017A00032000020004800402C0000202A000020C9
:1017B00070B505460C4645F2555005F09FFE28468B
:1017C00005F09FFE204605F09FFE05F0A0FE05F007
:1017D000A3FE70BD10B505F09AFE10BD10B500F067
:1017E000B3F8FFF711F8FEF7CDFDFEF703FE00F0AA
:1017F00037F901F001FA00F095F94FF4965002F034
:10180000CDFD4FF4E13004F009F801202E490870B5
:1018100000F004F941F61F410920FFF70FF804F02A
:10182000FCFF40F6B8310620FFF7C2FF0020274931
:10183000087004F064FF26480068264908602648BE
:10184000D0E90010254AC2E9001025480068254962
:1018500008602548D0E90010244AC2E90010244855
:101860000068244908602448006824490860244826
:101870000068244908602448006824490860244816
:101880000068244908602448006824490860244806
:1018900000682449086022480068086022480068FF
:1018A00022490860224800682249086022480068EE
:1018B000224908602248006822490860012232213A
:1018C0000846FEF774FD10BD68010020940000205A
:1018D000C000002044000020C80000204800002074
:1018E000D000002078000020D80000205000002008
:1018F000E00000207C000020E400002080000020A8
:10190000E800002058000020EC0000205C000020CF
:10191000F000002060000020F4000020640000209F
:10192000F800002068000020FC0000206C0000206F
:101930000001002070000020080100208400002029
:10194000040100208800002010B56FF0040005F0AD
:101950007AFB2E4800682E49B0FBF1F02D49087043
:101960000846007800EB4001C1EBC0104FF6FF7154
:1019700001EAC0002849088010BD0146254A1278B6
:101980004A434FF0E0235A6100229A611A461269D5
:1019900042F001021A6100BF4FF0E022106900F02E
:1019A00001021AB100F48032002AF5D04FF0E02293
:1019B000126922F001024FF0E0231A6100229A61BD
:1019C00070470146144A12884A434FF0E0235A6197
:1019D00000229A611A46126942F001021A6100BFA0
:1019E0004FF0E022106900F001021AB100F48032D9
:1019F000002AF5D04FF0E022126922F001024FF0E8
:101A0000E0231A6100229A61704700000000002064
:101A100000127A003C0000203E00002010B500219A
:101A20004FF0006005F0F7FA4FF4A06005F0BCFA43
:101A300010BD012080F3138800BF00BF0648006876
:101A400000F4E06005490843001D03490860BFF346
:101A50004F8F00BF00BFFEE70CED00E00000FA056D
:101A600008B501215C2005F0D7FE0121084605F0EC
:101A7000D3FE0121264805F0C4FC48F22000ADF851
:101A8000000010208DF8030003208DF80200694645
:101A9000204805F0E5FB48F220011E4805F08FFCC8
:101AA0008020ADF8000010208DF8030003208DF891
:101AB00002006946184805F0D3FB8021164805F05E
:101AC0007EFC0B20ADF8000010208DF803000320F1
:101AD0008DF802006946114805F0C2FB0B210F4842
:101AE00005F06DFC9520ADF8000010208DF8030086
:101AF00003208DF802006946094805F0B1FB152165
:101B0000074805F05AFC8021054805F058FC08BD3F
:101B10000002300000080140000C014000100140AC
:101B2000001801401FB501213C2005F075FE012180
:101B3000084605F071FE0121084605F07AFE0121F4
:101B4000022005F076FE0121042005F072FE4220FD
:101B5000ADF80C0018208DF80F0003208DF80E0052
:101B600003A9FC4805F07CFB0120ADF80C0018200F
:101B70008DF80F0003208DF80E0003A9F64805F03C
:101B80006FFB0020F549C880488008724FF0804004
:101B900005F07AFF6020F249088001204880042087
:101BA00088800020088148814FF0804005F0A9FF1F
:101BB0000821C80606F0F4FB00214FF0804006F033
:101BC000BFFA0020E549C88048800872E54805F062
:101BD0005BFF6020E2490880012048800420888063
:101BE000002008814881DF4806F065F80821DD48BB
:101BF00006F0F5FB0021DB4806F0A2FA0020D749E9
:101C00000880C88048800872D74805F03DFF6020F2
:101C1000D349088001204880042088800020088162
:101C20004881D14805F06DFF0821CF4806F0B8FB88
:101C30000021CD4806F084FA0220ADF80C004820BF
:101C40008DF80F0003A9C44805F00AFB012100200C
:101C500005F01CFC0220019000208DF808000820EF
:101C60008DF8090001208DF80A0001A805F018FA86
:101C700007208DF8000001208DF801008DF802008A
:101C80008DF80300684605F094F90120ADF80C00CA
:101C900048208DF80F0003A9AE4805F0E1FA0021B5
:101CA000012005F0F3FB0120019000208DF80800D1
:101CB00008208DF8090001208DF80A0001A805F020
:101CC000EFF906208DF8000001208DF801000320B7
:101CD0008DF8020001208DF80300684605F069F9CF
:101CE0001020ADF80C0048208DF80F0003A99F4884
:101CF00005F0B6FA0421022005F0C8FB102001907F
:101D000000208DF8080008208DF8090001208DF8CA
:101D10000A0001A805F0C4F90A208DF8000001208E
:101D20008DF8010002208DF8020001208DF80300DB
:101D3000684605F03EF91520ADF80C0010208DF82E
:101D40000F0003208DF80E0003A9894805F088FADA
:101D50001521874805F033FB1020ADF80C008DF8F5
:101D60000F0003208DF80E0003A97B4805F078FAD8
:101D70002020ADF80C0010208DF80F0003208DF806
:101D80000E0003A9794805F06BFA4FF48050ADF8C6
:101D90000C0010208DF80F0003208DF80E0003A911
:101DA0006C4805F05DFA4FF4E070ADF80C00482087
:101DB0008DF80F0003A9684805F052FA1FBD2DE900
:101DC000F04104460D46601C07F019F90746294604
:101DD000384606F013FF07463946664806F040FFCE
:101DE00080464FF07E5106F003FF0646304607F06E
:101DF00029F9BDE8F08170B504460D464FF08040EA
:101E000006F055FCA04204D900214FF0804006F0B6
:101E10002BFC4FF080418C850D85C4F34F008886E4
:101E200070BD70B504460D464E4806F040FCA04219
:101E300003D900214B4806F017FC4A492C310C808D
:101E4000091F0D80C4F34F0046494031088070BD22
:101E500070B504460D46444806F029FCA04203D95B
:101E60000021414806F000FC3F492C310C80091F3D
:101E70000D80C4F34F003C493431088070BD2DE91A
:101E8000F05F82468B469146BBF1000F61D13A4824
:101E9000C0F89491394880F884903948006820B996
:101EA000B9F1000F01D1BDE8F09F34480078002857
:101EB0004ED13248C0F810A032480CC80020324938
:101EC00007F025F805460E46504607F0AEF80746DF
:101ED0002A46334607F0E4F85ED24FF4FA702749F9
:101EE000A1F87400B1F874108900A1F5C87007F06A
:101EF0007DF80546254906F0B3FE2049C867B1F8CC
:101F00007410C900A1F5487007F070F80546204923
:101F100006F0A6FE194988671E48886000204860C0
:101F2000486100240CE000211448183040F82410C7
:101F30001C3040F82410203040F82410601CC4B23B
:101F4000072CF0DB02200D490870012081F8720097
:101F50005FE2AAE0000C0140000801409801002067
:101F600088010020000400400008004000100140EB
:101F7000001801404054894C00002242A401002076
:101F8000188122424800002000407F400000C843E2
:101F900000409C470000C842FA480CC80020FA499B
:101FA00006F0B5FF05460E46504607F03EF80746D8
:101FB0002A46334607F074F83BD24FF44870F34991
:101FC000A1F87400B1F874108900A1F5C87007F089
:101FD0000DF80546EE4906F043FEEC49C867B1F836
:101FE0007410C900A1F5487007F000F80546E949EA
:101FF00006F036FEE5498867E748886000204860BB
:10200000486100240CE00021E048183040F824101A
:102010001C3040F82410203040F82410601CC4B25A
:10202000072CF0DB0220D9490870012081F87200EA
:10203000EFE140F6FC00D549A1F87400B1F8741046
:102040008900A1F5C87006F0D1FF0546D34906F016
:1020500007FECE49C867B1F87410C900A1F54870F1
:1020600006F0C4FF0546CE4906F0FAFDC749886769
:10207000C948886000204860486100240CE00021C5
:10208000C248183040F824101C3040F8241020308A
:1020900040F82410601CC4B2072CF0DB0220BB49BE
:1020A0000870012081F87200B3E1BBF1010F7DD10E
:1020B000BC48C0F8B091BC4880F88490BB48006828
:1020C00018B9B9F1000F00D1EDE6B7480078002843
:1020D000AED1B548C0F810A0B5480CC80020B5492D
:1020E00006F015FF05460E46504606F09EFF0746D1
:1020F0002A46334606F0D4FF3AD27820AA49A1F8FE
:102100007400B1F87410C900A1F5C87006F06EFF34
:102110000546A94906F0A4FDA3498867B1F87410E3
:102120008900A1F1C80006F061FF05469A4906F052
:1021300097FD9D49C867A1488860002048604861B4
:1021400000240CE000219848183040F824101C307E
:1021500040F82410203040F82410601CC4B2072C32
:10216000F0DB022090490870012081F8720050E1F4
:102170008F480CC80020924906F0C9FE05460E465D
:10218000504606F052FF07462A46334606F088FFBF
:102190003CD2C8208449A1F87400B1F87410C90079
:1021A000A1F5C87006F022FF054600E0B7E08549BA
:1021B00006F056FD7C498867B1F874108900A1F1DA
:1021C000C80006F013FF05467F4906F049FD764931
:1021D000C8677A48886000204860486100240CE0A5
:1021E00000217148183040F824101C3040F82410A9
:1021F000203040F82410601CC4B2072CF0DB022011
:1022000069490870012081F8720002E168480CC831
:1022100000206E4906F07BFE05460E46504606F04D
:1022200004FF07462A46334606F03AFF3BD24FF4F6
:1022300048705D49A1F87400B1F874108900A1F1EB
:10224000C80006F0D3FE0546514906F009FD56497F
:10225000C867B1F87410C900A1F5C87006F0C6FED1
:1022600005464C4906F0FCFC4F4988675348886096
:1022700000204860486100240CE000214A481830E2
:1022800040F824101C3040F82410203040F824106E
:10229000601CC4B2072CF0DB022043490870012007
:1022A00081F87200B5E04FF4FA603F49A1F874007C
:1022B000B1F874108900A1F1C80006F097FE054638
:1022C000434906F0CDFC3849C867B1F87410C9001D
:1022D000A1F5C87006F08AFE05463E4906F0C0FC2E
:1022E000314988673548886000204860486100248B
:1022F0000CE000212C48183040F824101C3040F825
:102300002410203040F82410601CC4B2072CF0DBED
:10231000022025490870012081F8720079E02E48DA
:10232000C0F890912D4880F88490007840BB2B48ED
:10233000C0F810A04FF448702849A1F87400B1F813
:1023400074108900A1F5C87006F050FE05462449B6
:1023500006F086FC2149C867B1F87410C900A1F5E0
:10236000487006F043FE05461E4906F079FC1B49FD
:1023700088670948886000204860486100243FE081
:1023800047E000004800002000709740A4010020B2
:102390000000FA440024F4490000C8420000164539
:1023A00000C82F4A00802142340200202801234225
:1023B000500000200000494000409C450000484279
:1023C00000407F4000409C470000C84300408F40D1
:1023D00000007A450024F44A00002142C402002093
:1023E00000007A440024F4480021FE4840F82410FC
:1023F0001C3040F82410203040F82410601CC4B277
:10240000072CF1DB0220F74918390870012081F808
:10241000720000BF47E52DE9F34F83B08A46039869
:1024200006F003FECDE90001EF480CC8009806F065
:102430006EFD074606F04CFE0290EC49D1F8800094
:1024400006F0DDFD0746029906F05EFE0ED201267B
:10245000E649D1F8800006F0D2FD8046029906F0E8
:10246000CAFB074606F0EEFD04460DE00026DF49F4
:10247000D1F8800006F0C3FD8046029906F0B8FB53
:10248000074606F0DFFD0446504606F0CEFD07463F
:10249000D7480CC8384606F03AFDCDE9000106F0F1
:1024A00017FE8346D349D1F8800006F0A8FD074601
:1024B000594606F029FE0FD24FF00109CD49D1F857
:1024C000800006F09CFD8046594606F094FB0746C6
:1024D00006F0B8FD05460EE04FF00009C549D1F8F9
:1024E000800006F08CFD8046594606F081FB0746C9
:1024F00006F0A8FD0546324600212046FFF7BFFC46
:102500004A4601212846FFF7BAFC05B0BDE8F08F26
:1025100010B5B4481838007800287DD0B648006857
:10252000D0BBB548001D0068B0BBB3480830006898
:1025300090BBAC48183890F8840001282CD1A948E9
:1025400018384068C82827D9AC48407920BBAC4827
:102550000078401CAA49087008460078012808D174
:10256000A04818380069A7490968401A9D491839D8
:10257000486000BF9B48183800780028FAD1994974
:10258000183908700021A04805F0DAFD00209C49A8
:10259000087094491839086597480068C8BB964880
:1025A000001D0068A8BB94480830006888BB8D48AF
:1025B000183890F8840060BB8A4818384068C828EA
:1025C00027D98E48407920BB90480078401C8F491D
:1025D000087008460078012808D182481838006938
:1025E0008B490968401A7F491839486000BF7D4807
:1025F000183800780028FAD17A4918390870002173
:10260000814805F09DFD00207649183908657F490D
:1026100008708048006800E072E0B0BB7D48143864
:10262000006890BB7548407901282ED16D48183854
:1026300090F8840048BB6B48183840680A2824D9B1
:1026400072480078401C71490870084600780128DB
:1026500006D164481838006928386249183948603A
:1026600000BF6048183800780028FAD15D49183951
:1026700008700021644805F063FD002059491839AD
:102680000865624908705D49487162480068B8BBD6
:1026900060481438006898BB5848407901282FD109
:1026A0005048183890F88400012829D14D4818382E
:1026B00040680A2824D955480078401C53490870BE
:1026C00008460078012806D146481838006928389D
:1026D00044491839486000BF42481838007800283B
:1026E000FAD14049183908700021474805F028FD03
:1026F00000203C4918390865444908703F49487131
:1027000010BD0122394B83F88420434A11601A46D8
:10271000106100225A6003221A70704710B53548C4
:10272000007858B33B480C38006890B9314890F8AD
:10273000840001280DD1012232210846FDF737FE21
:1027400000202C4908700021344805F0F9FC00F005
:1027500099FA30481030006880B9264890F8840013
:1027600001280BD100202349087000212B4805F0D7
:10277000E7FC052232210846FDF719FE28480078BB
:1027800001281BD10020264908704FF4FA70254912
:10279000088000BF234800880028FBD1012122487F
:1027A0000068FFF7AEFF00BF104800780028FBD19B
:1027B0000E49C1F880000120104908710B480078CB
:1027C000002865D014486038006850B9074890F870
:1027D000840030B900200549087000214FF0804086
:1027E00024E02AE0DC02002048000020A4010020B0
:1027F00050000020340200200C8121428C00002077
:10280000760000205C0000200004004077000020DB
:10281000580000202C01234294012242000800406D
:1028200040000020360000204400002005F088FC15
:10283000052232210846FDF7BAFDE348006888B951
:10284000E24890F8840001280CD10020DF4908708C
:1028500000214FF0804005F073FC01223221084630
:10286000FDF7A5FDD8482C38006888B9D74890F8FE
:10287000840001280CD10020D449087000214FF0B9
:10288000804005F05DFC052232210846FDF78FFDF2
:1028900010BD10B504462CBBCD480068012813D0EC
:1028A000CB48001D006801280ED0C94808300068D8
:1028B000012809D0C4480C380068012804D0C24857
:1028C00020380068012800D110BD0020C1490860EF
:1028D000BE4981F8840048604CF250300861032002
:1028E000087054E0BA480068012813D0B848001DA9
:1028F000006801280ED0B64808300068012809D0C9
:10290000B1480C380068012804D0AF48203800686E
:10291000012800D1D8E70120AD49A4310860AE49B3
:1029200081F88400C82008610020486003200870F6
:1029300018E002F083FAA4481838006890B9A64855
:1029400090F8840001280DD10020A34908700021CF
:10295000A24805F0F5FB00F095F901223221084666
:10296000FDF725FD9C4800780028E2D14FF4FA706D
:10297000FFF727F800209649A4310860964981F8AE
:10298000840048604CF2503008610320087000BF9A
:102990009AE710B5022004F0FAFB8C480078002872
:1029A0005FD08A484068401C88494860084690F8D3
:1029B0008400012806D10846D0F88000401CC1F8E8
:1029C00080000AE08148D0F8800030B17F48D0F81C
:1029D0008000401E7D49C1F880008148006870B9C0
:1029E0007A4890F8840050B901207E490870002090
:1029F0007649087000214FF0804005F0A1FB734834
:102A000040687249096988422BD300214FF0804009
:102A100005F096FB7048007810B9022072490870E2
:102A200000206A49087048608860C8600861486191
:102A300081F87200A1F87000A1F874008867C86777
:102A400000240CE000216148183040F824101C30AC
:102A500040F82410203040F82410601CC4B2072C29
:102A6000F0DB10BD10B5012004F091FB5F48007849
:102A700000283ED05D484068401C5C4948600846DC
:102A800090F88400012804D10846006D401C0865B8
:102A900004E05648006D401E54490865534840689C
:102AA00052490969884224D30021514805F048FB66
:102AB00000204E49087048608860C860086148611D
:102AC00081F87200A1F87000A1F874008867C867E7
:102AD00000240CE000214548183040F824101C3038
:102AE00040F82410203040F82410601CC4B2072C99
:102AF000F0DB10BD10B5102004F049FB364800781B
:102B0000002860D034484068401C3349486008467B
:102B100090F88400012806D10846D0F88000401CB7
:102B2000C1F880000AE02C48D0F8800030B12A4873
:102B3000D0F88000401E2849C1F880002248103893
:102B4000006878B9244890F8840058B900202249D8
:102B50000870C1F8800001202649887100211F48B3
:102B600005F0EEFA1C4840681B49096988422AD3DF
:102B700000211A4805F0E4FA1448007810B9022040
:102B800019490870002014490870C86048608860BE
:102B90000861486181F87200A1F87000A1F8740022
:102BA0008867C86700240CE000210B48183040F803
:102BB00024101C3040F82410203040F82410601CF1
:102BC000C4B2072CF0DB10BD38012342A401002061
:102BD0000C8121429401224234020020000800406E
:102BE000188122424000002075000020C40200200D
:102BF000000400408C00002008B50121682004F08A
:102C00000BFE3820ADF8000048208DF8030069461F
:102C1000184804F025FB4FF40050ADF800004820A0
:102C20008DF803006946144804F01AFB4FF6407013
:102C3000ADF8000048208DF8030069460F4804F005
:102C40000FFB4DF28050ADF8000048208DF80300D6
:102C500069460B4804F004FB48F64820ADF8000034
:102C600048208DF803006946054804F0F9FA08BDCC
:102C700070470000000C01400010014000140140AA
:102C80000018014010B50020F849087000214FF0ED
:102C9000804005F055FA0020F54908700021F548FC
:102CA00005F04EFA0020F44908700021F34805F0C1
:102CB00047FA0020F2498873C8738882488201204D
:102CC000F0490870EE49C8708870087148718871C1
:102CD000C87108724872002048730120EA494870A0
:102CE00000200870C87010BD70B504460D46164629
:102CF000E3488079012874D1E148C079012822D1C4
:102D00000020DF494873C871012E76D1084640780B
:102D1000012802D10846007838B1D9484078022805
:102D200031D1D748007801282DD1012C15D1D748B1
:102D30000078A04208D1D548047022460221D44828
:102D40000068FFF79CF885E0D04804702246022115
:102D5000D0480068FFF793F87CE0CC480078A042A8
:102D600008D1CA48047022460221CB480068FFF708
:102D700086F86FE0C548047022460221C748006803
:102D8000FFF77DF866E0BE48407801281BD1BC48BB
:102D90000078012817D1BD480078A04209D1BB486E
:102DA000047022460221BA4800683230FFF767F803
:102DB00050E0B648047022460221B648006832301E
:102DC000FFF75DF846E0B1480078A0420BD1AF486C
:102DD000047022460221B04800683230FFF74FF8F5
:102DE00038E047E009E0A948047022460221AB48D8
:102DF00000683230FFF743F82CE0012C15D1A348CE
:102E00000078A04208D1A148047022460221A048BF
:102E10000068FFF734F81DE09C4804702246022148
:102E20009C480068FFF72BF814E098480078A0420F
:102E300008D1964804702246022197480068FFF79F
:102E40001EF807E09148047022460221934800686A
:102E5000FFF715F88648007800284ED101208849F0
:102E6000C87108468079401C88714FF4FA70FEF7EB
:102E7000A8FD42E08248807902281AD18048C079B2
:102E8000012807D100207E49C8710022012128466F
:102E9000FEF7F5FF7848007848BB01207849C871F3
:102EA00008468079401C88714FF4FA70FEF789FD5E
:102EB00023E07348807903281AD17148C07901282A
:102EC0000DD100206E49C87184F001006F4908706F
:102ED00084F00102022140F6C410FEF7D0FF6448DE
:102EE000007820B966488079401C6549887104E003
:102EF00001206349C8718871487370BD70B504467C
:102F00000D465F480079012818D15D4840790128B5
:102F10000AD100205A494873487101205949087064
:102F200029462046FFF777FA5648007802280AD14A
:102F300053480079401C5249087104E0012050496F
:102F400048730871487170BD554800685549D1F8FB
:102F5000341108445349D1F81C1108445149D1F89F
:102F60002411084458B101204F49086000204F49FE
:102F7000C1F884014C490C310860012070470020E1
:102F8000FCE770B504460D4616463D48007A012818
:102F900069D13B48407A002823D000203849487343
:102FA0004872012E60D108464078012803D10846B6
:102FB0000078102807D032484078022833D13048B2
:102FC000007811282FD1012C15D130480078A0426B
:102FD00008D12E480470224602212D480068FEF7D1
:102FE0004EFFAAE0294804702246022129480068C1
:102FF000FEF745FFA1E025480078A04209D123480B
:10300000047022460221244800681E30FEF737FF74
:1030100093E01E48047022460221204800681E30BA
:10302000FEF72DFF89E016484078012840D114486A
:10303000007811283CD115480078A04209D11348E6
:10304000047022460221124800683230FEF717FF52
:1030500073E00E480470224602210E4800683230A8
:10306000FEF70DFF69E078E03AE00000A4010020DF
:10307000C402002000040040340200200008004088
:1030800054030020750000208C00002093000020D5
:103090006800002064000020700000206C00002008
:1030A0000401234200002342800122420000224208
:1030B000FE480078A04209D1FC4804702246022153
:1030C000FB4800683230FEF7DAFE36E0F74804705D
:1030D00022460221F74800683230FEF7D0FE2CE08D
:1030E000012C15D1F1480078A04208D1EF480470B6
:1030F00022460221F0480068FEF7C1FE1DE0EB48C1
:10310000047022460221ED480068FEF7B8FE14E084
:10311000E6480078A04208D1E44804702246022123
:10312000E3480068FEF7ABFE07E0E0480470224683
:103130000221E0480068FEF7A2FEE148007800287E
:103140007CD1E048007A401CDE49087201204872B8
:103150004FF4FA70FEF735FC70E0DA48007A022886
:103160001AD1D848407A38B10020D6494872012295
:1031700011462846FEF783FED348007800285DD12B
:10318000D048007A401CCF490872012048724FF4A1
:10319000FA70FEF716FC51E0CA48007A03281BD1EA
:1031A000C848407A68B184F00100C049087084F0D2
:1031B000010202214FF4C860FEF761FE0020C14900
:1031C0004872BF48007858BB0120BE494872084683
:1031D000007A401C087231E0BA48007A042820D1F5
:1031E000B848407A90B184F00100B849086084F092
:1031F0000100B34981F884004FF47A70086100201F
:103200004860032008700020AE494872AC4800783E
:1032100030B90120AB4948720846007A401C087258
:103220000CE00120A7494872087248734FF4FA7005
:10323000FEF7C7FB4FF4FA70FEF7C3FB70BD7CB519
:1032400004460D469F48807B012859D19D48C0788F
:10325000012872D19A48007818BB9D48006801285F
:1032600004D09B481438006801281AD10522322165
:103270000846FDF79CF80120964908600020964911
:10328000C1F8840193490C310860FF2161236D224C
:10329000CDE90010032101F0E3F806208949C87048
:1032A0007CBD00208B49086001208B49C1F8840156
:1032B000002088490C31086029462046FFF71EFE91
:1032C0008048407B0128C0D17E480078202818D152
:1032D00006207C49C8700020052161236D22CDE9BC
:1032E0000010032101F0BCF84FF4FA70FEF769FBFF
:1032F0004FF4FA70FEF765FB4FF4FA70FEF761FBCE
:1033000083E10020022161236D22CDE90010032119
:1033100001F0A6F86B48C078401C6A49C8704FF4A9
:10332000FA70FEF74EFB4FF4FA70FEF74AFB4FF4CB
:10333000FA70FEF746FB68E1FFE76248C0780228B2
:103340007DD16049097801F0010181F0010000227E
:10335000624909680A31FFF714FE5A48407B012888
:10336000CED15748007818BB59480068012804D0CE
:1033700057481438006801281AD10522322108461E
:10338000FDF715F801205349086000205249C1F8A3
:10339000840150490C310860FF2161236D22CDE981
:1033A0000010032101F05CF806204649C87077E759
:1033B0004448407880B9052232210846FCF7F7FFDF
:1033C0000020032161236D22CDE9001001F048F8AF
:1033D00005203C49C87018E1FFF7B6FDD8B10020C0
:1033E000F02161236D22CDE90010032101F038F8AE
:1033F000052232210846FCF7DAFF01203549086032
:1034000000203549C1F8840132490C31086005209B
:103410002C49C870B6E00020032161236D22CDE95C
:10342000001001F01DF82748C078401C2549C870DD
:103430004FF4FA70FEF7C5FA4FF4FA7000E006E0B8
:10344000FEF7BFFA4FF4FA70FEF7BBFADDE01D4855
:10345000C078032849D11B484078012803D0194877
:1034600040780228B7D1174A928B323291B2154A6E
:10347000D08BFFF743FD1348407B0128ABD10020E0
:10348000042161236D22CDE90010032100F0E8FF43
:103490000C48C078401C0B49C8704FF4FA70FEF716
:1034A00090FA4FF4FA70FEF78CFA19E093000020BE
:1034B000700000206C0000206800002064000020E4
:1034C000C402002054030020340200209001214255
:1034D0002C0123428001224200002242840000206D
:1034E0004FF4FA70FEF76DFA8FE0F948C0780428BF
:1034F00043D1F7494978491009B9012100E0002179
:1035000008460122F3490968FFF7EEFBF048407BCB
:1035100001287AD1F048007818BBF04800680128EB
:1035200004D0EE481438006801281AD1052232214F
:103530000846FCF73CFF0120E94908600020E94902
:10354000C1F88401E6490C310860FF2161236D2236
:10355000CDE90010032100F083FF0620DC49C8708C
:103560009EE60020052161236D22CDE90010032194
:1035700000F076FFFFF786FB47E0D548C0780528C6
:1035800041D100BFD249097801F0010181F0010069
:103590000022D5490968FFF7A7FBCD48407B0128E9
:1035A00033D1CB48C078401CC949C8704FF4FA7079
:1035B000FEF707FA4FF4FA70FEF703FA4FF4FA70C9
:1035C000FEF7FFF94FF4FA70FEF7FBF94FF4FA70CB
:1035D000FEF7F7F94FF4FA70FEF7F3F94FF4FA70CB
:1035E000FEF7EFF94FF4FA70FEF7EBF94FF4FA70CB
:1035F000FEF7E7F94FF4FA70FEF7E3F94FF4FA70CB
:10360000FEF7DFF901E0FFF73DFB00BF48E67CB5C0
:1036100004460D46AE48C07B01286ED1AC48807888
:1036200001286BD1AA48407818B90320A8498870AE
:1036300038E0A948007818BBA8480068012804D0E1
:10364000A6481438006801281AD1052232210846FC
:10365000FCF7ADFE0120A24908600020A149C1F895
:1036600084019F490C310860FF2161236D22CDE95F
:103670000010032100F0F4FE0720954988707CBDFE
:1036800000209749086001209649C1F88401002074
:10369000C1F88C018E4A928B0F3A91B28C4AD08B32
:1036A000FFF72CFC8A48407B0128B6D18848807AF5
:1036B000032807DD00208649887201200873062050
:1036C0008870DCE700BF0020022161236D22CDE974
:1036D0000010032100F0C4FE7D488078401C7C4926
:1036E00088704FF4FA70FEF76CF94FF4FA70FEF739
:1036F00068F94FF4FA70FEF764F98DE17448807848
:10370000022871D172494978491009B9012100E0B4
:103710000021084601226F490968FFF732FC6C4816
:10372000407B0128E9D16C48007818BB6B480068E1
:10373000012804D069481438006801281AD10522EC
:1037400032210846FCF733FE01206549086000205D
:103750006449C1F8840162490C310860FF2161238A
:103760006D22CDE90010032100F07AFE07205849B0
:10377000887084E7FFF7E8FBD8B10020F0216123CF
:103780006D22CDE90010032100F06AFE05223221EE
:103790000846FCF70CFE0120514908600020514901
:1037A000C1F884014E490C310860052048498870F1
:1037B000C3E00020032161236D22CDE9001000F059
:1037C0004FFE43488078401C414988704FF4FA709E
:1037D000FEF7F7F84FF4FA70FEF7F3F84FF4FA70CB
:1037E000FEF7EFF818E1FFE739488078032834D175
:1037F00029462046FFF782FB3548407B0128F1D15E
:1038000033484078012803D031484078022809D154
:103810000020042161236D22CDE90010032100F076
:103820001FFE08E00020022161236D22CDE9001077
:10383000032100F015FE26488078401C244988703A
:103840004FF4FA70FEF7BDF84FF4FA70FEF7B9F8CE
:103850004FF4FA70FEF7B5F8DEE01D4880780428D2
:1038600066D11B49097801F0010181F001000022B5
:103870001D490968FFF738FA1548407B0128B1D186
:103880001548007818BB15480068012804D0134873
:1038900014380068012829D1052232210846FCF796
:1038A00086FD01200E49086000200E49C1F8840100
:1038B0000B490C310860FF2161236D22CDE9001016
:1038C000032100F0CDFD072001498870D7E60DE007
:1038D0005403002088000020C40200202C01234251
:1038E000800122420000224284000020FE484078ED
:1038F000012803D0FC48407802280BD10020052184
:1039000061236D22CDE90010032100F0A9FDFFF72E
:10391000B9F907E00020032161236D22CDE90010F1
:1039200000F09EFDF0488078C01CEF49887073E07D
:10393000ED488078052843D100BFEB49497849100C
:1039400009B9012100E0002108460022E749096881
:10395000FFF7CAF9E448407B01285DD1E24880784E
:10396000801CE14988704FF4FA70FEF72AF84FF492
:10397000FA70FEF726F84FF4FA70FEF722F84FF4CB
:10398000FA70FEF71EF84FF4FA70FEF71AF84FF4CB
:10399000FA70FEF716F84FF4FA70FEF712F84FF4CB
:1039A000FA70FEF70EF84FF4FA70FEF70AF84FF4CB
:1039B000FA70FEF706F84FF4FA70FEF702F82BE003
:1039C000C948807806281CD1C748007B01280DD142
:1039D0000020C5490873C6490860C64981F88400BB
:1039E00048604CF25030086103200870C2480079EA
:1039F000012811D10020C04908710120BA498870FE
:103A000061E6FFF73FF90020B749C87301208870CD
:103A1000002048734882888200BF30E670B50546B2
:103A20000C4625B1012D39D0022D68D129E0B348CB
:103A30000068012812D0B148001D006801280DD08F
:103A4000AE4808300068012808D0AD480068012859
:103A500004D0AB4814380068012805D10122322176
:103A60000846FCF7A4FC70BDA24880F8844090F89A
:103A700084009F49086000209E494860012008702A
:103A80003DE0A04880F8844090F884009E4908609A
:103A900000209C4948600120087030E09748006889
:103AA000012818D09548001D0068012813D09348BC
:103AB0000830006801280ED0012C03D190480C3842
:103AC000006840B18E480068012804D08C48143842
:103AD0000068012805D1012232210846FCF767FC65
:103AE000C1E78A4880F8844090F884008349A43173
:103AF00008600020854948600120087000BF00BFB1
:103B000000BFB0E71CB57C48C07801284AD17A488C
:103B10004078012847D178480078002833D1012027
:103B20007549087076480068012814D17448143823
:103B3000006880B9012074490860724981F88400E6
:103B400040F6C4100861002048600320087001207E
:103B50006949487117E06A4814380068012812D191
:103B60006748006878B9002067490860654981F8AE
:103B7000840040F6C41008610020486003200870EB
:103B800001205D4948715F4800780028BED15A483D
:103B90004078401C58494870002008704FF4FA7073
:103BA000FDF70FFF0AE15448407802284DD15248F2
:103BB0000078002839D152480068012804D05048C4
:103BC00014380068012809D10020FF2161236D22EB
:103BD000CDE90010032100F043FC1CBD48480C381F
:103BE000006848B146480C38006801280AD14448AA
:103BF000001F0068012805D103203F4948700020BC
:103C00000870EAE73E48001F006870B901203A4991
:103C100008703A49A43108603C4981F88400C82002
:103C200008610020486003200870384800780028A8
:103C3000B8D131484078401C2F49487000200870A6
:103C40004FF4FA70FDF7BDFEB8E02B48407803282A
:103C500039D129480078E0B90120274908700020AF
:103C60002649A4310860294981F8840048604CF253
:103C7000503008610320087000202549C1F89401E4
:103C80001C4981F8840048604CF2503008610320E0
:103C900008701E480078002884D116480078002853
:103CA000D2D1154800790128CED1002012490871DF
:103CB00008464078401C4870002008704FF4FA70A5
:103CC000FDF77FFE7AE00C484078042839D10A4895
:103CD000007840B90120084908700B49086009497B
:103CE00081F8840016E01CE05403002088000020C6
:103CF00094012242A40100208C0000200C8121426A
:103D00002C012342C40200209001214234020020F1
:103D1000000022424FF4FA7008610020486003203E
:103D20000870F7480078002848D1F6484078401CD1
:103D3000F4494870002008704FF4FA70FDF741FE16
:103D40003CE0F0484078052824D1EE48007878B966
:103D50000120EC4908700020EB490860E84981F82F
:103D600084004FF47A7008610020486003200870D6
:103D7000E348007810BB0020E4490870E14840782F
:103D8000401CE0494870002008704FF4FA70FDF7BD
:103D900018FE13E00120DB4988704870002008708D
:103DA000C870052161236D22CDE90010032100F0C8
:103DB00057FB012232210846FCF7F9FA00BF0CE755
:103DC0002DE9F04104460D4616461F46DDF81880E1
:103DD00043463A4631462846A047BDE8F08130B513
:103DE000CB4C2468012C12D0C94C241D2468012C12
:103DF0000DD0C74C08342468012C08D0C54C246869
:103E0000012C04D0C34C143C2468012C00D130BDDB
:103E10000324C14DEC8220242C706A82AB820024E2
:103E20006C70EC83F024AC830124BC4D2C70BA4D33
:103E3000AC73EC7000246C7301242C716C7100BFA6
:103E4000E5E730B5B24C2468012C12D0B04C241DEB
:103E50002468012C0DD0AE4C08342468012C08D005
:103E6000AC4C2468012C04D0AA4C143C2468012CCE
:103E700000D130BD0324A84DEC822C4621706A820B
:103E800003F10F04AC822C466070A54C2488EC83AF
:103E9000A44C2488AC830124A04D2C709E4DEC735F
:103EA000AC702C716C71AC71EC712C726C72002462
:103EB0006C7300BFDDE730B5954C2468012C12D03F
:103EC000934C241D2468012C0DD0914C0834246897
:103ED000012C08D08F4C2468012C04D08D4C143C4C
:103EE0002468012C00D130BD03248B4DEC822C467C
:103EF00021706A82A3F10F04AC822C466070884C5A
:103F00002488EC83874C2488AC830124834D2C7057
:103F1000814DAC73EC702C716C71AC71EC712C72C6
:103F20006C7200246C7300BFDDE701207549C87016
:103F30000020887070470346012A02D0022A6ED101
:103F400020E10C2B6CD2DFE803F0061B30455A71E0
:103F5000869BB0C5F0DA0A2910D2DFE801F0050629
:103F60000708090A0B0C0D0E08E007E006E005E063
:103F700004E003E002E001E000E000BF00BFFFE07A
:103F80000A2910D2DFE801F005060708090A0B0C20
:103F90000D0E08E007E006E005E004E003E002E0C3
:103FA00001E000E000BF00BFEAE00A2910D2DFE82C
:103FB00001F005060708090A0B0C0D0E08E007E0E2
:103FC00006E005E004E003E002E001E000E000BFFD
:103FD00000BFD5E00A2910D2DFE801F00506070886
:103FE000090A0B0C0D0E08E007E006E005E004E00E
:103FF00003E002E001E000E000BF00BFC0E00A29EA
:1040000012D2DFE801F005060708090A0B0E0F10AF
:104010000AE009E008E007E006E005E004E0BBE1B3
:10402000ADE001E000E000BF00BFA9E00A2910D226
:10403000DFE801F005060708090A0B0C0D0E08E081
:1040400007E006E005E004E003E002E001E000E054
:1040500000BF00BF94E00A2910D2DFE801F0050696
:104060000708090A0B0C0D0E08E007E006E005E062
:1040700004E003E002E001E000E000BF00BF7FE0F9
:104080000A2910D2DFE801F005060708090A0B0C1F
:104090000D0E08E007E006E005E004E003E002E0C2
:1040A00001E000E000BF00BF6AE00A2910D2DFE8AB
:1040B00001F005060708090A0B0C0D0E08E007E0E1
:1040C00006E005E004E003E002E001E000E000BFFC
:1040D00000BF55E00A2910D2DFE801F00506070805
:1040E000090A0B0C0D0E08E007E006E005E004E00D
:1040F00003E002E001E000E000BF00BF40E029E093
:10410000C40200208C000020900121429300002076
:104110000C8121422C012342540300207500002011
:10412000800000207C000020FFE70A2910D2DFE891
:1041300001F005060708090A0B0C0D0E08E007E060
:1041400006E005E004E003E002E001E000E000BF7B
:1041500000BF15E00A2910D2DFE801F005060708C4
:10416000090A0B0C0D0E08E007E006E005E004E08C
:1041700003E002E001E000E000BF00BF00E000BF9C
:1041800000BF09E10C2B70D2DFE803F0061B3045BD
:104190005A70859AAFC4D9EE0A2910D2DFE801F02F
:1041A00005060708090A0B0C0D0E08E007E006E0FB
:1041B00005E004E003E002E001E000E000BF00BF32
:1041C000E8E00A2910D2DFE801F005060708090A2D
:1041D0000B0C0D0E08E007E006E005E004E003E04C
:1041E00002E001E000E000BF00BFD3E00A2910D2E6
:1041F000DFE801F005060708090A0B0C0D0E08E0C0
:1042000007E006E005E004E003E002E001E000E092
:1042100000BF00BFBEE00A2910D2DFE801F00506AA
:104220000708090A0B0C0D0E08E007E006E005E0A0
:1042300004E003E002E001E000E000BF00BFA9E00D
:104240000A2910D2DFE801F005060708090A0B0C5D
:104250000D0E08E007E006E005E004E003E002E000
:1042600001E000E000BF00BF94E092E00A2910D214
:10427000DFE801F005060708090A0B0C0D0E08E03F
:1042800007E006E005E004E003E002E001E000E012
:1042900000BF00BF7EE00A2910D2DFE801F005066A
:1042A0000708090A0B0C0D0E08E007E006E005E020
:1042B00004E003E002E001E000E000BF00BF69E0CD
:1042C0000A2910D2DFE801F005060708090A0B0CDD
:1042D0000D0E08E007E006E005E004E003E002E080
:1042E00001E000E000BF00BF54E00A2910D2DFE87F
:1042F00001F005060708090A0B0C0D0E08E007E09F
:1043000006E005E004E003E002E001E000E000BFB9
:1043100000BF3FE00A2910D2DFE801F005060708D8
:10432000090A0B0C0D0E08E007E006E005E004E0CA
:1043300003E002E001E000E000BF00BF2AE00A293C
:1043400010D2DFE801F005060708090A0B0C0D0E74
:1043500008E007E006E005E004E003E002E001E039
:1043600000E000BF00BF15E00A2910D2DFE801F02D
:1043700005060708090A0B0C0D0E08E007E006E029
:1043800005E004E003E002E001E000E000BF00BF60
:1043900000E000BF00BF00BF00BF704710B586B08F
:1043A00004460121880403F044FA0121082003F0A7
:1043B00033FAFD4804F0A2F94FF48060ADF8140020
:1043C00003208DF8160018208DF8170005A9F7486E
:1043D00002F046FF4FF40060ADF8140004208DF8A1
:1043E000170005A9F14802F03BFF01940020ADF849
:1043F0000800ADF80A00ADF80C00ADF810000C2074
:10440000ADF80E0001A9E84804F0BBF90120E84925
:1044100008608021E44804F028FB0121E24804F010
:104420003CFA012240F22551DF4804F042FA2720ED
:104430008DF8000002208DF8010003208DF80200A5
:1044400001208DF80300684602F0B3FD0020D94931
:10445000097801EB0111D84A02F8110006B010BD2D
:104460002DE9F05F0546884691469A460B9EE80086
:1044700000F10A07384604F087FF04463946204613
:1044800004F059FBAA20207055206070A57084F8B4
:10449000038084F8049084F805A00A98A071012D87
:1044A00018D13078207270786072B078A072F0788D
:1044B000E0723079207370796073B079A073F0790D
:1044C000E073A021E800083021545F21E8000930A2
:1044D000215407E0A021E800083021545F21E800C2
:1044E00009302154022012E0072809D0082101EBED
:1044F000C501814204D0092101EBC501814200D1EF
:1045000004E0E179225C1144E17100BF401CE90044
:104510000A318142E8DC4FF0000B0DE000BF402182
:10452000A14804F095FA0128F9D114F80B109E481F
:1045300004F020FA0BF1010BBB45EFD3204604F049
:10454000FBFEBDE8F09F2DE9FC5F9C48C08A08286F
:1045500005D2DFE800F0040506CFFEFDFCFBCCE24F
:10456000FDE79749D1F8800004F05FFD804695484B
:104570000CC8404604F059FC06460022924B04F059
:10458000ADFB04460022914B04F0C1FC824604F0CE
:104590006DFD8F4908708A49D1F8800004F045FD0F
:1045A000CDE9000187480CC8009804F03EFC06469F
:1045B0000022854B04F092FB04460022854B04F058
:1045C000A6FC804604F052FD00F0FF0A4FEAEA70B4
:1045D0000AEB10600012AAEB00207D4948707E496A
:1045E000D1F8800004F021FD80467C480CC840468C
:1045F00004F01BFC82460022734B04F06FFB06465E
:104600000022724B04F083FC044604F02FFD704935
:1046100088707149D1F8800004F007FD80466F482A
:104620000CC8404604F001FC06460022664B04F02C
:1046300055FB04460022674B04F069FCCDE90001FC
:1046400004F014FD00F0FF0A4FEAEA700AEB106074
:104650000012AAEB00205E49C8706148006D002876
:1046600002DA0120087102E00020594908715C4912
:10467000086D04F0C9FC5B4A5B4BCDE9000104F016
:10468000D4FB06460022504B04F028FB8046002253
:10469000504B04F03CFC044604F0E8FC00F0FF0A38
:1046A0004FEAEA700AEB10600012AAEB00204849BA
:1046B00048714248408BB0F57A7F04D03F48807EF5
:1046C000401C887102E0F020414988713B48007E1F
:1046D0003F49C8710846002161236D22CDE90010D1
:1046E00002210120FFF7BCFE012232210846FBF720
:1046F0005EFEA0E33148007811287DD005DC48B18A
:1047000001287AD0102879D1DEE0202877D030280F
:10471000F9D189E12A480078002871D12E48007823
:1047200000287DD12E480078002879D12F480068D4
:10473000012817D02D48001D0068012812D02B48F1
:104740000830006801280DD0294803E061E30FE339
:1047500087E2D3E10068012804D0254814380068B6
:1047600001280FD10020FF2161236D22CDE9001027
:104770000321FFF775FE052232210846FBF717FEDD
:10478000BDE8FC9F0020012161236D22CDE90010CE
:104790000321FFF765FE0120164908700749887359
:1047A000C870087148712CE000480040000C0140BE
:1047B000BC0121429F00002074030020540300200C
:1047C000A4010020480000200000E03F00007040ED
:1047D000970000200000F03F34020020500000202D
:1047E000C40200200AD7A3703D0AB73F0C812142C2
:1047F0002C01234275000020BEE012E07CE130E194
:104800000EE08871C871087248720846808A0F38B5
:10481000888200204873012232210846FBF7C7FD39
:104820006AE1FB48007800284DD1FA48007800285A
:1048300049D1F9480078002845D1F8480068012896
:1048400012D0F648001D006801280DD0F34808304A
:104850000068012808D0F2480068012804D0F04818
:104860001438006801280ED10020FF2161236D2239
:10487000CDE900100321FFF7F3FD052232210846A0
:10488000FBF795FD7CE70020012161236D22CDE936
:1048900000100321FFF7E4FD0120E2490870E2491E
:1048A0008873C870087148718871C871087248723D
:1048B0000846808A0F3888820020487301223221FE
:1048C0000846FBF774FD17E1D1480078002852D163
:1048D000D048007800284ED1CF48007800284AD12F
:1048E000CE480068012812D0CC48001D006801287D
:1048F0000DD0CA4808300068012808D0C8480068B0
:10490000012804D0C6481438006801280ED10522B9
:1049100032210846FBF74BFD0020FF2161236D2269
:10492000CDE900100321FFF79BFD29E700200121BD
:1049300061236D22CDE900100321FFF791FDBA48F4
:10494000807A401CB84988720120B6490870B6497F
:10495000C8738870087148718871C871087248728C
:10496000002048730846808A0F3088820122322155
:104970000846FBF71CFDBFE0A5480078002852D18F
:10498000A448007800284ED1A348007800284AD1D6
:10499000A2480068012812D0A048001D0068012824
:1049A0000DD09E4808300068012808D09C48006857
:1049B000012804D09A481438006801280ED100203C
:1049C000FF2161236D22CDE900100321FFF748FD8F
:1049D000052232210846FBF7EAFCD1E6002001213E
:1049E00061236D22CDE900100321FFF739FD8E48C8
:1049F000807A401C8C49887201208A4908708A4953
:104A0000C8738870087148718871C87108724872DB
:104A1000002048730846808A0F30888201223221A4
:104A20000846FBF7C4FC67E079480078C0B97948CC
:104A30000078A8B97848007890B900200121612356
:104A40006D22CDE900100321FFF70AFD012077490F
:104A5000C87000208870012232210846FBF7A7FCAD
:104A60004AE06B480078E8BB6A480078D0BB6A48E7
:104A70000078B8BB69480068012812D06748001D5B
:104A8000006801280DD0654808300068012808D06A
:104A900063480068012804D0614814380068012880
:104AA0000ED1052232210846FBF781FC0020FF21B0
:104AB00061236D22CDE900100321FFF7D1FC5FE6F1
:104AC0000020012161236D22CDE900100321FFF7B1
:104AD000C7FC01205349087053498873C8700020EF
:104AE000487300E007E0012008714871012232217B
:104AF0000846FBF75CFC00BF00BF9CE101204A496F
:104B000008740020012161236D22CDE900100321EA
:104B1000FFF7A6FC4448007800F0300020B11028D0
:104B200050D0202839D139E03C480068012812D003
:104B30003A48001D006801280DD038480830006848
:104B4000012808D036480068012804D034481438B9
:104B5000006801280ED10020FF2161236D22CDE9DC
:104B600000100321FFF77CFC052232210846FBF7E9
:104B70001EFC05E62C48007800F0010010B1012869
:104B80000AD104E000210846FEF748FF04E00121B5
:104B90000020FEF743FF00BF00BF5BE02248007823
:104BA00000F0010010B101280AD104E00121022027
:104BB000FEF734FF04E000210220FEF72FFF00BFC4
:104BC00000BF47E015480068012812D01348001DB7
:104BD000006801280DD0114808300068012808D06D
:104BE0000F480068012804D00D48143800680128D7
:104BF0001ED10020FF2161236D22CDE90010032189
:104C0000FFF72EFC052232210846FBF7D0FBB7E563
:104C1000A401002034020020C40200200C812142A3
:104C20002C01234275000020540300208C0000203A
:104C3000FE48007800F0010028B1012808D10021C9
:104C4000FEF7ECFE04E001210846FEF7E7FE00BF98
:104C500000BF00BF00BF012232210846FBF7A7FBBF
:104C6000E9E00020012161236D22CDE9001003213C
:104C7000FFF7F6FBED4800780411002C01DD10244D
:104C800000E0002404F0100010B1102869D12DE0DC
:104C9000E648007800F00F00082821D2DFE800F095
:104CA0002004080C1014181C0020E04908761BE0B2
:104CB0000120DE49087617E00220DC49087613E07F
:104CC0000320DA4908760FE00420D84908760BE083
:104CD0000520D649087607E00620D449087603E087
:104CE0000020D249087600BF00BF3AE0CF480078E4
:104CF00000F0F00000F00F0169BB001110282AD26B
:104D0000DFE800F029080C1014181C202929292993
:104D1000292929240020C549488320E00120C349CE
:104D200048831CE00220C149488318E00320BF49A2
:104D3000488314E00420BD49488310E00520BB49A6
:104D400048830CE00620B949488308E04FF47A70A4
:104D5000B649488303E00020B449488300BF00BF40
:104D600000BF00BF012232210846FBF720FB62E0B2
:104D70000020012161236D22CDE900100621FFF7FB
:104D80006FFBAA48007880BB0020A9490870002169
:104D90004FF0804003F0D4F90020A64908700021AC
:104DA000A54803F0CDF90020A44908700021A448CB
:104DB00003F0C6F900209D498873C8738882488231
:104DC0000120A04908709949C8708870087148711D
:104DD0008871C871087248720020487301209A498E
:104DE000487000200870C8700DE0FFE70120974967
:104DF00008609749087040F2DC50FCF7E2FD40F291
:104E0000DC50FCF7DEFD012232210846FBF7CFFA29
:104E100011E00020012161236D22CDE9001007215E
:104E2000FFF71EFB00208349086501223221084656
:104E3000FBF7BDFA00BF00BF00BFA1E410B5854875
:104E4000007800287DD083480078401E00EB0010D9
:104E5000814901EB400090F820107E480078401E08
:104E600000EB00107C4A02EB4000007A814226D021
:104E7000002178480078401E00EB001002EB400053
:104E800080F8201073480078401E00EB001002F8F4
:104E9000101070490978491E01EB011102EB410124
:104EA000481C1E2103F047FE6A480078401E6949ED
:104EB0000870032232210846FBF779FA10BD6548D5
:104EC0000078401E00EB0010634901EB4000407980
:104ED0006D2836D100215F480078401E00EB00109D
:104EE0005D4A02EB400001725A480078401E00EB18
:104EF000001002F8101057480078401E00EB001018
:104F000002EB400080F8201052480078401E00EB71
:104F10000010114601EB400000794449C8824D4819
:104F20000078401E00EB0010114601EB4000C079F4
:104F30003E49087047480078401E00EB00101146BB
:104F400000E08EE001EB4000807800285DD0414811
:104F50000078401E00EB001001EB4000817A3D48D4
:104F60000078401E00EB001002EB4000407A01EB9D
:104F700000202E49488237480078401E00EB001080
:104F8000114601EB4000017B32480078401E00EBE7
:104F9000001002EB4000C07A01EB00202349888218
:104FA0002C480078401E00EB0010114601EB400039
:104FB000407B1E49487027480078401E00EB0010D7
:104FC000114601EB4000C17B22480078401E00EBF7
:104FD000001002EB4000807B01EB00201349C883E6
:104FE0001C480078401E00EB0010114601EB400009
:104FF000417C18480078401E00EB001002EB400096
:10500000007C01EB00200949888312490978491E78
:1050100001EB0111104A02EB4101481C1E2103F073
:105020008AFD0C480078401E0A4917E0540300200E
:10503000A4010020C402002000040040340200202B
:1050400000080040750000208C00002094012142DF
:10505000940000209F000020740300200870FFF7D8
:1050600072FA00BF2AE710B540F22551FE4803F05E
:105070002FFDFD4803F082FCFC49097801EB01118A
:10508000FB4A02EB4101C877FA4800780B2856D258
:10509000DFE800F00656A6F2F0EFEEEDECEBEA00EA
:1050A000F248007800EB0010F14901EB4000C07FAE
:1050B000AA2829D1ED48007800EB001001EB400050
:1050C000C17FEA48007800EB0010E94A02EB40009B
:1050D000401CE64A127802EB0212E54B13F812204C
:1050E00081540120E3490870E048007800EB00108B
:1050F000194611F81000401CDC49097801EB011138
:105100001A4602F811001AE00020DA490870D7495F
:10511000097801EB0111D64A02F81100D349097848
:1051200001EB011102EB410181F820000120CF4980
:10513000097801EB011102EB410181F8210065E3DF
:10514000CA48007800EB0010C94901EB4000C07F5D
:10515000552829D1C548007800EB001001EB40002C
:10516000C17FC248007800EB0010C14A02EB40004A
:10517000401CBE4A127802EB0212BD4B13F81220FB
:1051800081540220BB490870B848007800EB001039
:10519000194611F81000401CB449097801EB0111BF
:1051A0001A4602F811001AE00020B2490870AF490F
:1051B000097801EB0111AE4A02F81100AB490978F8
:1051C00001EB011102EB410181F820000120A74908
:1051D000097801EB011102EB410181F8210015E38F
:1051E000A248007800EB0010A14901EB4000C17F0C
:1051F0009E48007800EB00109D4A02EB4000401CE6
:105200009A4A127802EB0212994B13F81220815439
:105210000320984908709548007800EB0010194663
:1052200011F81000401C9149097801EB01111A4650
:1052300002F811008D48007800EB0010114601EBD8
:10524000400090F820008949097801EB011102EB38
:105250004101C97F08448549097801EB011102EB3E
:10526000410181F82000D1E27DE22CE27FE11CE1E6
:10527000CEE089E044E0FFE77C48007800EB0010D6
:105280007B4901EB4000C17F7848007800EB0010BB
:10529000774A02EB4000401C744A127802EB02127B
:1052A000734B13F8122081540420724908706F4820
:1052B000007800EB0010194611F81000401C6B49F3
:1052C000097801EB01111A4602F8110067480078CD
:1052D00000EB0010114601EB400090F820006349FC
:1052E000097801EB011102EB4101C97F08445F49D4
:1052F000097801EB011102EB410181F8200085E200
:105300005A48007800EB0010594901EB4000C17F7A
:105310005648007800EB0010554A02EB4000401C54
:10532000524A127802EB0212514B13F812208154A8
:105330000520504908704D48007800EB00101946D0
:1053400011F81000401C4949097801EB01111A4677
:1053500002F811004548007800EB0010114601EBFF
:10536000400090F820004149097801EB011102EB5F
:105370004101C97F08443D49097801EB011102EB65
:10538000410181F8200041E23848007800EB00102C
:10539000374901EB4000C17F3448007800EB001032
:1053A000334A02EB4000401C304A127802EB0212F2
:1053B0002F4B13F81220815406202E4908702B48D9
:1053C000007800EB0010194611F81000401C274926
:1053D000097801EB01111A4602F811002348007800
:1053E00000EB0010114601EB400090F820001F492F
:1053F000097801EB011102EB4101C97F08441B4907
:10540000097801EB011102EB410181F82000FDE177
:105410001648007800EB0010154901EB4000C17FF1
:105420001248007800EB0010114A02EB4000401CCB
:105430000E4A127802EB02120D4B13F8122081541F
:1054400007200C4908700948007800EB0010194645
:1054500011F81000401C0549097801EB01111A46AA
:1054600002F81100014807E0004800409F000020BA
:1054700074030020A0000020007800EB001011460B
:1054800001EB400090F82000E149097801EB01119F
:1054900002EB4101C97F0844DD49097801EB0111A4
:1054A00002EB410181F82000B0E1D948007800EB1F
:1054B0000010D84901EB4000C17FD548007800EBCF
:1054C0000010D44A02EB4000401CD14A127802EB93
:1054D0000212D04B13F8122081540820CE490870D4
:1054E000CB48007800EB0010194611F81000401C62
:1054F000C749097801EB01111A4602F81100C448A6
:10550000007800EB0010114601EB4000C07820B19C
:10551000012806D002280CD107E00920BE490870F6
:1055200023E00820BC4908701FE00820BA49087031
:105530001BE00020B8490870B549097801EB01115A
:10554000B44A02F81100B249097801EB011102EBEB
:10555000410181F820000120AD49097801EB0111DA
:1055600002EB410181F8210000BF00BF4EE1A848D5
:10557000007800EB0010A74901EB4000C07801283B
:1055800002D002284DD14DE0A148007800EB001078
:10559000A04901EB4000C17F9D48007800EB00105E
:1055A0009C4A02EB4000401C994A127802EB02121E
:1055B000984B13F8122081549548007800EB0010A6
:1055C000194611F81000401C9149097801EB0111AE
:1055D0001A4602F811008E48007800EB00101146C0
:1055E00001EB400090F820008949097801EB011196
:1055F00002EB4101C97F08448549097801EB01119B
:1056000002EB410181F820008148007800EB001096
:10561000114611F81000C01F082802D109207E4948
:1056200008704EE07A48007800EB0010794901EBF1
:105630004000C17F7648007800EB0010754A02EB0D
:105640004000401C724A127802EB0212714B13F8B0
:10565000122081546E48007800EB0010194601EBCF
:10566000400090F820006A49097801EB01111A46C0
:1056700002EB4101C97F08446549097801EB01113A
:1056800002EB410181F820006148007800EB001036
:10569000114611F81000C01F102802D109205E49E0
:1056A00008705B48007800EB00105A4911F81000B0
:1056B000401C5749097801EB0111564A02F81100C4
:1056C00000BF00BFA2E05248007800EB0010514933
:1056D00001EB4000C07FA02829D14D48007800EBA5
:1056E000001001EB4000C17F4948007800EB00103A
:1056F000484A02EB4000401C454A127802EB021275
:10570000444B13F8122081540A2043490870404842
:10571000007800EB0010194611F81000401C3C49BD
:10572000097801EB01111A4602F811001AE0002075
:10573000394908703649097801EB0111354A02F8F8
:1057400011003349097801EB011102EB410181F8A5
:10575000200001202E49097801EB011102EB4101E3
:1057600081F8210052E02A48007800EB0010294916
:1057700001EB4000C07F5F282CD12548007800EB6A
:10578000001001EB4000C17F2148007800EB0010C1
:10579000204A02EB4000401C1D4A127802EB021224
:1057A0001C4B13F81220815400201B490870184923
:1057B000097801EB01111A4602F81100144800782B
:1057C000401C134908700020097801EB011102F810
:1057D00011001AE00020104908700D49097801EB0A
:1057E00001110C4A02F811000949097801EB011175
:1057F00002EB410181F8200001200549097801EB05
:10580000011102EB410181F8210000BF00BF10BD72
:105810009F00002074030020A000002010B586B077
:1058200004460121480402F004F80121042001F09B
:10583000F3FFF94802F062FF0420ADF810000320E6
:105840008DF8120018208DF8130004A9F34801F018
:1058500007FD0820ADF8100004208DF8130004A9FE
:10586000EE4801F0FDFC00940020ADF80400ADF816
:105870000600ADF80800ADF80C000C20ADF80A00E9
:1058800026208DF8140003208DF8150001208DF8D6
:1058900016008DF8170005A801F08BFB6946DE485D
:1058A00002F06FFF012240F22551DB4803F001F8BE
:1058B0000121D94802F0F1FF8021D74803F0D5F843
:1058C00006B010BD70B505460E46002405E0315DFA
:1058D000D14803F04FF8601CC4B2AC42F7DB70BD96
:1058E00010B540F22551CC4803F0F2F8CC480078CE
:1058F00001286ED1C84803F041F8CA490870CA4867
:10590000007805281DD2DFE800F0031D384E650041
:10591000C4480078A5280DD1C2480078C349097849
:10592000C1EB0111C1EBC101C14A50540120BE4974
:10593000087006E00020BC490870BE490860BE49F6
:10594000087082E0B74800785A280ED1B548007830
:10595000B6490978C1EB0111C1EBC101B44A114448
:1059600048700220B049087006E00020AE49087077
:10597000B0490860B049087067E0AA480078AB49B0
:105980000978C1EB0111C1EBC101A94A114488702A
:10599000A9480078A34909780844A749087003205A
:1059A000A149087051E09F480078A0490978C1EBEF
:1059B0000111C1EBC1019E4A1144C8709E48007894
:1059C0009849097808449C49087004209649087051
:1059D0003BE03BE09348017894480078C0EB00102E
:1059E000C0EBC000924A1044001D924A12688154D4
:1059F00090480068401C8F4908608F4800788949AA
:105A0000097808448C49087088480078C0EB001079
:105A1000C0EBC000864908448078401E854909686B
:105A2000884211D10020804908708349087081495B
:105A300008607E480078401C7C4908700846007861
:105A4000042801DB0120087000BF4FE1724802F01A
:105A500095FFC4B27948007807282DD2DFE800F01E
:105A6000042D6195BDF9DB006D2C13D074480078CE
:105A700000EB400101EBC00072490844724909780B
:105A8000445471480078401C6F49087001206B49EC
:105A9000087011E06A48007800EB400101EBC0009B
:105AA00068490844684909784454002063490870EB
:105AB000664908706449087017E16D2C13D060487E
:105AC000007800EB400101EBC0005E4908445E49EC
:105AD000097844545C480078401C5B4908700220F7
