:020000040800F2
:1000000048130020C189000841020008430200088B
:10001000470200084B0200084F02000800000000E1
:100020000000000000000000000000005302000873
:10003000550200080000000057020008590200089D
:10004000DB890008DB890008DB890008DB89000800
:10005000DB890008DB890008F92A0008272A000844
:10006000DB890008DB890008892B0008DB89000890
:10007000DB890008DB890008DB890008DB890008D0
:10008000DB890008DB890008DB890008DB890008C0
:10009000DB890008DB890008DB890008DB890008B0
:1000A000DB890008DB890008DB890008DB890008A0
:1000B00017180008DB890008DB890008DB890008C5
:1000C000DB890008DB890008DB890008DB89000880
:1000D000DB890008DB89000855590008DB5000085F
:1000E000DB890008DB890008DB890008DB89000860
:1000F000DB890008DB890008DB890008DB89000850
:10010000DB890008DB890008B3090008DB890008E7
:10011000DB890008DB890008DB890008DB8900082F
:10012000DB890008DB890008DB890008DB8900081F
:10013000DFF80CD009F020F800480047450100081E
:10014000481300201CB501F0A9FB58E002F046FB63
:1001500002F03EFA32480078012850D104F0A8FE9F
:1001600000202F49087003F008FD00F030FA06F077
:100170003BFA2C4A918A508A03F09DF8294A918AC9
:10018000508A03F07FFA2848007800EB00102749D6
:1001900001EB400090F82100012827D103223221F1
:1001A000084600F060F900201F49097801EB0111B1
:1001B0001E4A02EB410181F821001B49097801EB3D
:1001C000011102EB4101481C1E2108F012FC002025
:1001D000FF2161236D22CDE9001004F07BF900219D
:1001E000134808F0B8FA0120124908701248007844
:1001F000012804D10020114908600F490870A5E7C3
:1002000070B504460D46E1B2094808F011FB00BF85
:100210000748008800F080000028F9D0204670BD13
:1002200033000020540300209F00002074030020AE
:1002300000480040960000209400002094012142D4
:10024000704700BFFEE700BFFEE700BFFEE700BF4C
:10025000FEE7704770477047704700000CB50020FC
:10026000019000906C48006840F480306A49086052
:1002700000BF6948006800F4003000900198401CFD
:100280000190009818B90198B0F5A06FF1D16248BB
:10029000006800F4003010B10120009001E000205F
:1002A00000900098012843D15C48006840F010009D
:1002B0005A4908600846006820F0030008600846B4
:1002C000006840F0020008605348406852494860A6
:1002D0000846406848600846406840F480604860CE
:1002E0000846406820F47C1048600846406840F4A6
:1002F000E81048600846006840F08070086000BF61
:100300004548006800F000700028F9D04248406875
:1003100020F00300404948600846406840F0020071
:10032000486000BF3C48406800F00C000828F9D144
:100330000CBD10B5FFF792FF10BD10B53648006830
:1003400040F00100344908600846406834490840DC
:100350003149486008460068324908402E49086023
:100360000846006820F4802008600846406820F4B1
:10037000FE0048604FF41F008860FFF7DAFF4FF07F
:1003800000602949086010BD10B50021002000223E
:10039000214B5B6803F00C0121B1042906D0082928
:1003A00028D107E0214B224C236027E01F4B204C33
:1003B000236023E0184B5B6803F47010164B5B68F6
:1003C00003F48032022303EB904022B9194B4343DC
:1003D000174C23600DE0104B5B6803F4003323B12E
:1003E000144B4343124C236003E0104B4343104C27
:1003F000236003E00D4B0E4C236000BF00BF064B93
:100400005B68C3F303130C4CE15C094B1B68CB40E6
:10041000074C236010BD0000001002400020024085
:100420000000FFF8FFFFF6FE08ED00E000127A0082
:100430000000002000093D000400002017488069EA
:1004400040F01000154988611548406820F470405C
:10045000134948600846406840F4405048600846E8
:10046000C068C86070472DE9F04107460C46154644
:1004700000260EE001200B490860384601F001FB20
:1004800000200949C1F8AC01204601F0FAFA701CBD
:10049000C6B2AE42EEDBBDE8F081000000100240C3
:1004A00000100140AC0122420000224208B50121A7
:1004B000202007F00FF9BD20ADF8000048208DF88E
:1004C00003006946D54806F029FE08BD10B5D4489A
:1004D000006880B9D3480078002877D1032001F064
:1004E000D0FACF480068002870D10120CD490870AB
:1004F000CD4908706AE0CA480C38006888B9C94814
:100500000078002862D1032001F0BBFAC4480C38FF
:10051000006800285AD10120C2490870C3490870F8
:1005200054E0BF480838006888B9BE480078002801
:100530004CD1032001F0A5FAB9480838006800281A
:1005400044D10120B7490870B94908703EE0B44869
:100550001438006878B9B3480078F8B9032001F07E
:1005600090FAAF4814380068C0B90120AD4908704E
:10057000B04908702AE0AA481038006878B9A9483C
:10058000007858B9032001F07CFAA54810380068BB
:1005900020B90120A3490870A749087016E0A048B7
:1005A0001C38006878B99F48007878B9032001F0BA
:1005B00068FA9B481C38006840B9012099490870C6
:1005C0009E49087002E000209649087010BD10B5E1
:1005D000FFF77CFF9448007801280CD10020924955
:1005E000087001221146052001F0A9FC0122C82152
:1005F0000846FFF738FF8D48007801280CD100200D
:100600008A49087000220121052001F098FC01228E
:10061000C8210846FFF727FF8548007801280CD13C
:1006200000208349087000221146052001F087FC54
:1006300001226421C820FFF716FF7E4800780128B8
:100640000CD100207B49087001220021052001F017
:1006500076FC01226421C820FFF705FF7648007868
:1006600001280CD1002074490870002202210520C5
:1006700001F065FC012232210846FFF7F4FE6F48C5
:10068000007801287ED100206C49087001223221B7
:100690000846FFF7E8FE3C20694908600122042172
:1006A000674806F0A6FA6648006866490860664929
:1006B0006648674AC2E900100A220821644806F029
:1006C00033FA6348D0E90010624AC2E900102F20D3
:1006D00061490860192204215F4806F025FA5E4846
:1006E00000685E4908605E485E495F4A03C2232293
:1006F00008215D4806F018FA5B48D0E900105B4A13
:10070000C2E90010E3205A49086032220421584807
:1007100006F00AFA56480068564908600020564913
:1007200008603C220421544806F0FEF95248006853
:100730005249086046205249086046220421504828
:1007400006F0F2F94E4800684E4908601E204E49F6
:100750000860502204214C4806F0E6F94A48006837
:100760004A49086040F60610494908605A220421A7
:10077000474806F0D9F9464800684649086040F6FF
:10078000980000E049E0444908606422042142489E
:1007900006F0CAF9404800684049086040F6840005
:1007A0003F4908606E2204213D4806F0BDF93C48EF
:1007B00000683C49086040F6BB003B49086078226D
:1007C0000421394806F0B0F9374800683749086015
:1007D00040F698003649086082220421344806F029
:1007E000A3F933480068334908606420324908603F
:1007F0008C220421304806F097F92F4800682F49D1
:100800000860AA202E490860962204212C4806F090
:100810008BF92B4800682B49086010BD001401407B
:100820001C81224214000020150000201600002028
:100830001700002018000020190000201A000020D6
:10084000C000002044000020295C8FC2F528DC3F56
:10085000C800002048000020D000002078000020C0
:1008600017D9CEF753E3D53FD80000205000002021
:10087000E00000207C000020E40000208000002038
:10088000E800002058000020EC0000205C00002060
:10089000F000002060000020F40000206400002030
:1008A000F800002068000020FC0000206C00002000
:1008B00000010020700000200801002084000020BA
:1008C000040100208800002008B50121102006F056
:1008D00001FF0420ADF8000010208DF80300032074
:1008E0008DF802006946044806F018FC042102480D
:1008F00006F0C1FC08BD0000001001407FB50546B0
:100900000C460121082006F0F2FEADF80850ADF8C3
:1009100004400020ADF80A00ADF8060001A9FE4829
:1009200007F010F801221146FB4807F082FB322045
:100930008DF8000000208DF8010003208DF80200E2
:1009400001208DF80300684606F091FA0121F24873
:1009500007F054FB7FBD7FB505460C4601210846D4
:1009600006F0C5FEADF80850ADF804400020ADF823
:100970000A00ADF8060001A94FF0804006F0E2FF42
:1009800001221146900707F054FB1C208DF800004F
:1009900001208DF8010003208DF8020001208DF860
:1009A0000300684606F063FA0121880707F026FB7A
:1009B0007FBD00B589B00121D74807F0E8FD0028C8
:1009C0007ED00121D44807F0F3FDD448007800B36D
:1009D000D3480078D1490978884207D0CF480078B9
:1009E000401ED04908700020CF490880CB480078CD
:1009F000CB490870CB48007858B1CB480088401CE0
:100A0000C949088008460088C82803DA0120C74978
:100A1000086010E0C4480088B0F5FA7F03DA0020CF
:100A2000C249086007E00020BF490880BD4800783F
:100A3000401EBC4908700120BD490870BD480078BF
:100A400002287DD1BB484069401CBA49486108462C
:100A500090F8720007284AD2DFE800F049044ABE45
:100A6000DEFDFC00B348C06F0790B248C068069036
:100A7000079908F0A7FA33D2AE484068AD498861BB
:100A800008464069486308464069069008F015FA30
:100A90000790A848806F01460690079808F00CF868
:100AA000A449C86008464069049008F006FA059019
:100AB000A048C06801460490059807F0FDFF00E0DB
:100AC000FEE34FF08041069008F028F89A4907901D
:100AD00007F09AFF9749886008468068486506E0F5
:100AE000944890F87200401C924981F872006BE1C2
:100AF0009048C0680021079008F06EFA64D28D48D3
:100B00004168C16141698163808A8A49898E401A3E
:100B10008849A1F870000846B0F87000059008F008
:100B2000CCF906908348806F01460590069807F03F
:100B3000C3FF07907F48C06F01460690079800E00A
:100B40005DE107F0B6FF7B49C8600846B0F8700069
:100B5000029008F0B2F904907648B0F87000019065
:100B600008F0ABF902907348806F0146019002983B
:100B700007F0A2FF0390049907F09EFF4FF0804119
:100B8000059007F0CBFF07906A48B0F8700003901B
:100B900008F093F904906748C06F014603900498E9
:100BA00007F08AFF05906348406D01460490059860
:100BB00007F02AFF0690079907F078FF5D498860E3
:100BC00008468168816506E05A4890F87200401C2A
:100BD000584981F87200F7E056480169C069081A5F
:100BE0005449496888420FD95248416801624169B5
:100BF000C163B0F87400079008F05FF94D49886050
:100C000008468168C16506E04A4890F87200401CB9
:100C1000484981F87200D7E04648C06F07904548C0
:100C2000C0680690079908F0CDF93ED24148416866
:100C3000416241690164818A808F081A3D49A1F8A7
:100C400070000846B0F87000069008F036F907907A
:100C5000384801E0B4E030E0806F01460690079824
:100C600007F02AFF3349C8600846B0F870000490C6
:100C700008F023F905902F48C068014604900598B4
:100C800007F01AFF4FF08041069007F047FF0790EA
:100C90002848C06D01460690079807F00AFF2549CD
:100CA000886008468168016606E0224890F8720074
:100CB000401C204981F8720086E01E4880681E4969
:100CC000079008F089F973D21A4841688162416936
:100CD0004164818AB0F84000081A1649A1F87000F2
:100CE0000846B0F87000059008F0E7F80690114843
:100CF000806F01460590069807F0DEFE07900D48CC
:100D0000C06F01460690079807F0D3FE0949C860F6
:100D10000846B0F8700011E0000C00401E000020F2
:100D20001F000020300000202E00002088012242F9
:100D300033000020A40100200000C842019008F008
:100D4000BCF80390FE48B0F87000009008F0B5F8C9
:100D50000190FB48806F01460090019807F0ACFEBF
:100D60000290039907F0A8FE4FF08041049007F02D
:100D7000D5FE0690F248B0F87000039008F09DF898
:100D80000490EF48C06F01460390049807F094FE6A
:100D90000590069907F08AFE0790E948006E014623
:100DA0000690079807F085FEE549886007E0FFE7B1
:100DB000E34890F87200401CE14981F8720003E0BA
:100DC000E048DF49886000BF00BFDD488068014619
:100DD0000790172001F053F808900898B0F57A7F33
:100DE00051D34FF2B561089888424CD2012188074F
:100DF00007F004F91721089801F05DF843E0D048A6
:100E00000078012823D1D048007E32214843323077
:100E1000CB49A1F87400CC48408B00EB8000400027
:100E20000A3008610846B0F87400069008F045F8EA
:100E300001460790172001F022F808901721089822
:100E400001F039F80121880707F0D8F81BE0BC4809
:100E50000078032817D16420B949A1F87400084626
:100E6000B0F87400069008F028F8014607901720A3
:100E700001F005F808901721089801F01CF80121ED
:100E8000880707F0BBF8B148007802287ED1AF4848
:100E90004069401CAD494861084690F87200072837
:100EA00048D2DFE800F0470448BCDCFEFD00A7485C
:100EB000C06F0790A548C0680690079908F082F8AF
:100EC00031D2A2484068A149886108464069486318
:100ED00008464069069007F0F0FF07909B48806F36
:100EE00001460690079807F0E7FD9849C860084654
:100EF0004069049007F0E1FF05909448C0680146FE
:100F00000490059807F0D8FD4FF08041069007F057
:100F100005FE8F49079007F077FD8C4988600846E9
:100F20008068486506E0894890F87200401C87494F
:100F300081F8720062E18548C0680021079008F0DE
:100F40004BF864D281484168C16141698163808AFC
:100F50007E49898E401A7D49A1F870000846B0F894
:100F60007000059007F0A9FF06907848806F014651
:100F70000590069807F0A0FD07907448C06F0146E1
:100F80000690079807F095FD704900E051E1C860B0
:100F90000846B0F87000029007F08FFF04906B488D
:100FA000B0F87000019007F088FF02906748806FEA
:100FB00001460190029807F07FFD0390049907F025
:100FC0007BFD4FF08041059007F0A8FD07905F483A
:100FD000B0F87000039007F070FF04905B48C06F9A
:100FE00001460390049807F067FD05905748406D4F
:100FF00001460490059807F007FD0690079907F051
:1010000055FD5249886008468168816506E04F4871
:1010100090F87200401C4D4981F87200EEE04B4898
:101020000169C069081A4949496888420FD9474887
:10103000416801624169C163B0F87400079007F02C
:101040003CFF4249886008468168C16506E03F4828
:1010500090F87200401C3D4981F87200CEE03B4898
:10106000C06F07903948C0680690079907F0AAFF3B
:101070003ED236484168416241690164818A808F6D
:10108000081A3249A1F870000846B0F870000690BE
:1010900007F013FF07902D48806F0146069001E08E
:1010A000A8E02DE0079807F007FD2849C86008462A
:1010B000B0F87000049007F000FF05902348C06866
:1010C00001460490059807F0F7FC4FF08041069028
:1010D00007F024FD07901D48C06D01460690079853
:1010E00007F0E7FC1949886008468168016606E058
:1010F000164890F87200401C144981F872007DE097
:10110000124880681249079007F066FF6AD20F48BC
:101110004168816241694164818AB0F84000081ADF
:101120000A49A1F870000846B0F87000059007F071
:10113000C4FE06900548806F01460590069809E0B8
:10114000A40100200000C842540300203402002003
:101150000000484207F0B0FC0790FE48C06F01460F
:101160000690079807F0A5FCFA49C8600846B0F851
:101170007000019007F0A1FE0390F648B0F87000EF
:10118000009007F09AFE0190F248806F01460090AF
:10119000019807F091FC0290039907F08DFC4FF045
:1011A0008041049007F0BAFC0690EA48B0F870005D
:1011B000039007F082FE0490E648C06F014603905A
:1011C000049807F079FC0590069907F06FFC0790EA
:1011D000E048006E01460690079807F06AFCDD497A
:1011E000886006E0DB4890F87200401CD94981F81D
:1011F000720003E0D848D749886000BF00BFD548D7
:10120000806801460790172000F039FE0890089882
:10121000B0F57A7F51D34FF2B561089888424CD22D
:101220001721089800F074FE0121CC4806F0E6FE74
:1012300043E0C8480078012823D1C948007E322104
:1012400048433230C349A1F87400C548408B00EBD5
:1012500080004000323008610846B0F87400069003
:1012600007F02BFE01460790172000F008FE0890BB
:101270001721089800F04CFE0121B84806F0BEFE88
:101280001BE0B4480078032817D15020B149A1F8D9
:1012900074000846B0F87400069007F00EFE014690
:1012A0000790172000F0EBFD08901721089800F038
:1012B0002FFE0121A94806F0A1FEAA48007800E00F
:1012C000A7E202287ED1A7484069401CA549486191
:1012D000084690F87200012843D10846C06F079075
:1012E0000846C0680690079907F06CFE31D29D4809
:1012F00040689C49886108464069486308464069DF
:10130000069007F0DAFD07909648806F0146069038
:10131000079807F0D1FB9349C860084640690490DC
:1013200007F0CBFD05908F48C068014604900598F2
:1013300007F0C2FB4FF08041069007F0EFFB8A49AF
:10134000079007F061FB8749886008468068486518
:1013500095E1844890F87200401C824981F872003F
:101360008DE1804890F8720002287DD17D48C068E8
:101370000021079007F030FE7BD27A48B0F8740065
:10138000069007F09AFD079076488068014606901F
:10139000079807F021FE6CD272484069B0F5FA7FD9
:1013A00067D270484168C16141698163808A6D4933
:1013B000898E401A6B49A1F870000846B0F8700099
:1013C000059000E075E107F078FD06906548806FB4
:1013D00001460590069807F06FFB07906148C06FC3
:1013E00001460690079807F064FB5E49C86008460E
:1013F000B0F87000029007F060FD04905948B0F812
:101400007000019007F059FD02905648806F014628
:101410000190029807F050FB0390049907F04CFBF1
:101420004FF08041059007F079FB07904D48B0F8E8
:101430007000039007F041FD04904A48C06F0146D8
:101440000390049807F038FB05904648406D01462C
:101450000490059807F0D8FA0690079907F026FB44
:1014600040498860084601E00BE002E08168816540
:1014700005E13C4890F87200401C3A4981F872003E
:10148000FDE0384890F8720003281FD13548016903
:10149000C069081A3349496888420FD93148416800
:1014A00001624169C163B0F87400079007F005FD5F
:1014B0002C49886008468168C165E0E0294890F8B9
:1014C0007200401C274981F87200D8E0254890F846
:1014D000720004285BD12348C06F07902148C06880
:1014E0000690079907F06EFD48D21E484168416298
:1014F00041690164818A808F081A1A49A1F8700035
:101500000846B0F87000069007F0D7FC0790154821
:10151000806F01460690079807F0CEFA1149C8601F
:101520000846B0F87000049007F0C7FC05900D481D
:10153000C06801460490059807F0BEFA4FF080415C
:10154000069007F0EBFA07900648C06D014606903A
:1015500007980BE0340200200000484200080040D9
:1015600054030020C40200200000C84207F0A1FA82
:10157000AE49886008468168016680E0AB4890F813
:101580007200401CC1B2A94880F8721077E0A748E9
:1015900090F8720005286FD1A4488068A44907908C
:1015A00007F01AFD5FD2A148416881624169416438
:1015B000818AB0F84000081A9C49A1F870000846DA
:1015C000B0F87000059007F078FC06909748806F9F
:1015D00001460590069807F06FFA07909348C06F90
:1015E00001460690079807F064FA9049C8600846DB
:1015F000B0F87000019007F060FC03908B48B0F8E1
:101600007000009007F059FC01908848806F0146F7
:101610000090019807F050FA0290039907F04CFAF5
:101620004FF08041049007F079FA06907F48B0F8B7
:101630007000039007F041FC04907C48C06F0146A5
:101640000390049807F038FA0590069907F02EFAEF
:1016500007907648006E01460690079807F029FA31
:10166000724988600BE0714890F87200401C6F4925
:1016700081F8720003E0FFE76D496C4881606B48B8
:10168000806801460790172000F0F9FB0890089841
:10169000B0F57A7F54D34FF2B561089888424FD2A3
:1016A0001721089800F01DFC0121624806F0A6FCF5
:1016B00046E05E480078012826D15F48007E32214E
:1016C00048433C305949A1F874005B48408B00EB1B
:1016D00080004000323008610846B0F8740006907F
:1016E00007F0EBFB01460790172000F0C8FB0890BD
:1016F0001721089800F0F5FB01214E4806F07EFC0A
:1017000000204E4948711BE048480078032817D153
:10171000C8204649A1F874000846B0F87400069045
:1017200007F0CBFB01460790172000F0A8FB0890BC
:101730001721089800F0D5FB01213E4806F05EFC19
:101740003F48006840BB3F480088401C81B23D488C
:101750000180008840F2DC51884220DD01F0DCFA93
:101760000021F12061236D22CDE900010321002039
:1017700002F0B0FE002033490880012030497C315E
:1017800008603149087040F2DC5000F07AF940F20C
:10179000DC5000F076F902E000202A49088000F0D1
:1017A00079F82A48008820B128480088401E274937
:1017B0000880274800781D49097808442549097898
:1017C0000844254908702548007888B124480078E5
:1017D000401C2349087008460078052808DD0121CF
:1017E000204806F0B8FF00201C4908701C4908700A
:1017F0001D48008820B11C480088401E1A490880F6
:101800001A480088002804DD18480088401E17493F
:10181000088009B000BD10B50121880706F0B7FEA9
:1018200018B10121880706F0C3FE10BDC4020020D4
:101830000000C84200040040540300208C00002037
:1018400018012142260000209400002036000020CC
:10185000A401002034020020350000209600002062
:1018600032000020004800402C0000202A00002008
:1018700070B505460C4645F2555005F09DFD2846CD
:1018800005F09DFD204605F09DFD05F09EFD05F04F
:10189000A1FD70BD10B505F098FD10BD10B500F0AC
:1018A000B3F8FFF711F8FEF7C9FDFEF7FFFD00F0F2
:1018B00037F901F0EBF900F095F94FF4965002F08A
:1018C000A7FD4FF4E13003F0E3FF01202E4908703B
:1018D00000F004F941F61F410920FFF70FF804F06A
:1018E000D6FF40F6B8310620FFF7C2FF0020274997
:1018F000087004F03EFF2648006826490860264824
:10190000D0E90010254AC2E90010254800682549A1
:1019100008602548D0E90010244AC2E90010244894
:101920000068244908602448006824490860244865
:101930000068244908602448006824490860244855
:101940000068244908602448006824490860244845
:10195000006824490860224800680860224800683E
:10196000224908602248006822490860224800682D
:101970002249086022480068224908600122322179
:101980000846FEF770FD10BD68010020940000209D
:10199000C000002044000020C800002048000020B3
:1019A000D000002078000020D80000205000002047
:1019B000E00000207C000020E400002080000020E7
:1019C000E800002058000020EC0000205C0000200F
:1019D000F000002060000020F400002064000020DF
:1019E000F800002068000020FC0000206C000020AF
:1019F0000001002070000020080100208400002069
:101A0000040100208800002010B56FF0040005F0EC
:101A100078FA2E4800682E49B0FBF1F02D49087085
:101A20000846007800EB4001C1EBC0104FF6FF7193
:101A300001EAC0002849088010BD0146254A1278F5
:101A40004A434FF0E0235A6100229A611A46126914
:101A500042F001021A6100BF4FF0E022106900F06D
:101A600001021AB100F48032002AF5D04FF0E022D2
:101A7000126922F001024FF0E0231A6100229A61FC
:101A800070470146144A12884A434FF0E0235A61D6
:101A900000229A611A46126942F001021A6100BFDF
:101AA0004FF0E022106900F001021AB100F4803218
:101AB000002AF5D04FF0E022126922F001024FF027
:101AC000E0231A6100229A617047000000000020A4
:101AD00000127A003C0000203E00002010B50021DA
:101AE0004FF0006005F0F5F94FF4A06005F0BAF989
:101AF00010BD012080F3138800BF00BF06480068B6
:101B000000F4E06005490843001D03490860BFF385
:101B10004F8F00BF00BFFEE70CED00E00000FA05AC
:101B200008B501215C2005F0D5FD0121084605F02E
:101B3000D1FD0121264805F0C2FB48F22000ADF896
:101B4000000010208DF8030003208DF80200694684
:101B5000204805F0E3FA48F220011E4805F08DFB0D
:101B60008020ADF8000010208DF8030003208DF8D0
:101B700002006946184805F0D1FA8021164805F0A0
:101B80007CFB0B20ADF8000010208DF80300032033
:101B90008DF802006946114805F0C0FA0B210F4884
:101BA00005F06BFB9520ADF8000010208DF80300C8
:101BB00003208DF802006946094805F0AFFA1521A7
:101BC000074805F058FB8021054805F056FB08BD85
:101BD0000002300000080140000C014000100140EC
:101BE000001801401FB501213C2005F073FD0121C3
:101BF000084605F06FFD0121084605F078FD01213A
:101C0000022005F074FD0121042005F070FD422042
:101C1000ADF80C0018208DF80F0003208DF80E0091
:101C200003A9FC4805F07AFA0120ADF80C00182051
:101C30008DF80F0003208DF80E0003A9F64805F07B
:101C40006DFA0020F549C880488008724FF0804046
:101C500005F078FE6020F2490880012048800420C9
:101C600088800020088148814FF0804005F0A7FE61
:101C70000821C80606F0F2FA00214FF0804006F075
:101C8000BDF90020E549C88048800872E54805F0A4
:101C900059FE6020E24908800120488004208880A5
:101CA000002008814881DF4805F063FF0821DD48F6
:101CB00006F0F3FA0021DB4806F0A0F90020D7492E
:101CC0000880C88048800872D74805F03BFE602035
:101CD000D3490880012048800420888000200881A2
:101CE0004881D14805F06BFE0821CF4806F0B6FACE
:101CF0000021CD4806F082F90220ADF80C00482002
:101D00008DF80F0003A9C44805F008FA012100204E
:101D100005F01AFB0220019000208DF80800082031
:101D20008DF8090001208DF80A0001A805F016F9C8
:101D300007208DF8000001208DF801008DF80200C9
:101D40008DF80300684605F092F80120ADF80C000C
:101D500048208DF80F0003A9AE4805F0DFF90021F7
:101D6000012005F0F1FA0120019000208DF8080013
:101D700008208DF8090001208DF80A0001A805F05F
:101D8000EDF806208DF8000001208DF801000320F9
:101D90008DF8020001208DF80300684605F067F811
:101DA0001020ADF80C0048208DF80F0003A99F48C3
:101DB00005F0B4F90421022005F0C6FA10200190C4
:101DC00000208DF8080008208DF8090001208DF80A
:101DD0000A0001A805F0C2F80A208DF800000120D1
:101DE0008DF8010002208DF8020001208DF803001B
:101DF000684605F03CF81520ADF80C0010208DF871
:101E00000F0003208DF80E0003A9894805F086F91C
:101E10001521874805F031FA1020ADF80C008DF837
:101E20000F0003208DF80E0003A97B4805F076F91A
:101E30002020ADF80C0010208DF80F0003208DF845
:101E40000E0003A9794805F069F94FF48050ADF808
:101E50000C0010208DF80F0003208DF80E0003A950
:101E60006C4805F05BF94FF4E070ADF80C004820C9
:101E70008DF80F0003A9684805F050F91FBD2DE942
:101E8000F04104460D46601C07F017F80746294646
:101E9000384606F011FE07463946664806F03EFE13
:101EA00080464FF07E5106F001FE0646304607F0B0
:101EB00027F8BDE8F08170B504460D464FF080402C
:101EC00006F053FBA04204D900214FF0804006F0F9
:101ED00029FB4FF080418C850D85C4F34F00888627
:101EE00070BD70B504460D464E4806F03EFBA0425C
:101EF00003D900214B4806F015FB4A492C310C80D0
:101F0000091F0D80C4F34F0046494031088070BD61
:101F100070B504460D46444806F027FBA04203D99D
:101F20000021414806F0FEFA3F492C310C80091F80
:101F30000D80C4F34F003C493431088070BD2DE959
:101F4000F05F82468B469146BBF1000F61D13A4863
:101F5000C0F89491394880F884903948006820B9D5
:101F6000B9F1000F01D1BDE8F09F34480078002896
:101F70004ED13248C0F810A032480CC80020324977
:101F800006F023FF05460E46504606F0ACFF074616
:101F90002A46334606F0E2FF5ED24FF4FA70274934
:101FA000A1F87400B1F874108900A1F5C87006F0AA
:101FB0007BFF0546254906F0B1FD2049C867B1F809
:101FC0007410C900A1F5487006F06EFF054620495F
:101FD00006F0A4FD194988671E4888600020486003
:101FE000486100240CE000211448183040F8241007
:101FF0001C3040F82410203040F82410601CC4B27B
:10200000072CF0DB02200D490870012081F87200D6
:102010005FE2AAE0000C01400008014098010020A6
:10202000880100200004004000080040001001402A
:10203000001801404054894C00002242A4010020B5
:10204000188122424800002000407F400000C84321
:1020500000409C470000C842FA480CC80020FA49DA
:1020600006F0B3FE05460E46504606F03CFF074616
:102070002A46334606F072FF3BD24FF44870F349CC
:10208000A1F87400B1F874108900A1F5C87006F0C9
:102090000BFF0546EE4906F041FDEC49C867B1F873
:1020A0007410C900A1F5487006F0FEFE0546E94926
:1020B00006F034FDE5498867E748886000204860FD
:1020C000486100240CE00021E048183040F824105A
:1020D0001C3040F82410203040F82410601CC4B29A
:1020E000072CF0DB0220D9490870012081F872002A
:1020F000EFE140F6FC00D549A1F87400B1F8741086
:102100008900A1F5C87006F0CFFE0546D34906F058
:1021100005FDCE49C867B1F87410C900A1F5487033
:1021200006F0C2FE0546CE4906F0F8FCC7498867AE
:10213000C948886000204860486100240CE0002104
:10214000C248183040F824101C3040F824102030C9
:1021500040F82410601CC4B2072CF0DB0220BB49FD
:102160000870012081F87200B3E1BBF1010F7DD14D
:10217000BC48C0F8B091BC4880F88490BB48006867
:1021800018B9B9F1000F00D1EDE6B7480078002882
:10219000AED1B548C0F810A0B5480CC80020B5496C
:1021A00006F013FE05460E46504606F09CFE074616
:1021B0002A46334606F0D2FE3AD27820AA49A1F840
:1021C0007400B1F87410C900A1F5C87006F06CFE77
:1021D0000546A94906F0A2FCA3498867B1F8741026
:1021E0008900A1F1C80006F05FFE05469A4906F095
:1021F00095FC9D49C867A1488860002048604861F7
:1022000000240CE000219848183040F824101C30BD
:1022100040F82410203040F82410601CC4B2072C71
:10222000F0DB022090490870012081F8720050E133
:102230008F480CC80020924906F0C7FD05460E469F
:10224000504606F050FE07462A46334606F086FE04
:102250003CD2C8208449A1F87400B1F87410C900B8
:10226000A1F5C87006F020FE054600E0B7E08549FC
:1022700006F054FC7C498867B1F874108900A1F11C
:10228000C80006F011FE05467F4906F047FC764976
:10229000C8677A48886000204860486100240CE0E4
:1022A00000217148183040F824101C3040F82410E8
:1022B000203040F82410601CC4B2072CF0DB022050
:1022C00069490870012081F8720002E168480CC871
:1022D00000206E4906F079FD05460E46504606F090
:1022E00002FE07462A46334606F038FE3BD24FF43C
:1022F00048705D49A1F87400B1F874108900A1F12B
:10230000C80006F0D1FD0546514906F007FC5649C4
:10231000C867B1F87410C900A1F5C87006F0C4FD13
:1023200005464C4906F0FAFB4F49886753488860D8
:1023300000204860486100240CE000214A48183021
:1023400040F824101C3040F82410203040F82410AD
:10235000601CC4B2072CF0DB022043490870012046
:1023600081F87200B5E04FF4FA603F49A1F87400BB
:10237000B1F874108900A1F1C80006F095FD05467A
:10238000434906F0CBFB3849C867B1F87410C9005F
:10239000A1F5C87006F088FD05463E4906F0BEFB73
:1023A00031498867354888600020486048610024CA
:1023B0000CE000212C48183040F824101C3040F864
:1023C0002410203040F82410601CC4B2072CF0DB2D
:1023D000022025490870012081F8720079E02E481A
:1023E000C0F890912D4880F88490007840BB2B482D
:1023F000C0F810A04FF448702849A1F87400B1F853
:1024000074108900A1F5C87006F04EFD05462449F8
:1024100006F084FB2149C867B1F87410C900A1F522
:10242000487006F041FD05461E4906F077FB1B4942
:1024300088670948886000204860486100243FE0C0
:1024400047E000004800002000709740A4010020F1
:102450000000FA440024F4490000C8420000164578
:1024600000C82F4A00802142340200202801234264
:10247000500000200000494000409C4500004842B8
:1024800000407F4000409C470000C84300408F4010
:1024900000007A450024F44A00002142C4020020D2
:1024A00000007A440024F4480021FE4840F824103B
:1024B0001C3040F82410203040F82410601CC4B2B6
:1024C000072CF1DB0220F74918390870012081F848
:1024D000720000BF47E52DE9F34F83B08A460398A9
:1024E00006F001FDCDE90001EF480CC8009806F0A8
:1024F0006CFC074606F04AFD0290EC49D1F88000DA
:1025000006F0DBFC0746029906F05CFD0ED20126C0
:10251000E649D1F8800006F0D0FC8046029906F02A
:10252000C8FA074606F0ECFC04460DE00026DF4939
:10253000D1F8800006F0C1FC8046029906F0B6FA98
:10254000074606F0DDFC0446504606F0CCFC074684
:10255000D7480CC8384606F038FCCDE9000106F033
:1025600015FD8346D349D1F8800006F0A6FC074646
:10257000594606F027FD0FD24FF00109CD49D1F899
:10258000800006F09AFC8046594606F092FA07460B
:1025900006F0B6FC05460EE04FF00009C549D1F83B
:1025A000800006F08AFC8046594606F07FFA07460E
:1025B00006F0A6FC0546324600212046FFF7BFFC88
:1025C0004A4601212846FFF7BAFC05B0BDE8F08F66
:1025D00010B5B4481838007800287DD0B648006897
:1025E000D0BBB548001D0068B0BBB34808300068D8
:1025F00090BBAC48183890F8840001282CD1A94829
:1026000018384068C82827D9AC48407920BBAC4866
:102610000078401CAA49087008460078012808D1B3
:10262000A04818380069A7490968401A9D49183917
:10263000486000BF9B48183800780028FAD19949B3
:10264000183908700021A04805F0D8FC00209C49EA
:10265000087094491839086597480068C8BB9648BF
:10266000001D0068A8BB94480830006888BB8D48EE
:10267000183890F8840060BB8A4818384068C82829
:1026800027D98E48407920BB90480078401C8F495C
:10269000087008460078012808D182481838006977
:1026A0008B490968401A7F491839486000BF7D4846
:1026B000183800780028FAD17A49183908700021B2
:1026C000814805F09BFC00207649183908657F4950
:1026D00008708048006800E072E0B0BB7D481438A4
:1026E000006890BB7548407901282ED16D48183894
:1026F00090F8840048BB6B48183840680A2824D9F1
:1027000072480078401C714908700846007801281A
:1027100006D1644818380069283862491839486079
:1027200000BF6048183800780028FAD15D49183990
:1027300008700021644805F061FC002059491839EF
:102740000865624908705D49487162480068B8BB15
:1027500060481438006898BB5848407901282FD148
:102760005048183890F88400012829D14D4818386D
:1027700040680A2824D955480078401C53490870FD
:1027800008460078012806D14648183800692838DC
:1027900044491839486000BF42481838007800287A
:1027A000FAD14049183908700021474805F026FC45
:1027B00000203C4918390865444908703F49487170
:1027C00010BD0122394B83F88420434A11601A4618
:1027D000106100225A6003221A70704710B5354804
:1027E000007858B33B480C38006890B9314890F8ED
:1027F000840001280DD1012232210846FDF733FE65
:1028000000202C4908700021344805F0F7FB00F047
:1028100083FA30481030006880B9264890F8840068
:1028200001280BD100202349087000212B4805F016
:10283000E5FB052232210846FDF715FE2848007801
:1028400001281BD10020264908704FF4FA70254951
:10285000088000BF234800880028FBD101212248BE
:102860000068FFF7AEFF00BF104800780028FBD1DA
:102870000E49C1F880000120104908710B4800780A
:10288000A0B315486038006888BB084890F88400F9
:1028900068BB00200549087000214FF0804005F01A
:1028A000ADFB25E0DC02002048000020A401002050
:1028B00050000020340200200C8121428C000020B6
:1028C000760000205C00002000040040770000201B
:1028D000580000202C0123429401224200080040AD
:1028E0004000002036000020440000201AE004E0F0
:1028F000052232210846FDF7B6FDD848006888B9A0
:10290000D74890F8840001280CD10020D4490870E1
:1029100000214FF0804005F071FB01223221084672
:10292000FDF7A1FD10BD10B504462CBBCD480068D5
:10293000012813D0CB48001D006801280ED0C948DB
:1029400008300068012809D0C4480C380068012804
:1029500004D0C24820380068012800D110BD0020F2
:10296000C1490860BE4981F8840048604CF250308B
:1029700008610320087054E0BA480068012813D0A9
:10298000B848001D006801280ED0B648083000681D
:10299000012809D0B1480C380068012804D0AF489C
:1029A00020380068012800D1D8E70120AD49A431C2
:1029B0000860AE4981F88400C820086100204860A2
:1029C0000320087018E002F073FAA4481838006871
:1029D00090B9A64890F8840001280DD10020A349A1
:1029E00008700021A24805F009FB00F095F90122CA
:1029F00032210846FDF737FD9C4800780028E2D1D7
:102A00004FF4FA70FFF73DF800209649A4310860B2
:102A1000964981F8840048604CF2503008610320E8
:102A2000087000BF9AE710B5022004F00EFB8C4836
:102A3000007800285FD08A484068401C8849486078
:102A4000084690F88400012806D10846D0F8800096
:102A5000401CC1F880000AE08148D0F8800030B105
:102A60007F48D0F88000401E7D49C1F88000814831
:102A7000006870B97A4890F8840050B901207E4906
:102A8000087000207649087000214FF0804005F062
:102A9000B5FA734840687249096988422BD300210E
:102AA0004FF0804005F0AAFA7048007810B9022073
:102AB0007249087000206A49087048608860C860E0
:102AC0000861486181F87200A1F87000A1F87400F3
:102AD0008867C86700240CE000216148183040F87E
:102AE00024101C3040F82410203040F82410601CC2
:102AF000C4B2072CF0DB10BD10B5012004F0A5FA1C
:102B00005F48007800283ED05D484068401C5C4922
:102B10004860084690F88400012804D10846006DFA
:102B2000401C086504E05648006D401E5449086585
:102B30005348406852490969884224D300215148CA
:102B400005F05CFA00204E49087048608860C86053
:102B50000861486181F87200A1F87000A1F8740062
:102B60008867C86700240CE000214548183040F809
:102B700024101C3040F82410203040F82410601C31
:102B8000C4B2072CF0DB10BD10B5102004F05DFAC4
:102B900036480078002860D034484068401C3349EB
:102BA0004860084690F88400012806D10846D0F80D
:102BB0008000401CC1F880000AE02C48D0F880005A
:102BC00030B12A48D0F88000401E2849C1F8800062
:102BD00022481038006878B9244890F8840058B921
:102BE000002022490870C1F8800001202649887120
:102BF00000211F4805F002FA1C4840681B4909697A
:102C000088422AD300211A4805F0F8F914480078C0
:102C100010B9022019490870002014490870C860D2
:102C2000486088600861486181F87200A1F870000E
:102C3000A1F874008867C86700240CE000210B48E5
:102C4000183040F824101C3040F82410203040F890
:102C50002410601CC4B2072CF0DB10BD38012342E5
:102C6000A40100200C812142940122423402002060
:102C7000000800401881224240000020750000201A
:102C8000C4020020000400408C00002008B501218F
:102C9000682004F01FFD3820ADF8000048208DF8B2
:102CA00003006946184804F039FA4FF40050ADF8B3
:102CB000000048208DF803006946144804F02EFAFD
:102CC0004FF64070ADF8000048208DF803006946CB
:102CD0000F4804F023FA4DF28050ADF80000482070
:102CE0008DF8030069460B4804F018FA48F64820AE
:102CF000ADF8000048208DF803006946054804F04F
:102D00000DFA08BD70470000000C014000100140A2
:102D1000001401400018014010B50020F949087066
:102D200000214FF0804005F069F90020F649087055
:102D30000021F64805F062F90020F54908700021ED
:102D4000F44805F05BF90020F3498873C873888262
:102D500048820120F1490870EF49C87088700871F5
:102D600048718871C8710872487200204873012048
:102D7000EB49487000200870C87010BD70B504465B
:102D80000D461646E4488079012874D1E248C0799E
:102D9000012822D10020E0494873C871012E76D164
:102DA00008464078012802D10846007838B1DA4850
:102DB0004078022831D1D848007801282DD1012C43
:102DC00015D1D8480078A04208D1D64804702246D0
:102DD0000221D5480068FFF7B2F885E0D1480470B9
:102DE00022460221D1480068FFF7A9F87CE0CD48CF
:102DF0000078A04208D1CB48047022460221CC487A
:102E00000068FFF79CF86FE0C64804702246022174
:102E1000C8480068FFF793F866E0BF48407801288B
:102E20001BD1BD480078012817D1BE480078A042C8
:102E300009D1BC48047022460221BB4800685030CA
:102E4000FFF77DF850E0B748047022460221B748EA
:102E500000685030FFF773F846E0B2480078A042AF
:102E60000BD1B048047022460221B14800685030AE
:102E7000FFF765F838E047E009E0AA480470224609
:102E80000221AC4800685030FFF759F82CE0012CC3
:102E900015D1A4480078A04208D1A2480470224667
:102EA0000221A1480068FFF74AF81DE09D48047020
:102EB000224602219D480068FFF741F814E0994836
:102EC0000078A04208D19748047022460221984811
:102ED0000068FFF734F807E09248047022460221A8
:102EE00094480068FFF72BF88748007800284ED1F7
:102EF00001208949C87108468079401C88714FF4C7
:102F0000FA70FEF7BEFD42E08348807902281AD1AC
:102F10008148C079012807D100207F49C87100226B
:102F200001212846FFF70BF87948007848BB0120BB
:102F30007949C87108468079401C88714FF4FA704D
:102F4000FEF79FFD23E07448807903281AD1724868
:102F5000C07901280DD100206F49C87184F00100AB
:102F60007049087084F00102022140F6C410FEF797
:102F7000E6FF6548007820B967488079401C6649BB
:102F8000887104E001206449C8718871487370BD7C
:102F900070B504460D4660480079012818D15E4896
:102FA000407901280AD100205B494873487101200B
:102FB0005A49087029462046FFF78DFA574800788D
:102FC00002280AD154480079401C5349087104E092
:102FD0000120514948730871487170BD5648006816
:102FE00058B901205549086000205549C1F88001B1
:102FF000524908310860012070470020FCE770B595
:1030000004460D4616464448007A012877D14248C6
:10301000407A002823D000203F4948734872012E8F
:103020006ED108464078012803D108460078102860
:1030300007D039484078022833D137480078112822
:103040002FD1012C15D137480078A04208D135483E
:1030500004702246022134480068FEF770FFA8E0A1
:10306000304804702246022130480068FEF767FFAE
:103070009FE02C480078A04209D12A4804702246DB
:1030800002212B4800681E30FEF759FF91E02548C9
:10309000047022460221274800681E30FEF74FFFC9
:1030A00087E01D48407801281BD11B480078112873
:1030B00017D11C480078A04209D11A480470224652
:1030C0000221194800685030FEF739FF71E01548B9
:1030D000047022460221154800685030FEF72FFF89
:1030E00067E010480078A0422CD10E4804702246B8
:1030F00002210F4800685030FEF721FF59E068E0D8
:103100002AE00000A4010020C402002000040040C6
:103110003402002000080040540300207500002005
:103120008C00002093000020680000206400002034
:10313000700000206C0000203001234284012242F4
:1031400000002242F948047022460221F848006833
:103150005030FEF7F4FE2CE0012C15D1F348007836
:10316000A04208D1F148047022460221F1480068CB
:10317000FEF7E5FE1DE0ED48047022460221EE4810
:103180000068FEF7DCFE14E0E8480078A04208D1B1
:10319000E648047022460221E8480068FEF7CFFEA8
:1031A00007E0E248047022460221E1480068FEF789
:1031B000C6FEE348007800287CD1E248007A401C33
:1031C000E0490872012048724FF4FA70FEF759FC8A
:1031D00070E0DC48007A02281AD1DA48407A38B127
:1031E0000020D8494872012211462846FEF7A7FE62
:1031F000D548007800285DD1D248007A401CD149DA
:103200000872012048724FF4FA70FEF73AFC51E060
:10321000CC48007A03281BD1CA48407A68B184F0B0
:103220000100C249087084F0010202214FF4C86015
:10323000FEF785FE0020C3494872C148007858BB9C
:103240000120C04948720846007A401C087231E0EB
:10325000BC48007A042820D1BA48407A90B184F062
:103260000100BA49086084F00100B54981F8840082
:103270004FF47A7008610020486003200870002035
:10328000B0494872AE48007830B90120AD49487263
:103290000846007A401C08720CE00120A9494872D7
:1032A000087248734FF4FA70FEF7EBFB4FF4FA70B4
:1032B000FEF7E7FB70BD7CB504460D46A148807B58
:1032C000012859D19F48C078012872D19C480078C4
:1032D00018BB9F480068012804D09D481438006836
:1032E00001281AD1052232210846FDF7BCF8012039
:1032F0009849086000209849C1F880019549083133
:103300000860FF2161236D22CDE90010032101F047
:10331000E1F806208B49C8707CBD00208D4908600B
:1033200001208D49C1F8800100208A4908310860D8
:1033300029462046FFF72CFE8248407B0128C0D159
:1033400080480078202818D106207E49C8700020C7
:10335000052161236D22CDE90010032101F0BAF8A7
:103360004FF4FA70FEF78DFB4FF4FA70FEF789FB0D
:103370004FF4FA70FEF785FB82E100200221612301
:103380006D22CDE90010032101F0A4F86D48C0784A
:10339000401C6C49C8704FF4FA70FEF772FB4FF492
:1033A000FA70FEF76EFB4FF4FA70FEF76AFB67E106
:1033B000FFE76448C07802287DD16249097801F0AE
:1033C000010181F001000022644909680A31FFF718
:1033D00016FE5C48407B0128CED15948007818BBC6
:1033E0005B480068012804D0594814380068012857
:1033F0001AD1052232210846FDF735F8012055493A
:10340000086000205449C1F8800152490831086021
:10341000FF2161236D22CDE90010032101F05AF84C
:1034200006204849C87077E74648407880B90522A9
:1034300032210846FDF717F80020032161236D2291
:10344000CDE9001001F046F805203E49C87017E1AB
:10345000FFF7C4FDD8B10020F02161236D22CDE932
:103460000010032101F036F8052232210846FCF74E
:10347000FAFF01203749086000203749C1F8800170
:1034800034490831086005202E49C870B5E0002095
:10349000032161236D22CDE9001001F01BF82948BA
:1034A000C078401C2749C8704FF4FA70FEF7E9FA5B
:1034B0004FF4FA7000E006E0FEF7E3FA4FF4FA701A
:1034C000FEF7DFFADCE01F48C078032848D11D482A
:1034D0004078012803D01B4840780228B7D1194A08
:1034E000928B233291B2174AD08BFFF751FD1548CA
:1034F000407B0128ABD10020042161236D22CDE95E
:103500000010032100F0E6FF0E48C078401C0D4972
:10351000C8704FF4FA70FEF7B4FA4FF4FA70FEF781
:10352000B0FA4FF4FA70FEF7ACFAA9E0930000206D
:103530006C00002068000020640000207000002063
:10354000C4020020540300203402002090012142D4
:103550002C012342840122420000224284000020E8
:10356000F848C078042843D1F6494978491009B988
:10357000012100E0002108460122F3490968FFF714
:10358000FDFBF048407B01287AD1F048007818BB59
:10359000EF480068012804D0ED481438006801287D
:1035A0001AD1052232210846FCF75DFF0120E949C6
:1035B00008600020E849C1F88001E6490831086048
:1035C000FF2161236D22CDE90010032100F082FF6D
:1035D0000620DC49C8709FE60020052161236D228A
:1035E000CDE90010032100F075FFFFF795FB47E0E0
:1035F000D448C078052841D100BFD249097801F0EC
:10360000010181F001000022D4490968FFF7B6FBEF
:10361000CC48407B012833D1CA48C078401CC949F6
:10362000C8704FF4FA70FEF72CFA4FF4FA70FEF7F8
:1036300028FA4FF4FA70FEF724FA4FF4FA70FEF706
:1036400020FA4FF4FA70FEF71CFA4FF4FA70FEF706
:1036500018FA4FF4FA70FEF714FA4FF4FA70FEF706
:1036600010FA4FF4FA70FEF70CFA4FF4FA70FEF706
:1036700008FA4FF4FA70FEF704FA01E0FFF74CFB8A
:1036800000BF49E67CB504460D46AE48C07B012824
:103690006ED1AC48807801286BD1AA48407818B91F
:1036A0000320A849887038E0A848007818BBA848CB
:1036B0000068012804D0A6481438006801281AD1EF
:1036C000052232210846FCF7CEFE0120A149086000
:1036D0000020A149C1F880019E4908310860FF21FE
:1036E00061236D22CDE90010032100F0F3FE0720D5
:1036F000944988707CBD0020964908600120964955
:10370000C1F880010020C1F88C018E4A928B0F3ADB
:1037100091B28C4AD08BFFF73BFC8A48407B012852
:10372000B6D18848807A062807DD0020854988724E
:103730000120087306208870DCE700BF002002210A
:1037400061236D22CDE90010032100F0C3FE7D4806
:103750008078401C7B4988704FF4FA70FEF791F92D
:103760004FF4FA70FEF78DF94FF4FA70FEF789F90D
:103770008DE174488078022871D1724949784910E6
:1037800009B9012100E00021084601226E490968BB
:10379000FFF735FC6B48407B0128E9D16B48007886
:1037A00018BB6B480068012804D0694814380068C9
:1037B00001281AD1052232210846FCF754FE0120C7
:1037C0006449086000206449C1F8800161490831FA
:1037D0000860FF2161236D22CDE90010032100F074
:1037E00079FE07205749887084E7FFF7F7FBD8B1C7
:1037F0000020F02161236D22CDE90010032100F0AB
:1038000069FE052232210846FCF72DFE01205149B0
:10381000086000205049C1F880014E490831086015
:10382000052048498870C3E00020032161236D22F0
:10383000CDE9001000F04EFE42488078401C41491E
:1038400088704FF4FA70FEF71CF94FF4FA70FEF727
:1038500018F94FF4FA70FEF714F918E1FFE7394848
:103860008078032834D129462046FFF791FB35485C
:10387000407B0128F1D133484078012803D03148FA
:103880004078022809D10020042161236D22CDE96E
:103890000010032100F01EFE08E000200221612339
:1038A0006D22CDE90010032100F014FE2548807838
:1038B000401C244988704FF4FA70FEF7E2F84FF488
:1038C000FA70FEF7DEF84FF4FA70FEF7DAF8DEE091
:1038D0001C488078042866D11A49097801F0010152
:1038E00081F0010000221D490968FFF747FA1548D9
:1038F000407B0128B1D11548007888BB1448006886
:10390000012804D0124814380068012829D1052262
:1039100032210846FCF7A7FD01200E49086000206F
:103920000D49C1F880010B4908310860FF2161236E
:103930006D22CDE90010032100F0CCFD07200149E4
:103940008870D7E65403002088000020C4020020BD
:103950002C012342840122420000224284000020E4
:10396000FFE7FE484078012803D0FC484078022851
:103970000BD10020052161236D22CDE90010032128
:1039800000F0A8FDFFF7C8F907E00020032161233C
:103990006D22CDE9001000F09DFDF0488078C01C3C
:1039A000EE49887073E0ED488078052843D100BF68
:1039B000EA494978491009B9012100E00021084687
:1039C0000022E7490968FFF7D9F9E448407B01285C
:1039D0005DD1E2488078801CE04988704FF4FA702D
:1039E000FEF74FF84FF4FA70FEF74BF84FF4FA7009
:1039F000FEF747F84FF4FA70FEF743F84FF4FA7009
:103A0000FEF73FF84FF4FA70FEF73BF84FF4FA7008
:103A1000FEF737F84FF4FA70FEF733F84FF4FA7008
:103A2000FEF72FF84FF4FA70FEF72BF84FF4FA7008
:103A3000FEF727F82BE0C948807806281CD1C74834
:103A4000007B01280DD10020C4490873C5490860D6
:103A5000C54981F8840048604CF250300861032069
:103A60000870C2480079012811D10020BF490871AF
:103A70000120BA49887061E6FFF74EF90020B74986
:103A8000C87301208870002048734882888200BF74
:103A900030E670B505460C4625B1012D39D0022D12
:103AA00068D129E0B2480068012812D0B048001D52
:103AB000006801280DD0AE4808300068012808D001
:103AC000AC480068012804D0AA48143800680128CE
:103AD00005D1012232210846FCF7C5FC70BDA24881
:103AE00080F8844090F884009E49086000209E4938
:103AF0004860012008703DE09F4880F8844090F8BD
:103B000084009E49086000209B494860012008709D
:103B100030E097480068012818D09548001D0068DB
:103B2000012813D092480830006801280ED0012CDB
:103B300003D190480C38006840B18E4800680128D5
:103B400004D08C4814380068012805D101223221A4
:103B50000846FCF788FCC1E7894880F8844090F863
:103B600084008349A4310860002085494860012011
:103B7000087000BF00BF00BFB0E71CB57B48C0782D
:103B800001284AD179484078012847D17748007800
:103B9000002833D101207549087076480068012853
:103BA00014D174481438006880B901207349086042
:103BB000714981F8840040F6C41008610020486013
:103BC0000320087001206949487117E069481438DA
:103BD0000068012812D16748006878B90020674959
:103BE0000860654981F8840040F6C410086100202F
:103BF00048600320087001205C4948715E480078E5
:103C00000028BED159484078401C584948700020CF
:103C100008704FF4FA70FDF734FF09E1534840781B
:103C200002284DD151480078002839D15148006808
:103C3000012804D04F4814380068012809D1002019
:103C4000FF2161236D22CDE90010032100F042FC29
:103C50001CBD48480C38006848B146480C3800681C
:103C600001280AD14348001F0068012805D103201C
:103C70003E49487000200870EAE73E48001F00688F
:103C800070B90120394908703949A43108603C49AC
:103C900081F88400C8200861002048600320087073
:103CA000374800780028B8D130484078401C2F4968
:103CB0004870002008704FF4FA70FDF7E2FEB7E09C
:103CC0002A484078032839D128480078E0B90120F3
:103CD0002649087000202649A4310860284981F847
:103CE000840048604CF250300861032008700020C6
:103CF0002449C1F894011C4981F8840048604CF2C1
:103D000050300861032008701D480078002884D1D5
:103D1000154800780028D2D1144800790128CED166
:103D200000201249087108464078401C4870002065
:103D300008704FF4FA70FDF7A4FE79E00B48407864
:103D4000042838D10948007828BB012007490870A9
:103D50000A490860084981F8840015E054030020EE
:103D60008800002094012242A40100208C00002041
:103D70000C8121422C012342C402002090012142E7
:103D800034020020000022424FF4FA700861002043
:103D9000486003200870F7480078002848D1F648AA
:103DA0004078401CF4494870002008704FF4FA70C5
:103DB000FDF767FE3CE0F0484078052824D1EE4846
:103DC000007878B90120EC4908700020EB490860C0
:103DD000E84981F884004FF47A7008610020486057
:103DE00003200870E348007810BB0020E449087005
:103DF000E1484078401CE0494870002008704FF4CA
:103E0000FA70FDF73EFE13E00120DB498870487030
:103E100000200870C870052161236D22CDE90010D3
:103E2000032100F057FB012232210846FCF71BFB5F
:103E300000BF0DE72DE9F04104460D4616461F462A
:103E4000DDF8188043463A4631462846A047BDE88B
:103E5000F08130B5CB4C2468012C12D0C94C241D04
:103E60002468012C0DD0C74C08342468012C08D0DC
:103E7000C54C2468012C04D0C34C143C2468012C8C
:103E800000D130BD0324C14DEC8220242C706A8205
:103E9000AB8200246C70EC83F024AC830124BC4D15
:103EA0002C70BA4DAC73EC7000246C7301242C712F
:103EB0006C7100BFE5E730B5B24C2468012C12D01C
:103EC000B04C241D2468012C0DD0AE4C083424685D
:103ED000012C08D0AC4C2468012C04D0AA4C143C12
:103EE0002468012C00D130BD0324A84DEC822C465F
:103EF00021706A8203F10F04AC822C466070A54CDD
:103F00002488EC83A44C2488AC830124A04D2C701D
:103F10009E4DEC73AC702C716C71AC71EC712C72A9
:103F20006C7200246C7300BFDDE730B5954C2468DB
:103F3000012C12D0934C241D2468012C0DD0914CDF
:103F400008342468012C08D08F4C2468012C04D03C
:103F50008D4C143C2468012C00D130BD03248B4DC2
:103F6000EC822C4621706A82A3F10F04AC822C46AD
:103F70006070884C2488EC83874C2488AC830124AF
:103F8000834D2C70814DAC73EC702C716C71AC71E5
:103F9000EC712C726C7200246C7300BFDDE70120A1
:103FA0007549C8700020887070470346012A02D006
:103FB000022A6ED120E10C2B6CD2DFE803F0061B45
:103FC00030455A71869BB0C5F0DA0A2910D2DFE875
:103FD00001F005060708090A0B0C0D0E08E007E0C2
:103FE00006E005E004E003E002E001E000E000BFDD
:103FF00000BFFFE00A2910D2DFE801F0050607083C
:10400000090A0B0C0D0E08E007E006E005E004E0ED
:1040100003E002E001E000E000BF00BFEAE00A299F
:1040200010D2DFE801F005060708090A0B0C0D0E97
:1040300008E007E006E005E004E003E002E001E05C
:1040400000E000BF00BFD5E00A2910D2DFE801F090
:1040500005060708090A0B0C0D0E08E007E006E04C
:1040600005E004E003E002E001E000E000BF00BF83
:10407000C0E00A2912D2DFE801F005060708090AA4
:104080000B0E0F100AE009E008E007E006E005E08B
:1040900004E0BBE1ADE001E000E000BF00BFA9E04B
:1040A0000A2910D2DFE801F005060708090A0B0CFF
:1040B0000D0E08E007E006E005E004E003E002E0A2
:1040C00001E000E000BF00BF94E00A2910D2DFE861
:1040D00001F005060708090A0B0C0D0E08E007E0C1
:1040E00006E005E004E003E002E001E000E000BFDC
:1040F00000BF7FE00A2910D2DFE801F005060708BB
:10410000090A0B0C0D0E08E007E006E005E004E0EC
:1041100003E002E001E000E000BF00BF6AE00A291E
:1041200010D2DFE801F005060708090A0B0C0D0E96
:1041300008E007E006E005E004E003E002E001E05B
:1041400000E000BF00BF55E00A2910D2DFE801F00F
:1041500005060708090A0B0C0D0E08E007E006E04B
:1041600005E004E003E002E001E000E000BF00BF82
:1041700040E029E0C40200208C0000209001214290
:10418000930000200C8121422C0123425403002083
:1041900075000020800000207C000020FFE70A2935
:1041A00010D2DFE801F005060708090A0B0C0D0E16
:1041B00008E007E006E005E004E003E002E001E0DB
:1041C00000E000BF00BF15E00A2910D2DFE801F0CF
:1041D00005060708090A0B0C0D0E08E007E006E0CB
:1041E00005E004E003E002E001E000E000BF00BF02
:1041F00000E000BF00BF09E10C2B70D2DFE803F044
:10420000061B30455A70859AAFC4D9EE0A2910D2E0
:10421000DFE801F005060708090A0B0C0D0E08E09F
:1042200007E006E005E004E003E002E001E000E072
:1042300000BF00BFE8E00A2910D2DFE801F0050660
:104240000708090A0B0C0D0E08E007E006E005E080
:1042500004E003E002E001E000E000BF00BFD3E0C3
:104260000A2910D2DFE801F005060708090A0B0C3D
:104270000D0E08E007E006E005E004E003E002E0E0
:1042800001E000E000BF00BFBEE00A2910D2DFE875
:1042900001F005060708090A0B0C0D0E08E007E0FF
:1042A00006E005E004E003E002E001E000E000BF1A
:1042B00000BFA9E00A2910D2DFE801F005060708CF
:1042C000090A0B0C0D0E08E007E006E005E004E02B
:1042D00003E002E001E000E000BF00BF94E092E0F4
:1042E0000A2910D2DFE801F005060708090A0B0CBD
:1042F0000D0E08E007E006E005E004E003E002E060
:1043000001E000E000BF00BF7EE00A2910D2DFE834
:1043100001F005060708090A0B0C0D0E08E007E07E
:1043200006E005E004E003E002E001E000E000BF99
:1043300000BF69E00A2910D2DFE801F0050607088E
:10434000090A0B0C0D0E08E007E006E005E004E0AA
:1043500003E002E001E000E000BF00BF54E00A29F2
:1043600010D2DFE801F005060708090A0B0C0D0E54
:1043700008E007E006E005E004E003E002E001E019
:1043800000E000BF00BF3FE00A2910D2DFE801F0E3
:1043900005060708090A0B0C0D0E08E007E006E009
:1043A00005E004E003E002E001E000E000BF00BF40
:1043B0002AE00A2910D2DFE801F005060708090AF9
:1043C0000B0C0D0E08E007E006E005E004E003E05A
:1043D00002E001E000E000BF00BF15E00A2910D2B2
:1043E000DFE801F005060708090A0B0C0D0E08E0CE
:1043F00007E006E005E004E003E002E001E000E0A1
:1044000000BF00BF00E000BF00BF00BF00BF70479B
:1044100010B586B004460121880403F068F9012133
:10442000082003F057F9FD4804F0C6F84FF4806007
:10443000ADF8140003208DF8160018208DF8170031
:1044400005A9F74802F06AFE4FF40060ADF81400C9
:1044500004208DF8170005A9F14802F05FFE0194D1
:104460000020ADF80800ADF80A00ADF80C00ADF87A
:1044700010000C20ADF80E0001A9E84804F0DFF8A8
:104480000120E84908608021E44804F04CFA012149
:10449000E24804F060F9012240F22551DF4804F0BF
:1044A00066F927208DF8000002208DF80100032016
:1044B0008DF8020001208DF80300684602F0D7FC59
:1044C0000020D949097801EB0111D84A02F81100FE
:1044D00006B010BD2DE9F05F0546884691469A4624
:1044E0000B9EE80000F10A07384604F0ABFE0446D4
:1044F0003946204604F07DFAAA20207055206070CD
:10450000A57084F8038084F8049084F805A00A98C4
:10451000A071012D18D13078207270786072B07857
:10452000A072F078E0723079207370796073B0799E
:10453000A073F079E073A021E800083021545F21D6
:10454000E8000930215407E0A021E8000830215498
:104550005F21E80009302154022012E0072809D029
:10456000082101EBC501814204D0092101EBC501FD
:10457000814200D104E0E179225C1144E17100BF85
:10458000401CE9000A318142E8DC4FF0000B0DE0ED
:1045900000BF4021A14804F0B9F90128F9D114F86D
:1045A0000B109E4804F044F90BF1010BBB45EFD30F
:1045B000204604F01FFEBDE8F09F2DE9FC5F9C48FB
:1045C000C08A082805D2DFE800F0040506CFFEFD0A
:1045D000FCFBCCE2FDE79749D1F8800004F083FCB6
:1045E000804695480CC8404604F07DFB06460022F4
:1045F000924B04F0D1FA04460022914B04F0E5FB03
:10460000824604F091FC8F4908708A49D1F88000F5
:1046100004F069FCCDE9000187480CC8009804F05B
:1046200062FB06460022854B04F0B6FA04460022DF
:10463000854B04F0CAFB804604F076FC00F0FF0ACC
:104640004FEAEA700AEB10600012AAEB00207D49E5
:1046500048707E49D1F8800004F045FC80467C48D3
:104660000CC8404604F03FFB82460022734B04F026
:1046700093FA06460022724B04F0A7FB044604F0AE
:1046800053FC704988707149D1F8800004F02BFC0C
:1046900080466F480CC8404604F025FB06460022C1
:1046A000664B04F079FA04460022674B04F08DFB58
:1046B000CDE9000104F038FC00F0FF0A4FEAEA708F
:1046C0000AEB10600012AAEB00205E49C870614836
:1046D000006D002802DA0120087102E0002059492B
:1046E00008715C49086D04F0EDFB5B4A5B4BCDE95A
:1046F000000104F0F8FA06460022504B04F04CFA90
:1047000080460022504B04F060FB044604F00CFC91
:1047100000F0FF0A4FEAEA700AEB10600012AAEB01
:104720000020484948714248408BB0F57A7F04D058
:104730003F48807E401C887102E0F020414988712A
:104740003B48007E3F49C8710846002161236D2225
:10475000CDE9001002210120FFF7BCFE0122322129
:104760000846FBF780FEA0E33148007811287DD091
:1047700005DC48B101287AD0102879D1DEE0202864
:1047800077D03028F9D189E12A480078002871D102
:104790002E48007800287DD12E480078002879D155
:1047A0002F480068012817D02D48001D00680128F7
:1047B00012D02B480830006801280DD0294803E0AA
:1047C00061E30FE387E2D3E10068012804D02548C4
:1047D0001438006801280FD10020FF2161236D22C9
:1047E000CDE900100321FFF775FE052232210846AE
:1047F000FBF739FEBDE8FC9F0020012161236D22FB
:10480000CDE900100321FFF765FE0120164908706D
:1048100007498873C870087148712CE0004800404F
:10482000000C0140BC0121429F00002074030020C5
:1048300054030020A4010020480000200000E03FB5
:1048400000007040970000200000F03F340200207C
:1048500050000020C40200200AD7A3703D0AB73FD1
:104860000C8121422C01234275000020BEE012E0A1
:104870007CE130E10EE08871C87108724872084628
:10488000808A0F388882002048730122322108462E
:10489000FBF7E9FD6AE1FB48007800284DD1FA48B2
:1048A0000078002849D1F9480078002845D1F84817
:1048B0000068012812D0F648001D006801280DD0BC
:1048C000F34808300068012808D0F2480068012841
:1048D00004D0F0481438006801280ED10020FF21D0
:1048E00061236D22CDE900100321FFF7F3FD0522BE
:1048F00032210846FBF7B7FD7CE700200121612348
:104900006D22CDE900100321FFF7E4FD0120E2490B
:104910000870E2498873C870087148718871C8715D
:10492000087248720846808A0F38888200204873CF
:10493000012232210846FBF796FD17E1D1480078A5
:10494000002852D1D048007800284ED1CF480078B6
:1049500000284AD1CE480068012812D0CC48001D5A
:10496000006801280DD0CA4808300068012808D026
:10497000C8480068012804D0C648143800680128D7
:104980000ED1052232210846FBF76DFD0020FF21E4
:1049900061236D22CDE900100321FFF79BFD29E77C
:1049A0000020012161236D22CDE900100321FFF7D2
:1049B00091FDBA48807A401CB84988720120B649F6
:1049C0000870B649C8738870087148718871C871D9
:1049D00008724872002048730846808A0F30888227
:1049E000012232210846FBF73EFDBFE0A5480078D2
:1049F000002852D1A448007800284ED1A34800785E
:104A000000284AD1A2480068012812D0A048001D01
:104A1000006801280DD09E4808300068012808D0A1
:104A20009C480068012804D09A481438006801287E
:104A30000ED10020FF2161236D22CDE9001003215A
:104A4000FFF748FD052232210846FBF70CFDD1E6B1
:104A50000020012161236D22CDE900100321FFF721
:104A600039FD8E48807A401C8C49887201208A4921
:104A700008708A49C8738870087148718871C87154
:104A800008724872002048730846808A0F30888276
:104A9000012232210846FBF7E6FC67E079480078FE
:104AA000C0B979480078A8B97848007890B9002052
:104AB000012161236D22CDE900100321FFF70AFDDA
:104AC00001207749C87000208870012232210846F1
:104AD000FBF7C9FC4AE06B480078E8BB6A480078FD
:104AE000D0BB6A480078B8BB69480068012812D07A
:104AF0006748001D006801280DD06548083000682F
:104B0000012808D063480068012804D0614814389F
:104B1000006801280ED1052232210846FBF7A3FCCC
:104B20000020FF2161236D22CDE900100321FFF752
:104B3000D1FC5FE60020012161236D22CDE9001048
:104B40000321FFF7C7FC01205349087053498873BC
:104B5000C8700020487300E007E001200871487128
:104B6000012232210846FBF77EFC00BF00BF9CE11A
:104B700001204A4908740020012161236D22CDE9FA
:104B800000100321FFF7A6FC4448007800F0300035
:104B900020B1102850D0202839D139E03C48006895
:104BA000012812D03A48001D006801280DD038486D
:104BB00008300068012808D036480068012804D071
:104BC00034481438006801280ED10020FF216123E9
:104BD0006D22CDE900100321FFF77CFC0522322174
:104BE0000846FBF740FC05E62C48007800F0010081
:104BF00010B101280AD104E000210846FEF749FF60
:104C000004E001210020FEF744FF00BF00BF5BE08D
:104C10002248007800F0010010B101280AD104E018
:104C200001210220FEF735FF04E000210220FEF7FB
:104C300030FF00BF00BF47E015480068012812D0D0
:104C40001348001D006801280DD011480830006885
:104C5000012808D00F480068012804D00D481438F6
:104C6000006801281ED10020FF2161236D22CDE9BB
:104C700000100321FFF72EFC052232210846FBF726
:104C8000F2FBB7E5A401002034020020C40200209A
:104C90000C8121422C012342750000205403002086
:104CA0008C000020FE48007800F0010028B10128A7
:104CB00008D10021FEF7EDFE04E001210846FEF7D1
:104CC000E8FE00BF00BF00BF00BF0122322108463E
:104CD000FBF7C9FBE9E00020012161236D22CDE94A
:104CE00000100321FFF7F6FBED4800780411002CBB
:104CF00001DD102400E0002404F0100010B11028A1
:104D000069D12DE0E648007800F00F00082821D294
:104D1000DFE800F02004080C1014181C0020E04903
:104D200008761BE00120DE49087617E00220DC4906
:104D3000087613E00320DA4908760FE00420D8490A
:104D400008760BE00520D649087607E00620D4490E
:104D5000087603E00020D249087600BF00BF3AE0A1
:104D6000CF48007800F0F00000F00F0169BB00119F
:104D700010282AD2DFE800F029080C1014181C2093
:104D800029292929292929240020C549488320E0E7
:104D90000120C34948831CE00220C149488318E030
:104DA0000320BF49488314E00420BD49488310E034
:104DB0000520BB4948830CE00620B949488308E038
:104DC0004FF47A70B649488303E00020B449488321
:104DD00000BF00BF00BF00BF012232210846FBF721
:104DE00042FB62E00020012161236D22CDE9001029
:104DF0000621FFF76FFBAA48007880BB0020A94975
:104E0000087000214FF0804003F0F8F80020A64918
:104E100008700021A54803F0F1F80020A4490870AB
:104E20000021A44803F0EAF800209D498873C87364
:104E3000888248820120A04908709949C87088700A
:104E4000087148718871C8710872487200204873EF
:104E500001209A49487000200870C8700DE0FFE7F3
:104E60000120974908609749087040F2DC50FCF730
:104E700008FE40F2DC50FCF704FE01223221084615
:104E8000FBF7F1FA11E00020012161236D22CDE949
:104E900000100721FFF71EFB00208349086501224F
:104EA00032210846FBF7DFFA00BF00BF00BFA1E4D4
:104EB00010B58548007800287DD083480078401ED2
:104EC00000EB0010814901EB400090F820107E4873
:104ED0000078401E00EB00107C4A02EB4000007A94
:104EE000814226D0002178480078401E00EB001057
:104EF00002EB400080F8201073480078401E00EB61
:104F0000001002F8101070490978491E01EB0111D8
:104F100002EB4101481C1E2103F06BFD6A4800783A
:104F2000401E69490870032232210846FBF79BFAAC
:104F300010BD65480078401E00EB0010634901EB8E
:104F4000400040796D2836D100215F480078401E2E
:104F500000EB00105D4A02EB400001725A480078F5
:104F6000401E00EB001002F8101057480078401E59
:104F700000EB001002EB400080F82010524800784F
:104F8000401E00EB0010114601EB4000007944493F
:104F9000C8824D480078401E00EB0010114601EB1E
:104FA0004000C0793E49087047480078401E00EB39
:104FB0000010114600E08EE001EB400080780028F0
:104FC0005DD041480078401E00EB001001EB40002E
:104FD000817A3D480078401E00EB001002EB400053
:104FE000407A01EB00202E49488237480078401E65
:104FF00000EB0010114601EB4000017B32480078C5
:10500000401E00EB001002EB4000C07A01EB0020D4
:10501000234988822C480078401E00EB001011467E
:1050200001EB4000407B1E49487027480078401E35
:1050300000EB0010114601EB4000C17B22480078D4
:10504000401E00EB001002EB4000807B01EB0020D3
:105050001349C8831C480078401E00EB001011461D
:1050600001EB4000417C18480078401E00EB001026
:1050700002EB4000007C01EB0020094988831249C3
:105080000978491E01EB0111104A02EB4101481C4D
:105090001E2103F0AEFC0C480078401E0A4917E0C0
:1050A00054030020A4010020C4020020000400409A
:1050B0003402002000080040750000208C00002011
:1050C00094012142940000209F00002074030020DE
:1050D0000870FFF772FA00BF2AE710B540F22551B9
:1050E000FE4803F053FCFD4803F0A6FBFC49097899
:1050F00001EB0111FB4A02EB4101C877FA48007845
:105100000B2856D2DFE800F00656A6F2F0EFEEEDDF
:10511000ECEBEA00F248007800EB0010F14901EBFB
:105120004000C07FAA2829D1ED48007800EB00108C
:1051300001EB4000C17FEA48007800EB0010E94A2B
:1051400002EB4000401CE64A127802EB0212E54BEB
:1051500013F8122081540120E3490870E0480078D8
:1051600000EB0010194611F81000401CDC490978CA
:1051700001EB01111A4602F811001AE00020DA4989
:105180000870D749097801EB0111D64A02F81100DD
:10519000D349097801EB011102EB410181F82000AC
:1051A0000120CF49097801EB011102EB410181F89F
:1051B000210065E3CA48007800EB0010C94901EB03
:1051C0004000C07F552829D1C548007800EB001069
:1051D00001EB4000C17FC248007800EB0010C14ADB
:1051E00002EB4000401CBE4A127802EB0212BD4B9B
:1051F00013F8122081540220BB490870B848007887
:1052000000EB0010194611F81000401CB449097851
:1052100001EB01111A4602F811001AE00020B24910
:105220000870AF49097801EB0111AE4A02F811008C
:10523000AB49097801EB011102EB410181F8200033
:105240000120A749097801EB011102EB410181F826
:10525000210015E3A248007800EB0010A14901EB02
:105260004000C17F9E48007800EB00109D4A02EB91
:105270004000401C9A4A127802EB0212994B13F834
:10528000122081540320984908709548007800EB5B
:105290000010194611F81000401C9149097801EBE3
:1052A00001111A4602F811008D48007800EB001039
:1052B000114601EB400090F820008949097801EB84
:1052C000011102EB4101C97F08448549097801EBCE
:1052D000011102EB410181F82000D1E27DE22CE2D4
:1052E0007FE11CE1CEE089E044E0FFE77C48007804
:1052F00000EB00107B4901EB4000C17F784800784B
:1053000000EB0010774A02EB4000401C744A127810
:1053100002EB0212734B13F81220815404207249DD
:1053200008706F48007800EB0010194611F8100063
:10533000401C6B49097801EB01111A4602F8110073
:105340006748007800EB0010114601EB400090F830
:1053500020006349097801EB011102EB4101C97F8B
:1053600008445F49097801EB011102EB410181F822
:10537000200085E25A48007800EB0010594901EB03
:105380004000C17F5648007800EB0010554A02EB00
:105390004000401C524A127802EB0212514B13F8A3
:1053A000122081540520504908704D48007800EBC8
:1053B0000010194611F81000401C4949097801EB0A
:1053C00001111A4602F811004548007800EB001060
:1053D000114601EB400090F820004149097801EBAB
:1053E000011102EB4101C97F08443D49097801EBF5
:1053F000011102EB410181F8200041E238480078B8
:1054000000EB0010374901EB4000C17F34480078C1
:1054100000EB0010334A02EB4000401C304A127887
:1054200002EB02122F4B13F81220815406202E4952
:1054300008702B48007800EB0010194611F8100096
:10544000401C2749097801EB01111A4602F81100A6
:105450002348007800EB0010114601EB400090F863
:1054600020001F49097801EB011102EB4101C97FBE
:1054700008441B49097801EB011102EB410181F855
:105480002000FDE11648007800EB0010154901EB03
:105490004000C17F1248007800EB0010114A02EB77
:1054A0004000401C0E4A127802EB02120D4B13F81A
:1054B0001220815407200C4908700948007800EB3D
:1054C0000010194611F81000401C0549097801EB3D
:1054D00001111A4602F81100014807E00048004097
:1054E0009F00002074030020A0000020007800EB43
:1054F0000010114601EB400090F82000E1490978C6
:1055000001EB011102EB4101C97F0844DD49097833
:1055100001EB011102EB410181F82000B0E1D94813
:10552000007800EB0010D84901EB4000C17FD5485E
:10553000007800EB0010D44A02EB4000401CD14A36
:10554000127802EB0212D04B13F81220815408207B
:10555000CE490870CB48007800EB0010194611F8CE
:105560001000401CC749097801EB01111A4602F8E6
:105570001100C448007800EB0010114601EB400018
:10558000C07820B1012806D002280CD107E00920FC
:10559000BE49087023E00820BC4908701FE00820BD
:1055A000BA4908701BE00020B8490870B54909786D
:1055B00001EB0111B44A02F81100B249097801EB7C
:1055C000011102EB410181F820000120AD49097869
:1055D00001EB011102EB410181F8210000BF00BF86
:1055E0004EE1A848007800EB0010A74901EB40000D
:1055F000C078012802D002284DD14DE0A1480078A2
:1056000000EB0010A04901EB4000C17F9D480078ED
:1056100000EB00109C4A02EB4000401C994A1278B3
:1056200002EB0212984B13F812208154954800782F
:1056300000EB0010194611F81000401C9149097840
:1056400001EB01111A4602F811008E48007800EBB8
:105650000010114601EB400090F8200089490978BC
:1056600001EB011102EB4101C97F0844854909782A
:1056700001EB011102EB410181F820008148007823
:1056800000EB0010114611F81000C01F082802D1CD
:1056900009207E4908704EE07A48007800EB00103F
:1056A000794901EB4000C17F7648007800EB00109B
:1056B000754A02EB4000401C724A127802EB02125B
:1056C000714B13F8122081546E48007800EB0010E3
:1056D000194601EB400090F820006A49097801EB77
:1056E00001111A4602EB4101C97F08446549097856
:1056F00001EB011102EB410181F8200061480078C3
:1057000000EB0010114611F81000C01F102802D144
:1057100009205E4908705B48007800EB00105A4988
:1057200011F81000401C5749097801EB0111564A45
:1057300002F8110000BF00BFA2E05248007800EB61
:105740000010514901EB4000C07FA02829D14D48ED
:10575000007800EB001001EB4000C17F4948007861
:1057600000EB0010484A02EB4000401C454A12780A
:1057700002EB0212444B13F8122081540A204349D1
:1057800008704048007800EB0010194611F810002E
:10579000401C3C49097801EB01111A4602F811003E
:1057A0001AE00020394908703649097801EB0111E7
:1057B000354A02F811003349097801EB011102EB77
:1057C000410181F8200001202E49097801EB0111E7
:1057D00002EB410181F8210052E02A48007800EBF9
:1057E0000010294901EB4000C07F5F282CD12548DB
:1057F000007800EB001001EB4000C17F21480078E9
:1058000000EB0010204A02EB4000401C1D4A1278B9
:1058100002EB02121C4B13F81220815400201B498A
:1058200008701849097801EB01111A4602F81100B5
:1058300014480078401C134908700020097801EBD7
:10584000011102F811001AE00020104908700D49FA
:10585000097801EB01110C4A02F811000949097895
:1058600001EB011102EB410181F820000120054903
:10587000097801EB011102EB410181F8210000BF21
:1058800000BF10BD9F00002074030020A000002076
:1058900010B586B004460121480401F028FF01211B
:1058A000042001F017FFF94802F086FE0420ADF84D
:1058B000100003208DF8120018208DF8130004A9A1
:1058C000F34801F02BFC0820ADF8100004208DF8FF
:1058D000130004A9EE4801F021FC00940020ADF86B
:1058E0000400ADF80600ADF80800ADF80C000C207F
:1058F000ADF80A0026208DF8140003208DF815005D
:1059000001208DF816008DF8170005A801F0AFFAF8
:105910006946DE4802F093FE012240F22551DB4841
:1059200002F025FF0121D94802F015FF8021D74858
:1059300002F0F9FF06B010BD70B505460E46002412
:1059400005E0315DD14802F073FF601CC4B2AC4287
:10595000F7DB70BD10B540F22551CC4803F016F8C6
:10596000CC48007801286ED1C84802F065FFCA49CA
:105970000870CA48007805281DD2DFE800F0031D32
:10598000384E6500C4480078A5280DD1C24800787B
:10599000C3490978C1EB0111C1EBC101C14A50549F
:1059A0000120BE49087006E00020BC490870BE49CD
:1059B0000860BE49087082E0B74800785A280ED1C6
:1059C000B5480078B6490978C1EB0111C1EBC101B6
:1059D000B44A114448700220B049087006E0002023
:1059E000AE490870B0490860B049087067E0AA483D
:1059F0000078AB490978C1EB0111C1EBC101A94A9B
:105A000011448870A9480078A34909780844A74937
:105A100008700320A149087051E09F480078A04910
:105A20000978C1EB0111C1EBC1019E4A1144C87054
:105A30009E4800789849097808449C4908700420D9
:105A4000964908703BE03BE0934801789448007821
:105A5000C0EB0010C0EBC000924A1044001D924AF7
:105A60001268815490480068401C8F4908608F4834
:105A700000788949097808448C490870884800787A
:105A8000C0EB0010C0EBC000864908448078401E7F
:105A900085490968884211D10020804908708349EE
:105AA0000870814908607E480078401C7C49087075
:105AB00008460078042801DB0120087000BF4FE190
:105AC000724802F0B9FEC4B27948007807282DD296
:105AD000DFE800F0042D6195BDF9DB006D2C13D0DB
