:020000040800F2
:1000000048130020158A0008410200084302000836
:10001000470200084B0200084F02000800000000E1
:100020000000000000000000000000005302000873
:10003000550200080000000057020008590200089D
:100040002F8A00082F8A00082F8A00082F8A0008AC
:100050002F8A00082F8A0008F92A0008272A00089A
:100060002F8A00082F8A0008892B00082F8A000891
:100070002F8A00082F8A00082F8A00082F8A00087C
:100080002F8A00082F8A00082F8A00082F8A00086C
:100090002F8A00082F8A00082F8A00082F8A00085C
:1000A0002F8A00082F8A00082F8A00082F8A00084C
:1000B000171800082F8A00082F8A00082F8A0008C6
:1000C0002F8A00082F8A00082F8A00082F8A00082C
:1000D0002F8A00082F8A0008A95900082F5100080C
:1000E0002F8A00082F8A00082F8A00082F8A00080C
:1000F0002F8A00082F8A00082F8A00082F8A0008FC
:100100002F8A00082F8A0008B30900082F8A0008E8
:100110002F8A00082F8A00082F8A00082F8A0008DB
:100120002F8A00082F8A00082F8A00082F8A0008CB
:10013000DFF80CD009F04AF80048004745010008F4
:10014000481300201CB501F0A9FB58E002F046FB63
:1001500002F03EFA32480078012850D104F0D2FE75
:1001600000202F49087003F031FD00F030FA06F04E
:1001700065FA2C4A918A508A03F09DF8294A918A9F
:10018000508A03F094FA2848007800EB00102749C1
:1001900001EB400090F82100012827D103223221F1
:1001A000084600F060F900201F49097801EB0111B1
:1001B0001E4A02EB410181F821001B49097801EB3D
:1001C000011102EB4101481C1E2108F03CFC0020FB
:1001D000FF2161236D22CDE9001004F0A5F9002173
:1001E000134808F0E2FA012012490870124800781A
:1001F000012804D10020114908600F490870A5E7C3
:1002000070B504460D46E1B2094808F03BFB00BF5B
:100210000748008800F080000028F9D0204670BD13
:1002200033000020540300209F00002074030020AE
:1002300000480040960000209400002094012142D4
:10024000704700BFFEE700BFFEE700BFFEE700BF4C
:10025000FEE7704770477047704700000CB50020FC
:10026000019000906C48006840F480306A49086052
:1002700000BF6948006800F4003000900198401CFD
:100280000190009818B90198B0F5A06FF1D16248BB
:10029000006800F4003010B10120009001E000205F
:1002A00000900098012843D15C48006840F010009D
:1002B0005A4908600846006820F0030008600846B4
:1002C000006840F0020008605348406852494860A6
:1002D0000846406848600846406840F480604860CE
:1002E0000846406820F47C1048600846406840F4A6
:1002F000E81048600846006840F08070086000BF61
:100300004548006800F000700028F9D04248406875
:1003100020F00300404948600846406840F0020071
:10032000486000BF3C48406800F00C000828F9D144
:100330000CBD10B5FFF792FF10BD10B53648006830
:1003400040F00100344908600846406834490840DC
:100350003149486008460068324908402E49086023
:100360000846006820F4802008600846406820F4B1
:10037000FE0048604FF41F008860FFF7DAFF4FF07F
:1003800000602949086010BD10B50021002000223E
:10039000214B5B6803F00C0121B1042906D0082928
:1003A00028D107E0214B224C236027E01F4B204C33
:1003B000236023E0184B5B6803F47010164B5B68F6
:1003C00003F48032022303EB904022B9194B4343DC
:1003D000174C23600DE0104B5B6803F4003323B12E
:1003E000144B4343124C236003E0104B4343104C27
:1003F000236003E00D4B0E4C236000BF00BF064B93
:100400005B68C3F303130C4CE15C094B1B68CB40E6
:10041000074C236010BD0000001002400020024085
:100420000000FFF8FFFFF6FE08ED00E000127A0082
:100430000000002000093D000400002017488069EA
:1004400040F01000154988611548406820F470405C
:10045000134948600846406840F4405048600846E8
:10046000C068C86070472DE9F04107460C46154644
:1004700000260EE001200B490860384601F001FB20
:1004800000200949C1F8AC01204601F0FAFA701CBD
:10049000C6B2AE42EEDBBDE8F081000000100240C3
:1004A00000100140AC0122420000224208B50121A7
:1004B000202007F039F9BD20ADF8000048208DF864
:1004C00003006946D54806F053FE08BD10B5D44870
:1004D000006880B9D3480078002877D1032001F064
:1004E000D0FACF480068002870D10120CD490870AB
:1004F000CD4908706AE0CA480C38006888B9C94814
:100500000078002862D1032001F0BBFAC4480C38FF
:10051000006800285AD10120C2490870C3490870F8
:1005200054E0BF480838006888B9BE480078002801
:100530004CD1032001F0A5FAB9480838006800281A
:1005400044D10120B7490870B94908703EE0B44869
:100550001438006878B9B3480078F8B9032001F07E
:1005600090FAAF4814380068C0B90120AD4908704E
:10057000B04908702AE0AA481038006878B9A9483C
:10058000007858B9032001F07CFAA54810380068BB
:1005900020B90120A3490870A749087016E0A048B7
:1005A0001C38006878B99F48007878B9032001F0BA
:1005B00068FA9B481C38006840B9012099490870C6
:1005C0009E49087002E000209649087010BD10B5E1
:1005D000FFF77CFF9448007801280CD10020924955
:1005E000087001221146052001F0A9FC0122C82152
:1005F0000846FFF738FF8D48007801280CD100200D
:100600008A49087000220121052001F098FC01228E
:10061000C8210846FFF727FF8548007801280CD13C
:1006200000208349087000221146052001F087FC54
:1006300001226421C820FFF716FF7E4800780128B8
:100640000CD100207B49087001220021052001F017
:1006500076FC01226421C820FFF705FF7648007868
:1006600001280CD1002074490870002202210520C5
:1006700001F065FC012232210846FFF7F4FE6F48C5
:10068000007801287ED100206C49087001223221B7
:100690000846FFF7E8FE3C20694908600122042172
:1006A000674806F0D0FA66480068664908606649FF
:1006B0006648674AC2E900100A220821644806F029
:1006C0005DFA6348D0E90010624AC2E900102F20A9
:1006D00061490860192204215F4806F04FFA5E481C
:1006E00000685E4908605E485E495F4A03C2232293
:1006F00008215D4806F042FA5B48D0E900105B4AE9
:10070000C2E90010E3205A49086032220421584807
:1007100006F034FA564800685649086000205649E9
:1007200008603C220421544806F028FA5248006828
:100730005249086046205249086046220421504828
:1007400006F01CFA4E4800684E4908601E204E49CB
:100750000860502204214C4806F010FA4A4800680C
:100760004A49086040F60610494908605A220421A7
:10077000474806F003FA464800684649086040F6D4
:10078000980000E049E0444908606422042142489E
:1007900006F0F4F9404800684049086040F68400DB
:1007A0003F4908606E2204213D4806F0E7F93C48C5
:1007B00000683C49086040F6BB003B49086078226D
:1007C0000421394806F0DAF93748006837490860EB
:1007D00040F698003649086082220421344806F029
:1007E000CDF9334800683349086064203249086015
:1007F0008C220421304806F0C1F92F4800682F49A7
:100800000860AA202E490860962204212C4806F090
:10081000B5F92B4800682B49086010BD0014014051
:100820001C81224214000020150000201600002028
:100830001700002018000020190000201A000020D6
:10084000C000002044000020295C8FC2F528DC3F56
:10085000C800002048000020D000002078000020C0
:1008600017D9CEF753E3D53FD80000205000002021
:10087000E00000207C000020E40000208000002038
:10088000E800002058000020EC0000205C00002060
:10089000F000002060000020F40000206400002030
:1008A000F800002068000020FC0000206C00002000
:1008B00000010020700000200801002084000020BA
:1008C000040100208800002008B50121102006F056
:1008D0002BFF0420ADF8000010208DF8030003204A
:1008E0008DF802006946044806F042FC04210248E3
:1008F00006F0EBFC08BD0000001001407FB5054686
:100900000C460121082006F01CFFADF80850ADF898
:1009100004400020ADF80A00ADF8060001A9FE4829
:1009200007F03AF801221146FB4807F0ACFB3220F1
:100930008DF8000000208DF8010003208DF80200E2
:1009400001208DF80300684606F0BBFA0121F24849
:1009500007F07EFB7FBD7FB505460C4601210846AA
:1009600006F0EFFEADF80850ADF804400020ADF8F9
:100970000A00ADF8060001A94FF0804007F00CF81E
:1009800001221146900707F07EFB1C208DF8000025
:1009900001208DF8010003208DF8020001208DF860
:1009A0000300684606F08DFA0121880707F050FB26
:1009B0007FBD00B589B00121D74807F012FE00289D
:1009C0007ED00121D44807F01DFED448007800B342
:1009D000D3480078D1490978884207D0CF480078B9
:1009E000401ED04908700020CF490880CB480078CD
:1009F000CB490870CB48007858B1CB480088401CE0
:100A0000C949088008460088C82803DA0120C74978
:100A1000086010E0C4480088B0F5FA7F03DA0020CF
:100A2000C249086007E00020BF490880BD4800783F
:100A3000401EBC4908700120BD490870BD480078BF
:100A400002287DD1BB484069401CBA49486108462C
:100A500090F8720007284AD2DFE800F049044ABE45
:100A6000DEFDFC00B348C06F0790B248C068069036
:100A7000079908F0D1FA33D2AE484068AD49886191
:100A800008464069486308464069069008F03FFA06
:100A90000790A848806F01460690079808F036F83E
:100AA000A449C86008464069049008F030FA0590EF
:100AB000A048C06801460490059808F027F800E0B7
:100AC000FEE34FF08041069008F052F89A490790F3
:100AD00007F0C4FF9749886008468068486506E0CB
:100AE000944890F87200401C924981F872006BE1C2
:100AF0009048C0680021079008F098FA64D28D48A9
:100B00004168C16141698163808A8A49898E401A3E
:100B10008849A1F870000846B0F87000059008F008
:100B2000F6F906908348806F01460590069807F015
:100B3000EDFF07907F48C06F01460690079800E0E0
:100B40005DE107F0E0FF7B49C8600846B0F870003F
:100B5000029008F0DCF904907648B0F8700001903B
:100B600008F0D5F902907348806F01460190029811
:100B700007F0CCFF0390049907F0C8FF4FF08041C5
:100B8000059007F0F5FF07906A48B0F870000390F1
:100B900008F0BDF904906748C06F014603900498BF
:100BA00007F0B4FF05906348406D01460490059836
:100BB00007F054FF0690079907F0A2FF5D4988608F
:100BC00008468168816506E05A4890F87200401C2A
:100BD000584981F87200F7E056480169C069081A5F
:100BE0005449496888420FD95248416801624169B5
:100BF000C163B0F87400079008F089F94D49886026
:100C000008468168C16506E04A4890F87200401CB9
:100C1000484981F87200D7E04648C06F07904548C0
:100C2000C0680690079908F0F7F93ED2414841683C
:100C3000416241690164818A808F081A3D49A1F8A7
:100C400070000846B0F87000069008F060F9079050
:100C5000384801E0B4E030E0806F01460690079824
:100C600007F054FF3349C8600846B0F8700004909C
:100C700008F04DF905902F48C0680146049005988A
:100C800007F044FF4FF08041069007F071FF079096
:100C90002848C06D01460690079807F034FF2549A3
:100CA000886008468168016606E0224890F8720074
:100CB000401C204981F8720086E01E4880681E4969
:100CC000079008F0B3F973D21A484168816241690C
:100CD0004164818AB0F84000081A1649A1F87000F2
:100CE0000846B0F87000059008F011F90690114818
:100CF000806F01460590069807F008FF07900D48A1
:100D0000C06F01460690079807F0FDFE0949C860CC
:100D10000846B0F8700011E0000C00401E000020F2
:100D20001F000020300000202E00002088012242F9
:100D300033000020A40100200000C842019008F008
:100D4000E6F80390FE48B0F87000009008F0DFF875
:100D50000190FB48806F01460090019807F0D6FE95
:100D60000290039907F0D2FE4FF08041049007F003
:100D7000FFFE0690F248B0F87000039008F0C7F844
:100D80000490EF48C06F01460390049807F0BEFE40
:100D90000590069907F0B4FE0790E948006E0146F9
:100DA0000690079807F0AFFEE549886007E0FFE787
:100DB000E34890F87200401CE14981F8720003E0BA
:100DC000E048DF49886000BF00BFDD488068014619
:100DD0000790172001F053F808900898B0F57A7F33
:100DE00051D34FF2B561089888424CD2012188074F
:100DF00007F02EF91721089801F05DF843E0D0487C
:100E00000078012823D1D048007E32214843323077
:100E1000CB49A1F87400CC48408B00EB8000400027
:100E20000A3008610846B0F87400069008F06FF8C0
:100E300001460790172001F022F808901721089822
:100E400001F039F80121880707F002F91BE0BC48DE
:100E50000078032817D16420B949A1F87400084626
:100E6000B0F87400069008F052F801460790172079
:100E700001F005F808901721089801F01CF80121ED
:100E8000880707F0E5F8B148007802287ED1AF481E
:100E90004069401CAD494861084690F87200072837
:100EA00048D2DFE800F0470448BCDCFEFD00A7485C
:100EB000C06F0790A548C0680690079908F0ACF885
:100EC00031D2A2484068A149886108464069486318
:100ED00008464069069008F01AF807909B48806F12
:100EE00001460690079807F011FE9849C860084629
:100EF0004069049008F00BF805909448C0680146DA
:100F00000490059807F002FE4FF08041069007F02C
:100F10002FFE8F49079007F0A1FD8C498860084695
:100F20008068486506E0894890F87200401C87494F
:100F300081F8720062E18548C0680021079008F0DE
:100F400075F864D281484168C16141698163808AD2
:100F50007E49898E401A7D49A1F870000846B0F894
:100F60007000059007F0D3FF06907848806F014627
:100F70000590069807F0CAFD07907448C06F0146B7
:100F80000690079807F0BFFD704900E051E1C86086
:100F90000846B0F87000029007F0B9FF04906B4863
:100FA000B0F87000019007F0B2FF02906748806FC0
:100FB00001460190029807F0A9FD0390049907F0FB
:100FC000A5FD4FF08041059007F0D2FD07905F48E6
:100FD000B0F87000039007F09AFF04905B48C06F70
:100FE00001460390049807F091FD05905748406D25
:100FF00001460490059807F031FD0690079907F027
:101000007FFD5249886008468168816506E04F4847
:1010100090F87200401C4D4981F87200EEE04B4898
:101020000169C069081A4949496888420FD9474887
:10103000416801624169C163B0F87400079007F02C
:1010400066FF4249886008468168C16506E03F48FE
:1010500090F87200401C3D4981F87200CEE03B4898
:10106000C06F07903948C0680690079907F0D4FF11
:101070003ED236484168416241690164818A808F6D
:10108000081A3249A1F870000846B0F870000690BE
:1010900007F03DFF07902D48806F0146069001E064
:1010A000A8E02DE0079807F031FD2849C860084600
:1010B000B0F87000049007F02AFF05902348C0683C
:1010C00001460490059807F021FD4FF080410690FD
:1010D00007F04EFD07901D48C06D01460690079829
:1010E00007F011FD1949886008468168016606E02D
:1010F000164890F87200401C144981F872007DE097
:10110000124880681249079007F090FF6AD20F4892
:101110004168816241694164818AB0F84000081ADF
:101120000A49A1F870000846B0F87000059007F071
:10113000EEFE06900548806F01460590069809E08E
:10114000A40100200000C842540300203402002003
:101150000000484207F0DAFC0790FE48C06F0146E5
:101160000690079807F0CFFCFA49C8600846B0F827
:101170007000019007F0CBFE0390F648B0F87000C5
:10118000009007F0C4FE0190F248806F0146009085
:10119000019807F0BBFC0290039907F0B7FC4FF0F1
:1011A0008041049007F0E4FC0690EA48B0F8700033
:1011B000039007F0ACFE0490E648C06F0146039030
:1011C000049807F0A3FC0590069907F099FC079096
:1011D000E048006E01460690079807F094FCDD4950
:1011E000886006E0DB4890F87200401CD94981F81D
:1011F000720003E0D848D749886000BF00BFD548D7
:10120000806801460790172000F039FE0890089882
:10121000B0F57A7F51D34FF2B561089888424CD22D
:101220001721089800F074FE0121CC4806F010FF49
:1012300043E0C8480078012823D1C948007E322104
:1012400048433230C349A1F87400C548408B00EBD5
:1012500080004000323008610846B0F87400069003
:1012600007F055FE01460790172000F008FE089091
:101270001721089800F04CFE0121B84806F0E8FE5E
:101280001BE0B4480078032817D15020B149A1F8D9
:1012900074000846B0F87400069007F038FE014666
:1012A0000790172000F0EBFD08901721089800F038
:1012B0002FFE0121A94806F0CBFEAA48007800E0E5
:1012C000A7E202287ED1A7484069401CA549486191
:1012D000084690F87200012843D10846C06F079075
:1012E0000846C0680690079907F096FE31D29D48DF
:1012F00040689C49886108464069486308464069DF
:10130000069007F004FE07909648806F014606900D
:10131000079807F0FBFB9349C860084640690490B2
:1013200007F0F5FD05908F48C068014604900598C8
:1013300007F0ECFB4FF08041069007F019FC8A495A
:10134000079007F08BFB87498860084680684865EE
:1013500095E1844890F87200401C824981F872003F
:101360008DE1804890F8720002287DD17D48C068E8
:101370000021079007F05AFE7BD27A48B0F874003B
:10138000069007F0C4FD07907648806801460690F5
:10139000079807F04BFE6CD272484069B0F5FA7FAF
:1013A00067D270484168C16141698163808A6D4933
:1013B000898E401A6B49A1F870000846B0F8700099
:1013C000059000E075E107F0A2FD06906548806F8A
:1013D00001460590069807F099FB07906148C06F99
:1013E00001460690079807F08EFB5E49C8600846E4
:1013F000B0F87000029007F08AFD04905948B0F8E8
:101400007000019007F083FD02905648806F0146FE
:101410000190029807F07AFB0390049907F076FB9D
:101420004FF08041059007F0A3FB07904D48B0F8BE
:101430007000039007F06BFD04904A48C06F0146AE
:101440000390049807F062FB05904648406D014602
:101450000490059807F002FB0690079907F050FBEF
:1014600040498860084601E00BE002E08168816540
:1014700005E13C4890F87200401C3A4981F872003E
:10148000FDE0384890F8720003281FD13548016903
:10149000C069081A3349496888420FD93148416800
:1014A00001624169C163B0F87400079007F02FFD35
:1014B0002C49886008468168C165E0E0294890F8B9
:1014C0007200401C274981F87200D8E0254890F846
:1014D000720004285BD12348C06F07902148C06880
:1014E0000690079907F098FD48D21E48416841626E
:1014F00041690164818A808F081A1A49A1F8700035
:101500000846B0F87000069007F001FD07901548F6
:10151000806F01460690079807F0F8FA1149C860F5
:101520000846B0F87000049007F0F1FC05900D48F3
:10153000C06801460490059807F0E8FA4FF0804132
:10154000069007F015FB07900648C06D014606900F
:1015500007980BE0340200200000484200080040D9
:1015600054030020C40200200000C84207F0CBFA58
:10157000AE49886008468168016680E0AB4890F813
:101580007200401CC1B2A94880F8721077E0A748E9
:1015900090F8720005286FD1A4488068A44907908C
:1015A00007F044FD5FD2A14841688162416941640E
:1015B000818AB0F84000081A9C49A1F870000846DA
:1015C000B0F87000059007F0A2FC06909748806F75
:1015D00001460590069807F099FA07909348C06F66
:1015E00001460690079807F08EFA9049C8600846B1
:1015F000B0F87000019007F08AFC03908B48B0F8B7
:101600007000009007F083FC01908848806F0146CD
:101610000090019807F07AFA0290039907F076FAA1
:101620004FF08041049007F0A3FA06907F48B0F88D
:101630007000039007F06BFC04907C48C06F01467B
:101640000390049807F062FA0590069907F058FA9B
:1016500007907648006E01460690079807F053FA07
:10166000724988600BE0714890F87200401C6F4925
:1016700081F8720003E0FFE76D496C4881606B48B8
:10168000806801460790172000F0F9FB0890089841
:10169000B0F57A7F54D34FF2B561089888424FD2A3
:1016A0001721089800F01DFC0121624806F0D0FCCB
:1016B00046E05E480078012826D15F48007E32214E
:1016C00048433C305949A1F874005B48408B00EB1B
:1016D00080004000323008610846B0F8740006907F
:1016E00007F015FC01460790172000F0C8FB089092
:1016F0001721089800F0F5FB01214E4806F0A8FCE0
:1017000000204E4948711BE048480078032817D153
:10171000C8204649A1F874000846B0F87400069045
:1017200007F0F5FB01460790172000F0A8FB089092
:101730001721089800F0D5FB01213E4806F088FCEF
:101740003F48006840BB3F480088401C81B23D488C
:101750000180008840F2DC51884220DD01F0DCFA93
:101760000021F12061236D22CDE900010321002039
:1017700002F0DAFE002033490880012030497C3134
:1017800008603149087040F2DC5000F07AF940F20C
:10179000DC5000F076F902E000202A49088000F0D1
:1017A00079F82A48008820B128480088401E274937
:1017B0000880274800781D49097808442549097898
:1017C0000844254908702548007888B124480078E5
:1017D000401C2349087008460078052808DD0121CF
:1017E000204806F0E2FF00201C4908701C490870E0
:1017F0001D48008820B11C480088401E1A490880F6
:101800001A480088002804DD18480088401E17493F
:10181000088009B000BD10B50121880706F0E1FE7F
:1018200018B10121880706F0EDFE10BDC4020020AA
:101830000000C84200040040540300208C00002037
:1018400018012142260000209400002036000020CC
:10185000A401002034020020350000209600002062
:1018600032000020004800402C0000202A00002008
:1018700070B505460C4645F2555005F0C7FD2846A3
:1018800005F0C7FD204605F0C7FD05F0C8FD05F0D1
:10189000CBFD70BD10B505F0C2FD10BD10B500F058
:1018A000B3F8FFF711F8FEF7C9FDFEF7FFFD00F0F2
:1018B00037F901F0EBF900F095F94FF4965002F08A
:1018C000D1FD4FF4E13004F00DF801202E490870ED
:1018D00000F004F941F61F410920FFF70FF805F069
:1018E00000F840F6B8310620FFF7C2FF0020274974
:1018F000087004F068FF26480068264908602648FA
:10190000D0E90010254AC2E90010254800682549A1
:1019100008602548D0E90010244AC2E90010244894
:101920000068244908602448006824490860244865
:101930000068244908602448006824490860244855
:101940000068244908602448006824490860244845
:10195000006824490860224800680860224800683E
:10196000224908602248006822490860224800682D
:101970002249086022480068224908600122322179
:101980000846FEF770FD10BD68010020940000209D
:10199000C000002044000020C800002048000020B3
:1019A000D000002078000020D80000205000002047
:1019B000E00000207C000020E400002080000020E7
:1019C000E800002058000020EC0000205C0000200F
:1019D000F000002060000020F400002064000020DF
:1019E000F800002068000020FC0000206C000020AF
:1019F0000001002070000020080100208400002069
:101A0000040100208800002010B56FF0040005F0EC
:101A1000A2FA2E4800682E49B0FBF1F02D4908705B
:101A20000846007800EB4001C1EBC0104FF6FF7193
:101A300001EAC0002849088010BD0146254A1278F5
:101A40004A434FF0E0235A6100229A611A46126914
:101A500042F001021A6100BF4FF0E022106900F06D
:101A600001021AB100F48032002AF5D04FF0E022D2
:101A7000126922F001024FF0E0231A6100229A61FC
:101A800070470146144A12884A434FF0E0235A61D6
:101A900000229A611A46126942F001021A6100BFDF
:101AA0004FF0E022106900F001021AB100F4803218
:101AB000002AF5D04FF0E022126922F001024FF027
:101AC000E0231A6100229A617047000000000020A4
:101AD00000127A003C0000203E00002010B50021DA
:101AE0004FF0006005F01FFA4FF4A06005F0E4F934
:101AF00010BD012080F3138800BF00BF06480068B6
:101B000000F4E06005490843001D03490860BFF385
:101B10004F8F00BF00BFFEE70CED00E00000FA05AC
:101B200008B501215C2005F0FFFD0121084605F004
:101B3000FBFD0121264805F0ECFB48F22000ADF842
:101B4000000010208DF8030003208DF80200694684
:101B5000204805F00DFB48F220011E4805F0B7FBB8
:101B60008020ADF8000010208DF8030003208DF8D0
:101B700002006946184805F0FBFA8021164805F076
:101B8000A6FB0B20ADF8000010208DF80300032009
:101B90008DF802006946114805F0EAFA0B210F485A
:101BA00005F095FB9520ADF8000010208DF803009E
:101BB00003208DF802006946094805F0D9FA15217D
:101BC000074805F082FB8021054805F080FB08BD31
:101BD0000002300000080140000C014000100140EC
:101BE000001801401FB501213C2005F09DFD012199
:101BF000084605F099FD0121084605F0A2FD0121E6
:101C0000022005F09EFD0121042005F09AFD4220EE
:101C1000ADF80C0018208DF80F0003208DF80E0091
:101C200003A9FC4805F0A4FA0120ADF80C00182027
:101C30008DF80F0003208DF80E0003A9F64805F07B
:101C400097FA0020F549C880488008724FF080401C
:101C500005F0A2FE6020F24908800120488004209F
:101C600088800020088148814FF0804005F0D1FE37
:101C70000821C80606F01CFB00214FF0804006F04A
:101C8000E7F90020E549C88048800872E54805F07A
:101C900083FE6020E249088001204880042088807B
:101CA000002008814881DF4805F08DFF0821DD48CC
:101CB00006F01DFB0021DB4806F0CAF90020D749D9
:101CC0000880C88048800872D74805F065FE60200B
:101CD000D3490880012048800420888000200881A2
:101CE0004881D14805F095FE0821CF4806F0E0FA7A
:101CF0000021CD4806F0ACF90220ADF80C004820D8
:101D00008DF80F0003A9C44805F032FA0121002024
:101D100005F044FB0220019000208DF80800082007
:101D20008DF8090001208DF80A0001A805F040F99E
:101D300007208DF8000001208DF801008DF80200C9
:101D40008DF80300684605F0BCF80120ADF80C00E2
:101D500048208DF80F0003A9AE4805F009FA0021CC
:101D6000012005F01BFB0120019000208DF80800E8
:101D700008208DF8090001208DF80A0001A805F05F
:101D800017F906208DF8000001208DF801000320CE
:101D90008DF8020001208DF80300684605F091F8E7
:101DA0001020ADF80C0048208DF80F0003A99F48C3
:101DB00005F0DEF90421022005F0F0FA1020019070
:101DC00000208DF8080008208DF8090001208DF80A
:101DD0000A0001A805F0ECF80A208DF800000120A7
:101DE0008DF8010002208DF8020001208DF803001B
:101DF000684605F066F81520ADF80C0010208DF847
:101E00000F0003208DF80E0003A9894805F0B0F9F2
:101E10001521874805F05BFA1020ADF80C008DF80D
:101E20000F0003208DF80E0003A97B4805F0A0F9F0
:101E30002020ADF80C0010208DF80F0003208DF845
:101E40000E0003A9794805F093F94FF48050ADF8DE
:101E50000C0010208DF80F0003208DF80E0003A950
:101E60006C4805F085F94FF4E070ADF80C0048209F
:101E70008DF80F0003A9684805F07AF91FBD2DE918
:101E8000F04104460D46601C07F041F8074629461C
:101E9000384606F03BFE07463946664806F068FEBF
:101EA00080464FF07E5106F02BFE0646304607F086
:101EB00051F8BDE8F08170B504460D464FF0804002
:101EC00006F07DFBA04204D900214FF0804006F0CF
:101ED00053FB4FF080418C850D85C4F34F008886FD
:101EE00070BD70B504460D464E4806F068FBA04232
:101EF00003D900214B4806F03FFB4A492C310C80A6
:101F0000091F0D80C4F34F0046494031088070BD61
:101F100070B504460D46444806F051FBA04203D973
:101F20000021414806F028FB3F492C310C80091F55
:101F30000D80C4F34F003C493431088070BD2DE959
:101F4000F05F82468B469146BBF1000F61D13A4863
:101F5000C0F89491394880F884903948006820B9D5
:101F6000B9F1000F01D1BDE8F09F34480078002896
:101F70004ED13248C0F810A032480CC80020324977
:101F800006F04DFF05460E46504606F0D6FF0746C2
:101F90002A46334607F00CF85ED24FF4FA70274910
:101FA000A1F87400B1F874108900A1F5C87006F0AA
:101FB000A5FF0546254906F0DBFD2049C867B1F8B5
:101FC0007410C900A1F5487006F098FF0546204935
:101FD00006F0CEFD194988671E48886000204860D9
:101FE000486100240CE000211448183040F8241007
:101FF0001C3040F82410203040F82410601CC4B27B
:10200000072CF0DB02200D490870012081F87200D6
:102010005FE2AAE0000C01400008014098010020A6
:10202000880100200004004000080040001001402A
:10203000001801404054894C00002242A4010020B5
:10204000188122424800002000407F400000C84321
:1020500000409C470000C842FA480CC80020FA49DA
:1020600006F0DDFE05460E46504606F066FF0746C2
:102070002A46334606F09CFF3BD24FF44870F349A2
:10208000A1F87400B1F874108900A1F5C87006F0C9
:1020900035FF0546EE4906F06BFDEC49C867B1F81F
:1020A0007410C900A1F5487006F028FF0546E949FB
:1020B00006F05EFDE5498867E748886000204860D3
:1020C000486100240CE00021E048183040F824105A
:1020D0001C3040F82410203040F82410601CC4B29A
:1020E000072CF0DB0220D9490870012081F872002A
:1020F000EFE140F6FC00D549A1F87400B1F8741086
:102100008900A1F5C87006F0F9FE0546D34906F02E
:102110002FFDCE49C867B1F87410C900A1F5487009
:1021200006F0ECFE0546CE4906F022FDC749886759
:10213000C948886000204860486100240CE0002104
:10214000C248183040F824101C3040F824102030C9
:1021500040F82410601CC4B2072CF0DB0220BB49FD
:102160000870012081F87200B3E1BBF1010F7DD14D
:10217000BC48C0F8B091BC4880F88490BB48006867
:1021800018B9B9F1000F00D1EDE6B7480078002882
:10219000AED1B548C0F810A0B5480CC80020B5496C
:1021A00006F03DFE05460E46504606F0C6FE0746C2
:1021B0002A46334606F0FCFE3AD27820AA49A1F816
:1021C0007400B1F87410C900A1F5C87006F096FE4D
:1021D0000546A94906F0CCFCA3498867B1F87410FC
:1021E0008900A1F1C80006F089FE05469A4906F06B
:1021F000BFFC9D49C867A1488860002048604861CD
:1022000000240CE000219848183040F824101C30BD
:1022100040F82410203040F82410601CC4B2072C71
:10222000F0DB022090490870012081F8720050E133
:102230008F480CC80020924906F0F1FD05460E4675
:10224000504606F07AFE07462A46334606F0B0FEB0
:102250003CD2C8208449A1F87400B1F87410C900B8
:10226000A1F5C87006F04AFE054600E0B7E08549D2
:1022700006F07EFC7C498867B1F874108900A1F1F2
:10228000C80006F03BFE05467F4906F071FC764922
:10229000C8677A48886000204860486100240CE0E4
:1022A00000217148183040F824101C3040F82410E8
:1022B000203040F82410601CC4B2072CF0DB022050
:1022C00069490870012081F8720002E168480CC871
:1022D00000206E4906F0A3FD05460E46504606F066
:1022E0002CFE07462A46334606F062FE3BD24FF4E8
:1022F00016705D49A1F87400B1F874108900A1F15D
:10230000C80006F0FBFD0546614906F031FC564960
:10231000C867B1F87410C900A1F5C87006F0EEFDE9
:1023200005465C4906F024FC4F498867534888609D
:1023300000204860486100240CE000214A48183021
:1023400040F824101C3040F82410203040F82410AD
:10235000601CC4B2072CF0DB022043490870012046
:1023600081F87200B5E04FF4FA603F49A1F87400BB
:10237000B1F874108900A1F1C80006F0BFFD054650
:10238000454906F0F5FB3849C867B1F87410C90033
:10239000A1F5C87006F0B2FD0546404906F0E8FB1D
:1023A00031498867354888600020486048610024CA
:1023B0000CE000212C48183040F824101C3040F864
:1023C0002410203040F82410601CC4B2072CF0DB2D
:1023D000022025490870012081F8720079E0304818
:1023E000C0F890912F4880F88490007840BB2D4829
:1023F000C0F810A04FF448702A49A1F87400B1F851
:1024000074108900A1F5C87006F078FD05462049D2
:1024100006F0AEFB2349C867B1F87410C900A1F5F6
:10242000487006F06BFD05461A4906F0A1FB1D49F0
:1024300088670948886000204860486100243FE0C0
:1024400047E000004800002000709740A4010020F1
:102450000000FA440024F4490000C8420000164578
:1024600000C82F4A00802142340200202801234264
:10247000500000200000494000409C4500004842B8
:1024800000407F4000409C470000C84300408F4010
:1024900000007A440024F4480000C84400409C49ED
:1024A00000002142C40200200021FE4840F8241010
:1024B0001C3040F82410203040F82410601CC4B2B6
:1024C000072CF1DB0220F74918390870012081F848
:1024D000720000BF47E52DE9F34F83B08A460398A9
:1024E00006F02BFDCDE90001EF480CC8009806F07E
:1024F00096FC074606F074FD0290EC49D1F8800086
:1025000006F005FD0746029906F086FD0ED201266B
:10251000E649D1F8800006F0FAFC8046029906F000
:10252000F2FA074606F016FD04460DE00026DF49E4
:10253000D1F8800006F0EBFC8046029906F0E0FA44
:10254000074606F007FD0446504606F0F6FC07462F
:10255000D7480CC8384606F062FCCDE9000106F009
:102560003FFD8346D349D1F8800006F0D0FC0746F2
:10257000594606F051FD0FD24FF00109CD49D1F86F
:10258000800006F0C4FC8046594606F0BCFA0746B7
:1025900006F0E0FC05460EE04FF00009C549D1F811
:1025A000800006F0B4FC8046594606F0A9FA0746BA
:1025B00006F0D0FC0546324600212046FFF7BFFC5E
:1025C0004A4601212846FFF7BAFC05B0BDE8F08F66
:1025D00010B5B4481838007800287DD0B648006897
:1025E000D0BBB548001D0068B0BBB34808300068D8
:1025F00090BBAC48183890F8840001282CD1A94829
:1026000018384068C82827D9AC48407920BBAC4866
:102610000078401CAA49087008460078012808D1B3
:10262000A04818380069A7490968401A9D49183917
:10263000486000BF9B48183800780028FAD19949B3
:10264000183908700021A04805F002FD00209C49BF
:10265000087094491839086597480068C8BB9648BF
:10266000001D0068A8BB94480830006888BB8D48EE
:10267000183890F8840060BB8A4818384068C82829
:1026800027D98E48407920BB90480078401C8F495C
:10269000087008460078012808D182481838006977
:1026A0008B490968401A7F491839486000BF7D4846
:1026B000183800780028FAD17A49183908700021B2
:1026C000814805F0C5FC00207649183908657F4926
:1026D00008708048006800E072E0B0BB7D481438A4
:1026E000006890BB7548407901282ED16D48183894
:1026F00090F8840048BB6B48183840680A2824D9F1
:1027000072480078401C714908700846007801281A
:1027100006D1644818380069283862491839486079
:1027200000BF6048183800780028FAD15D49183990
:1027300008700021644805F08BFC002059491839C5
:102740000865624908705D49487162480068B8BB15
:1027500060481438006898BB5848407901282FD148
:102760005048183890F88400012829D14D4818386D
:1027700040680A2824D955480078401C53490870FD
:1027800008460078012806D14648183800692838DC
:1027900044491839486000BF42481838007800287A
:1027A000FAD14049183908700021474805F050FC1B
:1027B00000203C4918390865444908703F49487170
:1027C00010BD0122394B83F88420434A11601A4618
:1027D000106100225A6003221A70704710B5354804
:1027E000007858B33B480C38006890B9314890F8ED
:1027F000840001280DD1012232210846FDF733FE65
:1028000000202C4908700021344805F021FC00F01C
:1028100083FA30481030006880B9264890F8840068
:1028200001280BD100202349087000212B4805F016
:102830000FFC052232210846FDF715FE28480078D6
:1028400001281BD10020264908704FF4FA70254951
:10285000088000BF234800880028FBD101212248BE
:102860000068FFF7AEFF00BF104800780028FBD1DA
:102870000E49C1F880000120104908710B4800780A
:10288000A0B315486038006888BB084890F88400F9
:1028900068BB00200549087000214FF0804005F01A
:1028A000D7FB25E0DC02002048000020A401002026
:1028B00050000020340200200C8121428C000020B6
:1028C000760000205C00002000040040770000201B
:1028D000580000202C0123429401224200080040AD
:1028E0004000002036000020440000201AE004E0F0
:1028F000052232210846FDF7B6FDD848006888B9A0
:10290000D74890F8840001280CD10020D4490870E1
:1029100000214FF0804005F09BFB01223221084648
:10292000FDF7A1FD10BD10B504462CBBCD480068D5
:10293000012813D0CB48001D006801280ED0C948DB
:1029400008300068012809D0C4480C380068012804
:1029500004D0C24820380068012800D110BD0020F2
:10296000C1490860BE4981F8840048604CF250308B
:1029700008610320087054E0BA480068012813D0A9
:10298000B848001D006801280ED0B648083000681D
:10299000012809D0B1480C380068012804D0AF489C
:1029A00020380068012800D1D8E70120AD49A431C2
:1029B0000860AE4981F88400C820086100204860A2
:1029C0000320087018E002F09DFAA4481838006847
:1029D00090B9A64890F8840001280DD10020A349A1
:1029E00008700021A24805F033FB00F095F90122A0
:1029F00032210846FDF737FD9C4800780028E2D1D7
:102A00004FF4FA70FFF73DF800209649A4310860B2
:102A1000964981F8840048604CF2503008610320E8
:102A2000087000BF9AE710B5022004F038FB8C480C
:102A3000007800285FD08A484068401C8849486078
:102A4000084690F88400012806D10846D0F8800096
:102A5000401CC1F880000AE08148D0F8800030B105
:102A60007F48D0F88000401E7D49C1F88000814831
:102A7000006870B97A4890F8840050B901207E4906
:102A8000087000207649087000214FF0804005F062
:102A9000DFFA734840687249096988422BD30021E4
:102AA0004FF0804005F0D4FA7048007810B9022049
:102AB0007249087000206A49087048608860C860E0
:102AC0000861486181F87200A1F87000A1F87400F3
:102AD0008867C86700240CE000216148183040F87E
:102AE00024101C3040F82410203040F82410601CC2
:102AF000C4B2072CF0DB10BD10B5012004F0CFFAF2
:102B00005F48007800283ED05D484068401C5C4922
:102B10004860084690F88400012804D10846006DFA
:102B2000401C086504E05648006D401E5449086585
:102B30005348406852490969884224D300215148CA
:102B400005F086FA00204E49087048608860C86029
:102B50000861486181F87200A1F87000A1F8740062
:102B60008867C86700240CE000214548183040F809
:102B700024101C3040F82410203040F82410601C31
:102B8000C4B2072CF0DB10BD10B5102004F087FA9A
:102B900036480078002860D034484068401C3349EB
:102BA0004860084690F88400012806D10846D0F80D
:102BB0008000401CC1F880000AE02C48D0F880005A
:102BC00030B12A48D0F88000401E2849C1F8800062
:102BD00022481038006878B9244890F8840058B921
:102BE000002022490870C1F8800001202649887120
:102BF00000211F4805F02CFA1C4840681B49096950
:102C000088422AD300211A4805F022FA1448007895
:102C100010B9022019490870002014490870C860D2
:102C2000486088600861486181F87200A1F870000E
:102C3000A1F874008867C86700240CE000210B48E5
:102C4000183040F824101C3040F82410203040F890
:102C50002410601CC4B2072CF0DB10BD38012342E5
:102C6000A40100200C812142940122423402002060
:102C7000000800401881224240000020750000201A
:102C8000C4020020000400408C00002008B501218F
:102C9000682004F049FD3820ADF8000048208DF888
:102CA00003006946184804F063FA4FF40050ADF889
:102CB000000048208DF803006946144804F058FAD3
:102CC0004FF64070ADF8000048208DF803006946CB
:102CD0000F4804F04DFA4DF28050ADF80000482046
:102CE0008DF8030069460B4804F042FA48F6482084
:102CF000ADF8000048208DF803006946054804F04F
:102D000037FA08BD70470000000C01400010014078
:102D1000001401400018014010B50020F949087066
:102D200000214FF0804005F093F90020F64908702B
:102D30000021F64805F08CF90020F54908700021C3
:102D4000F44805F085F90020F3498873C873888238
:102D500048820120F1490870EF49C87088700871F5
:102D600048718871C8710872487200204873012048
:102D7000EB49487000200870C87010BD70B504465B
:102D80000D461646E4488079012874D1E248C0799E
:102D9000012822D10020E0494873C871012E76D164
:102DA00008464078012802D10846007838B1DA4850
:102DB0004078022831D1D848007801282DD1012C43
:102DC00015D1D8480078A04208D1D64804702246D0
:102DD0000221D5480068FFF7B2F885E0D1480470B9
:102DE00022460221D1480068FFF7A9F87CE0CD48CF
:102DF0000078A04208D1CB48047022460221CC487A
:102E00000068FFF79CF86FE0C64804702246022174
:102E1000C8480068FFF793F866E0BF48407801288B
:102E20001BD1BD480078012817D1BE480078A042C8
:102E300009D1BC48047022460221BB4800685030CA
:102E4000FFF77DF850E0B748047022460221B748EA
:102E500000685030FFF773F846E0B2480078A042AF
:102E60000BD1B048047022460221B14800685030AE
:102E7000FFF765F838E047E009E0AA480470224609
:102E80000221AC4800685030FFF759F82CE0012CC3
:102E900015D1A4480078A04208D1A2480470224667
:102EA0000221A1480068FFF74AF81DE09D48047020
:102EB000224602219D480068FFF741F814E0994836
:102EC0000078A04208D19748047022460221984811
:102ED0000068FFF734F807E09248047022460221A8
:102EE00094480068FFF72BF88748007800284ED1F7
:102EF00001208949C87108468079401C88714FF4C7
:102F0000FA70FEF7BEFD42E08348807902281AD1AC
:102F10008148C079012807D100207F49C87100226B
:102F200001212846FFF70BF87948007848BB0120BB
:102F30007949C87108468079401C88714FF4FA704D
:102F4000FEF79FFD23E07448807903281AD1724868
:102F5000C07901280DD100206F49C87184F00100AB
:102F60007049087084F00102022140F6C410FEF797
:102F7000E6FF6548007820B967488079401C6649BB
:102F8000887104E001206449C8718871487370BD7C
:102F900070B504460D4660480079012818D15E4896
:102FA000407901280AD100205B494873487101200B
:102FB0005A49087029462046FFF78DFA574800788D
:102FC00002280AD154480079401C5349087104E092
:102FD0000120514948730871487170BD5648006816
:102FE00058B901205549086000205549C1F88001B1
:102FF000524908310860012070470020FCE770B595
:1030000004460D4616464448007A012877D14248C6
:10301000407A002823D000203F4948734872012E8F
:103020006ED108464078012803D108460078102860
:1030300007D039484078022833D137480078112822
:103040002FD1012C15D137480078A04208D135483E
:1030500004702246022134480068FEF770FFA8E0A1
:10306000304804702246022130480068FEF767FFAE
:103070009FE02C480078A04209D12A4804702246DB
:1030800002212B4800681E30FEF759FF91E02548C9
:10309000047022460221274800681E30FEF74FFFC9
:1030A00087E01D48407801281BD11B480078112873
:1030B00017D11C480078A04209D11A480470224652
:1030C0000221194800685030FEF739FF71E01548B9
:1030D000047022460221154800685030FEF72FFF89
:1030E00067E010480078A0422CD10E4804702246B8
:1030F00002210F4800685030FEF721FF59E068E0D8
:103100002AE00000A4010020C402002000040040C6
:103110003402002000080040540300207500002005
:103120008C00002093000020680000206400002034
:10313000700000206C0000203001234284012242F4
:1031400000002242FE48047022460221FD48006829
:103150005030FEF7F4FE2CE0012C15D1F848007831
:10316000A04208D1F648047022460221F6480068C1
:10317000FEF7E5FE1DE0F248047022460221F34806
:103180000068FEF7DCFE14E0ED480078A04208D1AC
:10319000EB48047022460221ED480068FEF7CFFE9E
:1031A00007E0E748047022460221E6480068FEF77F
:1031B000C6FEE848007800287CD1E748007A401C29
:1031C000E5490872012048724FF4FA70FEF759FC85
:1031D00070E0E148007A02281AD1DF48407A38B11D
:1031E0000020DD494872012211462846FEF7A7FE5D
:1031F000DA48007800285DD1D748007A401CD649CB
:103200000872012048724FF4FA70FEF73AFC51E060
:10321000D148007A03281BD1CF48407A68B184F0A6
:103220000100C749087084F0010202214FF4C86010
:10323000FEF785FE0020C8494872C648007858BB92
:103240000120C54948720846007A401C087231E0E6
:10325000C148007A042820D1BF48407A90B184F058
:103260000100BF49086084F00100BA4981F8840078
:103270004FF47A7008610020486003200870002035
:10328000B5494872B348007830B90120B249487254
:103290000846007A401C08720CE00120AE494872D2
:1032A000087248734FF4FA70FEF7EBFB4FF4FA70B4
:1032B000FEF7E7FB70BD2DE9FC4104460D46A6482C
:1032C000807B01285AD1A448C078012873D1A14835
:1032D000007820BBA3480068012804D0A148143816
:1032E000006801281BD1052232210846FDF7BBF8F2
:1032F00001209D49086000209C49C1F880019A493D
:1033000008310860FF2161236D22CDE900100321FF
:1033100001F00AF906209049C870BDE8FC81002040
:103320009149086001209149C1F8800100208E492F
:103330000831086029462046FFF72AFE8648407B70
:103340000128BFD184480078202818D1062082495E
:10335000C8700020052161236D22CDE900100321F2
:1033600001F0E2F84FF4FA70FEF78BFB4FF4FA70BD
:10337000FEF787FB4FF4FA70FEF783FB95E1002020
:10338000022161236D22CDE90010032101F0CCF868
:103390007148C078401C7049C8704FF4FA70FEF74D
:1033A00070FB4FF4FA70FEF76CFB4FF4FA70FEF707
:1033B00068FB7AE1FFE76848C078022871D16C4861
:1033C0000CC800206B4905F02AFD064605F0D6FD25
:1033D00080466149097801F0010181F00100002275
:1033E0004146FFF70CFE5C48407B0128C6D1594896
:1033F000007818BB5B480068012804D0594814388D
:10340000006801281AD1052232210846FDF72BF861
:1034100001205549086000205449C1F880015249F3
:1034200008310860FF2161236D22CDE900100321DE
:1034300001F07AF806204849C8706EE7464840789F
:1034400080B9052232210846FDF70DF8002003213E
:1034500061236D22CDE9001001F066F805203E4998
:10346000C87022E1FFF7BAFDE0B10020F02161232E
:103470006D22CDE90010032101F056F8052232211A
:103480000846FCF7F0FF0120374908600020374963
:10349000C1F8800134490831086005202E49C87000
:1034A000C0E019E00020032161236D22CDE9001066
:1034B00001F03AF82848C078401C2749C8704FF4FA
:1034C000FA70FEF7DEFA4FF4FA70FEF7DAFA4FF40C
:1034D000FA70FEF7D6FAE8E01F48C07803284BD10F
:1034E0001D484078012803D01B4840780228B8D1F5
:1034F000194A928B323291B2174AD08BFFF748FDAE
:103500001548407B0128ACD10020042161236D22A5
:10351000CDE90010032101F007F80F48C078401CE6
:103520000D49C8704FF4FA70FEF7ABFA4FF4FA7019
:10353000FEF7A7FA4FF4FA70FEF7A3FAB5E0000021
:10354000930000206C000020680000206400002030
:1035500070000020C4020020540300203402002028
:10356000900121422C012342840122420000224288
:103570005000002000804140FE48C07804284CD113
:10358000FD480CC80020FD4905F049FC064605F041
:10359000F5FC8046F7494978491009B9012100E056
:1035A0000021084601224146FFF7E8FBF148407B35
:1035B00001287AD1F248007818BBF2480068012847
:1035C00004D0F0481438006801281AD105223221AD
:1035D0000846FCF748FF0120EB4908600020EB4952
:1035E000C1F88001E84908310860FF2161236D229C
:1035F000CDE90010032100F097FF0620DD49C870D7
:103600008BE60020052161236D22CDE90010032106
:1036100000F08AFFFFF780FB47E0D648C078052816
:1036200041D100BFD349097801F0010181F00100C7
:103630000022D7490968FFF7A1FBCE48407B01284B
:1036400033D1CC48C078401CCA49C8704FF4FA70D6
:10365000FEF717FA4FF4FA70FEF713FA4FF4FA7008
:10366000FEF70FFA4FF4FA70FEF70BFA4FF4FA7008
:10367000FEF707FA4FF4FA70FEF703FA4FF4FA7008
:10368000FEF7FFF94FF4FA70FEF7FBF94FF4FA700A
:10369000FEF7F7F94FF4FA70FEF7F3F94FF4FA700A
:1036A000FEF7EFF901E0FFF737FB00BF35E62DE944
:1036B000FC4104460D46AF48C07B01286FD1AD48A0
:1036C000807801286CD1AB48407818B90320A9490B
:1036D000887039E0AA48007820BBAA480068012811
:1036E00004D0A8481438006801281BD105223221D3
:1036F0000846FCF7B8FE0120A34908600020A34952
:10370000C1F88001A04908310860FF2161236D22C2
:10371000CDE90010032100F007FF072095498870CC
:10372000BDE8FC8100209849086001209749C1F854
:1037300080010020C1F88C018E4A928B143A91B21C
:103740008C4AD08BFFF724FC8A48407B0128B5D1F6
:103750008848807A062807DD002086498872012083
:10376000087306208870DBE700BF00200221612378
:103770006D22CDE90010032100F0D6FE7D4880784F
:10378000401C7C4988704FF4FA70FEF77AF94FF4C8
:10379000FA70FEF776F94FF4FA70FEF772F99FE1CE
:1037A00074488078022872D172494978491009B961
:1037B000012100E0002108460122764909683231E2
:1037C000FFF71DFC6B48407B0128E8D16C4800786E
:1037D00018BB6C480068012804D06A481438006897
:1037E00001281AD1052232210846FCF73CFE0120AF
:1037F0006549086000206549C1F8800162490831C7
:103800000860FF2161236D22CDE90010032100F043
:103810008BFE07205749887082E7FFF7DFFBD8B19E
:103820000020F02161236D22CDE90010032100F07A
:103830007BFE052232210846FCF715FE0120524985
:10384000086000205149C1F880014F4908310860E3
:10385000052048498870D4E00020032161236D22AF
:10386000CDE9001000F060FE42488078401C4149DC
:1038700088704FF4FA70FEF704F94FF4FA70FEF70F
:1038800000F94FF4FA70FEF7FCF829E1FFE7394838
:103890008078032834D129462046FFF779FB354844
:1038A000407B0128F1D133484078012803D03148CA
:1038B0004078022809D10020042161236D22CDE93E
:1038C0000010032100F030FE08E0002002216123F7
:1038D0006D22CDE90010032100F026FE25488078F6
:1038E000401C244988704FF4FA70FEF7CAF84FF470
:1038F000FA70FEF7C6F84FF4FA70FEF7C2F8EFE080
:103900001C488078042877D11B480CC80020224925
:1039100005F085FA064605F031FB80461549097821
:1039200001F0010181F0010000224146FFF726FA73
:103930001048407B0128A8D11148007870BB11487D
:103940000068012804D00F4814380068012830D1DD
:10395000052232210846FCF786FD01200A4908604D
:1039600000200A49C1F88001074908310860FF2199
:10397000612314E0540300205000002000004C405C
:10398000C40200202C012342840122420000224272
:1039900084000020880000200080414009E06D2262
:1039A000CDE90010032100F0BFFD0720F849887021
:1039B000B6E6F7484078012803D0F5484078022859
:1039C0000BD10020052161236D22CDE900100321D8
:1039D00000F0AAFDFFF7A0F907E000200321612312
:1039E0006D22CDE9001000F09FFDE9488078C01CF1
:1039F000E749887074E0FFE7E5488078052843D1FF
:103A000000BFE3494978491009B9012100E00021CC
:103A100008460022DF490968FFF7B0F9DC48407B1F
:103A200001285DD1DA488078801CD94988704FF42C
:103A3000FA70FEF726F84FF4FA70FEF722F84FF40A
:103A4000FA70FEF71EF84FF4FA70FEF71AF84FF40A
:103A5000FA70FEF716F84FF4FA70FEF712F84FF40A
:103A6000FA70FEF70EF84FF4FA70FEF70AF84FF40A
:103A7000FA70FEF706F84FF4FA70FEF702F84FF40A
:103A8000FA70FDF7FEFF2BE0C148807806281CD1B4
:103A9000BF48007B01280DD10020BD490873BE49F5
:103AA0000860BE4981F8840048604CF250300861DB
:103AB00003200870BA480079012811D10020B849C4
:103AC00008710120B24988704FE6FFF725F9002000
:103AD000AF49C873012088700020487348828882EB
:103AE00000BF1DE670B505460C4625B1012D39D045
:103AF000022D68D129E0AB480068012812D0A948FE
:103B0000001D006801280DD0A64808300068012873
:103B100008D0A5480068012804D0A34814380068DC
:103B2000012805D1012232210846FCF79CFC70BD1A
:103B30009A4880F8844090F88400974908600020F3
:103B400096494860012008703DE0984880F884401C
:103B500090F884009649086000209449486001204C
:103B6000087030E08F480068012818D08D48001D8B
:103B70000068012813D08B480830006801280ED057
:103B8000012C03D188480C38006840B18648006891
:103B9000012804D0844814380068012805D1012286
:103BA00032210846FCF75FFCC1E7824880F8844078
:103BB00090F884007B49A431086000207D4948606A
:103BC0000120087000BF00BF00BFB0E71CB57448FB
:103BD000C07801284AD172484078012847D17048FE
:103BE0000078002833D101206D4908706E480068C4
:103BF000012814D16C481438006880B901206C4940
:103C000008606A4981F8840040F6C4100861002009
:103C100048600320087001206149487117E062483C
:103C200014380068012812D15F48006878B9002074
:103C30005F4908605D4981F8840040F6C41008615E
:103C400000204860032008700120554948715748FA
:103C500000780028BED152484078401C5049487036
:103C6000002008704FF4FA70FDF70BFF09E14C4893
:103C7000407802284DD14A480078002839D14A4876
:103C80000068012804D0484814380068012809D188
:103C90000020FF2161236D22CDE90010032100F0F7
:103CA00043FC1CBD40480C38006848B13E480C3805
:103CB000006801280AD13C48001F0068012805D18E
:103CC00003203749487000200870EAE73648001F93
:103CD000006870B90120324908703249A431086087
:103CE000344981F88400C82008610020486003201E
:103CF0000870304800780028B8D129484078401C26
:103D000027494870002008704FF4FA70FDF7B9FE9B
:103D1000B7E023484078032850D121480078E0B923
:103D200001201F49087000201E49A4310860214964
:103D300081F8840048604CF250300861032008701C
:103D400000201D49C1F89401144981F8840048609D
:103D50004CF25030086103200870164800780028A3
:103D600084D10E4800780028D2D10D48007901286E
:103D7000CED100200A49087108464078401C48709E
:103D8000002008704FF4FA70FDF77BFE79E0000028
:103D9000540300208800002094012242A401002046
:103DA0008C0000200C8121422C012342C4020020FF
:103DB000900121423402002000002242F74840785E
:103DC000042821D1F548007870B90120F349087022
:103DD000F3490860F34981F884004FF4FA700861F0
:103DE0000020486003200870EE480078002848D181
:103DF000EA484078401CE9494870002008704FF4B8
:103E0000FA70FDF73EFE3CE0E4484078052824D1F6
:103E1000E248007878B90120E04908700020E049C4
:103E20000860E04981F884004FF47A70086100204E
:103E3000486003200870DB48007810BB0020DA4996
:103E40000870D6484078401CD4494870002008705B
:103E50004FF4FA70FDF715FE13E00120CF4988708A
:103E6000487000200870C870052161236D22CDE9DB
:103E70000010032100F058FB012232210846FCF714
:103E8000F2FA00BF0DE72DE9F04104460D46164653
:103E90001F46DDF8188043463A4631462846A0477B
:103EA000BDE8F08130B5C14C2468012C12D0BF4C64
:103EB000241D2468012C0DD0BC4C08342468012C2E
:103EC00008D0BB4C2468012C04D0B94C143C2468A5
:103ED000012C00D130BD0324B64DEC8220242C707F
:103EE0006A82AB8200246C70EC83F024AC830124E2
:103EF000B14D2C70AF4DAC73EC7000246C73012489
:103F00002C716C7100BFE5E730B5A84C2468012C1A
:103F100012D0A64C241D2468012C0DD0A34C0834CB
:103F20002468012C08D0A24C2468012C04D0A04C99
:103F3000143C2468012C00D130BD03249D4DEC823B
:103F40002C4621706A8203F11404AC822C46607006
:103F50009A4C2488EC839A4C2488AC830124964D97
:103F60002C70944DEC73AC702C716C71AC71EC7165
:103F70002C726C7200246C7300BFDDE730B58B4C83
:103F80002468012C12D0894C241D2468012C0DD0EA
:103F9000864C08342468012C08D0854C2468012CF8
:103FA00004D0834C143C2468012C00D130BD032480
:103FB000804DEC822C4621706A82A3F11404AC82FD
:103FC0002C4660707D4C2488EC837D4C2488AC8327
:103FD0000124794D2C70774DAC73EC702C716C71A1
:103FE000AC71EC712C726C7200246C7300BFDDE755
:103FF00001206A49C8700020887070470346012A72
:1040000002D0022A6FD121E10C2B6DD2DFE803F040
:10401000061B30455A71869BB0DAF1EF0A2910D29F
:10402000DFE801F005060708090A0B0C0D0E08E091
:1040300007E006E005E004E003E002E001E000E064
:1040400000BF00BF00E10A2910D2DFE801F0050639
:104050000708090A0B0C0D0E08E007E006E005E072
:1040600004E003E002E001E000E000BF00BFEBE09D
:104070000A2910D2DFE801F005060708090A0B0C2F
:104080000D0E08E007E006E005E004E003E002E0D2
:1040900001E000E000BF00BFD6E00A2910D2DFE84F
:1040A00001F005060708090A0B0C0D0E08E007E0F1
:1040B00006E005E004E003E002E001E000E000BF0C
:1040C00000BFC1E00A2912D2DFE801F005060708A7
:1040D000090A0B0C0F100AE009E008E007E006E00F
:1040E00005E004E003E0BBE1ADE000E000BF00BF9D
:1040F000AAE00A2910D2DFE801F005060708090A3C
:104100000B0C0D0E08E007E006E005E004E003E01C
:1041100002E001E000E000BF00BF95E00A2910D2F4
:10412000DFE801F005060708090A0B0C0D0E08E090
:1041300007E006E005E004E003E002E001E000E063
:1041400000BF00BF80E00A2910D2DFE801F00506B9
:104150000708090A0B0C0D0E08E007E006E005E071
:1041600004E003E002E001E000E000BF00BF6BE01C
:104170000A2910D2DFE801F005060708090A0B0C2E
:104180000D0E08E007E006E005E004E003E002E0D1
:1041900001E000E000BF00BF56E000008C000020FE
:1041A00090012142C4020020930000200C81214292
:1041B0002C012342540300207500002080000020C1
:1041C0007C0000200A2910D2DFE801F0050607086C
:1041D000090A0B0C0D0E08E007E006E005E004E01C
:1041E00003E002E001E000E000BF00BF2CE015E0CA
:1041F000FFE70A2910D2DFE801F005060708090ADF
:104200000B0C0D0E08E007E006E005E004E003E01B
:1042100002E001E000E000BF00BF15E00A2910D273
:10422000DFE801F005060708090A0B0C0D0E08E08F
:1042300007E006E005E004E003E002E001E000E062
:1042400000BF00BF00E000BF00BF09E10C2B70D22F
:10425000DFE803F0061B30455A70859AAFC4D9EEEB
:104260000A2910D2DFE801F005060708090A0B0C3D
:104270000D0E08E007E006E005E004E003E002E0E0
:1042800001E000E000BF00BFE8E00A2910D2DFE84B
:1042900001F005060708090A0B0C0D0E08E007E0FF
:1042A00006E005E004E003E002E001E000E000BF1A
:1042B00000BFD3E00A2910D2DFE801F005060708A5
:1042C000090A0B0C0D0E08E007E006E005E004E02B
:1042D00003E002E001E000E000BF00BFBEE00A2909
:1042E00010D2DFE801F005060708090A0B0C0D0ED5
:1042F00008E007E006E005E004E003E002E001E09A
:1043000000E000BF00BFA9E00A2910D2DFE801F0F9
:1043100005060708090A0B0C0D0E08E007E006E089
:1043200005E004E003E002E001E000E000BF00BFC0
:1043300094E092E00A2910D2DFE801F005060708B0
:10434000090A0B0C0D0E08E007E006E005E004E0AA
:1043500003E002E001E000E000BF00BF7EE00A29C8
:1043600010D2DFE801F005060708090A0B0C0D0E54
:1043700008E007E006E005E004E003E002E001E019
:1043800000E000BF00BF69E00A2910D2DFE801F0B9
:1043900005060708090A0B0C0D0E08E007E006E009
:1043A00005E004E003E002E001E000E000BF00BF40
:1043B00054E00A2910D2DFE801F005060708090ACF
:1043C0000B0C0D0E08E007E006E005E004E003E05A
:1043D00002E001E000E000BF00BF3FE00A2910D288
:1043E000DFE801F005060708090A0B0C0D0E08E0CE
:1043F00007E006E005E004E003E002E001E000E0A1
:1044000000BF00BF2AE00A2910D2DFE801F005064C
:104410000708090A0B0C0D0E08E007E006E005E0AE
:1044200004E003E002E001E000E000BF00BF15E0AF
:104430000A2910D2DFE801F005060708090A0B0C6B
:104440000D0E08E007E006E005E004E003E002E00E
:1044500001E000E000BF00BF00E000BF00BF00BF00
:1044600000BF704710B586B004460121880403F0F0
:1044700068F90121082003F057F9FD4804F0C6F857
:104480004FF48060ADF8140003208DF8160018205A
:104490008DF8170005A9F74802F06AFE4FF4006096
:1044A000ADF8140004208DF8170005A9F14802F0BA
:1044B0005FFE01940020ADF80800ADF80A00ADF8E9
:1044C0000C00ADF810000C20ADF80E0001A9E84872
:1044D00004F0DFF80120E84908608021E44804F096
:1044E0004CFA0121E24804F060F9012240F2255122
:1044F000DF4804F066F927208DF8000002208DF8CF
:10450000010003208DF8020001208DF803006846A9
:1045100002F0D7FC0020D949097801EB0111D84AF3
:1045200002F8110006B010BD2DE9F05F054688467F
:1045300091469A460B9EE80000F10A07384604F0BF
:10454000ABFE04463946204604F07DFAAA202070CE
:1045500055206070A57084F8038084F8049084F876
:1045600005A00A98A071012D18D1307820727078BA
:104570006072B078A072F078E07230792073707950
:104580006073B079A073F079E073A021E80008307F
:1045900021545F21E8000930215407E0A021E80000
:1045A000083021545F21E80009302154022012E034
:1045B000072809D0082101EBC501814204D0092157
:1045C00001EBC501814200D104E0E179225C114494
:1045D000E17100BF401CE9000A318142E8DC4FF084
:1045E000000B0DE000BF4021A14804F0B9F90128FB
:1045F000F9D114F80B109E4804F044F90BF1010BAB
:10460000BB45EFD3204604F01FFEBDE8F09F2DE927
:10461000FC5F9C48C08A082805D2DFE800F004054A
:1046200006CFFEFDFCFBCCE2FDE79749D1F8800008
:1046300004F083FC804695480CC8404604F07DFB9E
:1046400006460022924B04F0D1FA04460022914B18
:1046500004F0E5FB824604F091FC8F4908708A491A
:10466000D1F8800004F069FCCDE9000187480CC84E
:10467000009804F062FB06460022854B04F0B6FA6F
:1046800004460022854B04F0CAFB804604F076FC09
:1046900000F0FF0A4FEAEA700AEB10600012AAEB82
:1046A00000207D4948707E49D1F8800004F045FC27
:1046B00080467C480CC8404604F03FFB82460022FE
:1046C000734B04F093FA06460022724B04F0A7FBEA
:1046D000044604F053FC704988707149D1F8800099
:1046E00004F02BFC80466F480CC8404604F025FBC4
:1046F00006460022664B04F079FA04460022674B16
:1047000004F08DFBCDE9000104F038FC00F0FF0A55
:104710004FEAEA700AEB10600012AAEB00205E4933
:10472000C8706148006D002802DA0120087102E0BB
:104730000020594908715C49086D04F0EDFB5B4AA3
:104740005B4BCDE9000104F0F8FA06460022504B1D
:1047500004F04CFA80460022504B04F060FB044603
:1047600004F00CFC00F0FF0A4FEAEA700AEB10605C
:104770000012AAEB0020484948714248408BB0F52E
:104780007A7F04D03F48807E401C887102E0F02090
:10479000414988713B48007E3F49C8710846002165
:1047A00061236D22CDE9001002210120FFF7BCFE3C
:1047B000012232210846FBF756FEA0E3314800787B
:1047C00011287DD005DC48B101287AD0102879D194
:1047D000DEE0202877D03028F9D189E12A48007816
:1047E000002871D12E48007800287DD12E4800780D
:1047F000002879D12F480068012817D02D48001DC6
:104800000068012812D02B480830006801280DD01C
:10481000294803E061E30FE387E2D3E10068012860
:1048200004D025481438006801280FD10020FF214A
:1048300061236D22CDE900100321FFF775FE0522EB
:1048400032210846FBF70FFEBDE8FC9F0020012146
:1048500061236D22CDE900100321FFF765FE0120E1
:104860001649087007498873C870087148712CE0B0
:1048700000480040000C0140BC0121429F00002084
:104880007403002054030020A401002048000020ED
:104890000000E03F00007040970000200000F03F63
:1048A0003402002050000020C40200200AD7A37068
:1048B0003D0AB73F0C8121422C01234275000020A4
:1048C000BEE012E07CE130E10EE08871C871087250
:1048D00048720846808A1438888200204873012272
:1048E00032210846FBF7BFFD6AE1FB48007800284B
:1048F0004DD1FA480078002849D1F94800780028BD
:1049000045D1F8480068012812D0F648001D00681B
:1049100001280DD0F34808300068012808D0F2487B
:104920000068012804D0F0481438006801280ED12E
:104930000020FF2161236D22CDE900100321FFF744
:10494000F3FD052232210846FBF78DFD7CE70020B0
:10495000012161236D22CDE900100321FFF7E4FD61
:104960000120E2490870E2498873C87008714871F3
:104970008871C871087248720846808A1438888223
:1049800000204873012232210846FBF76CFD17E135
:10499000D1480078002852D1D048007800284ED164
:1049A000CF48007800284AD1CE480068012812D0AC
:1049B000CC48001D006801280DD0CA4808300068A6
:1049C000012808D0C8480068012804D0C648143817
:1049D000006801280ED1052232210846FBF743FD6D
:1049E0000020FF2161236D22CDE900100321FFF794
:1049F0009BFD29E70020012161236D22CDE90010F4
:104A00000321FFF791FDBA48807A401CB8498872AB
:104A10000120B6490870B649C8738870087148719A
:104A20008871C87108724872002048730846808AED
:104A300014308882012232210846FBF714FDBFE0C2
:104A4000A5480078002852D1A448007800284ED10B
:104A5000A348007800284AD1A2480068012812D053
:104A6000A048001D006801280DD09E48083000684D
:104A7000012808D09C480068012804D09A481438BE
:104A8000006801280ED10020FF2161236D22CDE9AD
:104A900000100321FFF748FD052232210846FBF7ED
:104AA000E2FCD1E60020012161236D22CDE9001056
:104AB0000321FFF739FD8E48807A401C8C498872AB
:104AC00001208A4908708A49C87388700871487142
:104AD0008871C87108724872002048730846808A3D
:104AE00014308882012232210846FBF7BCFC67E0C3
:104AF00079480078C0B979480078A8B97848007832
:104B000090B90020012161236D22CDE9001003211D
:104B1000FFF70AFD01207749C87000208870012244
:104B200032210846FBF79FFC4AE06B480078E8BB5F
:104B30006A480078D0BB6A480078B8BB694800680A
:104B4000012812D06748001D006801280DD0654873
:104B500008300068012808D063480068012804D0A4
:104B600061481438006801280ED105223221084618
:104B7000FBF779FC0020FF2161236D22CDE90010B5
:104B80000321FFF7D1FC5FE60020012161236D22A4
:104B9000CDE900100321FFF7C7FC0120534908703D
:104BA00053498873C8700020487300E007E0012073
:104BB00008714871012232210846FBF754FC00BFFE
:104BC00000BF9CE101204A490874002001216123B3
:104BD0006D22CDE900100321FFF7A6FC44480078C0
:104BE00000F0300020B1102850D0202839D139E011
:104BF0003C480068012812D03A48001D006801288E
:104C00000DD0384808300068012808D036480068C0
:104C1000012804D034481438006801280ED100203F
:104C2000FF2161236D22CDE900100321FFF77CFCF9
:104C3000052232210846FBF716FC05E62C480078D1
:104C400000F0010010B101280AD104E0002108465B
:104C5000FEF748FF04E001210020FEF743FF00BFFC
:104C600000BF5BE02248007800F0010010B101288D
:104C70000AD104E001210220FEF734FF04E0002104
:104C80000220FEF72FFF00BF00BF47E01548006875
:104C9000012812D01348001D006801280DD01148CA
:104CA00008300068012808D00F480068012804D0A7
:104CB0000D481438006801281ED10020FF2161230F
:104CC0006D22CDE900100321FFF72EFC05223221D1
:104CD0000846FBF7C8FBB7E5A4010020340200201A
:104CE000C40200200C8121422C01234275000020C7
:104CF000540300208C000020FE48007800F00100E2
:104D000028B1012808D10021FEF7ECFE04E00121C2
:104D10000846FEF7E7FE00BF00BF00BF00BF01224C
:104D200032210846FBF79FFBE9E0002001216123C7
:104D30006D22CDE900100321FFF7F6FBED48007866
:104D40000411002C01DD102400E0002404F0100008
:104D500010B1102869D12DE0E648007800F00F006E
:104D6000082821D2DFE800F02004080C1014181CD9
:104D70000020E04908761BE00120DE49087617E0B4
:104D80000220DC49087613E00320DA4908760FE0B8
:104D90000420D84908760BE00520D649087607E0BC
:104DA0000620D449087603E00020D249087600BFE7
:104DB00000BF3AE0CF48007800F0F00000F00F01AB
:104DC00069BB001110282AD2DFE800F029080C1076
:104DD00014181C2029292929292929240020C549FA
:104DE000488320E00120C34948831CE00220C149D8
:104DF000488318E00320BF49488314E00420BD49DC
:104E0000488310E00520BB4948830CE00620B949DF
:104E1000488308E04FF47A70B649488303E00020E5
:104E2000B449488300BF00BF00BF00BF0122322148
:104E30000846FBF718FB62E00020012161236D2288
:104E4000CDE900100621FFF76FFBAA48007880BB70
:104E50000020A949087000214FF0804003F0F8F8C5
:104E60000020A64908700021A54803F0F1F80020B1
:104E7000A44908700021A44803F0EAF800209D49E5
:104E80008873C873888248820120A04908709949B4
:104E9000C8708870087148718871C871087248724A
:104EA0000020487301209A49487000200870C8709B
:104EB0000DE0FFE70120974908609749087040F22C
:104EC000DC50FCF7DEFD40F2DC50FCF7DAFD01229D
:104ED00032210846FBF7C7FA11E0002001216123C7
:104EE0006D22CDE900100721FFF71EFB002083494A
:104EF0000865012232210846FBF7B5FA00BF00BF62
:104F000000BFA1E410B58548007800287DD0834813
:104F10000078401E00EB0010814901EB400090F842
:104F200020107E480078401E00EB00107C4A02EB07
:104F30004000007A814226D0002178480078401E47
:104F400000EB001002EB400080F82010734800785E
:104F5000401E00EB001002F8101070490978491E3D
:104F600001EB011102EB4101481C1E2103F06BFD16
:104F70006A480078401E69490870032232210846B9
:104F8000FBF771FA10BD65480078401E00EB001079
:104F9000634901EB400040796D2836D100215F481C
:104FA0000078401E00EB00105D4A02EB40000172E9
:104FB0005A480078401E00EB001002F810105748C5
:104FC0000078401E00EB001002EB400080F820103B
:104FD00052480078401E00EB0010114601EB4000E3
:104FE00000794449C8824D480078401E00EB00100B
:104FF000114601EB4000C0793E49087047480078EF
:10500000401E00EB0010114600E08EE001EB400076
:10501000807800285DD041480078401E00EB0010E9
:1050200001EB4000817A3D480078401E00EB001003
:1050300002EB4000407A01EB00202E4948823748BD
:105040000078401E00EB0010114601EB4000017B90
:1050500032480078401E00EB001002EB4000C07A9E
:1050600001EB0020234988822C480078401E00EB89
:105070000010114601EB4000407B1E494870274854
:105080000078401E00EB0010114601EB4000C17B90
:1050900022480078401E00EB001002EB4000807BAD
:1050A00001EB00201349C8831C480078401E00EB28
:1050B0000010114601EB4000417C18480078401E6A
:1050C00000EB001002EB4000007C01EB00200949DE
:1050D000888312490978491E01EB0111104A02EB3D
:1050E0004101481C1E2103F0AEFC0C480078401E14
:1050F0000A4917E054030020A4010020C402002044
:105100000004004034020020000800407500002028
:105110008C00002094012142940000209F00002078
:10512000740300200870FFF772FA00BF2AE710B579
:1051300040F22551FE4803F053FCFD4803F0A6FB66
:10514000FC49097801EB0111FB4A02EB4101C877E8
:10515000FA4800780B2856D2DFE800F00656A6F28F
:10516000F0EFEEEDECEBEA00F248007800EB001017
:10517000F14901EB4000C07FAA2829D1ED48007811
:1051800000EB001001EB4000C17FEA48007800EB23
:105190000010E94A02EB4000401CE64A127802EB9C
:1051A0000212E54B13F8122081540120E3490870E4
:1051B000E048007800EB0010194611F81000401C80
:1051C000DC49097801EB01111A4602F811001AE0D6
:1051D0000020DA490870D749097801EB0111D64A55
:1051E00002F81100D349097801EB011102EB4101EA
:1051F00081F820000120CF49097801EB011102EB71
:10520000410181F8210065E3CA48007800EB0010F5
:10521000C94901EB4000C07F552829D1C548007815
:1052200000EB001001EB4000C17FC248007800EBAA
:105230000010C14A02EB4000401CBE4A127802EB4B
:105240000212BD4B13F8122081540220BB49087092
:10525000B848007800EB0010194611F81000401C07
:10526000B449097801EB01111A4602F811001AE05D
:105270000020B2490870AF49097801EB0111AE4A2C
:1052800002F81100AB49097801EB011102EB410171
:1052900081F820000120A749097801EB011102EBF8
:1052A000410181F8210015E3A248007800EB0010CD
:1052B000A14901EB4000C17F9E48007800EB00103F
:1052C0009D4A02EB4000401C9A4A127802EB0212FF
:1052D000994B13F81220815403209849087095487F
:1052E000007800EB0010194611F81000401C91499D
:1052F000097801EB01111A4602F811008D48007877
:1053000000EB0010114601EB400090F820008949A5
:10531000097801EB011102EB4101C97F084485497D
:10532000097801EB011102EB410181F82000D1E283
:105330007DE22CE27FE11CE1CEE089E044E0FFE782
:105340007C48007800EB00107B4901EB4000C17FF6
:105350007848007800EB0010774A02EB4000401CD0
:10536000744A127802EB0212734B13F81220815424
:105370000420724908706F48007800EB001019464D
:1053800011F81000401C6B49097801EB01111A4615
:1053900002F811006748007800EB0010114601EB9D
:1053A000400090F820006349097801EB011102EBFD
:1053B0004101C97F08445F49097801EB011102EB03
:1053C000410181F8200085E25A48007800EB001086
:1053D000594901EB4000C17F5648007800EB0010AE
:1053E000554A02EB4000401C524A127802EB02126E
:1053F000514B13F8122081540520504908704D4834
:10540000007800EB0010194611F81000401C4949C3
:10541000097801EB01111A4602F81100454800789D
:1054200000EB0010114601EB400090F820004149CC
:10543000097801EB011102EB4101C97F08443D49A4
:10544000097801EB011102EB410181F8200041E2F2
:105450003848007800EB0010374901EB4000C17F6D
:105460003448007800EB0010334A02EB4000401C47
:10547000304A127802EB02122F4B13F8122081549B
:1054800006202E4908702B48007800EB00101946C2
:1054900011F81000401C2749097801EB01111A4648
:1054A00002F811002348007800EB0010114601EBD0
:1054B000400090F820001F49097801EB011102EB30
:1054C0004101C97F08441B49097801EB011102EB36
:1054D000410181F82000FDE11648007800EB001042
:1054E000154901EB4000C17F1248007800EB001025
:1054F000114A02EB4000401C0E4A127802EB0212E5
:105500000D4B13F81220815407200C4908700948EC
:10551000007800EB0010194611F81000401C0549F6
:10552000097801EB01111A4602F81100014807E061
:10553000004800409F00002074030020A0000020CD
:10554000007800EB0010114601EB400090F82000BD
:10555000E149097801EB011102EB4101C97F0844DF
:10556000DD49097801EB011102EB410181F82000CE
:10557000B0E1D948007800EB0010D84901EB4000B9
:10558000C17FD548007800EB0010D44A02EB400000
:10559000401CD14A127802EB0212D04B13F81220B1
:1055A00081540820CE490870CB48007800EB0010E9
:1055B000194611F81000401CC749097801EB011188
:1055C0001A4602F81100C448007800EB001011469A
:1055D00001EB4000C07820B1012806D002280CD190
:1055E00007E00920BE49087023E00820BC49087084
:1055F0001FE00820BA4908701BE00020B849087075
:10560000B549097801EB0111B44A02F81100B24919
:10561000097801EB011102EB410181F82000012022
:10562000AD49097801EB011102EB410181F821003C
:1056300000BF00BF4EE1A848007800EB0010A7496A
:1056400001EB4000C078012802D002284DD14DE086
:10565000A148007800EB0010A04901EB4000C17F99
:105660009D48007800EB00109C4A02EB4000401C73
:10567000994A127802EB0212984B13F812208154C7
:105680009548007800EB0010194611F81000401CF6
:105690009149097801EB01111A4602F811008E4870
:1056A000007800EB0010114601EB400090F820005C
:1056B0008949097801EB011102EB4101C97F0844D6
:1056C0008549097801EB011102EB410181F82000C5
:1056D0008148007800EB0010114611F81000C01F3F
:1056E000082802D109207E4908704EE07A480078E7
:1056F00000EB0010794901EB4000C17F764800784B
:1057000000EB0010754A02EB4000401C724A127810
:1057100002EB0212714B13F8122081546E4800788C
:1057200000EB0010194601EB400090F820006A4998
:10573000097801EB01111A4602EB4101C97F0844C7
:105740006549097801EB011102EB410181F8200064
:105750006148007800EB0010114611F81000C01FDE
:10576000102802D109205E4908705B48007800EBE0
:1057700000105A4911F81000401C5749097801EBF4
:105780000111564A02F8110000BF00BFA2E05248C2
:10579000007800EB0010514901EB4000C07FA028C9
:1057A00029D14D48007800EB001001EB4000C17F8B
:1057B0004948007800EB0010484A02EB4000401CCA
:1057C000454A127802EB0212444B13F8122081541E
:1057D0000A20434908704048007800EB0010194641
:1057E00011F81000401C3C49097801EB01111A46E0
:1057F00002F811001AE0002039490870364909788A
:1058000001EB0111354A02F811003349097801EB27
:10581000011102EB410181F8200001202E49097895
:1058200001EB011102EB410181F8210052E02A480D
:10583000007800EB0010294901EB4000C07F5F2891
:105840002CD12548007800EB001001EB4000C17F0F
:105850002148007800EB0010204A02EB4000401C79
:105860001D4A127802EB02121C4B13F812208154CD
:1058700000201B4908701849097801EB01111A46EC
:1058800002F8110014480078401C134908700020E9
:10589000097801EB011102F811001AE0002010490B
:1058A00008700D49097801EB01110C4A02F811004A
:1058B0000949097801EB011102EB410181F820004F
:1058C00001200549097801EB011102EB410181F842
:1058D000210000BF00BF10BD9F0000207403002006
:1058E000A000002010B586B004460121480401F054
:1058F00028FF0121042001F017FFF94802F086FE7D
:105900000420ADF8100003208DF8120018208DF847
:10591000130004A9F34801F02BFC0820ADF8100097
:1059200004208DF8130004A9EE4801F021FC009436
:105930000020ADF80400ADF80600ADF80800ADF8A1
:105940000C000C20ADF80A0026208DF8140003206E
:105950008DF8150001208DF816008DF8170005A8A8
:1059600001F0AFFA6946DE4802F093FE012240F2F0
:105970002551DB4802F025FF0121D94802F015FF2F
:105980008021D74802F0F9FF06B010BD70B505467A
:105990000E46002405E0315DD14802F073FF601C23
:1059A000C4B2AC42F7DB70BD10B540F22551CC4813
:1059B00003F016F8CC48007801286ED1C84802F0F0
:1059C00065FFCA490870CA48007805281DD2DFE87B
:1059D00000F0031D384E6500C4480078A5280DD19D
:1059E000C2480078C3490978C1EB0111C1EBC1017C
:1059F000C14A50540120BE49087006E00020BC494D
:105A00000870BE490860BE49087082E0B748007857
:105A10005A280ED1B5480078B6490978C1EB011172
:105A2000C1EBC101B44A114448700220B04908706A
:105A300006E00020AE490870B0490860B04908701F
:105A400067E0AA480078AB490978C1EB0111C1EBC6
:105A5000C101A94A11448870A9480078A34909786E
:105A60000844A74908700320A149087051E09F48E5
:105A70000078A0490978C1EB0111C1EBC1019E4A30
:105A80001144C8709E4800789849097808449C4998
:105A900008700420964908703BE03BE09348017889
:105AA00094480078C0EB0010C0EBC000924A10444C
:105AB000001D924A1268815490480068401C8F492A
:105AC00008608F4800788949097808448C49087033
:105AD00088480078C0EB0010C0EBC000864908443D
