:020000040800F2
:1000000060130020F58C0008450200084702000834
:100010004B0200084F0200085302000800000000D5
:10002000000000000000000000000000570200086F
:1000300059020008000000005B0200085D02000891
:100040000F8D00080F8D00080F8D00080F8D000820
:100050000F8D00080F8D0008992B0008C52A000895
:100060000F8D00080F8D0008292C00080F8D000847
:100070000F8D00080F8D00080F8D00080F8D0008F0
:100080000F8D00080F8D00080F8D00080F8D0008E0
:100090000F8D00080F8D00080F8D00080F8D0008D0
:1000A0000F8D00080F8D00080F8D00080F8D0008C0
:1000B0001B1800080F8D00080F8D00080F8D000819
:1000C0000F8D00080F8D00080F8D00080F8D0008A0
:1000D0000F8D00080F8D0008615C0008E7530008D1
:1000E0000F8D00080F8D00080F8D00080F8D000880
:1000F0000F8D00080F8D00080F8D00080F8D000870
:100100000F8D00080F8D0008B70900080F8D00083B
:100110000F8D00080F8D00080F8D00080F8D00084F
:100120000F8D00080F8D00080F8D00080F8D00083F
:10013000DFF80CD009F0BAF9004800474501000883
:10014000601300201CB501F0ABFB5AE002F066FB27
:1001500002F05EFA03F0AEFF32480078012850D179
:1001600005F02CF800202F49087003F0AEFD00F0D8
:1001700030FA06F0CCFB2C4A918A508A03F023F91E
:10018000294A918A508A03F011FB2848007800EB35
:100190000010274901EB400090F82100012827D1E9
:1001A00003223221084600F060F900201F49097837
:1001B00001EB01111E4A02EB410181F821001B49AC
:1001C000097801EB011102EB4101481C1E2108F0E6
:1001D000AAFD0020FF2161236D22CDE9001004F06B
:1001E000EFFA0021134808F050FC01201249087072
:1001F00012480078012804D10020114908600F49F5
:100200000870A3E770B504460D46E1B2094808F04E
:10021000A9FC00BF0748008800F080000028F9D042
:10022000204670BD330000206C030020B700002082
:100230008C03002000480040AE000020AC000020ED
:1002400094012142704700BFFEE700BFFEE700BFF8
:10025000FEE700BFFEE77047704770477047000039
:100260000CB50020019000906C48006840F480308C
:100270006A49086000BF6948006800F400300090D7
:100280000198401C0190009818B90198B0F5A06F32
:10029000F1D16248006800F4003010B101200090F4
:1002A00001E0002000900098012843D15C480068DC
:1002B00040F010005A4908600846006820F003002A
:1002C00008600846006840F0020008605348406833
:1002D000524948600846406848600846406840F413
:1002E000806048600846406820F47C1048600846FA
:1002F000406840F4E81048600846006840F08070AC
:10030000086000BF4548006800F000700028F9D080
:100310004248406820F00300404948600846406871
:1003200040F00200486000BF3C48406800F00C000C
:100330000828F9D10CBD10B5FFF792FF10BD10B51C
:100340003648006840F001003449086008464068BB
:10035000344908403149486008460068324908403D
:100360002E4908600846006820F48020086008468E
:10037000406820F4FE0048604FF41F008860FFF7DB
:10038000DAFF4FF000602949086010BD10B5002168
:1003900000200022214B5B6803F00C0121B10429ED
:1003A00006D0082928D107E0214B224C236027E002
:1003B0001F4B204C236023E0184B5B6803F4701044
:1003C000164B5B6803F48032022303EB904022B9A2
:1003D000194B4343174C23600DE0104B5B6803F44B
:1003E000003323B1144B4343124C236003E0104B02
:1003F0004343104C236003E00D4B0E4C236000BFC1
:1004000000BF064B5B68C3F303130C4CE15C094B64
:100410001B68CB40074C236010BD00000010024059
:10042000002002400000FFF8FFFFF6FE08ED00E0AC
:1004300000127A000000002000093D0004000020A6
:100440001748806940F010001549886115484068D8
:1004500020F47040134948600846406840F440501A
:1004600048600846C068C86070472DE9F0410746FB
:100470000C46154600260EE001200B490860384660
:1004800001F023FB00200949C1F8AC01204601F02E
:100490001CFB701CC6B2AE42EEDBBDE8F081000072
:1004A0000010024000100140AC0122420000224234
:1004B00008B50121202007F0A7FABD20ADF8000003
:1004C00048208DF803006946D44806F0C1FF08BDF6
:1004D00010B5D348006880B9D2480078002877D199
:1004E000032001F0F2FACE480068002870D1012004
:1004F000CC490870CC4908706AE0C9480C380068DB
:1005000088B9C8480078002862D1032001F0DDFADC
:10051000C3480C38006800285AD10120C14908702E
:10052000C249087054E0BE480838006888B9BD4820
:10053000007800284CD1032001F0C7FAB8480838E9
:100540000068002844D10120B6490870B8490870F5
:100550003EE0B3481438006878B9B2480078F8B97A
:10056000032001F0B2FAAE4814380068C0B9012087
:10057000AC490870AF4908702AE0A94810380068F3
:1005800078B9A848007858B9032001F09EFAA44829
:100590001038006820B90120A2490870A6490870E7
:1005A00016E09F481C38006878B99E48007878B9F2
:1005B000032001F08AFA9A481C38006840B90120EB
:1005C000984908709D49087002E00020954908701C
:1005D00010BD10B5FFF77CFF9348007801280CD1BF
:1005E00000209149087001221146052001F0CBFC42
:1005F0000122C8210846FFF738FF8C4800780128FF
:100600000CD100208949087000220121052001F049
:10061000BAFC0122C8210846FFF727FF844800786A
:1006200001280CD1002082490870002211460520C3
:1006300001F0A9FC01226421C820FFF716FF7D48C4
:10064000007801280CD100207A49087001207C49EB
:10065000C8704870087001226421C820FFF705FFA8
:100660007548007801280CD10020734908700022D9
:100670000221052001F087FC012232210846FFF704
:10068000F4FE6E48007801287ED100206B49087086
:10069000012232210846FFF7E8FE1E206949086062
:1006A00001220421674806F03EFC6648006866495E
:1006B000086066496648674AC2E900100A220821B4
:1006C000644806F0CBFB634903C9634A03C2232095
:1006D0006249086019220421604806F0BFFB5F48A8
:1006E00000685F4908605F495F48604AC2E90010DE
:1006F000232208215D4806F0B1FB5C4903C95C4A2E
:1007000003C2E3205B49086032220421594806F005
:10071000A5FB584800685849086000205749086000
:100720003C220421554806F099FB5448006854497E
:10073000086046205349086046220421514806F0CB
:100740008DFB50480068504908601E204F490860E2
:10075000502204214D4806F081FB4C4800684C496A
:10076000086040F684004B4908605A220421494839
:1007700006F074FB474800684749086040F684006B
:1007800046490860642200E046E00421434806F040
:1007900065FB424800684249086040F684004149D0
:1007A00008606E2204213F4806F058FB3D4800686F
:1007B0003D49086040F684003C49086078220421E5
:1007C0003A4806F04BFB394800683949086040F662
:1007D00084003849086082220421364806F03EFB36
:1007E00034480068344908606420344908608C2229
:1007F0000421324806F032FB304800683049086076
:10080000AA2030490860962204212E4806F026FBD3
:100810002C4800682C49086010BD000000140140FD
:100820001C81224214000020150000201600002028
:100830001700002018000020190000201A000020D6
:100840009C000020D800002044000020295C8FC2BA
:10085000F528DC3FE000002048000020E8000020F0
:1008600078000020C3F5285C8FC2D53FF00000203F
:1008700050000020F80000207C000020FC00002038
:10088000800000200001002058000020040100200A
:100890005C00002008010020600000200C01002006
:1008A00064000020100100206800002014010020D6
:1008B0006C000020180100207000002020010020A2
:1008C000840000201C0100208800002008B50121C0
:1008D000102007F099F80420ADF8000010208DF8E2
:1008E000030003208DF802006946044806F0B0FDBD
:1008F0000421024806F059FE08BD00000010014026
:100900007FB505460C460121082007F08AF8ADF8AE
:100910000850ADF804400020ADF80A00ADF806001C
:1009200001A9FE4807F0A8F901221146FB4807F08B
:100930001AFD32208DF8000000208DF80100032000
:100940008DF8020001208DF80300684606F029FCAE
:100950000121F24807F0ECFC7FBD7FB505460C464F
:100960000121084607F05DF8ADF80850ADF80440E5
:100970000020ADF80A00ADF8060001A94FF0804054
:1009800007F07AF901221146900707F0ECFC1C20D1
:100990008DF8000001208DF8010003208DF8020081
:1009A00001208DF80300684606F0FBFB0121880753
:1009B00007F0BEFC7FBD00B589B00121D74807F024
:1009C00080FF00287ED00121D44807F08BFFD44857
:1009D000007800B3D3480078D1490978884207D01D
:1009E000CF480078401ED04908700020CF490880C9
:1009F000CB480078CB490870CB48007858B1CB4839
:100A00000088401CC949088008460088C82803DAC5
:100A10000120C749086010E0C4480088B0F5FA7F9B
:100A200003DA0020C249086007E00020BF490880BF
:100A3000BD480078401EBC4908700120BD490870BF
:100A4000BD48007802287DD1BB484069401CBA49A6
:100A50004861084690F8720007284AD2DFE800F0A3
:100A600049044ABEDEFDFC00B348C06F0790B2489F
:100A7000C0680690079908F03FFC33D2AE48406842
:100A8000AD49886108464069486308464069069058
:100A900008F0ADFB0790A848806F014606900798C4
:100AA00008F0A4F9A449C86008464069049008F019
:100AB0009EFB0590A048C06801460490059808F088
:100AC00095F900E0FEE34FF08041069008F0C0F990
:100AD0009A49079008F032F997498860084680687B
:100AE000486506E0944890F87200401C924981F8ED
:100AF00072006BE19048C0680021079008F006FC86
:100B000064D28D484168C16141698163808A8A49A4
:100B1000898E401A8849A1F870000846B0F8700024
:100B2000059008F064FB06908348806F01460590AD
:100B3000069808F05BF907907F48C06F0146069061
:100B4000079800E05DE108F04EF97B49C86008466F
:100B5000B0F87000029008F04AFB04907648B0F8B4
:100B60007000019008F043FB02907348806F0146CB
:100B70000190029808F03AF90390049908F036F9C8
:100B80004FF08041059008F063F907906A48B0F88B
:100B90007000039008F02BFB04906748C06F01467B
:100BA0000390049808F022F905906348406D0146CF
:100BB0000490059808F0C2F80690079908F010F91B
:100BC0005D49886008468168816506E05A4890F86A
:100BD0007200401C584981F87200F7E056480169DC
:100BE000C069081A5449496888420FD95248416877
:100BF00001624169C163B0F87400079008F0F7FA28
:100C00004D49886008468168C16506E04A4890F809
:100C10007200401C484981F87200D7E04648C06F16
:100C200007904548C0680690079908F065FB3ED2DA
:100C300041484168416241690164818A808F081A94
:100C40003D49A1F870000846B0F87000069008F021
:100C5000CEFA0790384801E0B4E030E0806F0146FA
:100C60000690079808F0C2F83349C8600846B0F803
:100C70007000049008F0BBFA05902F48C068014648
:100C80000490059808F0B2F84FF08041069008F003
:100C9000DFF807902848C06D01460690079808F0D5
:100CA000A2F82549886008468168016606E0224866
:100CB00090F87200401C204981F8720086E01E48BE
:100CC00080681E49079008F021FB73D21A484168DA
:100CD000816241694164818AB0F84000081A16496E
:100CE000A1F870000846B0F87000059008F07FFA8F
:100CF00006901148806F01460590069808F076F836
:100D000007900D48C06F01460690079808F06BF8F1
:100D10000949C8600846B0F8700011E0000C0040B6
:100D20001E0000201F000020300000202E000020A8
:100D30008801224233000020BC0100200000C8428C
:100D4000019008F054FA0390FE48B0F8700000904B
:100D500008F04DFA0190FB48806F01460090019821
:100D600008F044F80290039908F040F84FF08041F1
:100D7000049008F06DF80690F248B0F87000039007
:100D800008F035FA0490EF48C06F014603900498CC
:100D900008F02CF80590069908F022F80790E94829
:100DA000006E01460690079808F01DF8E549886036
:100DB00007E0FFE7E34890F87200401CE14981F842
:100DC000720003E0E048DF49886000BF00BFDD48F3
:100DD000806801460790172001F075F80890089880
:100DE000B0F57A7F51D34FF2B561089888424CD262
:100DF0000121880707F09CFA1721089801F07FF875
:100E000043E0D0480078012823D1D048007E322129
:100E100048433230CB49A1F87400CC48408B00EBFA
:100E2000800040000A3008610846B0F8740006905F
:100E300008F0DDF901460790172001F044F808900A
:100E40001721089801F05BF80121880707F070FA74
:100E50001BE0BC480078032817D16420B949A1F8E9
:100E600074000846B0F87400069008F0C0F9014616
:100E70000790172001F027F808901721089801F033
:100E80003EF80121880707F053FAB148007802289C
:100E90007ED1AF484069401CAD494861084690F892
:100EA0007200072848D2DFE800F0470448BCDCFEA7
:100EB000FD00A748C06F0790A548C0680690079935
:100EC00008F01AFA31D2A2484068A1498861084660
:100ED0004069486308464069069008F088F9079021
:100EE0009B48806F01460690079807F07FFF98495E
:100EF000C86008464069049008F079F90590944864
:100F0000C06801460490059807F070FF4FF08041DB
:100F1000069007F09DFF8F49079007F00FFF8C495F
:100F2000886008468068486506E0894890F8720045
:100F3000401C874981F8720062E18548C068002141
:100F4000079008F0E3F964D281484168C1614169C2
:100F50008163808A7E49898E401A7D49A1F870009C
:100F60000846B0F87000059008F041F906907848FE
:100F7000806F01460590069807F038FF0790744887
:100F8000C06F01460690079807F02DFF704900E0FA
:100F900051E1C8600846B0F87000029008F027F9E7
:100FA00004906B48B0F87000019008F020F90290AE
:100FB0006748806F01460190029807F017FF039081
:100FC000049907F013FF4FF08041059007F040FFB0
:100FD00007905F48B0F87000039008F008F904909B
:100FE0005B48C06F01460390049807F0FFFE059030
:100FF0005748406D01460490059807F09FFE069003
:10100000079907F0EDFE52498860084681688165BE
:1010100006E04F4890F87200401C4D4981F872007C
:10102000EEE04B480169C069081A4949496888429D
:101030000FD94748416801624169C163B0F8740043
:10104000079008F0D4F84249886008468168C16575
:1010500006E03F4890F87200401C3D4981F872005C
:10106000CEE03B48C06F07903948C06806900799AA
:1010700008F042F93ED23648416841624169016454
:10108000818A808F081A3249A1F870000846B0F8AA
:101090007000069008F0ABF807902D48806F01466D
:1010A000069001E0A8E02DE0079807F09FFE284990
:1010B000C8600846B0F87000049008F098F80590F1
:1010C0002348C06801460490059807F08FFE4FF052
:1010D0008041069007F0BCFE07901D48C06D014698
:1010E0000690079807F07FFE1949886008468168D6
:1010F000016606E0164890F87200401C144981F819
:1011000072007DE0124880681249079008F0FEF8EE
:101110006AD20F484168816241694164818AB0F8AE
:101120004000081A0A49A1F870000846B0F870009B
:10113000059008F05CF806900548806F0146059020
:10114000069809E0BC0100200000C8426C030020A2
:101150004C0200200000484207F048FE0790FE487D
:10116000C06F01460690079807F03DFEFA49C86037
:101170000846B0F87000019008F039F80390F6487E
:10118000B0F87000009008F032F80190F248806FDB
:1011900001460090019807F029FE0290039907F09C
:1011A00025FE4FF08041049007F052FE0690EA4879
:1011B000B0F87000039008F01AF80490E648C06F89
:1011C00001460390049807F011FE0590069907F078
:1011D00007FE0790E048006E01460690079807F06A
:1011E00002FEDD49886006E0DB4890F87200401C92
:1011F000D94981F8720003E0D848D749886000BF18
:1012000000BFD548806801460790172000F05BFEBC
:1012100008900898B0F57A7F51D34FF2B5610898DD
:1012200088424CD21721089800F096FE0121CC4844
:1012300007F07EF843E0C8480078012823D1C94868
:10124000007E322148433230C349A1F87400C548BA
:10125000408B00EB80004000323008610846B0F857
:101260007400069007F0C3FF01460790172000F0B6
:101270002AFE08901721089800F06EFE0121B84858
:1012800007F056F81BE0B4480078032817D1502027
:10129000B149A1F874000846B0F87400069007F050
:1012A000A6FF01460790172000F00DFE08901721B9
:1012B000089800F051FE0121A94807F039F8AA4822
:1012C000007800E0A7E202287ED1A7484069401CD0
:1012D000A5494861084690F87200012843D10846A4
:1012E000C06F07900846C0680690079908F004F898
:1012F00031D29D4840689C498861084640694863EE
:1013000008464069069007F072FF07909648806F84
:1013100001460690079807F069FD9349C8600846A2
:101320004069049007F063FF05908F48C06801464C
:101330000490059807F05AFD4FF08041069007F0A1
:1013400087FD8A49079007F0F9FC874988600846BD
:101350008068486595E1844890F87200401C824995
:1013600081F872008DE1804890F8720002287DD1EA
:101370007D48C0680021079007F0C8FF7BD27A48FB
:10138000B0F87400069007F032FF07907648806846
:1013900001460690079807F0B9FF6CD27248406981
:1013A000B0F5FA7F67D270484168C16141698163D5
:1013B000808A6D49898E401A6B49A1F870000846F1
:1013C000B0F87000059000E075E107F010FF06909E
:1013D0006548806F01460590069807F007FD079065
:1013E0006148C06F01460690079807F0FCFC5E4913
:1013F000C8600846B0F87000029007F0F8FE04904C
:101400005948B0F87000019007F0F1FE029056487C
:10141000806F01460190029807F0E8FC0390049960
:1014200007F0E4FC4FF08041059007F011FD0790B4
:101430004D48B0F87000039007F0D9FE04904A4878
:10144000C06F01460390049807F0D0FC0590464811
:10145000406D01460490059807F070FC06900799CE
:1014600007F0BEFC40498860084601E00BE002E05E
:101470008168816505E13C4890F87200401C3A495A
:1014800081F87200FDE0384890F8720003281FD1FF
:1014900035480169C069081A3349496888420FD93B
:1014A0003148416801624169C163B0F87400079036
:1014B00007F09DFE2C49886008468168C165E0E020
:1014C000294890F87200401C274981F87200D8E042
:1014D000254890F8720004285BD12348C06F07901C
:1014E0002148C0680690079907F006FF48D21E48B9
:1014F0004168416241690164818A808F081A1A49F2
:10150000A1F870000846B0F87000069007F06FFE72
:1015100007901548806F01460690079807F066FC13
:101520001149C8600846B0F87000049007F05FFEEB
:1015300005900D48C06801460490059807F056FCD8
:101540004FF08041069007F083FC07900648C06D7D
:101550000146069007980BE04C020020000048422C
:10156000000800406C030020DC0200200000C8429C
:1015700007F039FCAE49886008468168016680E062
:10158000AB4890F87200401CC1B2A94880F87210B4
:1015900077E0A74890F8720005286FD1A4488068CA
:1015A000A449079007F0B2FE5FD2A148416881626A
:1015B00041694164818AB0F84000081A9C49A1F849
:1015C00070000846B0F87000059007F010FE069015
:1015D0009748806F01460590069807F007FC079032
:1015E0009348C06F01460690079807F0FCFB9049AE
:1015F000C8600846B0F87000019007F0F8FD03904D
:101600008B48B0F87000009007F0F1FD0190884819
:10161000806F01460090019807F0E8FB0290039963
:1016200007F0E4FB4FF08041049007F011FC0690B6
:101630007F48B0F87000039007F0D9FD04907C4813
:10164000C06F01460390049807F0D0FB05900699FF
:1016500007F0C6FB07907648006E01460690079893
:1016600007F0C1FB724988600BE0714890F8720086
:10167000401C6F4981F8720003E0FFE76D496C4838
:1016800081606B48806801460790172000F01BFCC2
:1016900008900898B0F57A7F54D34FF2B561089856
:1016A00088424FD21721089800F03FFC0121624880
:1016B00006F03EFE46E05E480078012826D15F48ED
:1016C000007E322148433C305949A1F874005B4800
:1016D000408B00EB80004000323008610846B0F8D3
:1016E0007400069007F083FD01460790172000F074
:1016F000EAFB08901721089800F017FC01214E48DA
:1017000006F016FE00204E4948711BE0484800785C
:10171000032817D1C8204649A1F874000846B0F83C
:101720007400069007F063FD01460790172000F053
:10173000CAFB08901721089800F0F7FB01213E48EA
:1017400006F0F6FD3F48006840BB3F480088401C5B
:1017500081B23D480180008840F2DC51884220DDA2
:1017600001F05EFB0021F12061236D22CDE9000133
:101770000321002003F024F80020334908800120D1
:1017800030497C3108603149087040F2DC5000F08B
:101790009CF940F2DC5000F098F902E000202A4960
:1017A000088000F079F82A48008820B1284800888D
:1017B000401E27490880274800781D4909780844B9
:1017C000254909780844254908702548007888B1DA
:1017D00024480078401C23490870084600780528F2
:1017E00008DD0121204807F050F900201C4908704D
:1017F0001C4908701D48008820B11C480088401E04
:101800001A4908801A480088002804DD1848008812
:10181000401E1749088009B000BD10B50121880796
:1018200007F04FF818B10121880707F05BF810BDE9
:10183000DC0200200000C842000400406C030020CD
:10184000A40000201801214226000020AC00002046
:1018500036000020BC0100204C0200203500002092
:10186000AE00002032000020004800402C00002084
:101870002A00002070B505460C4645F2555005F08B
:1018800035FF284605F035FF204605F035FF05F009
:1018900036FF05F039FF70BD10B505F030FF10BD03
:1018A0002DE9F04700F0D4F8FFF710F8FEF7C8FD77
:1018B000FEF7FEFD00F058F901F062FA00F0B6F90B
:1018C0004FF4965002F01AFF4FF4E13004F066F93D
:1018D00001203B49087000F025F941F61F4109201D
:1018E000FFF70EF805F06DF940F6B8310620FFF766
:1018F000C1FF00203349087005F0CEF83248006877
:10190000324908603248D0E90010324AC2E900107A
:101910003148006831490860314903C9314A03C27E
:101920003148006831490860314800683149086031
:101930003148006831490860314800683149086021
:101940003148006831490860314800683149086011
:1019500031480068314908602F4800680860304805
:1019600000683049086030480068304908603048F5
:1019700000683049086030480068304908603048E5
:1019800000683049486017480CC800202E4907F00D
:10199000B6FB04460D462B49486807F03EFC064658
:1019A00022462B4607F033FB804607F057FC2749B9
:1019B0000860012232210846FEF757FDBDE8F08796
:1019C00080010020AC000020D8000020440000204E
:1019D000E000002048000020E800002078000020FF
:1019E000F000002050000020F80000207C000020C3
:1019F000FC00002080000020000100205800002092
:101A0000040100205C00002008010020600000208C
:101A10000C0100206400002010010020680000205C
:101A2000140100206C00002018010020700000202C
:101A300020010020840000201C01002088000020DC
:101A4000980000209C000020000020408C00002016
:101A500010B56FF0040005F0EEFB2E4800682E492B
:101A6000B0FBF1F02D4908700846007800EB40010A
:101A7000C1EBC0104FF6FF7101EAC0002849088091
:101A800010BD0146254A12784A434FF0E0235A61BF
:101A900000229A611A46126942F001021A6100BFDF
:101AA0004FF0E022106900F001021AB100F4803218
:101AB000002AF5D04FF0E022126922F001024FF027
:101AC000E0231A6100229A6170470146144A128885
:101AD0004A434FF0E0235A6100229A611A46126984
:101AE00042F001021A6100BF4FF0E022106900F0DD
:101AF00001021AB100F48032002AF5D04FF0E02242
:101B0000126922F001024FF0E0231A6100229A616B
:101B1000704700000000002000127A003C00002006
:101B20003E00002010B500214FF0006005F06BFB77
:101B30004FF4A06005F030FB10BD012080F3138846
:101B400000BF00BF0648006800F4E0600549084394
:101B5000001D03490860BFF34F8F00BF00BFFEE7C1
:101B60000CED00E00000FA0508B501215C2005F04D
:101B70004BFF0121084605F047FF0121264805F0EB
:101B800038FD48F22000ADF8000010208DF8030069
:101B900003208DF802006946204805F059FC48F200
:101BA00020011E4805F003FD8020ADF80000102044
:101BB0008DF8030003208DF802006946184805F0EF
:101BC00047FC8021164805F0F2FC0B20ADF8000020
:101BD00010208DF8030003208DF80200694611489B
:101BE00005F036FC0B210F4805F0E1FC9520ADF81F
:101BF000000010208DF8030003208DF802006946D4
:101C0000094805F025FC1521074805F0CEFC802188
:101C1000054805F0CCFC08BD00023000000801407A
:101C2000000C014000100140001801401FB50121C7
:101C30003C2005F0E9FE0121084605F0E5FE012102
:101C4000084605F0EEFE0121022005F0EAFE012122
:101C5000042005F0E6FE4220ADF80C0018208DF8B7
:101C60000F0003208DF80E0003A9FC4805F0F0FBDF
:101C70000120ADF80C0018208DF80F0003208DF81E
:101C80000E0003A9F64805F0E3FB0020F549C880E3
:101C9000488008724FF0804005F0EEFF6020F24966
:101CA0000880012048800420888000200881488125
:101CB0004FF0804006F01DF80821C80606F068FCC9
:101CC00000214FF0804006F033FB0020E549C8803A
:101CD00048800872E54805F0CFFF6020E24908809F
:101CE0000120488004208880002008814881DF4846
:101CF00006F0D9F80821DD4806F069FC0021DB4830
:101D000006F016FB0020D7490880C880488008727A
:101D1000D74805F0B1FF6020D349088001204880F2
:101D200004208880002008814881D14805F0E1FF27
:101D30000821CF4806F02CFC0021CD4806F0F8FA27
:101D40000220ADF80C0048208DF80F0003A9C4480C
:101D500005F07EFB0121002005F090FC022001909F
:101D600000208DF8080008208DF8090001208DF86A
:101D70000A0001A805F08CFA07208DF80000012068
:101D80008DF8010002208DF8020001208DF803007B
:101D9000684605F006FA0120ADF80C0048208DF8E1
:101DA0000F0003A9AD4805F053FB0021012005F009
:101DB00065FC0120019000208DF8080008208DF8B6
:101DC000090001208DF80A0001A805F061FA06203B
:101DD0008DF8000001208DF8010003208DF802002D
:101DE00001208DF80300684605F0DBF91020ADF8FE
:101DF0000C0048208DF80F0003A99E4805F028FB31
:101E00000421022005F03AFC1020019000208DF8FA
:101E1000080008208DF8090001208DF80A0001A8AB
:101E200005F036FA0A208DF8000001208DF8010037
:101E30008DF802008DF80300684605F0B2F9152010
:101E4000ADF80C0010208DF80F0003208DF80E0067
:101E500003A9894805F0FCFA1521874805F0A7FB7E
:101E60001020ADF80C008DF80F0003208DF80E0047
:101E700003A97B4805F0ECFA2020ADF80C001020F7
:101E80008DF80F0003208DF80E0003A9794805F0A6
:101E9000DFFA4FF48050ADF80C0010208DF80F00E1
:101EA00003208DF80E0003A96C4805F0D1FA4FF419
:101EB000E070ADF80C0048208DF80F0003A96848C9
:101EC00005F0C6FA1FBD2DE9F04104460D46601C21
:101ED00007F08DF907462946384606F087FF074682
:101EE0003946664806F0B4FF80464FF07E5106F052
:101EF00077FF0646304607F09DF9BDE8F08170B5E2
:101F000004460D464FF0804006F0C9FCA04204D9BB
:101F100000214FF0804006F09FFC4FF080418C85FF
:101F20000D85C4F34F00888670BD70B504460D461C
:101F30004E4806F0B4FCA04203D900214B4806F0FD
:101F40008BFC4A492C310C80091F0D80C4F34F00D3
:101F500046494031088070BD70B504460D4644487E
:101F600006F09DFCA04203D90021414806F074FC14
:101F70003F492C310C80091F0D80C4F34F003C49B0
:101F80003431088070BD2DE9F05F82468B46914662
:101F9000BBF1000F61D13A48C0F89491394880F8FC
:101FA00084903948006820B9B9F1000F01D1BDE82B
:101FB000F09F3448007800284ED13248C0F810A075
:101FC00032480CC80020324907F099F805460E4601
:101FD000504607F022F907462A46334607F058F9DB
:101FE0005ED24FF4FA702749A1F87400B1F874106A
:101FF0008900A1F5C87007F0F1F80546254906F0FB
:1020000027FF2049C867B1F87410C900A1F54870CE
:1020100007F0E4F80546204906F01AFF19498867D9
:102020001E48886000204860486100240CE00021C0
:102030001448183040F824101C3040F82410203088
:1020400040F82410601CC4B2072CF0DB02200D49BC
:102050000870012081F872005BE2AAE0000C0140E8
:1020600000080140B0010020A00100200004004051
:102070000008004000100140001801404054894C05
:1020800000002242BC0100201881224248000020AA
:1020900000407F400000C84300409C470000C84209
:1020A000FA480CC80020FA4907F029F805460E4600
:1020B000504607F0B2F807462A46334607F0E8F8DC
:1020C0003BD24FF44870F349A1F87400B1F8741092
:1020D0008900A1F5C87007F081F80546EE4906F0C1
:1020E000B7FEEC49C867B1F87410C900A1F5487093
:1020F00007F074F80546E94906F0AAFEE549886745
:10210000E748886000204860486100240CE0002116
:10211000E048183040F824101C3040F824102030DB
:1021200040F82410601CC4B2072CF0DB0220D9490F
:102130000870012081F87200EBE140F6FC00D549FF
:10214000A1F87400B1F874108900A1F5C87007F007
:1021500045F80546D34906F07BFECE49C867B1F87D
:102160007410C900A1F5487007F038F80546CE494B
:1021700006F06EFEC7498867C9488860002048603D
:10218000486100240CE00021C248183040F82410B7
:102190001C3040F82410203040F82410601CC4B2D9
:1021A000072CF0DB0220BB490870012081F8720087
:1021B000AFE1BBF1010F7DD1BC48C0F8B091BC4884
:1021C00080F88490BB48006818B9B9F1000F00D1BD
:1021D000EDE6B74800780028AED1B548C0F810A0A9
:1021E000B5480CC80020B54906F089FF05460E46E3
:1021F000504607F012F807462A46334607F048F8DB
:102200003AD27820AA49A1F87400B1F87410C90034
:10221000A1F5C87006F0E2FF0546A94906F018FED0
:10222000A3498867B1F874108900A1F1C80006F0CD
:10223000D5FF05469A4906F00BFE9D49C867A1489F
:10224000886000204860486100240CE00021984824
:10225000183040F824101C3040F82410203040F88A
:102260002410601CC4B2072CF0DB022090490870D7
:10227000012081F872004CE18F480CC8002092497F
:1022800006F03DFF05460E46504606F0C6FF0746DF
:102290002A46334606F0FCFF3CD2C8208449A1F808
:1022A0007400B1F87410C900A1F5C87006F096FF6B
:1022B000054600E0B7E0854906F0CAFD7C4988671D
:1022C000B1F874108900A1F1C80006F087FF054637
:1022D0007F4906F0BDFD7649C8677A4888600020CE
:1022E0004860486100240CE000217148183040F833
:1022F00024101C3040F82410203040F82410601CBA
:10230000C4B2072CF0DB022069490870012081F873
:102310007200FEE068480CC800206E4906F0EFFE2F
:1023200005460E46504606F078FF07462A463346D5
:1023300006F0AEFF3BD24FF416705D49A1F8740071
:10234000B1F874108900A1F1C80006F047FF0546F6
:10235000514906F07DFD5649C867B1F87410C900AF
:10236000A1F5C87006F03AFF05464C4906F070FD2D
:102370004F498867534888600020486048610024BE
:102380000CE000214A48183040F824101C3040F876
:102390002410203040F82410601CC4B2072CF0DB5D
:1023A000022043490870012081F87200B1E04FF427
:1023B000FA603F49A1F87400B1F874108900A1F1E6
:1023C000C80006F00BFF0546434906F041FD3849B9
:1023D000C867B1F87410C900A1F5C87006F0FEFE18
:1023E00005463E4906F034FD314988673548886026
:1023F00000204860486100240CE000212C4818307F
:1024000040F824101C3040F82410203040F82410EC
:10241000601CC4B2072CF0DB0220254908700120A3
:1024200081F8720075E02E48C0F890912D4880F830
:102430008490007840BB2B48C0F810A04FF448703F
:102440002849A1F87400B1F874108900A1F5C8708A
:1024500006F0C4FE0546104906F0FAFC2149C8679B
:10246000B1F87410C900A1F5487006F0B7FE054632
:102470000A4906F0EDFC1B4988670948886000207E
:102480004860486100243BE043E000004800002031
:1024900000709740BC01002000007A440024F448FA
:1024A0000000C8420000FA440024F44900802142A0
:1024B0004C02002028012342500000200000594017
:1024C00000409C450000484200407F4000409C473F
:1024D0000000C84300408F400000C84400409C49B1
:1024E00000002142DC0200200021FE4840F82410B8
:1024F0001C3040F82410203040F82410601CC4B276
:10250000072CF1DB0220F74918390870012081F807
:10251000720000BF4BE52DE9F34F83B08A46039864
:1025200006F07BFECDE90001EF480CC8009806F0EC
:10253000E6FD074606F0C4FE0290EC49D1F88000A3
:1025400006F04CFE0746029906F0D6FE0ED2012692
:10255000E649D1F8800006F041FE8046029906F077
:1025600042FC074606F066FE04460DE00026DF4901
:10257000D1F8800006F032FE8046029906F030FC69
:10258000074606F057FE0446504606F046FE07464C
:10259000D7480CC8384606F0B2FDCDE9000106F078
:1025A0008FFE8346D349D1F8800006F017FE074618
:1025B000594606F0A1FE0FD24FF00109CD49D1F8DE
:1025C000800006F00BFE8046594606F00CFC0746DC
:1025D00006F030FE05460EE04FF00009C549D1F87F
:1025E000800006F0FBFD8046594606F0F9FB0746E1
:1025F00006F020FE0546324600212046FFF7C3FCC8
:102600004A4601212846FFF7BEFC05B0BDE8F08F21
:1026100010B5B4481838007800287DD0B648006856
:10262000D0BBB548001D0068B0BBB3480830006897
:1026300090BBAC48183890F8840001282CD1A948E8
:1026400018384068C82827D9AC48407920BBAC4826
:102650000078401CAA49087008460078012808D173
:10266000A04818380069A7490968401A9D491839D7
:10267000486000BF9B48183800780028FAD1994973
:10268000183908700021A04805F052FE00209C492E
:10269000087094491839086597480068C8BB96487F
:1026A000001D0068A8BB94480830006888BB8D48AE
:1026B000183890F8840060BB8A4818384068C828E9
:1026C00027D98E48407920BB90480078401C8F491C
:1026D000087008460078012808D182481838006937
:1026E0008B490968401A7F491839486000BF7D4806
:1026F000183800780028FAD17A4918390870002172
:10270000814805F015FE00207649183908657F4993
:1027100008708048006800E072E0B0BB7D48143863
:10272000006890BB7548407901282ED16D48183853
:1027300090F8840048BB6B48183840680A2824D9B0
:1027400072480078401C71490870084600780128DA
:1027500006D1644818380069283862491839486039
:1027600000BF6048183800780028FAD15D49183950
:1027700008700021644805F0DBFD00205949183934
:102780000865624908705D49487162480068B8BBD5
:1027900060481438006898BB5848407901282FD108
:1027A0005048183890F88400012829D14D4818382D
:1027B00040680A2824D955480078401C53490870BD
:1027C00008460078012806D146481838006928389C
:1027D00044491839486000BF42481838007800283A
:1027E000FAD14049183908700021474805F0A0FD8A
:1027F00000203C4918390865444908703F49487130
:1028000010BD0122394B83F88420434A11601A46D7
:10281000106100225A6003221A70704710B53548C3
:10282000007858B33B480C38006890B9314890F8AC
:10283000840001280DD1012232210846FDF715FE42
:1028400000202C4908700021344805F071FD00F08B
:10285000E7FA30481030006880B9264890F88400C4
:1028600001280BD100202349087000212B4805F0D6
:102870005FFD052232210846FDF7F7FD2848007864
:1028800001281BD10020264908704FF4FA70254911
:10289000088000BF234800880028FBD1012122487E
:1028A0000068FFF7AEFF00BF104800780028FBD19A
:1028B0000E49C1F880000120104908710B480078CA
:1028C000A0B315486038006888BB084890F88400B9
:1028D00068BB00200549087000214FF0804005F0DA
:1028E00027FD25E0F402002048000020BC01002064
:1028F000500000204C0200200C812142A400002046
:10290000760000205C0000200004004077000020DA
:10291000580000202C01234294012242000800406C
:102920004000002036000020440000201AE004E0AF
:10293000052232210846FDF798FDF848006888B95D
:10294000F74890F8840001280CD10020F449087061
:1029500000214FF0804005F0EBFC012232210846B7
:10296000FDF783FD10BD10B521B101290FD002295B
:1029700026D119E0EB4B1A60E94B83F88420002341
:10298000E74C6360234618610323237018E0E64B8D
:102990001A60E64B83F884200023E44C63602346EE
:1029A0001861032323700BE0E14B1A60E14B83F8BD
:1029B000842018610023DF4C63600323237000BF71
:1029C00000BF10BD10B5044634BBD748A43800681A
:1029D000012813D0D448A038006801280ED0D2486E
:1029E0009C380068012809D0CC480C3800680128C0
:1029F00004D0CA4820380068012800D110BD00204A
:102A0000C8490860C64981F8840048604CF25030DB
:102A100008610320087053E0C348A4380068012807
:102A200013D0C148A038006801280ED0BE489C3899
:102A30000068012809D0B9480C380068012804D082
:102A4000B64820380068012800D1D7E70120B649F0
:102A50000860B64981F88400C820086100204860F9
:102A60000320087018E002F0A9FBAC481838006891
:102A700090B9AE4890F8840001280DD10020AB49F0
:102A800008700021AC4805F053FC00F0C9F90122A0
:102A900032210846FDF7E9FCA44800780028E2D17D
:102AA0004FF4FA70FFF711F800209F4908609F4922
:102AB00081F8840048604CF25030086103200870AF
:102AC00000BF9BE710B5022004F059FC9448007841
:102AD000002860D092484068401C914948600846F0
:102AE00090F88400012806D10846D0F88000401CE8
:102AF000C1F880000BE08A48D0F88000002806DD8D
:102B00008748D0F88000401E8549C1F880008B4876
:102B1000006870B9824890F8840050B90120884953
:102B2000087000207E49087000214FF0804005F0B9
:102B3000FFFB7B4840687A49096988422BD3002112
:102B40004FF0804005F0F4FB7848007810B902207F
:102B50007C49087000207249087048608860C8602D
:102B60000861486181F87200A1F87000A1F8740052
:102B70008867C86700240CE000216948183040F8D5
:102B800024101C3040F82410203040F82410601C21
:102B9000C4B2072CF0DB10BD10B5012004F0EFFB30
:102BA0006448007800283ED062484068401C614973
:102BB0004860084690F88400012804D10846006D5A
:102BC000401C086504E05B48006D401E59490865DB
:102BD0005848406857490969884224D300215A4817
:102BE00005F0A6FB00205349087048608860C86063
:102BF0000861486181F87200A1F87000A1F87400C2
:102C00008867C86700240CE000214A48183040F863
:102C100024101C3040F82410203040F82410601C90
:102C2000C4B2072CF0DB10BD10B5102004F0A7FBD8
:102C30003E48007800286FD03C484068401C3B4923
:102C40004860084690F88400012806D10846D0F86C
:102C50008000401CC1F8800006E03448D0F88000B5
:102C6000401E3249C1F880002C4810380068A8B9CD
:102C70002E4890F8840088B93448007801280DD196
:102C800000203249087029490870C1F880000120ED
:102C90002F4988710021284805F04AFB1F48343825
:102CA0000068B8B9214890F8840098B9294880781C
:102CB00001280FD11D48D0F8800027490860254819
:102CC00040681A49C1F880000020087000211A48A5
:102CD00005F02EFB154840681449096988424BD31A
:102CE0000021154805F024FB0D48007810B902209A
:102CF0001449087000200D490870C8604860886059
:102D00000861486181F87200A1F87000A1F87400B0
:102D10008867C86700242DE02EE0000038012342B8
:102D2000BC01002094012242B08121424C020020CB
:102D300090012142DC02002000080040188122425C
:102D40004000002075000020000400409400002096
:102D5000A40000209C0000209000002000210748D3
:102D600040F824101C3040F82410203040F8241083
:102D7000601CC4B2072CF1DB10BD0000640200200F
:102D800008B50121682004F03FFE3820ADF80000AE
:102D900048208DF8030069461D4804F059FB4FF4A4
:102DA0000050ADF8000048208DF80300694619482E
:102DB00004F04EFB4FF64070ADF8000048208DF84F
:102DC00003006946144804F043FB4DF28050ADF80F
:102DD000000048208DF803006946104804F038FBD5
:102DE00048F64820ADF8000048208DF803006946F9
:102DF0000A4804F02DFB40F68A20ADF80000482078
:102E00008DF803006946054804F022FB08BD7047B1
:102E1000000C014000100140001401400018014066
:102E200010B50020FC49087000214FF0804005F0EB
:102E30007FFA0020F94908700021F94805F078FA76
:102E40000020F84908700021F74805F071FA0020C9
:102E5000F649C8730874888248820120F4490870D2
:102E6000F249C8708870087148718871C871087219
:102E70004872002088730120EE49487008700020D5
:102E8000C870ED498870012048700020087001204A
:102E9000C87010BD70B504460D461646E3488079EB
:102EA000012874D1E148C079012822D10020DF49EE
:102EB0008873C871012E76D108464078012802D166
:102EC0000846007838B1D9484078022831D1D7482F
:102ED000007801282DD1012C15D1D8480078A042C6
:102EE00008D1D648047022460221D5480068FFF771
:102EF0004AF885E0D148047022460221D148006892
:102F0000FFF741F87CE0CD480078A04208D1CB48DB
:102F1000047022460221CC480068FFF734F86FE0C5
:102F2000C648047022460221C8480068FFF72BF803
:102F300066E0BE48407801281BD1BC4800780128D3
:102F400017D1BE480078A04209D1BC48047022467F
:102F50000221BB4800685030FFF715F850E0B74831
:102F6000047022460221B74800685030FFF70BF882
:102F700046E0B2480078A0420BD1B0480470224627
:102F80000221B14800685030FEF7FDFF38E046E00E
:102F900009E0AA48047022460221AC48006850307B
:102FA000FEF7F1FF2CE0012C15D1A4480078A042D7
:102FB00008D1A248047022460221A1480068FEF709
:102FC000E2FF1DE09D480470224602219D480068F2
:102FD000FEF7D9FF14E099480078A04208D197483D
:102FE00004702246022198480068FEF7CCFF07E0F3
:102FF000924804702246022194480068FEF7C3FFFD
:103000008648007800284CD101208849C8710846BC
:103010008079401C8871C820FEF757FD41E0834845
:103020008079022819D18148C079012807D1002070
:103030007E49C871002201212846FEF7A4FF794885
:10304000007840BB01207949C87108468079401C4E
:103050008871C820FEF739FD23E074488079032881
:103060001AD17248C07901280DD100206F49C8716A
:1030700084F001007149087084F00102022140F6D9
:10308000C410FEF780FF6548007820B96748807952
:10309000401C6649887104E001206449C871887148
:1030A000887370BD70B504460D46604800790128EC
:1030B00018D15E48407901280AD100205B49887305
:1030C000487101205A49087029462046FFF723FA23
:1030D0005748007802280AD154480079401C5349C7
:1030E000087104E00120514988730871487170BD6E
:1030F0005748006858B901205649086000205649D1
:10310000C1F8800153490831086001207047002050
:10311000FCE770B504460D4616464448007A01287F
:1031200077D14248407A002823D000203F49887355
:103130004872012E6ED108464078012803D1084616
:103140000078102807D039484078022833D1374812
:10315000007811282FD1012C15D138480078A042D1
:1031600008D1364804702246022135480068FEF72F
:103170000AFFAAE031480470224602213148006863
:10318000FEF701FFA1E02D480078A04209D12B48AD
:103190000470224602212C4800681E30FEF7F3FE20
:1031A00093E02648047022460221284800681E3019
:1031B000FEF7E9FE89E01D48407801281BD11B4835
:1031C0000078112817D11D480078A04209D11B486A
:1031D0000470224602211A4800685030FEF7D3FEE0
:1031E00073E01648047022460221164800685030E9
:1031F000FEF7C9FE69E011480078A0422ED10F48C1
:10320000047022460221104800685030FEF7BBFED1
:103210005BE069E02CE00000BC010020DC02002043
:10322000000400404C020020000800406C03002015
:1032300075000020A40000209C000020AB000020AE
:103240006800002064000020700000206C00002056
:10325000300123428401224200002242FC480470D3
:1032600022460221FB4800685030FEF78CFE2CE01D
:10327000012C15D1F6480078A04208D1F44804701A
:1032800022460221F4480068FEF77DFE1DE0F0486A
:10329000047022460221F1480068FEF774FE14E033
:1032A000EB480078A04208D1E94804702246022188
:1032B000EB480068FEF767FE07E0E5480470224629
:1032C0000221E4480068FEF75EFEE6480078002828
:1032D00078D1E548007A401CE34908720120487221
:1032E000C820FEF7F2FB6DE0DF48007A022819D112
:1032F000DD48407A38B10020DB494872012211468E
:103300002846FEF740FED948007800285AD1D64812
:10331000007A401CD449087201204872C820FEF788
:10332000D4FB4FE0D048007A03281BD1CE48407A26
:1033300068B184F00100C649087084F001020221DE
:103340004FF4C860FEF71FFE0020C7494872C54809
:10335000007858BB0120C44948720846007A401CD6
:1033600008722FE0C048007A042820D1BE48407A75
:1033700090B184F00100BE49086084F00100B949B1
:1033800081F884004FF47A700861002048600320BF
:1033900008700020B4494872B248007830B9012062
:1033A000B14948720846007A401C08720AE00120C0
:1033B000AD49487208728873C820FEF786FBC820A2
:1033C000FEF783FB70BD2DE9FC4104460D46A6487F
:1033D000C07B012851D1A448C078012860D1A14800
:1033E000007820BBA3480068012804D0A148143805
:1033F000006801281BD1052232210846FDF735F867
:1034000001209D49086000209C49C1F880019A492B
:1034100008310860FF2161236D22CDE900100321EE
:1034200001F0CEF907209049C870BDE8FC8100206A
:103430009149086001209149C1F8800100208E491E
:103440000831086029462046FFF72CFE8648807B1D
:103450000128BFD18448007820280FD10720824955
:10346000C8700020052161236D22CDE900100321E1
:1034700001F0A6F9C820FEF728FB95E10020022103
:1034800061236D22CDE90010032101F099F97648FE
:10349000C078401C7449C870C820FEF716FB83E151
:1034A0007148C078022871D175480CC80020754950
:1034B00005F025FE064605F0D1FE80466A490978EA
:1034C00001F0010181F0010000224146FFF721FED9
:1034D0006548807B0128D0D16248007818BB6548D8
:1034E0000068012804D063481438006801281AD104
:1034F000052232210846FCF7B8FF01205E4908602A
:1035000000205E49C1F880015B4908310860FF2155
:1035100061236D22CDE90010032101F051F907204C
:103520005149C87081E75048407880B9052232215E
:103530000846FCF79AFF0020032161236D22CDE9A4
:10354000001001F03DF907204749C8702CE1FFF752
:10355000CFFDE0B10020F02161236D22CDE9001004
:10356000032101F02DF9052232210846FCF77DFFE9
:1035700001204149086000204049C1F880013E49CE
:103580000831086005203849C870C7E010E0002005
:10359000032161236D22CDE9001001F011F93248B9
:1035A000C078401C3049C870C820FEF78EFAFBE096
:1035B0002D48C078032833D12B484078012803D008
:1035C000294840780228C1D1274A928B323291B2E1
:1035D000254AD08BFFF766FD2348807B0128B5D1B3
:1035E0002148C07A042808DD00201F49C87288726B
:1035F0000620C8700120487317E700BF1A48C0783A
:10360000401C1949C8700020042161236D22CDE9B6
:103610000010032101F0D4F8C820FEF756FAC3E0E9
:103620001148C078042874D10120174988701448C3
:103630000CC80020154905F062FD064605F00EFE97
:10364000804609494978491009B9012121E01FE064
:10365000AB0000206C000020680000206400002007
:1036600070000020DC0200206C0300204C020020CF
:10367000900121422C012342840122420000224277
:1036800050000020008045409C0000200000544075
:103690000021084601224146FFF7FCFBFE48807BE3
:1036A000012884D10020FD498870FD48007818BBAE
:1036B000FC480068012804D0FA4814380068012842
:1036C0001AD1052232210846FCF7CFFE0120F64927
:1036D00008600020F549C1F88001F349083108600D
:1036E000FF2161236D22CDE90010032101F068F86C
:1036F0000720E949C87098E60020052161236D2262
:10370000CDE90010032101F05BF8FFF789FB4BE0E6
:10371000FFE7E148C078052819D100BFDE490978E4
:1037200001F0010181F001000022E1490968FFF781
:10373000B1FBD948807B012836D10720D649C87013
:10374000C820FEF7C2F9C820FEF7BFF96DE6D248DF
:10375000C078062826D1D048407B012815D100200A
:10376000CD494873012200215A20FFF7FCF802E0FE
:10377000C820FEF7AAF9CF4800780028F8D1002227
:1037800011464CF25030FFF7EEF8CB480079012893
:103790000AD10020C84908710320BF49C870012020
:1037A00048732BE7FFF73CFB00BF3EE62DE9FC41E9
:1037B00004460D46B848007C012858D1B6488078A8
:1037C000012855D1B448407818B90320B24988700F
:1037D00036E0B348007820BBB2480068012804D026
:1037E000B0481438006801281BD105223221084650
:1037F000FCF73BFE0120AC4908600020AB49C1F852
:103800008001A94908310860FF2161236D22CDE9BB
:103810000010032100F0D4FF08209F498870BDE804
:10382000FC810020A04908600120A049C1F8800166
:103830000020C1F88C01984A918BD08BFFF732FCA5
:103840009548807B0128B8D10020022161236D2298
:10385000CDE90010032100F0B3FF01208E49087369
:1038600008468078401C8870C820FEF72EF9B6E123
:1038700089488078022830D18748007B012812D1FE
:10388000864988708D480CC800208D4905F037FCAA
:10389000064605F0E3FC804600220121FFF763F8AD
:1038A00000207D490873874800780028DFD17B49D4
:1038B00088707948807A042808DD0020764988726B
:1038C000C8720120087307208870A8E700BF7248FB
:1038D0008078401C7049887081E16F4880780328A7
:1038E00068D16D494978491009B9012100E00021EA
:1038F00008460122744909683231FFF70AFC66481C
:10390000807B0128B3D16648007818BB6548006801
:10391000012804D063481438006801281AD1052210
:1039200032210846FCF7A1FD01205F490860002014
:103930005E49C1F880015C4908310860FF216123BC
:103940006D22CDE90010032100F03AFF0820524912
:10395000887064E7FFF7CCFBD8B10020F021612329
:103960006D22CDE90010032100F02AFF052232214B
:103970000846FCF77AFD01204B49086000204B49BE
:10398000C1F8800148490831086006204249887022
:10399000C9E00020032161236D22CDE9001000F071
:1039A0000FFF3D488078401C3B498870C820FEF7D7
:1039B0008CF814E13848807804282BD12946204619
:1039C000FFF770FB3448807B012885D1324840786E
:1039D000012803D030484078022809D10020042172
:1039E00061236D22CDE90010032100F0E9FE08E01B
:1039F0000020022161236D22CDE90010032100F097
:103A0000DFFE25488078401C23498870C820FEF7D7
:103A10005CF8E4E02048807805287FD127480CC86E
:103A200000202A4905F06BFB064605F017FC80468E
:103A30001949097801F0010181F001000022414695
:103A4000FFF728FA1448807B0128B2D11448007887
:103A500008BB14480068012804D0124814380068D4
:103A6000012838D1052232210846FCF7FEFC01204E
:103A70000D49086000200D49C1F880010A4908314C
:103A80000860FF2161236D22CDE90010032100F0C1
:103A900097FE08201CE01EE06C0300209C00002024
:103AA000DC0200202C012342840122420000224239
:103AB00084000020BC010020A40000205000002051
:103AC000008056404C020020880000200000444046
:103AD000FE498870A3E6FD484078012803D0FB48E2
:103AE000407802280CD10020052161236D22CDE908
:103AF0000010032100F064FEFFF792F908E00DE0EA
:103B00000020032161236D22CDE9001000F058FE52
:103B1000EE488078C01CED49887060E0EB48807802
:103B2000062826D100BFE9494978491009B9012181
:103B300000E0002108460022E5490968FFF7AAF9DC
:103B4000E248807B01284AD1E0488078801CDF4928
:103B50008870C820FDF7B9FFC820FDF7B6FFC82060
:103B6000FDF7B3FFC820FDF7B0FFC820FDF7ADFF9C
:103B700035E0D6488078072826D1D448007B012834
:103B800015D10020D1490873012200215A20FEF7E7
:103B9000EAFE02E0C820FDF798FFCE480078002832
:103BA000F8D10022114641F28830FEF7DCFECA4807
:103BB0000079012813D10020C74908710220C349A8
:103BC00088700120087382E6FFF72AF90020BF49B8
:103BD000087401208870002088734882888200BFA2
:103BE0001DE670B505460C4625B1012D39D0022DD4
:103BF00068D129E0B9480068012812D0B748001DF3
:103C0000006801280DD0B54808300068012808D0A8
:103C1000B3480068012804D0B1481438006801286E
:103C200005D1012232210846FCF71FFC70BDA948CE
:103C300080F8844090F88400AA4908600020A549D3
:103C40004860012008703DE0A74880F8844090F863
:103C50008400A64908600020A3494860012008703C
:103C600030E09E480068012818D09C48001D00687C
:103C7000012813D099480830006801280ED0012C83
:103C800003D197480C38006840B195480068012876
:103C900004D0934814380068012805D1012232214C
:103CA0000846FCF7E2FBC1E7914880F8844090F8B1
:103CB00084008A49A431086000208D4948600120B1
:103CC000087000BF00BF00BFB0E71CB58248C078D5
:103CD00001283CD180484078012839D17E480078BD
:103CE000012825D100207C4908707D480068012802
:103CF0000DD17B481438006848B90122022140F6F2
:103D0000C410FEF730FE01207349487110E074487A
:103D10001438006801280BD17148006840B90022AE
:103D2000022140F6C410FEF71EFE01206A494871C8
:103D30006D4800780028CCD167484078401C66491F
:103D40004870012008704FF4FA70FDF7BEFEF4E0F1
:103D500061484078022846D15F480078012832D176
:103D60005F480068012804D05D48143800680128C5
:103D700009D10020FF2161236D22CDE9001003212C
:103D800000F01EFD1CBD56480C38006848B1544870
:103D90000C38006801280AD15148001F006801282A
:103DA00005D103204C49487001200870EAE74C48CF
:103DB000001F006838B900204749087001221146E9
:103DC000C820FEF7D0FD4A4800780028BFD14248FD
:103DD0004078401C40494870012008704FF4FA7048
:103DE000FDF773FEA9E03C484078032831D13A48FA
:103DF0000078012813D10020374908703D498870A8
:103E0000002201214CF25030FEF7ADFD01203A496D
:103E10000870002211464CF25030FEF7A4FD3448E1
:103E20000078002814D12B480078002810D12A48A7
:103E3000007901280CD100202749087108464078F4
:103E4000401C4870012008704FF4FA70FDF73DFEE9
:103E500073E02148407804281BD11F4800780128CE
:103E600008D100201C490870012202214FF4FA7089
:103E7000FEF779FD1C48007830BB17484078401C9D
:103E800015494870012008704FF4FA70FDF71DFEC7
:103E900053E01148407805283BD10F4800780128AD
:103EA00008D100200C490870002202214FF47A70DA
:103EB000FEF759FD0C48007830B900200F49087012
:103EC00005484078401C1BE037E000006C030020F0
:103ED00088000020BC010020A40000200C812142A9
:103EE0002C01234294012242DC0200209001214255
:103EF0004C0200209C00002094000020AB00002019
:103F0000F7494870012008704FF4FA70FDF7DDFDA5
:103F100013E00120F2498870487008700020C870D2
:103F2000052161236D22CDE90010032100F048FC3A
:103F3000012232210846FCF798FA00BF22E72DE95A
:103F4000F04104460D4616461F46DDF818804346EC
:103F50003A4631462846A047BDE8F08130B5E14CED
:103F60002468012C12D0DF4C241D2468012C0DD0B4
:103F7000DC4C08342468012C08D0DB4C2468012C6C
:103F800004D0D94C143C2468012C00D130BD03244A
:103F9000D64DEC8220242C706A82AB8200246C7097
:103FA000EC83F024AC830124D14D2C70CF4DEC7305
:103FB000EC700024AC7301242C716C7100BFE5E738
:103FC00030B5C84C2468012C12D0C64C241D24687E
:103FD000012C0DD0C34C08342468012C08D0C24CED
:103FE0002468012C04D0C04C143C2468012C00D15E
:103FF00030BD0324BD4DEC822C4621706A8203F152
:104000001404AC822C466070BA4C2488EC83BA4C01
:104010002488AC830124B64D2C70B44D2C74AC7044
:104020002C716C71AC71EC712C726C720024AC73DD
:1040300000BFDDE730B5AB4C2468012C12D0A94C91
:10404000241D2468012C0DD0A64C08342468012CB2
:1040500008D0A54C2468012C04D0A34C143C24683F
:10406000012C00D130BD0324A04DEC822C462170E0
:104070006A82A3F11404AC822C4660709D4C2488A3
:10408000EC839D4C2488AC830124994D2C70974D72
:10409000EC73EC702C716C71AC71EC712C726C72F5
:1040A0000024AC7300BFDDE701208D49C8700020FB
:1040B000887070472DE9F0479048007800287BD041
:1040C0008E48C07806281AD2DFE800F0B9031A3506
:1040D0004E778A484078012807D1002087494870E8
:1040E00001221146C820FEF73EFC8548007830B911
:1040F0008248C078401C8149C870012048709EE009
:104100007E48407801280BD100207C49487001206E
:104110007C490870002201214CF25030FEF723FC4C
:104120007748007830B97548C078401C7349C8702A
:104130000120487083E071484078012808D10020B0
:104140006E494870012211464CF25030FEF70BFCCC
:1041500065482838006830B16848C078401C674915
:10416000C870012048706AE064484078012818D17E
:1041700000206249487064480CC80020634904F07C
:10418000BEFF04460D465E49086905F046F806463E
:1041900022462B4604F03BFF804605F05FF8584965
:1041A00048605748007830B95448C078401C53499B
:1041B000C8700120487042E042E050484078012831
:1041C00013D100204D4948704F480CC80020504979
:1041D00004F095FF054605F041F804460022012150
:1041E000FEF7C1FB0120454988704548007828BB8F
:1041F000002042498870424908700021454804F077
:1042000097F84548006845490860C822042143489A
:1042100002F024FE40480068384948603E48006883
:104220003749C1F8800001203449C8704870002027
:104230000870012232210846FCF717F900BF00BFC1
:10424000BDE8F08710B52D488078012812D12648A6
:104250002838006801280DD12948D0F8800030495D
:104260000968884206D200202549087000212948A3
:1042700004F05EF810BD0346012A02D0022A76D16E
:104280002FE10C2B74D2DFE803F0061B53687F94F8
:10429000A9BED3E8FFF20A2910D2DFE801F0050633
:1042A0000708090A0B0C0D0E08E007E006E005E020
:1042B00004E003E002E001E000E000BF00BF0EE127
:1042C0000A2933D2DFE801F005060708090A2E2F74
:1042D00030312BE02AE029E028E027E026E000004A
:1042E000A40000200C8121422C0123426C030020F9
:1042F00075000020800000207C0000209C00002031
:104300004C02002094000020500000200000494092
:1043100000805640000800409000002098000020D7
:104320008C00002002E001E000E000BF00BFD6E00A
:104330000A2910D2DFE801F005060708090A0B0C6C
:104340000D0E08E007E006E005E004E003E002E00F
:1043500001E000E000BF00BFC1E00A2912D2DFE89F
:1043600001F00508090A0B0C0D0E0F100AE0C3E15D
:10437000B4E007E006E005E004E003E002E001E06D
:1043800000E000BF00BFAAE00A2910D2DFE801F078
:1043900005060708090A0B0C0D0E08E007E006E009
:1043A00005E004E003E002E001E000E000BF00BF40
:1043B00095E00A2910D2DFE801F005060708090A8E
:1043C0000B0C0D0E08E007E006E005E004E003E05A
:1043D00002E001E000E000BF00BF80E00A2910D247
:1043E000DFE801F005060708090A0B0C0D0E08E0CE
:1043F00007E006E005E004E003E002E001E000E0A1
:1044000000BF00BF6BE00A2910D2DFE801F005060B
:104410000708090A0B0C0D0E08E007E006E005E0AE
:1044200004E003E002E001E000E000BF00BF56E06E
:104430000A2910D2DFE801F005060708090A0B0C6B
:104440000D0E08E007E006E005E004E003E002E00E
:1044500001E000E000BF00BF41E00A2912D2DFE81E
:1044600001F00508090A0B0C0D0E0F100AE020E000
:104470000AE007E006E005E004E003E002E001E016
:1044800000E000BF00BF2AE00A2910D2DFE801F0F7
:1044900005060708090A0B0C0D0E08E007E006E008
:1044A00005E004E003E002E001E000E000BF00BF3F
:1044B00015E00A2910D2DFE801F005060708090A0D
:1044C0000B0C0D0E08E007E006E005E004E003E059
:1044D00002E001E000E000BF00BF00E000BF00BF5D
:1044E0000AE10C2B70D2DFE803F0061B30455A704E
:1044F000859AAFC4D9EF0A2910D2DFE801F005068A
:104500000708090A0B0C0D0E08E007E006E005E0BD
:1045100004E003E002E001E000E000BF00BFE9E0EA
:104520000A2910D2DFE801F005060708090A0B0C7A
:104530000D0E08E007E006E005E004E003E002E01D
:1045400001E000E000BF00BFD4E00A2910D2DFE89C
:1045500001F005060708090A0B0C0D0E08E007E03C
:1045600006E005E004E003E002E001E000E000BF57
:1045700000BFBFE00A2910D2DFE801F005060708F6
:10458000090A0B0C0D0E08E007E006E005E004E068
:1045900003E002E001E000E000BF00BFAAE00A295A
:1045A00010D2DFE801F005060708090A0B0C0D0E12
:1045B00008E007E006E005E004E003E002E001E0D7
:1045C00000E000BF00BF95E093E00A2910D2DFE8C9
:1045D00001F005060708090A0B0C0D0E08E007E0BC
:1045E00006E005E004E003E002E001E000E000BFD7
:1045F00000BF7FE00A2910D2DFE801F005060708B6
:10460000090A0B0C0D0E08E007E006E005E004E0E7
:1046100003E002E001E000E000BF00BF6AE00A2919
:1046200010D2DFE801F005060708090A0B0C0D0E91
:1046300008E007E006E005E004E003E002E001E056
:1046400000E000BF00BF55E00A2910D2DFE801F00A
:1046500005060708090A0B0C0D0E08E007E006E046
:1046600005E004E003E002E001E000E000BF00BF7D
:1046700040E00A2910D2DFE801F005060708090A20
:104680000B0C0D0E08E007E006E005E004E003E097
:1046900002E001E000E000BF00BF2BE00A2910D2D9
:1046A000DFE801F005060708090A0B0C0D0E08E00B
:1046B00007E006E005E004E003E002E001E000E0DE
:1046C00000BF00BF16E0FFE70A2910D2DFE801F0C3
:1046D00005060708090A0B0C0D0E08E007E006E0C6
:1046E00005E004E003E002E001E000E000BF00BFFD
:1046F00000E000BF00BF00BF00BF704710B586B02C
:1047000004460121880403F08CF90121082003F0FC
:104710007BF9FD4804F0EAF84FF48060ADF814002E
:1047200003208DF8160018208DF8170005A9F7480A
:1047300002F08EFE4FF40060ADF8140004208DF8F6
:10474000170005A9F14802F083FE01940020ADF89E
:104750000800ADF80A00ADF80C00ADF810000C2010
:10476000ADF80E0001A9E84804F003F90120E8497A
:1047700008608021E44804F070FA0121E24804F066
:1047800084F9012240F22551DF4804F08AF92720FC
:104790008DF8000002208DF8010003208DF8020042
:1047A00001208DF80300684602F0FBFC0020D94987
:1047B000097801EB0111D84A02F8110006B010BDCA
:1047C0002DE9F05F0546884691469A460B9EE80023
:1047D00000F10A07384604F0CFFE04463946204669
:1047E00004F0A1FAAA20207055206070A57084F80A
:1047F000038084F8049084F805A00A98A071012D24
:1048000018D13078207270786072B078A072F07829
:10481000E0723079207370796073B079A073F079A9
:10482000E073A021E800083021545F21E80009303E
:10483000215407E0A021E800083021545F21E8005E
:1048400009302154022012E0072809D0082101EB89
:10485000C501814204D0092101EBC501814200D18B
:1048600004E0E179225C1144E17100BF401CE900E1
:104870000A318142E8DC4FF0000B0DE000BF40211F
:10488000A14804F0DDF90128F9D114F80B109E4875
:1048900004F068F90BF1010BBB45EFD3204604F09F
:1048A00043FEBDE8F09F2DE9FC5F9C48C08A0828C4
:1048B00005D2DFE800F0040506CFFEFDFCFBD9E2DF
:1048C000FDE79749D1F8800004F096FC80469548B2
:1048D0000CC8404604F0A1FB06460022924B04F0AF
:1048E000F5FA04460022914B04F009FC824604F0DC
:1048F000B5FC8F4908708A49D1F8800004F07CFC2F
:10490000CDE9000187480CC8009804F086FB0646F4
:104910000022854B04F0DAFA04460022854B04F0AD
:10492000EEFB804604F09AFC00F0FF0A4FEAEA70C2
:104930000AEB10600012AAEB00207D4948707E4906
:10494000D1F8800004F058FC80467C480CC84046F2
:1049500004F063FB82460022734B04F0B7FA06466C
:104960000022724B04F0CBFB044604F077FC704944
:1049700088707149D1F8800004F03EFC80466F4891
:104980000CC8404604F049FB06460022664B04F082
:104990009DFA04460022674B04F0B1FBCDE900010B
:1049A00004F05CFC00F0FF0A4FEAEA700AEB1060CA
:1049B0000012AAEB00205E49C8706148006D002813
:1049C00002DA0120087102E00020594908715C49AF
:1049D000086D04F011FC5B4A5B4BCDE9000104F06B
:1049E0001CFB06460022504B04F070FA8046002261
:1049F000504B04F084FB044604F030FC00F0FF0A46
:104A00004FEAEA700AEB10600012AAEB0020484956
:104A100048714248408BB0F57A7F04D03F48807E91
:104A2000401C887102E0F020414988713B48007EBB
:104A30003F49C8710846002161236D22CDE900106D
:104A400002210120FFF7BCFE012232210846FBF7BC
:104A50000CFDB0E33148007811287DD005DC48B169
:104A600001287AD0102879D1E6E0202877D03028A4
:104A7000F9D191E12A480078002871D12E480078B8
:104A800000286DD12E48007800287DD12F4800687D
:104A9000012817D02D48001D0068012812D02B488E
:104AA0000830006801280DD0294803E071E31FE3B6
:104AB00097E2E0E10068012804D025481438006836
:104AC00001280FD10020FF2161236D22CDE90010C4
:104AD0000321FFF775FE052232210846FBF7C5FCCE
:104AE000BDE8FC9F0020012161236D22CDE900106B
:104AF0000321FFF765FE0120164908700749C873B6
:104B0000C870087148712CE000480040000C01405A
:104B1000BC012142B70000208C0300206C03002060
:104B2000BC010020480000200000E03F0000704071
:104B3000AF0000200000F03F4C0200205000002099
:104B4000DC0200200AD7A3703D0AB73F0C81214246
:104B50002C01234275000020C6E016E089E13DE10A
:104B600012E08871C871087248720846808A143849
:104B70008882002088730846C07A401CC8720122CF
:104B800032210846FBF771FC73E1FE4800780028EB
:104B900051D1FD48007800284DD1FC48007800280C
:104BA00049D1FB480068012812D0F948001D00686F
:104BB00001280DD0F64808300068012808D0F548D3
:104BC0000068012804D0F3481438006801280ED189
:104BD0000020FF2161236D22CDE900100321FFF7A2
:104BE000EFFD052232210846FBF73FFC78E7002065
:104BF000012161236D22CDE900100321FFF7E0FDC3
:104C00000120E5490870E549C873C870087148710A
:104C10008871C871087248720846808A1438888280
:104C2000002088730846C07A401CC87201223221D5
:104C30000846FBF71AFC1CE1D2480078002852D144
:104C4000D148007800284ED1D048007800284AD1B9
:104C5000CF480068012812D0CD48001D0068012807
:104C60000DD0CB4808300068012808D0C94800683A
:104C7000012804D0C7481438006801280ED1052245
:104C800032210846FBF7F1FB0020FF2161236D2252
:104C9000CDE900100321FFF793FD21E7002001215A
:104CA00061236D22CDE900100321FFF789FDBB4888
:104CB000807A401CB94988720120B7490870B74909
:104CC00008748870087148718871C87108724872D8
:104CD000002088730846808A14308882012232219D
:104CE0000846FBF7C2FBC4E0A6480078002852D172
:104CF000A548007800284ED1A448007800284AD161
:104D0000A3480068012812D0A148001D00680128AE
:104D10000DD09F4808300068012808D09D480068E1
:104D2000012804D09B481438006801280ED10020C7
:104D3000FF2161236D22CDE900100321FFF740FD23
:104D4000052232210846FBF790FBC9E6002001212D
:104D500061236D22CDE900100321FFF731FD8F485B
:104D6000807A401C8D49887201208B4908708B49DC
:104D700008748870087148718871C8710872487227
:104D8000002088730846808A1430888201223221EC
:104D90000846FBF76AFB6CE07A480078E8B97A4885
:104DA0000078D0B979480078B8B900200121612392
:104DB0006D22CDE900100321FFF702FD01207849A3
:104DC000C87000208870012048700870754908700C
:104DD000012232210846FBF748FB4AE06948007887
:104DE000F0BB69480078D8BB68480078C0BB684809
:104DF0000068012812D06648001D006801280DD007
:104E0000634808300068012808D06248006801281B
:104E100004D060481438006801280ED105223221E0
:104E20000846FBF722FB0020FF2161236D22CDE91C
:104E300000100321FFF7C4FC52E60020012161238A
:104E40006D22CDE900100321FFF7BAFC0120524981
:104E500008705249C873C87000208873012000E0B0
:104E600006E008714871012232210846FBF7FDFA7D
:104E700000BF00BF9FE10120484948740020012184
:104E800061236D22CDE900100321FFF799FC43480F
:104E9000007800F0300020B1102850D0202839D1FF
:104EA00039E03B480068012812D03948001D0068ED
:104EB00001280DD0364808300068012808D0354850
:104EC0000068012804D033481438006801280ED146
:104ED0000020FF2161236D22CDE900100321FFF79F
:104EE0006FFC052232210846FBF7BFFAF8E52B4894
:104EF000007800F0010010B101280AD104E000217F
:104F00000846FEF76EFE04E001210020FEF769FE70
:104F100000BF00BF5EE02148007800F0010010B142
:104F200001280AD104E001210220FEF75AFE04E024
:104F300000210220FEF755FE00BF00BF4AE01448E2
:104F40000068012812D01248001D006801280DD009
:104F50000F4808300068012808D00E480068012872
:104F600004D00C4814380068012821D10020FF210A
:104F700061236D22CDE900100321FFF721FC0522FA
:104F8000322111E0BC0100204C020020DC02002094
:104F90000C8121422C012342750000206C0300206B
:104FA000A4000020940000200846FBF75EFA97E575
:104FB000FE48007800F0010028B1012808D1002146
:104FC000FEF70FFE04E001210846FEF70AFE00BFCF
:104FD00000BF00BF00BF012232210846FBF745FA9F
:104FE000E9E00020012161236D22CDE900100321B9
:104FF000FFF7E6FBED4800780411002C01DD1024DA
:1050000000E0002404F0100010B1102869D12DE058
:10501000E648007800F00F00082821D2DFE800F011
:105020002004080C1014181C0020E04908761BE02E
:105030000120DE49087617E00220DC49087613E0FB
:105040000320DA4908760FE00420D84908760BE0FF
:105050000520D649087607E00620D449087603E003
:105060000020D249087600BF00BF3AE0CF48007860
:1050700000F0F00000F00F0169BB001110282AD2E7
:10508000DFE800F029080C1014181C202929292910
:10509000292929240020C549488320E00120C3494B
:1050A00048831CE00220C149488318E00320BF491F
:1050B000488314E00420BD49488310E00520BB4923
:1050C00048830CE00620B949488308E04FF47A7021
:1050D000B649488303E00020B449488300BF00BFBD
:1050E00000BF00BF012232210846FBF7BEF962E093
:1050F0000020012161236D22CDE900100621FFF778
:105100005FFBAA48007880BB0020A94908700021F5
:105110004FF0804003F00CF90020A64908700021F0
:10512000A54803F005F90020A44908700021A4480F
:1051300003F0FEF800209D49C873087488824882F5
:105140000120A04908709949C87088700871487199
:105150008871C871087248720020887301209A49CA
:10516000487000200870C8700DE0FFE701209749E3
:1051700008609749087040F2DC50FCF7A6FC40F24A
:10518000DC50FCF7A2FC012232210846FBF76DF946
:1051900011E00020012161236D22CDE900100721DB
:1051A000FFF70EFB002083490865012232210846E3
:1051B000FBF75BF900BF00BF00BF91E410B5854865
:1051C000007800287DD083480078401E00EB001056
:1051D000814901EB400090F820107E480078401E85
:1051E00000EB00107C4A02EB4000007A814226D09E
:1051F000002178480078401E00EB001002EB4000D0
:1052000080F8201073480078401E00EB001002F870
:10521000101070490978491E01EB011102EB4101A0
:10522000481C1E2103F07FFD6A480078401E694932
:105230000870032232210846FBF717F910BD6548B4
:105240000078401E00EB0010634901EB40004079FC
:105250006D2836D100215F480078401E00EB001019
:105260005D4A02EB400001725A480078401E00EB94
:10527000001002F8101057480078401E00EB001094
:1052800002EB400080F8201052480078401E00EBEE
:105290000010114601EB400000794449C8824D4896
:1052A0000078401E00EB0010114601EB4000C07971
:1052B0003E49087047480078401E00EB0010114638
:1052C00000E08EE001EB4000807800285DD041488E
:1052D0000078401E00EB001001EB4000817A3D4851
:1052E0000078401E00EB001002EB4000407A01EB1A
:1052F00000202E49488237480078401E00EB0010FD
:10530000114601EB4000017B32480078401E00EB63
:10531000001002EB4000C07A01EB00202349888294
:105320002C480078401E00EB0010114601EB4000B5
:10533000407B1E49487027480078401E00EB001053
:10534000114601EB4000C17B22480078401E00EB73
:10535000001002EB4000807B01EB00201349C88362
:105360001C480078401E00EB0010114601EB400085
:10537000417C18480078401E00EB001002EB400012
:10538000007C01EB00200949888312490978491EF5
:1053900001EB0111104A02EB4101481C1E2103F0F0
:1053A000C2FC0C480078401E0A4917E06C0300203C
:1053B000BC010020DC020020000400404C02002060
:1053C0000008004075000020A40000209401214244
:1053D000AC000020B70000208C0300200870FFF70D
:1053E00062FA00BF2AE710B540F22551FE4803F0EB
:1053F00067FCFD4803F0BAFBFC49097801EB011199
:10540000FB4A02EB4101C877FA4800780B2856D2D4
:10541000DFE800F00656A6F2F0EFEEEDECEBEA0066
:10542000F248007800EB0010F14901EB4000C07F2A
:10543000AA2829D1ED48007800EB001001EB4000CC
:10544000C17FEA48007800EB0010E94A02EB400017
:10545000401CE64A127802EB0212E54B13F81220C8
:1054600081540120E3490870E048007800EB001007
:10547000194611F81000401CDC49097801EB0111B4
:105480001A4602F811001AE00020DA490870D749DC
:10549000097801EB0111D64A02F81100D3490978C5
:1054A00001EB011102EB410181F820000120CF49FD
:1054B000097801EB011102EB410181F8210065E35C
:1054C000CA48007800EB0010C94901EB4000C07FDA
:1054D000552829D1C548007800EB001001EB4000A9
:1054E000C17FC248007800EB0010C14A02EB4000C7
:1054F000401CBE4A127802EB0212BD4B13F8122078
:1055000081540220BB490870B848007800EB0010B5
:10551000194611F81000401CB449097801EB01113B
:105520001A4602F811001AE00020B2490870AF498B
:10553000097801EB0111AE4A02F81100AB49097874
:1055400001EB011102EB410181F820000120A74984
:10555000097801EB011102EB410181F8210015E30B
:10556000A248007800EB0010A14901EB4000C17F88
:105570009E48007800EB00109D4A02EB4000401C62
:105580009A4A127802EB0212994B13F812208154B6
:105590000320984908709548007800EB00101946E0
:1055A00011F81000401C9149097801EB01111A46CD
:1055B00002F811008D48007800EB0010114601EB55
:1055C000400090F820008949097801EB011102EBB5
:1055D0004101C97F08448549097801EB011102EBBB
:1055E000410181F82000D1E27DE22CE27FE11CE163
:1055F000CEE089E044E0FFE77C48007800EB001053
:105600007B4901EB4000C17F7848007800EB001037
:10561000774A02EB4000401C744A127802EB0212F7
:10562000734B13F8122081540420724908706F489C
:10563000007800EB0010194611F81000401C6B496F
:10564000097801EB01111A4602F811006748007849
:1056500000EB0010114601EB400090F82000634978
:10566000097801EB011102EB4101C97F08445F4950
:10567000097801EB011102EB410181F8200085E27C
:105680005A48007800EB0010594901EB4000C17FF7
:105690005648007800EB0010554A02EB4000401CD1
:1056A000524A127802EB0212514B13F81220815425
:1056B0000520504908704D48007800EB001019464D
:1056C00011F81000401C4949097801EB01111A46F4
:1056D00002F811004548007800EB0010114601EB7C
:1056E000400090F820004149097801EB011102EBDC
:1056F0004101C97F08443D49097801EB011102EBE2
:10570000410181F8200041E23848007800EB0010A8
:10571000374901EB4000C17F3448007800EB0010AE
:10572000334A02EB4000401C304A127802EB02126E
:105730002F4B13F81220815406202E4908702B4855
:10574000007800EB0010194611F81000401C2749A2
:10575000097801EB01111A4602F81100234800787C
:1057600000EB0010114601EB400090F820001F49AB
:10577000097801EB011102EB4101C97F08441B4983
:10578000097801EB011102EB410181F82000FDE1F4
:105790001648007800EB0010154901EB4000C17F6E
:1057A0001248007800EB0010114A02EB4000401C48
:1057B0000E4A127802EB02120D4B13F8122081549C
:1057C00007200C4908700948007800EB00101946C2
:1057D00011F81000401C0549097801EB01111A4627
:1057E00002F81100014807E000480040B70000201F
:1057F0008C030020B8000020007800EB0010114658
:1058000001EB400090F82000E149097801EB01111B
:1058100002EB4101C97F0844DD49097801EB011120
:1058200002EB410181F82000B0E1D948007800EB9B
:105830000010D84901EB4000C17FD548007800EB4B
:105840000010D44A02EB4000401CD14A127802EB0F
:105850000212D04B13F8122081540820CE49087050
:10586000CB48007800EB0010194611F81000401CDE
:10587000C749097801EB01111A4602F81100C44822
:10588000007800EB0010114601EB4000C07820B119
:10589000012806D002280CD107E00920BE49087073
:1058A00023E00820BC4908701FE00820BA490870AE
:1058B0001BE00020B8490870B549097801EB0111D7
:1058C000B44A02F81100B249097801EB011102EB68
:1058D000410181F820000120AD49097801EB011157
:1058E00002EB410181F8210000BF00BF4EE1A84852
:1058F000007800EB0010A74901EB4000C0780128B8
:1059000002D002284DD14DE0A148007800EB0010F4
:10591000A04901EB4000C17F9D48007800EB0010DA
:105920009C4A02EB4000401C994A127802EB02129A
:10593000984B13F8122081549548007800EB001022
:10594000194611F81000401C9149097801EB01112A
:105950001A4602F811008E48007800EB001011463C
:1059600001EB400090F820008949097801EB011112
:1059700002EB4101C97F08448549097801EB011117
:1059800002EB410181F820008148007800EB001013
:10599000114611F81000C01F082802D109207E49C5
:1059A00008704EE07A48007800EB0010794901EB6E
:1059B0004000C17F7648007800EB0010754A02EB8A
:1059C0004000401C724A127802EB0212714B13F82D
:1059D000122081546E48007800EB0010194601EB4C
:1059E000400090F820006A49097801EB01111A463D
:1059F00002EB4101C97F08446549097801EB0111B7
:105A000002EB410181F820006148007800EB0010B2
:105A1000114611F81000C01F102802D109205E495C
:105A200008705B48007800EB00105A4911F810002C
:105A3000401C5749097801EB0111564A02F8110040
:105A400000BF00BFA2E05248007800EB00105149AF
:105A500001EB4000C07FA02829D14D48007800EB21
:105A6000001001EB4000C17F4948007800EB0010B6
:105A7000484A02EB4000401C454A127802EB0212F1
:105A8000444B13F8122081540A20434908704048BF
:105A9000007800EB0010194611F81000401C3C493A
:105AA000097801EB01111A4602F811001AE00020F2
:105AB000394908703649097801EB0111354A02F875
:105AC00011003349097801EB011102EB410181F822
:105AD000200001202E49097801EB011102EB410160
