:020000040800F2
:10000000481300208D8A00084102000843020008BE
:10001000470200084B0200084F02000800000000E1
:100020000000000000000000000000005302000873
:10003000550200080000000057020008590200089D
:10004000A78A0008A78A0008A78A0008A78A0008CC
:10005000A78A0008A78A0008FB2A0008272A0008A8
:10006000A78A0008A78A00088B2B0008A78A000827
:10007000A78A0008A78A0008A78A0008A78A00089C
:10008000A78A0008A78A0008A78A0008A78A00088C
:10009000A78A0008A78A0008A78A0008A78A00087C
:1000A000A78A0008A78A0008A78A0008A78A00086C
:1000B00017180008A78A0008A78A0008A78A00085E
:1000C000A78A0008A78A0008A78A0008A78A00084C
:1000D000A78A0008A78A0008055A00088951000865
:1000E000A78A0008A78A0008A78A0008A78A00082C
:1000F000A78A0008A78A0008A78A0008A78A00081C
:10010000A78A0008A78A0008B3090008A78A000880
:10011000A78A0008A78A0008A78A0008A78A0008FB
:10012000A78A0008A78A0008A78A0008A78A0008EB
:10013000DFF80CD009F086F80048004745010008B8
:10014000481300201CB501F0A9FB58E002F046FB63
:1001500002F03EFA32480078012850D104F0FFFE48
:1001600000202F49087003F04FFD00F030FA06F030
:10017000A2FA2C4A918A508A03F0A3F8294A918A5C
:10018000508A03F0C7FA2848007800EB001027498E
:1001900001EB400090F82100012827D103223221F1
:1001A000084600F060F900201F49097801EB0111B1
:1001B0001E4A02EB410181F821001B49097801EB3D
:1001C000011102EB4101481C1E2108F078FC0020BF
:1001D000FF2161236D22CDE9001004F0C3F9002155
:1001E000134808F01EFB01201249087012480078DD
:1001F000012804D10020114908600F490870A5E7C3
:1002000070B504460D46E1B2094808F077FB00BF1F
:100210000748008800F080000028F9D0204670BD13
:100220003300002054030020A000002074030020AD
:1002300000480040970000209500002094012142D2
:10024000704700BFFEE700BFFEE700BFFEE700BF4C
:10025000FEE7704770477047704700000CB50020FC
:10026000019000906C48006840F480306A49086052
:1002700000BF6948006800F4003000900198401CFD
:100280000190009818B90198B0F5A06FF1D16248BB
:10029000006800F4003010B10120009001E000205F
:1002A00000900098012843D15C48006840F010009D
:1002B0005A4908600846006820F0030008600846B4
:1002C000006840F0020008605348406852494860A6
:1002D0000846406848600846406840F480604860CE
:1002E0000846406820F47C1048600846406840F4A6
:1002F000E81048600846006840F08070086000BF61
:100300004548006800F000700028F9D04248406875
:1003100020F00300404948600846406840F0020071
:10032000486000BF3C48406800F00C000828F9D144
:100330000CBD10B5FFF792FF10BD10B53648006830
:1003400040F00100344908600846406834490840DC
:100350003149486008460068324908402E49086023
:100360000846006820F4802008600846406820F4B1
:10037000FE0048604FF41F008860FFF7DAFF4FF07F
:1003800000602949086010BD10B50021002000223E
:10039000214B5B6803F00C0121B1042906D0082928
:1003A00028D107E0214B224C236027E01F4B204C33
:1003B000236023E0184B5B6803F47010164B5B68F6
:1003C00003F48032022303EB904022B9194B4343DC
:1003D000174C23600DE0104B5B6803F4003323B12E
:1003E000144B4343124C236003E0104B4343104C27
:1003F000236003E00D4B0E4C236000BF00BF064B93
:100400005B68C3F303130C4CE15C094B1B68CB40E6
:10041000074C236010BD0000001002400020024085
:100420000000FFF8FFFFF6FE08ED00E000127A0082
:100430000000002000093D000400002017488069EA
:1004400040F01000154988611548406820F470405C
:10045000134948600846406840F4405048600846E8
:10046000C068C86070472DE9F04107460C46154644
:1004700000260EE001200B490860384601F001FB20
:1004800000200949C1F8AC01204601F0FAFA701CBD
:10049000C6B2AE42EEDBBDE8F081000000100240C3
:1004A00000100140AC0122420000224208B50121A7
:1004B000202007F075F9BD20ADF8000048208DF828
:1004C00003006946D54806F08FFE08BD10B5D44834
:1004D000006880B9D3480078002877D1032001F064
:1004E000D0FACF480068002870D10120CD490870AB
:1004F000CD4908706AE0CA480C38006888B9C94814
:100500000078002862D1032001F0BBFAC4480C38FF
:10051000006800285AD10120C2490870C3490870F8
:1005200054E0BF480838006888B9BE480078002801
:100530004CD1032001F0A5FAB9480838006800281A
:1005400044D10120B7490870B94908703EE0B44869
:100550001438006878B9B3480078F8B9032001F07E
:1005600090FAAF4814380068C0B90120AD4908704E
:10057000B04908702AE0AA481038006878B9A9483C
:10058000007858B9032001F07CFAA54810380068BB
:1005900020B90120A3490870A749087016E0A048B7
:1005A0001C38006878B99F48007878B9032001F0BA
:1005B00068FA9B481C38006840B9012099490870C6
:1005C0009E49087002E000209649087010BD10B5E1
:1005D000FFF77CFF9448007801280CD10020924955
:1005E000087001221146052001F0A9FC0122C82152
:1005F0000846FFF738FF8D48007801280CD100200D
:100600008A49087000220121052001F098FC01228E
:10061000C8210846FFF727FF8548007801280CD13C
:1006200000208349087000221146052001F087FC54
:1006300001226421C820FFF716FF7E4800780128B8
:100640000CD100207B49087001220021052001F017
:1006500076FC01226421C820FFF705FF7648007868
:1006600001280CD1002074490870002202210520C5
:1006700001F065FC012232210846FFF7F4FE6F48C5
:10068000007801287ED100206C49087001223221B7
:100690000846FFF7E8FE3C20694908600122042172
:1006A000674806F00CFB66480068664908606649C2
:1006B0006648674AC2E900100A220821644806F029
:1006C00099FA6348D0E90010624AC2E900102F206D
:1006D00061490860192204215F4806F08BFA5E48E0
:1006E00000685E4908605E485E495F4A03C2232293
:1006F00008215D4806F07EFA5B48D0E900105B4AAD
:10070000C2E90010E3205A49086032220421584807
:1007100006F070FA564800685649086000205649AD
:1007200008603C220421544806F064FA52480068EC
:100730005249086046205249086046220421504828
:1007400006F058FA4E4800684E4908601E204E498F
:100750000860502204214C4806F04CFA4A480068D0
:100760004A49086040F60610494908605A220421A7
:10077000474806F03FFA464800684649086040F698
:10078000980000E049E0444908606422042142489E
:1007900006F030FA404800684049086040F684009E
:1007A0003F4908606E2204213D4806F023FA3C4888
:1007B00000683C49086040F6BB003B49086078226D
:1007C0000421394806F016FA3748006837490860AE
:1007D00040F698003649086082220421344806F029
:1007E00009FA3348006833490860642032490860D8
:1007F0008C220421304806F0FDF92F4800682F496B
:100800000860AA202E490860962204212C4806F090
:10081000F1F92B4800682B49086010BD0014014015
:100820001C81224214000020150000201600002028
:100830001700002018000020190000201A000020D6
:10084000C000002044000020295C8FC2F528DC3F56
:10085000C800002048000020D000002078000020C0
:1008600017D9CEF753E3D53FD80000205000002021
:10087000E00000207C000020E40000208000002038
:10088000E800002058000020EC0000205C00002060
:10089000F000002060000020F40000206400002030
:1008A000F800002068000020FC0000206C00002000
:1008B00000010020700000200801002084000020BA
:1008C000040100208800002008B50121102006F056
:1008D00067FF0420ADF8000010208DF8030003200E
:1008E0008DF802006946044806F07EFC04210248A7
:1008F00006F027FD08BD0000001001407FB5054649
:100900000C460121082006F058FFADF80850ADF85C
:1009100004400020ADF80A00ADF8060001A9FE4829
:1009200007F076F801221146FB4807F0E8FB322079
:100930008DF8000000208DF8010003208DF80200E2
:1009400001208DF80300684606F0F7FA0121F2480D
:1009500007F0BAFB7FBD7FB505460C46012108466E
:1009600006F02BFFADF80850ADF804400020ADF8BC
:100970000A00ADF8060001A94FF0804007F048F8E2
:1009800001221146900707F0BAFB1C208DF80000E9
:1009900001208DF8010003208DF8020001208DF860
:1009A0000300684606F0C9FA0121880707F08CFBAE
:1009B0007FBD00B589B00121D74807F04EFE002861
:1009C0007ED00121D44807F059FED448007800B306
:1009D000D3480078D1490978884207D0CF480078B9
:1009E000401ED04908700020CF490880CB480078CD
:1009F000CB490870CB48007858B1CB480088401CE0
:100A0000C949088008460088C82803DA0120C74978
:100A1000086010E0C4480088B0F5FA7F03DA0020CF
:100A2000C249086007E00020BF490880BD4800783F
:100A3000401EBC4908700120BD490870BD480078BF
:100A400002287DD1BB484069401CBA49486108462C
:100A500090F8720007284AD2DFE800F049044ABE45
:100A6000DEFDFC00B348C06F0790B248C068069036
:100A7000079908F00DFB33D2AE484068AD49886154
:100A800008464069486308464069069008F07BFACA
:100A90000790A848806F01460690079808F072F802
:100AA000A449C86008464069049008F06CFA0590B3
:100AB000A048C06801460490059808F063F800E07B
:100AC000FEE34FF08041069008F08EF89A490790B7
:100AD00008F000F89749886008468068486506E095
:100AE000944890F87200401C924981F872006BE1C2
:100AF0009048C0680021079008F0D4FA64D28D486D
:100B00004168C16141698163808A8A49898E401A3E
:100B10008849A1F870000846B0F87000059008F008
:100B200032FA06908348806F01460590069808F0D7
:100B300029F807907F48C06F01460690079800E0AB
:100B40005DE108F01CF87B49C8600846B0F8700009
:100B5000029008F018FA04907648B0F870000190FE
:100B600008F011FA02907348806F014601900298D4
:100B700008F008F80390049908F004F84FF0804159
:100B8000059008F031F807906A48B0F870000390BB
:100B900008F0F9F904906748C06F01460390049883
:100BA00007F0F0FF05906348406D014604900598FA
:100BB00007F090FF0690079907F0DEFF5D49886017
:100BC00008468168816506E05A4890F87200401C2A
:100BD000584981F87200F7E056480169C069081A5F
:100BE0005449496888420FD95248416801624169B5
:100BF000C163B0F87400079008F0C5F94D498860EA
:100C000008468168C16506E04A4890F87200401CB9
:100C1000484981F87200D7E04648C06F07904548C0
:100C2000C0680690079908F033FA3ED241484168FF
:100C3000416241690164818A808F081A3D49A1F8A7
:100C400070000846B0F87000069008F09CF9079014
:100C5000384801E0B4E030E0806F01460690079824
:100C600007F090FF3349C8600846B0F87000049060
:100C700008F089F905902F48C0680146049005984E
:100C800007F080FF4FF08041069007F0ADFF07901E
:100C90002848C06D01460690079807F070FF254967
:100CA000886008468168016606E0224890F8720074
:100CB000401C204981F8720086E01E4880681E4969
:100CC000079008F0EFF973D21A48416881624169D0
:100CD0004164818AB0F84000081A1649A1F87000F2
:100CE0000846B0F87000059008F04DF906901148DC
:100CF000806F01460590069807F044FF07900D4865
:100D0000C06F01460690079807F039FF0949C8608F
:100D10000846B0F8700011E0000C00401E000020F2
:100D20001F000020300000202E00002088012242F9
:100D300033000020A40100200000C842019008F008
:100D400022F90390FE48B0F87000009008F01BF9FB
:100D50000190FB48806F01460090019807F012FF58
:100D60000290039907F00EFF4FF08041049007F0C6
:100D70003BFF0690F248B0F87000039008F003F9CA
:100D80000490EF48C06F01460390049807F0FAFE04
:100D90000590069907F0F0FE0790E948006E0146BD
:100DA0000690079807F0EBFEE549886007E0FFE74B
:100DB000E34890F87200401CE14981F8720003E0BA
:100DC000E048DF49886000BF00BFDD488068014619
:100DD0000790172001F053F808900898B0F57A7F33
:100DE00051D34FF2B561089888424CD2012188074F
:100DF00007F06AF91721089801F05DF843E0D04840
:100E00000078012823D1D048007E32214843323077
:100E1000CB49A1F87400CC48408B00EB8000400027
:100E20000A3008610846B0F87400069008F0ABF884
:100E300001460790172001F022F808901721089822
:100E400001F039F80121880707F03EF91BE0BC48A2
:100E50000078032817D16420B949A1F87400084626
:100E6000B0F87400069008F08EF80146079017203D
:100E700001F005F808901721089801F01CF80121ED
:100E8000880707F021F9B148007802287ED1AF48E1
:100E90004069401CAD494861084690F87200072837
:100EA00048D2DFE800F0470448BCDCFEFD00A7485C
:100EB000C06F0790A548C0680690079908F0E8F849
:100EC00031D2A2484068A149886108464069486318
:100ED00008464069069008F056F807909B48806FD6
:100EE00001460690079807F04DFE9849C8600846ED
:100EF0004069049008F047F805909448C06801469E
:100F00000490059807F03EFE4FF08041069007F0F0
:100F10006BFE8F49079007F0DDFD8C49886008461D
:100F20008068486506E0894890F87200401C87494F
:100F300081F8720062E18548C0680021079008F0DE
:100F4000B1F864D281484168C16141698163808A96
:100F50007E49898E401A7D49A1F870000846B0F894
:100F60007000059008F00FF806907848806F0146F1
:100F70000590069807F006FE07907448C06F01467A
:100F80000690079807F0FBFD704900E051E1C8604A
:100F90000846B0F87000029007F0F5FF04906B4827
:100FA000B0F87000019007F0EEFF02906748806F84
:100FB00001460190029807F0E5FD0390049907F0BF
:100FC000E1FD4FF08041059007F00EFE07905F486D
:100FD000B0F87000039007F0D6FF04905B48C06F34
:100FE00001460390049807F0CDFD05905748406DE9
:100FF00001460490059807F06DFD0690079907F0EB
:10100000BBFD5249886008468168816506E04F480B
:1010100090F87200401C4D4981F87200EEE04B4898
:101020000169C069081A4949496888420FD9474887
:10103000416801624169C163B0F87400079007F02C
:10104000A2FF4249886008468168C16506E03F48C2
:1010500090F87200401C3D4981F87200CEE03B4898
:10106000C06F07903948C0680690079908F010F8DB
:101070003ED236484168416241690164818A808F6D
:10108000081A3249A1F870000846B0F870000690BE
:1010900007F079FF07902D48806F0146069001E028
:1010A000A8E02DE0079807F06DFD2849C8600846C4
:1010B000B0F87000049007F066FF05902348C06800
:1010C00001460490059807F05DFD4FF080410690C1
:1010D00007F08AFD07901D48C06D014606900798ED
:1010E00007F04DFD1949886008468168016606E0F1
:1010F000164890F87200401C144981F872007DE097
:10110000124880681249079007F0CCFF6AD20F4856
:101110004168816241694164818AB0F84000081ADF
:101120000A49A1F870000846B0F87000059007F071
:101130002AFF06900548806F01460590069809E051
:10114000A40100200000C842540300203402002003
:101150000000484207F016FD0790FE48C06F0146A8
:101160000690079807F00BFDFA49C8600846B0F8EA
:101170007000019007F007FF0390F648B0F8700088
:10118000009007F000FF0190F248806F0146009048
:10119000019807F0F7FC0290039907F0F3FC4FF079
:1011A0008041049007F020FD0690EA48B0F87000F6
:1011B000039007F0E8FE0490E648C06F01460390F4
:1011C000049807F0DFFC0590069907F0D5FC07901E
:1011D000E048006E01460690079807F0D0FCDD4914
:1011E000886006E0DB4890F87200401CD94981F81D
:1011F000720003E0D848D749886000BF00BFD548D7
:10120000806801460790172000F039FE0890089882
:10121000B0F57A7F51D34FF2B561089888424CD22D
:101220001721089800F074FE0121CC4806F04CFF0D
:1012300043E0C8480078012823D1C948007E322104
:1012400048433230C349A1F87400C548408B00EBD5
:1012500080004000323008610846B0F87400069003
:1012600007F091FE01460790172000F008FE089055
:101270001721089800F04CFE0121B84806F024FF21
:101280001BE0B4480078032817D15020B149A1F8D9
:1012900074000846B0F87400069007F074FE01462A
:1012A0000790172000F0EBFD08901721089800F038
:1012B0002FFE0121A94806F007FFAA48007800E0A8
:1012C000A7E202287ED1A7484069401CA549486191
:1012D000084690F87200012843D10846C06F079075
:1012E0000846C0680690079907F0D2FE31D29D48A3
:1012F00040689C49886108464069486308464069DF
:10130000069007F040FE07909648806F01460690D1
:10131000079807F037FC9349C86008464069049075
:1013200007F031FE05908F48C0680146049005988B
:1013300007F028FC4FF08041069007F055FC8A49E1
:10134000079007F0C7FB87498860084680684865B2
:1013500095E1844890F87200401C824981F872003F
:101360008DE1804890F8720002287DD17D48C068E8
:101370000021079007F096FE7BD27A48B0F87400FF
:10138000069007F000FE07907648806801460690B8
:10139000079807F087FE6CD272484069B0F5FA7F73
:1013A00067D270484168C16141698163808A6D4933
:1013B000898E401A6B49A1F870000846B0F8700099
:1013C000059000E075E107F0DEFD06906548806F4E
:1013D00001460590069807F0D5FB07906148C06F5D
:1013E00001460690079807F0CAFB5E49C8600846A8
:1013F000B0F87000029007F0C6FD04905948B0F8AC
:101400007000019007F0BFFD02905648806F0146C2
:101410000190029807F0B6FB0390049907F0B2FB25
:101420004FF08041059007F0DFFB07904D48B0F882
:101430007000039007F0A7FD04904A48C06F014672
:101440000390049807F09EFB05904648406D0146C6
:101450000490059807F03EFB0690079907F08CFB77
:1014600040498860084601E00BE002E08168816540
:1014700005E13C4890F87200401C3A4981F872003E
:10148000FDE0384890F8720003281FD13548016903
:10149000C069081A3349496888420FD93148416800
:1014A00001624169C163B0F87400079007F06BFDF9
:1014B0002C49886008468168C165E0E0294890F8B9
:1014C0007200401C274981F87200D8E0254890F846
:1014D000720004285BD12348C06F07902148C06880
:1014E0000690079907F0D4FD48D21E484168416232
:1014F00041690164818A808F081A1A49A1F8700035
:101500000846B0F87000069007F03DFD07901548BA
:10151000806F01460690079807F034FB1149C860B8
:101520000846B0F87000049007F02DFD05900D48B6
:10153000C06801460490059807F024FB4FF08041F5
:10154000069007F051FB07900648C06D01460690D3
:1015500007980BE0340200200000484200080040D9
:1015600054030020C40200200000C84207F007FB1B
:10157000AE49886008468168016680E0AB4890F813
:101580007200401CC1B2A94880F8721077E0A748E9
:1015900090F8720005286FD1A4488068A44907908C
:1015A00007F080FD5FD2A1484168816241694164D2
:1015B000818AB0F84000081A9C49A1F870000846DA
:1015C000B0F87000059007F0DEFC06909748806F39
:1015D00001460590069807F0D5FA07909348C06F2A
:1015E00001460690079807F0CAFA9049C860084675
:1015F000B0F87000019007F0C6FC03908B48B0F87B
:101600007000009007F0BFFC01908848806F014691
:101610000090019807F0B6FA0290039907F0B2FA29
:101620004FF08041049007F0DFFA06907F48B0F851
:101630007000039007F0A7FC04907C48C06F01463F
:101640000390049807F09EFA0590069907F094FA23
:1016500007907648006E01460690079807F08FFACB
:10166000724988600BE0714890F87200401C6F4925
:1016700081F8720003E0FFE76D496C4881606B48B8
:10168000806801460790172000F0F9FB0890089841
:10169000B0F57A7F54D34FF2B561089888424FD2A3
:1016A0001721089800F01DFC0121624806F00CFD8E
:1016B00046E05E480078012826D15F48007E32214E
:1016C00048433C305949A1F874005B48408B00EB1B
:1016D00080004000323008610846B0F8740006907F
:1016E00007F051FC01460790172000F0C8FB089056
:1016F0001721089800F0F5FB01214E4806F0E4FCA4
:1017000000204E4948711BE048480078032817D153
:10171000C8204649A1F874000846B0F87400069045
:1017200007F031FC01460790172000F0A8FB089055
:101730001721089800F0D5FB01213E4806F0C4FCB3
:101740003F48006840BB3F480088401C81B23D488C
:101750000180008840F2DC51884220DD01F0E2FA8D
:101760000021F12061236D22CDE900010321002039
:1017700002F0F8FE002033490880012030497C3116
:1017800008603149087040F2DC5000F07AF940F20C
:10179000DC5000F076F902E000202A49088000F0D1
:1017A00079F82A48008820B128480088401E274937
:1017B0000880274800781D49097808442549097898
:1017C0000844254908702548007888B124480078E5
:1017D000401C2349087008460078052808DD0121CF
:1017E000204807F01EF800201C4908701C490870AA
:1017F0001D48008820B11C480088401E1A490880F6
:101800001A480088002804DD18480088401E17493F
:10181000088009B000BD10B50121880706F01DFF42
:1018200018B10121880706F029FF10BDC40200206D
:101830000000C84200040040540300208D00002036
:1018400018012142260000209500002036000020CB
:10185000A401002034020020350000209700002061
:1018600032000020004800402C0000202A00002008
:1018700070B505460C4645F2555005F003FE284666
:1018800005F003FE204605F003FE05F004FE05F01A
:1018900007FE70BD10B505F0FEFD10BD10B500F0DF
:1018A000B3F8FFF711F8FEF7C9FDFEF7FFFD00F0F2
:1018B00037F901F0F1F900F095F94FF4965002F084
:1018C000EFFD4FF4E13004F03BF801202E490870A1
:1018D00000F004F941F61F410920FFF70FF805F069
:1018E0003CF840F6B8310620FFF7C2FF0020274938
:1018F000087004F0A5FF26480068264908602648BD
:10190000D0E90010254AC2E90010254800682549A1
:1019100008602548D0E90010244AC2E90010244894
:101920000068244908602448006824490860244865
:101930000068244908602448006824490860244855
:101940000068244908602448006824490860244845
:10195000006824490860224800680860224800683E
:10196000224908602248006822490860224800682D
:101970002249086022480068224908600122322179
:101980000846FEF770FD10BD68010020950000209C
:10199000C000002044000020C800002048000020B3
:1019A000D000002078000020D80000205000002047
:1019B000E00000207C000020E400002080000020E7
:1019C000E800002058000020EC0000205C0000200F
:1019D000F000002060000020F400002064000020DF
:1019E000F800002068000020FC0000206C000020AF
:1019F0000001002070000020080100208400002069
:101A0000040100208800002010B56FF0040005F0EC
:101A1000DEFA2E4800682E49B0FBF1F02D4908701F
:101A20000846007800EB4001C1EBC0104FF6FF7193
:101A300001EAC0002849088010BD0146254A1278F5
:101A40004A434FF0E0235A6100229A611A46126914
:101A500042F001021A6100BF4FF0E022106900F06D
:101A600001021AB100F48032002AF5D04FF0E022D2
:101A7000126922F001024FF0E0231A6100229A61FC
:101A800070470146144A12884A434FF0E0235A61D6
:101A900000229A611A46126942F001021A6100BFDF
:101AA0004FF0E022106900F001021AB100F4803218
:101AB000002AF5D04FF0E022126922F001024FF027
:101AC000E0231A6100229A617047000000000020A4
:101AD00000127A003C0000203E00002010B50021DA
:101AE0004FF0006005F05BFA4FF4A06005F020FABB
:101AF00010BD012080F3138800BF00BF06480068B6
:101B000000F4E06005490843001D03490860BFF385
:101B10004F8F00BF00BFFEE70CED00E00000FA05AC
:101B200008B501215C2005F03BFE0121084605F0C7
:101B300037FE0121264805F028FC48F22000ADF8C8
:101B4000000010208DF8030003208DF80200694684
:101B5000204805F049FB48F220011E4805F0F3FB40
:101B60008020ADF8000010208DF8030003208DF8D0
:101B700002006946184805F037FB8021164805F039
:101B8000E2FB0B20ADF8000010208DF803000320CD
:101B90008DF802006946114805F026FB0B210F481D
:101BA00005F0D1FB9520ADF8000010208DF8030062
:101BB00003208DF802006946094805F015FB152140
:101BC000074805F0BEFB8021054805F0BCFB08BDB9
:101BD0000002300000080140000C014000100140EC
:101BE000001801401FB501213C2005F0D9FD01215D
:101BF000084605F0D5FD0121084605F0DEFD01216E
:101C0000022005F0DAFD0121042005F0D6FD422076
:101C1000ADF80C0018208DF80F0003208DF80E0091
:101C200003A9FC4805F0E0FA0120ADF80C001820EB
:101C30008DF80F0003208DF80E0003A9F64805F07B
:101C4000D3FA0020F549C880488008724FF08040E0
:101C500005F0DEFE6020F249088001204880042063
:101C600088800020088148814FF0804005F00DFFFA
:101C70000821C80606F058FB00214FF0804006F00E
:101C800023FA0020E549C88048800872E54805F03D
:101C9000BFFE6020E249088001204880042088803F
:101CA000002008814881DF4805F0C9FF0821DD4890
:101CB00006F059FB0021DB4806F006FA0020D74960
:101CC0000880C88048800872D74805F0A1FE6020CF
:101CD000D3490880012048800420888000200881A2
:101CE0004881D14805F0D1FE0821CF4806F01CFB01
:101CF0000021CD4806F0E8F90220ADF80C0048209C
:101D00008DF80F0003A9C44805F06EFA01210020E8
:101D100005F080FB0220019000208DF808000820CB
:101D20008DF8090001208DF80A0001A805F07CF962
:101D300007208DF8000001208DF8010002208DF8A9
:101D4000020001208DF80300684605F0F6F8012036
:101D5000ADF80C0048208DF80F0003A9AD4805F040
:101D600043FA0021012005F055FB012001900020DD
:101D70008DF8080008208DF8090001208DF80A0070
:101D800001A805F051F906208DF8000001208DF81A
:101D9000010003208DF8020001208DF80300684641
:101DA00005F0CBF81020ADF80C0048208DF80F009E
:101DB00003A99E4805F018FA0421022005F02AFB29
:101DC0001020019000208DF8080008208DF80900EF
:101DD00001208DF80A0001A805F026F90A208DF8E7
:101DE000000001208DF801008DF802008DF803003D
:101DF000684605F0A2F81520ADF80C0010208DF80B
:101E00000F0003208DF80E0003A9894805F0ECF9B6
:101E10001521874805F097FA1020ADF80C008DF8D1
:101E20000F0003208DF80E0003A97B4805F0DCF9B4
:101E30002020ADF80C0010208DF80F0003208DF845
:101E40000E0003A9794805F0CFF94FF48050ADF8A2
:101E50000C0010208DF80F0003208DF80E0003A950
:101E60006C4805F0C1F94FF4E070ADF80C00482063
:101E70008DF80F0003A9684805F0B6F91FBD2DE9DC
:101E8000F04104460D46601C07F07DF807462946E0
:101E9000384606F077FE07463946664806F0A4FE47
:101EA00080464FF07E5106F067FE0646304607F04A
:101EB0008DF8BDE8F08170B504460D464FF08040C6
:101EC00006F0B9FBA04204D900214FF0804006F093
:101ED0008FFB4FF080418C850D85C4F34F008886C1
:101EE00070BD70B504460D464E4806F0A4FBA042F6
:101EF00003D900214B4806F07BFB4A492C310C806A
:101F0000091F0D80C4F34F0046494031088070BD61
:101F100070B504460D46444806F08DFBA04203D937
:101F20000021414806F064FB3F492C310C80091F19
:101F30000D80C4F34F003C493431088070BD2DE959
:101F4000F05F82468B469146BBF1000F61D13A4863
:101F5000C0F89491394880F884903948006820B9D5
:101F6000B9F1000F01D1BDE8F09F34480078002896
:101F70004ED13248C0F810A032480CC80020324977
:101F800006F089FF05460E46504607F012F8074650
:101F90002A46334607F048F85ED24FF4FA702749D4
:101FA000A1F87400B1F874108900A1F5C87006F0AA
:101FB000E1FF0546254906F017FE2049C867B1F83C
:101FC0007410C900A1F5487006F0D4FF05462049F9
:101FD00006F00AFE194988671E488860002048609C
:101FE000486100240CE000211448183040F8241007
:101FF0001C3040F82410203040F82410601CC4B27B
:10200000072CF0DB02200D490870012081F87200D6
:102010005FE2AAE0000C01400008014098010020A6
:10202000880100200004004000080040001001402A
:10203000001801404054894C00002242A4010020B5
:10204000188122424800002000407F400000C84321
:1020500000409C470000C842FA480CC80020FA49DA
:1020600006F019FF05460E46504606F0A2FF074649
:102070002A46334606F0D8FF3BD24FF44870F34966
:10208000A1F87400B1F874108900A1F5C87006F0C9
:1020900071FF0546EE4906F0A7FDEC49C867B1F8A7
:1020A0007410C900A1F5487006F064FF0546E949BF
:1020B00006F09AFDE5498867E74888600020486097
:1020C000486100240CE00021E048183040F824105A
:1020D0001C3040F82410203040F82410601CC4B29A
:1020E000072CF0DB0220D9490870012081F872002A
:1020F000EFE140F6FC00D549A1F87400B1F8741086
:102100008900A1F5C87006F035FF0546D34906F0F1
:102110006BFDCE49C867B1F87410C900A1F54870CD
:1021200006F028FF0546CE4906F05EFDC7498867E0
:10213000C948886000204860486100240CE0002104
:10214000C248183040F824101C3040F824102030C9
:1021500040F82410601CC4B2072CF0DB0220BB49FD
:102160000870012081F87200B3E1BBF1010F7DD14D
:10217000BC48C0F8B091BC4880F88490BB48006867
:1021800018B9B9F1000F00D1EDE6B7480078002882
:10219000AED1B548C0F810A0B5480CC80020B5496C
:1021A00006F079FE05460E46504606F002FF074649
:1021B0002A46334606F038FF3AD27820AA49A1F8D9
:1021C0007400B1F87410C900A1F5C87006F0D2FE11
:1021D0000546A94906F008FDA3498867B1F87410BF
:1021E0008900A1F1C80006F0C5FE05469A4906F02F
:1021F000FBFC9D49C867A148886000204860486191
:1022000000240CE000219848183040F824101C30BD
:1022100040F82410203040F82410601CC4B2072C71
:10222000F0DB022090490870012081F8720050E133
:102230008F480CC80020924906F02DFE05460E4638
:10224000504606F0B6FE07462A46334606F0ECFE38
:102250003CD2C8208449A1F87400B1F87410C900B8
:10226000A1F5C87006F086FE054600E0B7E0854996
:1022700006F0BAFC7C498867B1F874108900A1F1B6
:10228000C80006F077FE05467F4906F0ADFC7649AA
:10229000C8677A48886000204860486100240CE0E4
:1022A00000217148183040F824101C3040F82410E8
:1022B000203040F82410601CC4B2072CF0DB022050
:1022C00069490870012081F8720002E168480CC871
:1022D00000206E4906F0DFFD05460E46504606F02A
:1022E00068FE07462A46334606F09EFE3BD24FF470
:1022F00016705D49A1F87400B1F874108900A1F15D
:10230000C80006F037FE0546614906F06DFC5649E7
:10231000C867B1F87410C900A1F5C87006F02AFEAC
:1023200005465C4906F060FC4F4988675348886061
:1023300000204860486100240CE000214A48183021
:1023400040F824101C3040F82410203040F82410AD
:10235000601CC4B2072CF0DB022043490870012046
:1023600081F87200B5E04FF4FA603F49A1F87400BB
:10237000B1F874108900A1F1C80006F0FBFD054614
:10238000454906F031FC3849C867B1F87410C900F6
:10239000A1F5C87006F0EEFD0546404906F024FCA4
:1023A00031498867354888600020486048610024CA
:1023B0000CE000212C48183040F824101C3040F864
:1023C0002410203040F82410601CC4B2072CF0DB2D
:1023D000022025490870012081F8720079E0304818
:1023E000C0F890912F4880F88490007840BB2D4829
:1023F000C0F810A04FF448702A49A1F87400B1F851
:1024000074108900A1F5C87006F0B4FD0546204996
:1024100006F0EAFB2349C867B1F87410C900A1F5BA
:10242000487006F0A7FD05461A4906F0DDFB1D4978
:1024300088670948886000204860486100243FE0C0
:1024400047E000004800002000709740A4010020F1
:102450000000FA440024F4490000C8420000164578
:1024600000C82F4A00802142340200202801234264
:10247000500000200000594000409C4500004842A8
:1024800000407F4000409C470000C84300408F4010
:1024900000007A440024F4480000C84400409C49ED
:1024A00000002142C40200200021FE4840F8241010
:1024B0001C3040F82410203040F82410601CC4B2B6
:1024C000072CF1DB0220F74918390870012081F848
:1024D000720000BF47E52DE9F34F83B08A460398A9
:1024E00006F067FDCDE90001EF480CC8009806F042
:1024F000D2FC074606F0B0FD0290EC49D1F880000E
:1025000006F038FD0746029906F0C2FD0ED20126FC
:10251000E649D1F8800006F02DFD8046029906F0CC
:102520002EFB074606F052FD04460DE00026DF496B
:10253000D1F8800006F01EFD8046029906F01CFBD3
:10254000074606F043FD0446504606F032FD0746B6
:10255000D7480CC8384606F09EFCCDE9000106F0CD
:102560007BFD8346D349D1F8800006F003FD074682
:10257000594606F08DFD0FD24FF00109CD49D1F833
:10258000800006F0F7FC8046594606F0F8FA074648
:1025900006F01CFD05460EE04FF00009C549D1F8D4
:1025A000800006F0E7FC8046594606F0E5FA07464B
:1025B00006F00CFD0546324600212046FFF7BFFC21
:1025C0004A4601212846FFF7BAFC05B0BDE8F08F66
:1025D00010B5B4481838007800287DD0B648006897
:1025E000D0BBB548001D0068B0BBB34808300068D8
:1025F00090BBAC48183890F8840001282CD1A94829
:1026000018384068C82827D9AC48407920BBAC4866
:102610000078401CAA49087008460078012808D1B3
:10262000A04818380069A7490968401A9D49183917
:10263000486000BF9B48183800780028FAD19949B3
:10264000183908700021A04805F03EFD00209C4983
:10265000087094491839086597480068C8BB9648BF
:10266000001D0068A8BB94480830006888BB8D48EE
:10267000183890F8840060BB8A4818384068C82829
:1026800027D98E48407920BB90480078401C8F495C
:10269000087008460078012808D182481838006977
:1026A0008B490968401A7F491839486000BF7D4846
:1026B000183800780028FAD17A49183908700021B2
:1026C000814805F001FD00207649183908657F49E9
:1026D00008708048006800E072E0B0BB7D481438A4
:1026E000006890BB7548407901282ED16D48183894
:1026F00090F8840048BB6B48183840680A2824D9F1
:1027000072480078401C714908700846007801281A
:1027100006D1644818380069283862491839486079
:1027200000BF6048183800780028FAD15D49183990
:1027300008700021644805F0C7FC00205949183989
:102740000865624908705D49487162480068B8BB15
:1027500060481438006898BB5848407901282FD148
:102760005048183890F88400012829D14D4818386D
:1027700040680A2824D955480078401C53490870FD
:1027800008460078012806D14648183800692838DC
:1027900044491839486000BF42481838007800287A
:1027A000FAD14049183908700021474805F08CFCDF
:1027B00000203C4918390865444908703F49487170
:1027C00010BD0122394B83F88420434A11601A4618
:1027D000106100225A6003221A70704710B5354804
:1027E000007858B33B480C38006890B9314890F8ED
:1027F000840001280DD1012232210846FDF733FE65
:1028000000202C4908700021344805F05DFC00F0E0
:1028100089FA30481030006880B9264890F8840062
:1028200001280BD100202349087000212B4805F016
:102830004BFC052232210846FDF715FE284800789A
:1028400001281BD10020264908704FF4FA70254951
:10285000088000BF234800880028FBD101212248BE
:102860000068FFF7AEFF00BF104800780028FBD1DA
:102870000E49C1F880000120104908710B4800780A
:10288000A0B315486038006888BB084890F88400F9
:1028900068BB00200549087000214FF0804005F01A
:1028A00013FC25E0DC02002048000020A4010020E9
:1028B00050000020340200200C8121428D000020B5
:1028C000760000205C00002000040040770000201B
:1028D000580000202C0123429401224200080040AD
:1028E0004000002036000020440000201AE004E0F0
:1028F000052232210846FDF7B6FDDA48006888B99E
:10290000D94890F8840001280CD10020D6490870DD
:1029100000214FF0804005F0D7FB0122322108460C
:10292000FDF7A1FD10BD10B504462CBBCF480068D3
:10293000012813D0CD48001D006801280ED0CB48D7
:1029400008300068012809D0C6480C380068012802
:1029500004D0C44820380068012800D110BD0020F0
:10296000C3490860C04981F8840048604CF2503087
:1029700008610320087054E0BC480068012813D0A7
:10298000BA48001D006801280ED0B8480830006819
:10299000012809D0B3480C380068012804D0B14898
:1029A00020380068012800D1D8E70120AF49A431C0
:1029B0000860B04981F88400C820086100204860A0
:1029C0000320087018E002F0CAFAA6481838006818
:1029D00090B9A84890F8840001280DD10020A5499D
:1029E00008700021A44805F06FFB00F09BF901225C
:1029F00032210846FDF737FD9E4800780028E2D1D5
:102A00004FF4FA70FFF73DF800209849A4310860B0
:102A1000984981F8840048604CF2503008610320E6
:102A2000087000BF9AE710B5022004F074FB8E48CE
:102A30000078002860D08C484068401C8A49486073
:102A4000084690F88400012806D10846D0F8800096
:102A5000401CC1F880000BE08348D0F880000028BB
:102A600006DD8148D0F88000401E7F49C1F8800013
:102A70008248006870B97C4890F8840050B9012001
:102A80007F49087000207849087000214FF080408D
:102A900005F01AFB744840687349096988422BD3D2
:102AA00000214FF0804005F00FFB7248007810B90C
:102AB00002207449087000206B49087048608860E3
:102AC000C8600861486181F87200A1F87000A1F83F
:102AD00074008867C86700240CE000216248183041
:102AE00040F824101C3040F82410203040F8241006
:102AF000601CC4B2072CF0DB10BD10B5012004F03F
:102B00000AFB6148007800283ED05F484068401CBE
:102B10005D494860084690F88400012804D10846C1
:102B2000006D401C086504E05748006D401E564982
:102B300008655548406854490969884224D30021F2
:102B4000524805F0C1FA00204F490870486088607B
:102B5000C8600861486181F87200A1F87000A1F8AE
:102B600074008867C86700240CE0002146481830CC
:102B700040F824101C3040F82410203040F8241075
:102B8000601CC4B2072CF0DB10BD10B5102004F09F
:102B9000C2FA38480078002862D036484068401CA5
:102BA00034494860084690F88400012806D1084658
:102BB000D0F88000401CC1F8800006E02D48D0F815
:102BC0008000401E2B49C1F880002648103800685C
:102BD000A8B9284890F8840088B92D4800780128C1
:102BE0000DD100202A49087022490870C1F88000E0
:102BF00001202849887100211F4805F065FA1D4809
:102C000040681C49096988422AD300211A4805F006
:102C10005BFA1548007810B902201A4908700020A4
:102C200014490870C860486088600861486181F88C
:102C30007200A1F87000A1F874008867C8670024CA
:102C40000CE000210B48183040F824101C3040F8EC
:102C50002410203040F82410601CC4B2072CF0DB94
:102C600010BD000038012342A40100200C81214244
:102C700094012242340200200008004018812242C0
:102C80004000002075000020C40200200004004025
:102C90008C0000208D00002008B50121682004F080
:102CA0007FFD3820ADF8000048208DF8030069460C
:102CB000184804F099FA4FF40050ADF8000048208D
:102CC0008DF803006946144804F08EFA4FF6407000
:102CD000ADF8000048208DF8030069460F4804F065
:102CE00083FA4DF28050ADF8000048208DF80300C3
:102CF00069460B4804F078FA48F64820ADF8000021
:102D000048208DF803006946054804F06DFA08BDB7
:102D100070470000000C0140001001400014014009
:102D20000018014010B50020F949087000214FF04B
:102D3000804005F0C9F90020F64908700021F648E6
:102D400005F0C2F90020F54908700021F44805F0AB
:102D5000BBF90020F349C8730874888248820120B7
:102D6000F1490870EF49C87088700871487188711E
:102D7000C87108724872002088730120EB494870BE
:102D800000200870C87010BD70B504460D46164688
:102D9000E4488079012874D1E248C079012822D121
:102DA0000020E0498873C871012E76D1084640782A
:102DB000012802D10846007838B1DA484078022864
:102DC00031D1D848007801282DD1012C15D1D8480F
:102DD0000078A04208D1D648047022460221D54886
:102DE0000068FFF7ACF885E0D14804702246022164
:102DF000D1480068FFF7A3F87CE0CD480078A042F6
:102E000008D1CB48047022460221CC480068FFF765
:102E100096F86FE0C648047022460221C848006850
:102E2000FFF78DF866E0BF48407801281BD1BD4808
:102E30000078012817D1BE480078A04209D1BC48CB
:102E4000047022460221BB4800685030FFF777F833
:102E500050E0B748047022460221B748006850305D
:102E6000FFF76DF846E0B2480078A0420BD1B048B9
:102E7000047022460221B14800685030FFF75FF825
:102E800038E047E009E0AA48047022460221AC4835
:102E900000685030FFF753F82CE0012C15D1A448FE
:102EA0000078A04208D1A248047022460221A1481D
:102EB0000068FFF744F81DE09D4804702246022197
:102EC0009D480068FFF73BF814E099480078A0425D
:102ED00008D1974804702246022198480068FFF7FD
:102EE0002EF807E0924804702246022194480068B8
:102EF000FFF725F88748007800284ED1012089493E
:102F0000C87108468079401C88714FF4FA70FEF74A
:102F1000B8FD42E08348807902281AD18148C079FF
:102F2000012807D100207F49C871002201212846CD
:102F3000FFF705F87948007848BB01207949C87146
:102F400008468079401C88714FF4FA70FEF799FDAD
:102F500023E07448807903281AD17248C079012887
:102F60000DD100206F49C87184F0010070490870CC
:102F700084F00102022140F6C410FEF7E0FF65482C
:102F8000007820B967488079401C6649887104E060
:102F900001206449C8718871887370BD70B504469A
:102FA0000D4660480079012818D15E484079012813
:102FB0000AD100205B498873487101205A49087082
:102FC00029462046FFF787FA5748007802280AD199
:102FD00054480079401C5349087104E001205149CC
:102FE00088730871487170BD5648006858B901204F
:102FF0005549086000205549C1F8800152490831FF
:103000000860012070470020FCE770B504460D46BB
:1030100016464448007A012877D14248407A002871
:1030200023D000203F4988734872012E6ED1084694
:103030004078012803D108460078102807D0394885
:103040004078022833D13748007811282FD1012C3D
:1030500015D137480078A04208D13548047022467F
:10306000022134480068FEF76AFFA8E03048047087
:103070002246022130480068FEF761FF9FE02C489D
:103080000078A04209D12A480470224602212B4828
:1030900000681E30FEF753FF91E025480470224679
:1030A0000221274800681E30FEF749FF87E01D48CF
:1030B000407801281BD11B480078112817D11C48E3
:1030C0000078A04209D11A4804702246022119480A
:1030D00000685030FEF733FF71E015480470224657
:1030E0000221154800685030FEF729FF67E01048BC
:1030F0000078A0422CD10E480470224602210F48CD
:1031000000685030FEF71BFF59E068E02AE000003D
:10311000A4010020C402002000040040340200206A
:103120000008004054030020750000208D0000209E
:10313000940000206800002064000020700000203F
:103140006C00002030012342840122420000224210
:10315000FE48047022460221FD4800685030FEF708
:10316000EEFE2CE0012C15D1F8480078A04208D1E1
:10317000F648047022460221F6480068FEF7DFFE9A
:103180001DE0F248047022460221F3480068FEF771
:10319000D6FE14E0ED480078A04208D1EB48047058
:1031A00022460221ED480068FEF7C9FE07E0E74825
:1031B000047022460221E6480068FEF7C0FEE84897
:1031C000007800287CD1E748007A401CE549087265
:1031D000012048724FF4FA70FEF753FC70E0E148AA
:1031E000007A02281AD1DF48407A38B10020DD4940
:1031F0004872012211462846FEF7A1FEDA480078FF
:1032000000285DD1D748007A401CD64908720120B9
:1032100048724FF4FA70FEF734FC51E0D148007A5E
:1032200003281BD1CF48407A68B184F00100C74918
:10323000087084F0010202214FF4C860FEF77FFE9F
:103240000020C8494872C648007858BB0120C549CB
:1032500048720846007A401C087231E0C148007A82
:10326000042820D1BF48407A90B184F00100BF49C2
:10327000086084F00100BA4981F884004FF47A7044
:10328000086100204860032008700020B54948729A
:10329000B348007830B90120B24948720846007A34
:1032A000401C08720CE00120AE4948720872887315
:1032B0004FF4FA70FEF7E5FB4FF4FA70FEF7E1FB0E
:1032C00070BD2DE9FC4104460D46A648C07B01288F
:1032D00056D1A448C078012866D1A148007820BB07
:1032E000A3480068012804D0A148143800680128C8
:1032F0001BD1052232210846FDF7B5F801209D4972
:10330000086000209C49C1F880019A490831086092
:10331000FF2161236D22CDE90010032101F022F984
:1033200006209049C870BDE8FC81002091490860E2
:1033300001209149C1F8800100208E4908310860C0
:1033400029462046FFF72AFE8648807B0128BFD108
:1033500084480078202814D106208249C8700020B3
:10336000052161236D22CDE90010032101F0FAF857
:103370004FF4FA70FEF785FB4FF4FA70FEF781FB0D
:10338000C6E10020022161236D22CDE90010032156
:1033900001F0E8F87348C078401C7249C8704FF4D7
:1033A000FA70FEF76EFBB3E16E48C078022871D167
:1033B00072480CC80020724905F06DFD064605F004
:1033C00019FE80466749097801F0010181F001008A
:1033D00000224146FFF719FE6248807B0128CFD1C9
:1033E0005F48007818BB62480068012804D0604834
:1033F0001438006801281AD1052232210846FDF749
:1034000032F801205B49086000205B49C1F8800167
:10341000584908310860FF2161236D22CDE9001071
:10342000032101F09FF806204E49C8707BE74D4804
:10343000407880B9052232210846FDF714F80020B3
:10344000032161236D22CDE9001001F08BF80520E6
:103450004449C8705CE1FFF7C7FDE0B10020F021EE
:1034600061236D22CDE90010032101F07BF80522D4
:1034700032210846FCF7F7FF01203E490860002092
:103480003D49C1F880013B490831086005203549B4
:10349000C870C0E011E00020032161236D22CDE956
:1034A000001001F05FF82F48C078401C2D49C8700B
:1034B0004FF4FA70FEF7E5FA2AE12A48C0780328AB
:1034C00034D128484078012803D026484078022883
:1034D000C0D1244A928B323291B2224AD08BFFF76C
:1034E0005DFD2048807B0128B4D11E48C07A0228A7
:1034F00008DD00201B49C87288720620C8700120B0
:10350000487310E700BF1748C078401C1549C870C1
:103510000020042161236D22CDE90010032101F078
:1035200021F84FF4FA70FEF7ACFAF1E00D48C078DC
:1035300004286BD111480CC80020124905F0ABFCDF
:10354000064605F057FD804606491DE09400002020
:103550006C00002068000020640000207000002043
:10356000C4020020540300203402002090012142B4
:103570002C012342840122420000224250000020FC
:1035800000003E4000004E404978491009B9012131
:1035900000E00021084601224146FFF7F5FBFE4806
:1035A000807B012888D1FD48007818BBFC48006862
:1035B000012804D0FA481438006801281AD10522DD
:1035C00032210846FCF74FFF0120F6490860002031
:1035D000F549C1F88001F34908310860FF216123F2
:1035E0006D22CDE90010032100F0BCFF0620EA495E
:1035F000C87098E60020052161236D22CDE90010F6
:10360000032100F0AFFFFFF78DFB81E0E248C078B7
:10361000052841D100BFE049097801F0010181F09E
:1036200001000022E1490968FFF7AEFBDA48807B20
:1036300001286DD1D848C078401CD749C8704FF4D4
:10364000FA70FEF71EFA4FF4FA70FEF71AFA4FF40A
:10365000FA70FEF716FA4FF4FA70FEF712FA4FF40A
:10366000FA70FEF70EFA4FF4FA70FEF70AFA4FF40A
:10367000FA70FEF706FA4FF4FA70FEF702FA4FF40A
:10368000FA70FEF7FEF94FF4FA70FEF7FAF94FF40C
:10369000FA70FEF7F6F93BE0BF48C078062835D14E
:1036A000BD48407B012826D10020BB49487301203A
:1036B000BC4910310860BE4981F884000020486090
:1036C0005A20086103200870C820FEF7DAF902E0EA
:1036D000C820FEF7D6F9B64800780028F8D1B149DD
:1036E00010310860B24981F8840048604CF25030D3
:1036F000086103200870AF480079012808D1002034
:10370000AC4908710320A449C870FCE6FFF70AFB26
:1037100000BF08E62DE9FC4104460D469E48007CAA
:10372000012868D19C488078012865D19A48407862
:1037300018B903209849887039E09848007820BB70
:1037400097480068012804D095481438006801287B
:103750001BD1052232210846FCF785FE0120914944
:10376000086000209049C1F880018E490831086046
:10377000FF2161236D22CDE90010032100F0F2FE4C
:10378000072085498870BDE8FC81002085490860D4
:1037900001208549C1F880010020C1F88C017E4AD2
:1037A000928B0A3A91B27C4AD08BFFF7F7FB7A48AA
:1037B000807B0128B5D17848807A022808DD002076
:1037C00075498872C8720120087306208870DAE78C
:1037D00000BF0020022161236D22CDE900100321EA
:1037E00000F0C0FE6C488078401C6B4988704FF434
:1037F000FA70FEF746F990E167488078022869D1AF
:1038000065494978491009B9012100E000210846BD
:103810000122694909683231FFF7F7FB5E48807B76
:103820000128E8D15D48007818BB5D480068012890
:1038300004D05B481438006801281AD105223221CF
:103840000846FCF710FE0120564908600020564942
:10385000C1F88001534908310860FF2161236D22BE
:10386000CDE90010032100F07DFE07204A49887051
:1038700089E7FFF7B9FBD8B10020F02161236D2261
:10388000CDE90010032100F06DFE0522322108462B
:10389000FCF7E9FD01204349086000204249C1F8D6
:1038A000800140490831086005203B498870C4E028
:1038B0000020032161236D22CDE9001000F052FEAB
:1038C00035488078401C344988704FF4FA70FEF710
:1038D000D8F822E13048807803282CD129462046A8
:1038E000FFF75CFB2C48807B012884D12A48407874
:1038F000012803D028484078022809D1002004215B
:1039000061236D22CDE90010032100F02BFE08E0B9
:103910000020022161236D22CDE90010032100F077
:1039200021FE1D488078401C1B4988704FF4FA70B6
:10393000FEF7A7F8F1E018488078042878D11F48EE
:103940000CC800201E4905F0A6FA064605F052FBF9
:1039500080461149097801F0010181F0010000223F
:103960004146FFF711FA0C48807B0128B1D10B4882
:10397000007838BB0A480068012804D00848143889
:103980000068012831D1052232210846FCF76BFD81
:1039900001200449086016E054030020C4020020FE
:1039A0002C01234284012242000022428400002094
:1039B000A40100208D00002088000020500000207D
:1039C0000000344011E00020FE49C1F88001FE49AA
:1039D0000860FF2161236D22CDE90010032100F072
:1039E000C1FD0720F9498870CDE6F84840780128E4
:1039F00003D0F648407802280BD10020052161232E
:103A00006D22CDE90010032100F0ACFDFFF78AF92B
:103A100007E00020032161236D22CDE9001000F0B2
:103A2000A1FDEA488078C01CE849887075E0FFE78E
:103A3000E648807805282BD100BFE4494978491031
:103A400009B9012100E0002108460022E049096887
:103A5000FFF79AF9DD48807B01285ED1DB4880784A
:103A6000801CDA4988704FF4FA70FEF70AF84FF4B8
:103A7000FA70FEF706F84FF4FA70FEF702F84FF40A
:103A8000FA70FDF7FEFF4FF4FA70FDF7FAFF44E01D
:103A9000CE488078062835D1CC48007B012826D135
:103AA0000020CA490873C820FDF7EBFF0120C64972
:103AB00008310860C74981F88400002048605A2016
:103AC00008610320087002E0C820FDF7DAFFC14852
:103AD00000780028F8D1BC4908310860BD4981F858
:103AE000840048604CF25030086103200870BA48E6
:103AF0000079012811D10020B74908710120B3498C
:103B0000887066E6FFF70EF90020B04908740120BE
:103B10008870002088734882888200BF33E670B5C1
:103B200005460C4625B1012D3AD0022D69D12AE077
:103B3000AA480068012812D0A848001D0068012882
:103B40000DD0A64808300068012808D0A4480068B5
:103B5000012804D0A24814380068012805D10122A8
:103B600032210846FCF77FFC70BD9A4880F88440FB
:103B700090F8840094490831086000209549486015
:103B8000012008703DE0974880F8844090F8840058
:103B9000954908600020934948600120087030E092
:103BA0008E480068012818D08C48001D0068012844
:103BB00013D08A480830006801280ED0012C03D1A8
:103BC00087480C38006840B185480068012804D057
:103BD000834814380068012805D1012232210846A3
:103BE000FCF741FCC0E7814880F8844090F88400ED
:103BF0007A49A431086000207C494860012008709F
:103C000000BF00BF00BFAFE71CB57348C0780128F4
:103C10004AD171484078012847D16F480078002880
:103C200033D101206C4908706D480068012814D117
:103C30006B481438006880B901206B4908606949F5
:103C400081F8840040F6C410086100204860032019
:103C5000087001206049487117E061481438006815
:103C6000012812D15E48006878B900205E490860DA
:103C70005C4981F8840040F6C41008610020486067
:103C800003200870012054494871564800780028E4
:103C9000BED151484078401C4F4948700020087000
:103CA0004FF4FA70FDF7EDFE0AE14B484078022828
:103CB0004DD149480078002839D149480068012889
:103CC00004D0474814380068012809D10020FF219A
:103CD00061236D22CDE90010032100F043FC1CBDDF
:103CE0003F480C38006848B13D480C38006801284E
:103CF0000AD13B48001F0068012805D1032036493E
:103D0000487000200870EAE73548001F006870B965
:103D10000120314908703149A4310860334981F8E4
:103D20008400C820086100204860032008702F48E4
:103D300000780028B8D128484078401C26494870AF
:103D4000002008704FF4FA70FDF79BFEB8E022489F
:103D50004078032851D120480078E0B901201E495D
:103D6000087000201D49A4310860204981F88400B2
:103D700048604CF25030086103200870002011495F
:103D8000C1F89401134981F8840048604CF2503026
:103D900008610320087015480078002884D10D4878
:103DA00000780028D2D10C4800790128CED100201B
:103DB0000949087108464078401C48700020087086
:103DC00016E00000000022428C0122425403002031
:103DD00088000020A40100208D0000200C812142D9
:103DE0002C012342C4020020900121423402002011
:103DF0004FF4FA70FDF745FE62E0F748407804287A
:103E000021D1F548007870B90120F3490870F349D1
:103E10000860F34981F884004FF4FA7008610020CB
:103E2000486003200870EE480078002848D1EA482E
:103E30004078401CE8494870002008704FF4FA7040
:103E4000FDF71FFE3CE0E4484078052824D1E24815
:103E5000007878B90120E04908700020DF49086047
:103E6000DF4981F884004FF47A70086100204860CF
:103E700003200870DA48007810BB0020D949087088
:103E8000D5484078401CD4494870002008704FF451
:103E9000FA70FDF7F6FD13E00120CF4988704870F5
:103EA00000200870C870052161236D22CDE9001043
:103EB000032100F057FB012232210846FCF7D3FA18
:103EC00000BF0CE72DE9F04104460D4616461F469B
:103ED000DDF8188043463A4631462846A047BDE8FB
:103EE000F08130B5C04C2468012C12D0BE4C241D8A
:103EF0002468012C0DD0BC4C08342468012C08D057
:103F0000BA4C2468012C04D0B84C143C2468012C11
:103F100000D130BD0324B64DEC8220242C706A827F
:103F2000AB8200246C70EC83F024AC830124B14D8F
:103F30002C70AF4DEC73EC700024AC7301242C7129
:103F40006C7100BFE5E730B5A74C2468012C12D096
:103F5000A54C241D2468012C0DD0A34C08342468E2
:103F6000012C08D0A14C2468012C04D09F4C143C97
:103F70002468012C00D130BD03249D4DEC822C46D9
:103F800021706A8203F10A04AC822C4660709A4C5C
:103F90002488EC83994C2488AC830124954D2C70A3
:103FA000934D2C74AC702C716C71AC71EC712C72E3
:103FB0006C720024AC7300BFDDE730B58A4C246816
:103FC000012C12D0884C241D2468012C0DD0864C65
:103FD00008342468012C08D0844C2468012C04D0B7
:103FE000824C143C2468012C00D130BD0324804D48
:103FF000EC822C4621706A82A3F10A04AC822C4622
:1040000060707D4C2488EC837C4C2488AC83012434
:10401000784D2C70764DEC73EC702C716C71AC712A
:10402000EC712C726C720024AC7300BFDDE70120D0
:104030006949C8700020887070470346012A02D081
:10404000022A6ED120E10C2B6CD2DFE803F0061BB4
:1040500030455A71869BB0D9F0EE0A2910D2DFE8BC
:1040600001F005060708090A0B0C0D0E08E007E031
:1040700006E005E004E003E002E001E000E000BF4C
:1040800000BFFFE00A2910D2DFE801F005060708AB
:10409000090A0B0C0D0E08E007E006E005E004E05D
:1040A00003E002E001E000E000BF00BFEAE00A290F
:1040B00010D2DFE801F005060708090A0B0C0D0E07
:1040C00008E007E006E005E004E003E002E001E0CC
:1040D00000E000BF00BFD5E00A2910D2DFE801F000
:1040E00005060708090A0B0C0D0E08E007E006E0BC
:1040F00005E004E003E002E001E000E000BF00BFF3
:10410000C0E00A2912D2DFE801F005060708090A13
:104110000B0E0F100AE009E008E007E006E005E0FA
:1041200004E0BBE1ADE001E000E000BF00BFA9E0BA
:104130000A2910D2DFE801F005060708090A0B0C6E
:104140000D0E08E007E006E005E004E003E002E011
:1041500001E000E000BF00BF94E00A2910D2DFE8D0
:1041600001F005060708090A0B0C0D0E08E007E030
:1041700006E005E004E003E002E001E000E000BF4B
:1041800000BF7FE00A2910D2DFE801F0050607082A
:10419000090A0B0C0D0E08E007E006E005E004E05C
:1041A00003E002E001E000E000BF00BF6AE00A298E
:1041B00010D2DFE801F005060708090A0B0C0D0E06
:1041C00008E007E006E005E004E003E002E001E0CB
:1041D00000E000BF00BF55E08D00002090012142AB
:1041E000C4020020940000200C8121422C012342B3
:1041F0005403002075000020800000207C00002077
:104200000A2910D2DFE801F005060708090A0B0C9D
:104210000D0E08E007E006E005E004E003E002E040
:1042200001E000E000BF00BF2CE015E0FFE70A2935
:1042300010D2DFE801F005060708090A0B0C0D0E85
:1042400008E007E006E005E004E003E002E001E04A
:1042500000E000BF00BF15E00A2910D2DFE801F03E
:1042600005060708090A0B0C0D0E08E007E006E03A
:1042700005E004E003E002E001E000E000BF00BF71
:1042800000E000BF00BF09E10C2B70D2DFE803F0B3
:10429000061B30455A70859AAFC4D9EE0A2910D250
:1042A000DFE801F005060708090A0B0C0D0E08E00F
:1042B00007E006E005E004E003E002E001E000E0E2
:1042C00000BF00BFE8E00A2910D2DFE801F00506D0
:1042D0000708090A0B0C0D0E08E007E006E005E0F0
:1042E00004E003E002E001E000E000BF00BFD3E033
:1042F0000A2910D2DFE801F005060708090A0B0CAD
:104300000D0E08E007E006E005E004E003E002E04F
:1043100001E000E000BF00BFBEE00A2910D2DFE8E4
:1043200001F005060708090A0B0C0D0E08E007E06E
:1043300006E005E004E003E002E001E000E000BF89
:1043400000BFA9E00A2910D2DFE801F0050607083E
:10435000090A0B0C0D0E08E007E006E005E004E09A
:1043600003E002E001E000E000BF00BF94E092E063
:104370000A2910D2DFE801F005060708090A0B0C2C
:104380000D0E08E007E006E005E004E003E002E0CF
:1043900001E000E000BF00BF7EE00A2910D2DFE8A4
:1043A00001F005060708090A0B0C0D0E08E007E0EE
:1043B00006E005E004E003E002E001E000E000BF09
:1043C00000BF69E00A2910D2DFE801F005060708FE
:1043D000090A0B0C0D0E08E007E006E005E004E01A
:1043E00003E002E001E000E000BF00BF54E00A2962
:1043F00010D2DFE801F005060708090A0B0C0D0EC4
:1044000008E007E006E005E004E003E002E001E088
:1044100000E000BF00BF3FE00A2910D2DFE801F052
:1044200005060708090A0B0C0D0E08E007E006E078
:1044300005E004E003E002E001E000E000BF00BFAF
:104440002AE00A2910D2DFE801F005060708090A68
:104450000B0C0D0E08E007E006E005E004E003E0C9
:1044600002E001E000E000BF00BF15E00A2910D221
:10447000DFE801F005060708090A0B0C0D0E08E03D
:1044800007E006E005E004E003E002E001E000E010
:1044900000BF00BF00E000BF00BF00BF00BF70470B
:1044A00010B586B004460121880403F086F9012185
:1044B000082003F075F9FD4804F0E4F84FF480603B
:1044C000ADF8140003208DF8160018208DF81700A1
:1044D00005A9F74802F088FE4FF40060ADF814001B
:1044E00004208DF8170005A9F14802F07DFE019423
:1044F0000020ADF80800ADF80A00ADF80C00ADF8EA
:1045000010000C20ADF80E0001A9E84804F0FDF8F9
:104510000120E84908608021E44804F06AFA01219A
:10452000E24804F07EF9012240F22551DF4804F010
:1045300084F927208DF8000002208DF80100032067
:104540008DF8020001208DF80300684602F0F5FCAA
:104550000020D949097801EB0111D84A02F811006D
:1045600006B010BD2DE9F05F0546884691469A4693
:104570000B9EE80000F10A07384604F0C9FE044625
:104580003946204604F09BFAAA202070552060701E
:10459000A57084F8038084F8049084F805A00A9834
:1045A000A071012D18D13078207270786072B078C7
:1045B000A072F078E0723079207370796073B0790E
:1045C000A073F079E073A021E800083021545F2146
:1045D000E8000930215407E0A021E8000830215408
:1045E0005F21E80009302154022012E0072809D099
:1045F000082101EBC501814204D0092101EBC5016D
:10460000814200D104E0E179225C1144E17100BFF4
:10461000401CE9000A318142E8DC4FF0000B0DE05C
:1046200000BF4021A14804F0D7F90128F9D114F8BE
:104630000B109E4804F062F90BF1010BBB45EFD360
:10464000204604F03DFEBDE8F09F2DE9FC5F9C484C
:10465000C08A082805D2DFE800F0040506CFFEFD79
:10466000FCFBD7E2FDE79749D1F8800004F090FC0D
:10467000804695480CC8404604F09BFB0646002245
:10468000924B04F0EFFA04460022914B04F003FC35
:10469000824604F0AFFC8F4908708A49D1F8800047
:1046A00004F076FCCDE9000187480CC8009804F0BE
:1046B00080FB06460022854B04F0D4FA0446002213
:1046C000854B04F0E8FB804604F094FC00F0FF0A00
:1046D0004FEAEA700AEB10600012AAEB00207D4955
:1046E00048707E49D1F8800004F052FC80467C4836
:1046F0000CC8404604F05DFB82460022734B04F078
:10470000B1FA06460022724B04F0C5FB044604F0E1
:1047100071FC704988707149D1F8800004F038FC50
:1047200080466F480CC8404604F043FB0646002212
:10473000664B04F097FA04460022674B04F0ABFB8B
:10474000CDE9000104F056FC00F0FF0A4FEAEA70E0
:104750000AEB10600012AAEB00205E49C8706148A5
:10476000006D002802DA0120087102E0002059499A
:1047700008715C49086D04F00BFC5B4A5B4BCDE9AA
:10478000000104F016FB06460022504B04F06AFAC2
:1047900080460022504B04F07EFB044604F02AFCC5
:1047A00000F0FF0A4FEAEA700AEB10600012AAEB71
:1047B0000020484948714248408BB0F57A7F04D0C8
:1047C0003F48807E401C887102E0F020414988719A
:1047D0003B48007E3F49C8710846002161236D2295
:1047E000CDE9001002210120FFF7BCFE0122322199
:1047F0000846FBF738FEAFE33148007811287DD03A
:1048000005DC48B101287AD0102879D1E6E02028CB
:1048100077D03028F9D191E12A480078002871D169
:104820002E48007800286DD12E48007800287DD1D0
:104830002F480068012817D02D48001D0068012866
:1048400012D02B480830006801280DD0294803E019
:1048500070E31EE396E2DEE10068012804D02548FB
:104860001438006801280FD10020FF2161236D2238
:10487000CDE900100321FFF775FE0522322108461D
:10488000FBF7F1FDBDE8FC9F0020012161236D22B3
:10489000CDE900100321FFF765FE012016490870DD
:1048A0000749C873C870087148712CE0004800407F
:1048B000000C0140BC012142A00000207403002034
:1048C00054030020A4010020480000200000E03F25
:1048D00000007040980000200000F03F34020020EB
:1048E00050000020C40200200AD7A3703D0AB73F41
:1048F0000C8121422C01234275000020C6E016E005
:1049000087E13BE112E08871C8710872487208467D
:10491000808A0A388882002088730846C07A401C42
:10492000C872012232210846FBF79DFD71E1FE4865
:104930000078002851D1FD48007800284DD1FC486E
:104940000078002849D1FB480068012812D0F948B6
:10495000001D006801280DD0F648083000680128C5
:1049600008D0F5480068012804D0F34814380068DE
:1049700001280ED10020FF2161236D22CDE9001016
:104980000321FFF7EFFD052232210846FBF76BFDFF
:1049900078E70020012161236D22CDE90010032179
:1049A000FFF7E0FD0120E5490870E549C873C870CC
:1049B000087148718871C871087248720846808A07
:1049C0000A388882002088730846C07A401CC87262
:1049D000012232210846FBF746FD1AE1D248007851
:1049E000002852D1D148007800284ED1D048007814
:1049F00000284AD1CF480068012812D0CD48001DB8
:104A0000006801280DD0CB4808300068012808D084
:104A1000C9480068012804D0C74814380068012834
:104A20000ED1052232210846FBF71DFD0020FF2193
:104A300061236D22CDE900100321FFF793FD21E7EB
:104A40000020012161236D22CDE900100321FFF731
:104A500089FDBB48807A401CB94988720120B7495A
:104A60000870B74908748870087148718871C871F6
:104A700008724872002088730846808A0A3088824B
:104A8000012232210846FBF7EEFCC2E0A64800787E
:104A9000002852D1A548007800284ED1A4480078BB
:104AA00000284AD1A3480068012812D0A148001D5F
:104AB000006801280DD09F4808300068012808D000
:104AC0009D480068012804D09B48143800680128DC
:104AD0000ED10020FF2161236D22CDE900100321BA
:104AE000FFF740FD052232210846FBF7BCFCC9E672
:104AF0000020012161236D22CDE900100321FFF781
:104B000031FD8F48807A401C8D49887201208B4985
:104B100008708B4908748870087148718871C87171
:104B200008724872002088730846808A0A3088829A
:104B3000012232210846FBF796FC6AE07A480078A9
:104B4000D8B97A480078C0B979480078A8B9002067
:104B5000012161236D22CDE900100321FFF702FD41
:104B600001207849C87000208870012076490870BB
:104B7000012232210846FBF776FC4AE06A480078B9
:104B8000F0BB6A480078D8BB69480078C0BB694868
:104B90000068012812D06748001D006801280DD068
:104BA000644808300068012808D06348006801287C
:104BB00004D061481438006801280ED10522322142
:104BC0000846FBF750FC0020FF2161236D22CDE950
:104BD00000100321FFF7C6FC54E6002001216123E9
:104BE0006D22CDE900100321FFF7BCFC01205349E1
:104BF00008705349C873C87000208873012000E012
:104C000006E008714871012232210846FBF72BFCAF
:104C100000BF00BFA0E101204949487400200121E4
:104C200061236D22CDE900100321FFF79BFC44486E
:104C3000007800F0300020B1102850D0202839D161
:104C400039E03C480068012812D03A48001D00684D
:104C500001280DD0374808300068012808D03648B0
:104C60000068012804D034481438006801280ED1A7
:104C70000020FF2161236D22CDE900100321FFF701
:104C800071FC052232210846FBF7EDFBFAE52C48C2
:104C9000007800F0010010B101280AD104E00021E1
:104CA0000846FEF73CFF04E001210020FEF737FF35
:104CB00000BF00BF5FE02248007800F0010010B1A3
:104CC00001280AD104E001210220FEF728FF04E0B8
:104CD00000210220FEF723FF00BF00BF4BE0154874
:104CE0000068012812D01348001D006801280DD06B
:104CF000104808300068012808D00F4800680128D3
:104D000004D00D4814380068012822D10020FF216A
:104D100061236D22CDE900100321FFF723FC05225A
:104D20003221084612E00000A401002034020020D5
:104D3000C40200200C8121422C0123427500002076
:104D4000540300208D0000208C000020FBF78BFB1B
:104D500098E5FE48007800F0010028B1012808D14C
:104D60000021FEF7DCFE04E001210846FEF7D7FE35
:104D700000BF00BF00BF00BF012232210846FBF781
:104D800072FBE9E00020012161236D22CDE90010D2
:104D90000321FFF7E7FBED4800780411002C01DD4B
:104DA000102400E0002404F0100010B1102869D194
:104DB0002DE0E648007800F00F00082821D2DFE857
:104DC00000F02004080C1014181C0020DF4908769D
:104DD0001BE00120DD49087617E00220DB49087658
:104DE00013E00320D94908760FE00420D74908765C
:104DF0000BE00520D549087607E00620D349087660
:104E000003E00020D149087600BF00BF3AE0CF4858
:104E1000007800F0F00000F00F0169BB00111028CD
:104E20002AD2DFE800F029080C1014181C202929C8
:104E30002929292929240020C449488320E0012068
:104E4000C24948831CE00220C049488318E003207F
:104E5000BE49488314E00420BC49488310E0052083
:104E6000BA4948830CE00620B849488308E04FF46B
:104E70007A70B649488303E00020B449488300BFF4
:104E800000BF00BF00BF012232210846FBF7EBFA4A
:104E900062E00020012161236D22CDE9001006218E
:104EA000FFF760FBA948007880BB0020A849087084
:104EB00000214FF0804003F007F90020A549087059
:104EC0000021A54803F000F90020A4490870002142
:104ED000A34803F0F9F800209C49C873087488823D
:104EE000488201209F4908709849C87088700871ED
:104EF00048718871C8710872487200208873012057
:104F00009949487000200870C8700DE0FFE7012043
:104F1000964908609649087040F2DC50FCF7B1FDF4
:104F200040F2DC50FCF7ADFD012232210846FBF7D0
:104F30009AFA11E00020012161236D22CDE90010D1
:104F40000721FFF70FFB002082490865012232216B
:104F50000846FBF788FA00BF00BF00BF92E410B517
:104F60008448007800287DD082480078401E00EBFD
:104F70000010814901EB400090F820107D48007836
:104F8000401E00EB00107C4A02EB4000007A814298
:104F900026D0002177480078401E00EB001002EB7D
:104FA000400080F8201073480078401E00EB00108D
:104FB00002F810106F490978491E01EB011102EB4C
:104FC0004101481C1E2103F07AFD6A480078401E0A
:104FD00068490870032232210846FBF744FA10BDE5
:104FE00064480078401E00EB0010634901EB40006C
:104FF00040796D2836D100215E480078401E00EBD4
:1050000000105D4A02EB400001725A480078401ED1
:1050100000EB001002F8101056480078401E00EB1C
:10502000001002EB400080F8201052480078401E2B
:1050300000EB0010114601EB400000794349C882A3
:105040004C480078401E00EB0010114601EB400078
:10505000C0793E49087047480078401E00EB0010B8
:10506000114600E08EE001EB4000807800285DD022
:1050700040480078401E00EB001001EB4000817AB0
:105080003C480078401E00EB001002EB4000407AE4
:1050900001EB00202D49488236480078401E00EB85
:1050A0000010114601EB4000017B32480078401EA1
:1050B00000EB001002EB4000C07A01EB0020234916
:1050C00088822C480078401E00EB0010114601EB4E
:1050D0004000407B1D49487026480078401E00EB88
:1050E0000010114601EB4000C17B22480078401EB1
:1050F00000EB001002EB4000807B01EB0020134925
:10510000C8831C480078401E00EB0010114601EBDC
:105110004000417C17480078401E00EB001002EB75
:105120004000007C01EB0020084988831149097880
:10513000491E01EB0111104A02EB4101481C1E21DE
:1051400003F0BDFC0B480078401E17E0540300201C
:10515000A4010020C402002000040040340200200A
:1051600000080040750000208D00002094012142BD
:1051700095000020A000002074030020FE49087064
:10518000FFF763FA00BF2AE710B540F22551FB484C
:1051900003F062FCF94803F0B5FBF749097801EB2D
:1051A0000111F74A02EB4101C877F64800780B2855
:1051B00056D2DFE800F00656A6F2F0EFEEEDECEB8B
:1051C000EA00ED48007800EB0010ED4901EB4000EB
:1051D000C07FAA2829D1E848007800EB001001EB35
:1051E0004000C17FE448007800EB0010E44A02EB85
:1051F0004000401CE04A127802EB0212E04B13F828
:10520000122081540120DF490870DB48007800EB50
:105210000010194611F81000401CD749097801EB1D
:1052200001111A4602F811001AE00020D549087051
:10523000D149097801EB0111D14A02F81100CE4998
:10524000097801EB011102EB410181F820000120F6
:10525000C949097801EB011102EB410181F82100F4
:1052600065E3C548007800EB0010C54901EB40003C
:10527000C07F552829D1C048007800EB001001EB11
:105280004000C17FBC48007800EB0010BC4A02EB34
:105290004000401CB84A127802EB0212B84B13F8D7
:1052A000122081540220B7490870B348007800EBFF
:1052B0000010194611F81000401CAF49097801EBA5
:1052C00001111A4602F811001AE00020AD490870D9
:1052D000A949097801EB0111A94A02F81100A64970
:1052E000097801EB011102EB410181F82000012056
:1052F000A149097801EB011102EB410181F821007C
:1053000015E39D48007800EB00109D4901EB40003B
:10531000C17F9948007800EB0010994A02EB4000E9
:10532000401C954A127802EB0212954B13F812209A
:1053300081540320934908708F48007800EB0010D7
:10534000194611F81000401C8B49097801EB011136
:105350001A4602F811008848007800EB0010114648
:1053600001EB400090F820008349097801EB01111E
:1053700002EB4101C97F08447F49097801EB011123
:1053800002EB410181F82000D1E27DE22CE27FE1D5
:105390001CE1CEE089E044E0FFE77748007800EBCD
:1053A0000010774901EB4000C17F7348007800EBA3
:1053B0000010734A02EB4000401C6F4A127802EB67
:1053C00002126F4B13F81220815404206D490870AB
:1053D0006948007800EB0010194611F81000401CD5
:1053E0006549097801EB01111A4602F8110062487B
:1053F000007800EB0010114601EB400090F820000F
:105400005D49097801EB011102EB4101C97F0844B4
:105410005949097801EB011102EB410181F82000A3
:1054200085E25548007800EB0010554901EB40003B
:10543000C17F5148007800EB0010514A02EB400058
:10544000401C4D4A127802EB02124D4B13F8122009
:10545000815405204B4908704748007800EB001044
:10546000194611F81000401C4349097801EB01115D
:105470001A4602F811004048007800EB001011466F
:1054800001EB400090F820003B49097801EB011145
:1054900002EB4101C97F08443749097801EB01114A
:1054A00002EB410181F8200041E23348007800EB33
:1054B0000010334901EB4000C17F2F48007800EB1A
:1054C00000102F4A02EB4000401C2B4A127802EBDE
:1054D00002122B4B13F81220815406202949087020
:1054E0002548007800EB0010194611F81000401C08
:1054F0002149097801EB01111A4602F811001E48F2
:10550000007800EB0010114601EB400090F82000FD
:105510001949097801EB011102EB4101C97F0844E7
:105520001549097801EB011102EB410181F82000D6
:10553000FDE11148007800EB0010114901EB40003B
:10554000C17F0D48007800EB00100D4A02EB4000CF
:10555000401C094A127802EB0212094B13F8122080
:1055600081540720074908700348007800EB0010B9
:10557000194611F8100007E0A00000200048004084
:1055800074030020A1000020401CEA49097801EBC7
:1055900001111A4602F81100E648007800EB0010ED
:1055A000114601EB400090F82000E249097801EB38
:1055B000011102EB4101C97F0844DE49097801EB82
:1055C000011102EB410181F82000B0E1D9480078D7
:1055D00000EB0010D84901EB4000C17FD5480078AE
:1055E00000EB0010D44A02EB4000401CD14A127874
:1055F00002EB0212D04B13F8122081540820CF493D
:105600000870CC48007800EB0010194611F8100023
:10561000401CC849097801EB01111A4602F8110033
:10562000C448007800EB0010114601EB4000C07840
:1056300020B1012806D002280CD107E00920BF497B
:10564000087023E00820BD4908701FE00820BB490E
:1056500008701BE00020B9490870B649097801EBD1
:105660000111B54A02F81100B249097801EB0111A4
:1056700002EB410181F820000120AE49097801EBDD
:10568000011102EB410181F8210000BF00BF4EE192
:10569000A848007800EB0010A74901EB4000C07853
:1056A000012802D002284DD14DE0A248007800EB3D
:1056B0000010A14901EB4000C17F9E48007800EB3B
:1056C00000109D4A02EB4000401C9A4A127802EBFF
:1056D0000212994B13F8122081549648007800EB7F
:1056E0000010194611F81000401C9249097801EB8E
:1056F00001111A4602F811008E48007800EB0010E4
:10570000114601EB400090F820008A49097801EB2E
:10571000011102EB4101C97F08448649097801EB78
:10572000011102EB410181F820008248007800EB72
:105730000010114611F81000C01F082802D10920DE
:105740007E4908704EE07B48007800EB00107A49F3
:1057500001EB4000C17F7748007800EB0010764AEB
:1057600002EB4000401C734A127802EB0212724BAB
:1057700013F8122081546F48007800EB001019468E
:1057800001EB400090F820006A49097801EB011113
:105790001A4602EB4101C97F08446649097801EBCA
:1057A000011102EB410181F820006248007800EB12
:1057B0000010114611F81000C01F102802D1092056
:1057C0005E4908705B48007800EB00105A4911F8F8
:1057D0001000401C5749097801EB0111564A02F8A4
:1057E000110000BF00BFA2E05248007800EB00109B
:1057F000514901EB4000C07FA02829D14D480078D5
:1058000000EB001001EB4000C17F4A48007800EB3C
:105810000010494A02EB4000401C464A127802EB55
:105820000212454B13F8122081540A204349087094
:105830004048007800EB0010194611F81000401C99
:105840003C49097801EB01111A4602F811001AE0EF
:1058500000203A4908703749097801EB0111364AAE
:1058600002F811003349097801EB011102EB410103
:1058700081F8200001202F49097801EB011102EB8A
:10588000410181F8210052E02A48007800EB001025
:10589000294901EB4000C07F5F282CD125480078C2
:1058A00000EB001001EB4000C17F2248007800EBC4
:1058B0000010214A02EB4000401C1E4A127802EB05
:1058C00002121D4B13F81220815400201B4908704E
:1058D0001849097801EB01111A4602F81100154820
:1058E0000078401C134908700020097801EB011171
:1058F00002F811001AE00020104908700D490978DB
:1059000001EB01110C4A02F811000A49097801EB78
:10591000011102EB410181F82000012005490978BD
:1059200001EB011102EB410181F8210000BF00BF32
:1059300010BD0000A000002074030020A100002082
:1059400010B586B004460121480401F036FF01215C
:10595000042001F025FFF94802F094FE0420ADF880
:10596000100003208DF8120018208DF8130004A9F0
:10597000F34801F039FC0820ADF8100004208DF840
:10598000130004A9EE4801F02FFC00940020ADF8AC
:105990000400ADF80600ADF80800ADF80C000C20CE
:1059A000ADF80A0026208DF8140003208DF81500AC
:1059B00001208DF816008DF8170005A801F0BDFA3A
:1059C0006946DE4802F0A1FE012240F22551DB4883
:1059D00002F033FF0121D94802F023FF8021D7488C
:1059E00003F007F806B010BD70B505460E4600245A
:1059F00005E0315DD14802F081FF601CC4B2AC42C9
:105A0000F7DB70BD10B540F22551CC4803F024F807
:105A1000CC48007801286ED1C84802F073FFCA490B
:105A20000870CA48007805281DD2DFE800F0031D81
:105A3000384E6500C4480078A5280DD1C2480078CA
:105A4000C3490978C1EB0111C1EBC101C14A5054EE
:105A50000120BE49087006E00020BC490870BE491C
:105A60000860BE49087082E0B74800785A280ED115
:105A7000B5480078B6490978C1EB0111C1EBC10105
:105A8000B44A114448700220B049087006E0002072
:105A9000AE490870B0490860B049087067E0AA488C
:105AA0000078AB490978C1EB0111C1EBC101A94AEA
:105AB00011448870A9480078A34909780844A74987
:105AC00008700320A149087051E09F480078A04960
:105AD0000978C1EB0111C1EBC1019E4A1144C870A4
