:020000040800F2
:1000000058130020158D000845020008470200081B
:100010004B0200084F0200085302000800000000D5
:10002000000000000000000000000000570200086F
:1000300059020008000000005B0200085D02000891
:100040002F8D00082F8D00082F8D00082F8D0008A0
:100050002F8D00082F8D0008512B00087D2A0008E5
:100060002F8D00082F8D0008E12B00082F8D000830
:100070002F8D00082F8D00082F8D00082F8D000870
:100080002F8D00082F8D00082F8D00082F8D000860
:100090002F8D00082F8D00082F8D00082F8D000850
:1000A0002F8D00082F8D00082F8D00082F8D000840
:1000B0001B1800082F8D00082F8D00082F8D0008B9
:1000C0002F8D00082F8D00082F8D00082F8D000820
:1000D0002F8D00082F8D00087D5C0008015400085A
:1000E0002F8D00082F8D00082F8D00082F8D000800
:1000F0002F8D00082F8D00082F8D00082F8D0008F0
:100100002F8D00082F8D0008B70900082F8D0008DB
:100110002F8D00082F8D00082F8D00082F8D0008CF
:100120002F8D00082F8D00082F8D00082F8D0008BF
:10013000DFF80CD009F0CAF9004800474501000873
:10014000581300201CB501F0ABFB5AE002F050FB45
:1001500002F048FA03F0E9FF32480078012850D154
:1001600005F039F800202F49087003F0BFFD00F0BA
:1001700030FA06F0DCFB2C4A918A508A03F0EDF845
:10018000294A918A508A03F00EFB2848007800EB38
:100190000010274901EB400090F82100012827D1E9
:1001A00003223221084600F060F900201F49097837
:1001B00001EB01111E4A02EB410181F821001B49AC
:1001C000097801EB011102EB4101481C1E2108F0E6
:1001D000BAFD0020FF2161236D22CDE9001004F05B
:1001E000FDFA0021134808F060FC01201249087054
:1001F00012480078012804D10020114908600F49F5
:100200000870A3E770B504460D46E1B2094808F04E
:10021000B9FC00BF0748008800F080000028F9D032
:10022000204670BD3300002064030020AF00002092
:100230008403002000480040A6000020A400002005
:1002400094012142704700BFFEE700BFFEE700BFF8
:10025000FEE700BFFEE77047704770477047000039
:100260000CB50020019000906C48006840F480308C
:100270006A49086000BF6948006800F400300090D7
:100280000198401C0190009818B90198B0F5A06F32
:10029000F1D16248006800F4003010B101200090F4
:1002A00001E0002000900098012843D15C480068DC
:1002B00040F010005A4908600846006820F003002A
:1002C00008600846006840F0020008605348406833
:1002D000524948600846406848600846406840F413
:1002E000806048600846406820F47C1048600846FA
:1002F000406840F4E81048600846006840F08070AC
:10030000086000BF4548006800F000700028F9D080
:100310004248406820F00300404948600846406871
:1003200040F00200486000BF3C48406800F00C000C
:100330000828F9D10CBD10B5FFF792FF10BD10B51C
:100340003648006840F001003449086008464068BB
:10035000344908403149486008460068324908403D
:100360002E4908600846006820F48020086008468E
:10037000406820F4FE0048604FF41F008860FFF7DB
:10038000DAFF4FF000602949086010BD10B5002168
:1003900000200022214B5B6803F00C0121B10429ED
:1003A00006D0082928D107E0214B224C236027E002
:1003B0001F4B204C236023E0184B5B6803F4701044
:1003C000164B5B6803F48032022303EB904022B9A2
:1003D000194B4343174C23600DE0104B5B6803F44B
:1003E000003323B1144B4343124C236003E0104B02
:1003F0004343104C236003E00D4B0E4C236000BFC1
:1004000000BF064B5B68C3F303130C4CE15C094B64
:100410001B68CB40074C236010BD00000010024059
:10042000002002400000FFF8FFFFF6FE08ED00E0AC
:1004300000127A000000002000093D0004000020A6
:100440001748806940F010001549886115484068D8
:1004500020F47040134948600846406840F440501A
:1004600048600846C068C86070472DE9F0410746FB
:100470000C46154600260EE001200B490860384660
:1004800001F009FB00200949C1F8AC01204601F048
:1004900002FB701CC6B2AE42EEDBBDE8F08100008C
:1004A0000010024000100140AC0122420000224234
:1004B00008B50121202007F0B7FABD20ADF80000F3
:1004C00048208DF803006946D54806F0D1FF08BDE5
:1004D00010B5D448006880B9D3480078002877D197
:1004E000032001F0D8FACF480068002870D101201D
:1004F000CD490870CD4908706AE0CA480C380068D8
:1005000088B9C9480078002862D1032001F0C3FAF5
:10051000C4480C38006800285AD10120C24908702C
:10052000C349087054E0BF480838006888B9BE481D
:10053000007800284CD1032001F0ADFAB948083802
:100540000068002844D10120B7490870B9490870F3
:100550003EE0B4481438006878B9B3480078F8B978
:10056000032001F098FAAF4814380068C0B90120A0
:10057000AD490870B04908702AE0AA4810380068F0
:1005800078B9A948007858B9032001F084FAA54841
:100590001038006820B90120A3490870A7490870E5
:1005A00016E0A0481C38006878B99F48007878B9F0
:1005B000032001F070FA9B481C38006840B9012004
:1005C000994908709E49087002E000209649087019
:1005D00010BD10B5FFF77CFF9448007801280CD1BE
:1005E00000209249087001221146052001F0B1FC5B
:1005F0000122C8210846FFF738FF8D4800780128FE
:100600000CD100208A49087000220121052001F048
:10061000A0FC0122C8210846FFF727FF8548007883
:1006200001280CD1002083490870002211460520C2
:1006300001F08FFC01226421C820FFF716FF7E48DD
:10064000007801280CD100207B490870012200218C
:10065000052001F07EFC01226421C820FFF705FF80
:100660007648007801280CD10020744908700022D7
:100670000221052001F06DFC012232210846FFF71E
:10068000F4FE6F48007801287ED100206C49087084
:10069000012232210846FFF7E8FE3C206949086044
:1006A00001220421674806F04EFC6648006866494E
:1006B000086066496648674AC2E900100A220821B4
:1006C000644806F0DBFB6348D0E90010624AC2E9E7
:1006D00000102F2061490860192204215F4806F0AC
:1006E000CDFB5E4800685E4908605E485E495F4A2F
:1006F00003C2232208215D4806F0C0FB5B48D0E915
:1007000000105B4AC2E90010E3205A490860322217
:100710000421584806F0B2FB564800685649086064
:100720000020564908603C220421544806F0A6FBEC
:1007300052480068524908604620524908604622E3
:100740000421504806F09AFB4E4800684E49086064
:100750001E204E490860502204214C4806F08EFBB2
:100760004A4800684A49086040F60610494908604E
:100770005A220421474806F081FB46480068464952
:10078000086040F6980000E049E0444908606422AF
:100790000421424806F072FB404800684049086066
:1007A00040F684003F4908606E2204213D4806F06F
:1007B00065FB3C4800683C49086040F6BB003B498B
:1007C000086078220421394806F058FB3748006851
:1007D0003749086040F698003649086082220421B3
:1007E000344806F04BFB3348006833490860642006
:1007F000324908608C220421304806F03FFB2F4824
:1008000000682F490860AA202E490860962204211A
:100810002C4806F033FB2B4800682B49086010BDBC
:10082000001401401C812242140000201500002009
:1008300016000020170000201800002019000020DA
:100840001A000020D000002044000020295C8FC244
:10085000F528DC3FD800002048000020E000002000
:100860007800002017D9CEF753E3D53FE8000020E9
:1008700050000020F00000207C000020F400002048
:1008800080000020F800002058000020FC0000201C
:100890005C00002000010020600000200401002016
:1008A0006400002008010020680000200C010020E6
:1008B0006C000020100100207000002018010020B2
:1008C00084000020140100208800002008B50121C8
:1008D000102007F0A9F80420ADF8000010208DF8D2
:1008E000030003208DF802006946044806F0C0FDAD
:1008F0000421024806F069FE08BD00000010014016
:100900007FB505460C460121082007F09AF8ADF89E
:100910000850ADF804400020ADF80A00ADF806001C
:1009200001A9FE4807F0B8F901221146FB4807F07B
:100930002AFD32208DF8000000208DF801000320F0
:100940008DF8020001208DF80300684606F039FC9E
:100950000121F24807F0FCFC7FBD7FB505460C463F
:100960000121084607F06DF8ADF80850ADF80440D5
:100970000020ADF80A00ADF8060001A94FF0804054
:1009800007F08AF901221146900707F0FCFC1C20B1
:100990008DF8000001208DF8010003208DF8020081
:1009A00001208DF80300684606F00BFC0121880742
:1009B00007F0CEFC7FBD00B589B00121D74807F014
:1009C00090FF00287ED00121D44807F09BFFD44837
:1009D000007800B3D3480078D1490978884207D01D
:1009E000CF480078401ED04908700020CF490880C9
:1009F000CB480078CB490870CB48007858B1CB4839
:100A00000088401CC949088008460088C82803DAC5
:100A10000120C749086010E0C4480088B0F5FA7F9B
:100A200003DA0020C249086007E00020BF490880BF
:100A3000BD480078401EBC4908700120BD490870BF
:100A4000BD48007802287DD1BB484069401CBA49A6
:100A50004861084690F8720007284AD2DFE800F0A3
:100A600049044ABEDEFDFC00B348C06F0790B2489F
:100A7000C0680690079908F04FFC33D2AE48406832
:100A8000AD49886108464069486308464069069058
:100A900008F0BDFB0790A848806F014606900798B4
:100AA00008F0B4F9A449C86008464069049008F009
:100AB000AEFB0590A048C06801460490059808F078
:100AC000A5F900E0FEE34FF08041069008F0D0F970
:100AD0009A49079008F042F997498860084680686B
:100AE000486506E0944890F87200401C924981F8ED
:100AF00072006BE19048C0680021079008F016FC76
:100B000064D28D484168C16141698163808A8A49A4
:100B1000898E401A8849A1F870000846B0F8700024
:100B2000059008F074FB06908348806F014605909D
:100B3000069808F06BF907907F48C06F0146069051
:100B4000079800E05DE108F05EF97B49C86008465F
:100B5000B0F87000029008F05AFB04907648B0F8A4
:100B60007000019008F053FB02907348806F0146BB
:100B70000190029808F04AF90390049908F046F9A8
:100B80004FF08041059008F073F907906A48B0F87B
:100B90007000039008F03BFB04906748C06F01466B
:100BA0000390049808F032F905906348406D0146BF
:100BB0000490059808F0D2F80690079908F020F9FB
:100BC0005D49886008468168816506E05A4890F86A
:100BD0007200401C584981F87200F7E056480169DC
:100BE000C069081A5449496888420FD95248416877
:100BF00001624169C163B0F87400079008F007FB17
:100C00004D49886008468168C16506E04A4890F809
:100C10007200401C484981F87200D7E04648C06F16
:100C200007904548C0680690079908F075FB3ED2CA
:100C300041484168416241690164818A808F081A94
:100C40003D49A1F870000846B0F87000069008F021
:100C5000DEFA0790384801E0B4E030E0806F0146EA
:100C60000690079808F0D2F83349C8600846B0F8F3
:100C70007000049008F0CBFA05902F48C068014638
:100C80000490059808F0C2F84FF08041069008F0F3
:100C9000EFF807902848C06D01460690079808F0C5
:100CA000B2F82549886008468168016606E0224856
:100CB00090F87200401C204981F8720086E01E48BE
:100CC00080681E49079008F031FB73D21A484168CA
:100CD000816241694164818AB0F84000081A16496E
:100CE000A1F870000846B0F87000059008F08FFA7F
:100CF00006901148806F01460590069808F086F826
:100D000007900D48C06F01460690079808F07BF8E1
:100D10000949C8600846B0F8700011E0000C0040B6
:100D20001E0000201F000020300000202E000020A8
:100D30008801224233000020B40100200000C84294
:100D4000019008F064FA0390FE48B0F8700000903B
:100D500008F05DFA0190FB48806F01460090019811
:100D600008F054F80290039908F050F84FF08041D1
:100D7000049008F07DF80690F248B0F870000390F7
:100D800008F045FA0490EF48C06F014603900498BC
:100D900008F03CF80590069908F032F80790E94809
:100DA000006E01460690079808F02DF8E549886026
:100DB00007E0FFE7E34890F87200401CE14981F842
:100DC000720003E0E048DF49886000BF00BFDD48F3
:100DD000806801460790172001F05BF8089008989A
:100DE000B0F57A7F51D34FF2B561089888424CD262
:100DF0000121880707F0ACFA1721089801F065F87F
:100E000043E0D0480078012823D1D048007E322129
:100E100048433230CB49A1F87400CC48408B00EBFA
:100E2000800040000A3008610846B0F8740006905F
:100E300008F0EDF901460790172001F02AF8089014
:100E40001721089801F041F80121880707F080FA7E
:100E50001BE0BC480078032817D16420B949A1F8E9
:100E600074000846B0F87400069008F0D0F9014606
:100E70000790172001F00DF808901721089801F04D
:100E800024F80121880707F063FAB14800780228A6
:100E90007ED1AF484069401CAD494861084690F892
:100EA0007200072848D2DFE800F0470448BCDCFEA7
:100EB000FD00A748C06F0790A548C0680690079935
:100EC00008F02AFA31D2A2484068A1498861084650
:100ED0004069486308464069069008F098F9079011
:100EE0009B48806F01460690079807F08FFF98494E
:100EF000C86008464069049008F089F90590944854
:100F0000C06801460490059807F080FF4FF08041CB
:100F1000069007F0ADFF8F49079007F01FFF8C493F
:100F2000886008468068486506E0894890F8720045
:100F3000401C874981F8720062E18548C068002141
:100F4000079008F0F3F964D281484168C1614169B2
:100F50008163808A7E49898E401A7D49A1F870009C
:100F60000846B0F87000059008F051F906907848EE
:100F7000806F01460590069807F048FF0790744877
:100F8000C06F01460690079807F03DFF704900E0EA
:100F900051E1C8600846B0F87000029008F037F9D7
:100FA00004906B48B0F87000019008F030F902909E
:100FB0006748806F01460190029807F027FF039071
:100FC000049907F023FF4FF08041059007F050FF90
:100FD00007905F48B0F87000039008F018F904908B
:100FE0005B48C06F01460390049807F00FFF05901F
:100FF0005748406D01460490059807F0AFFE0690F3
:10100000079907F0FDFE52498860084681688165AE
:1010100006E04F4890F87200401C4D4981F872007C
:10102000EEE04B480169C069081A4949496888429D
:101030000FD94748416801624169C163B0F8740043
:10104000079008F0E4F84249886008468168C16565
:1010500006E03F4890F87200401C3D4981F872005C
:10106000CEE03B48C06F07903948C06806900799AA
:1010700008F052F93ED23648416841624169016444
:10108000818A808F081A3249A1F870000846B0F8AA
:101090007000069008F0BBF807902D48806F01465D
:1010A000069001E0A8E02DE0079807F0AFFE284980
:1010B000C8600846B0F87000049008F0A8F80590E1
:1010C0002348C06801460490059807F09FFE4FF042
:1010D0008041069007F0CCFE07901D48C06D014688
:1010E0000690079807F08FFE1949886008468168C6
:1010F000016606E0164890F87200401C144981F819
:1011000072007DE0124880681249079008F00EF9DD
:101110006AD20F484168816241694164818AB0F8AE
:101120004000081A0A49A1F870000846B0F870009B
:10113000059008F06CF806900548806F0146059010
:10114000069809E0B40100200000C84264030020B2
:10115000440200200000484207F058FE0790FE4875
:10116000C06F01460690079807F04DFEFA49C86027
:101170000846B0F87000019008F049F80390F6486E
:10118000B0F87000009008F042F80190F248806FCB
:1011900001460090019807F039FE0290039907F08C
:1011A00035FE4FF08041049007F062FE0690EA4859
:1011B000B0F87000039008F02AF80490E648C06F79
:1011C00001460390049807F021FE0590069907F068
:1011D00017FE0790E048006E01460690079807F05A
:1011E00012FEDD49886006E0DB4890F87200401C82
:1011F000D94981F8720003E0D848D749886000BF18
:1012000000BFD548806801460790172000F041FED6
:1012100008900898B0F57A7F51D34FF2B5610898DD
:1012200088424CD21721089800F07CFE0121CC485E
:1012300007F08EF843E0C8480078012823D1C94858
:10124000007E322148433230C349A1F87400C548BA
:10125000408B00EB80004000323008610846B0F857
:101260007400069007F0D3FF01460790172000F0A6
:1012700010FE08901721089800F054FE0121B8488C
:1012800007F066F81BE0B4480078032817D1502017
:10129000B149A1F874000846B0F87400069007F050
:1012A000B6FF01460790172000F0F3FD08901721C4
:1012B000089800F037FE0121A94807F049F8AA482C
:1012C000007800E0A7E202287ED1A7484069401CD0
:1012D000A5494861084690F87200012843D10846A4
:1012E000C06F07900846C0680690079908F014F888
:1012F00031D29D4840689C498861084640694863EE
:1013000008464069069007F082FF07909648806F74
:1013100001460690079807F079FD9349C860084692
:101320004069049007F073FF05908F48C06801463C
:101330000490059807F06AFD4FF08041069007F091
:1013400097FD8A49079007F009FD8749886008469C
:101350008068486595E1844890F87200401C824995
:1013600081F872008DE1804890F8720002287DD1EA
:101370007D48C0680021079007F0D8FF7BD27A48EB
:10138000B0F87400069007F042FF07907648806836
:1013900001460690079807F0C9FF6CD27248406971
:1013A000B0F5FA7F67D270484168C16141698163D5
:1013B000808A6D49898E401A6B49A1F870000846F1
:1013C000B0F87000059000E075E107F020FF06908E
:1013D0006548806F01460590069807F017FD079055
:1013E0006148C06F01460690079807F00CFD5E4902
:1013F000C8600846B0F87000029007F008FF04903B
:101400005948B0F87000019007F001FF029056486B
:10141000806F01460190029807F0F8FC0390049950
:1014200007F0F4FC4FF08041059007F021FD079094
:101430004D48B0F87000039007F0E9FE04904A4868
:10144000C06F01460390049807F0E0FC0590464801
:10145000406D01460490059807F080FC06900799BE
:1014600007F0CEFC40498860084601E00BE002E04E
:101470008168816505E13C4890F87200401C3A495A
:1014800081F87200FDE0384890F8720003281FD1FF
:1014900035480169C069081A3349496888420FD93B
:1014A0003148416801624169C163B0F87400079036
:1014B00007F0ADFE2C49886008468168C165E0E010
:1014C000294890F87200401C274981F87200D8E042
:1014D000254890F8720004285BD12348C06F07901C
:1014E0002148C0680690079907F016FF48D21E48A9
:1014F0004168416241690164818A808F081A1A49F2
:10150000A1F870000846B0F87000069007F07FFE62
:1015100007901548806F01460690079807F076FC03
:101520001149C8600846B0F87000049007F06FFEDB
:1015300005900D48C06801460490059807F066FCC8
:101540004FF08041069007F093FC07900648C06D6D
:101550000146069007980BE0440200200000484234
:101560000008004064030020D40200200000C842AC
:1015700007F049FCAE49886008468168016680E052
:10158000AB4890F87200401CC1B2A94880F87210B4
:1015900077E0A74890F8720005286FD1A4488068CA
:1015A000A449079007F0C2FE5FD2A148416881625A
:1015B00041694164818AB0F84000081A9C49A1F849
:1015C00070000846B0F87000059007F020FE069005
:1015D0009748806F01460590069807F017FC079022
:1015E0009348C06F01460690079807F00CFC90499D
:1015F000C8600846B0F87000019007F008FE03903C
:101600008B48B0F87000009007F001FE0190884808
:10161000806F01460090019807F0F8FB0290039953
:1016200007F0F4FB4FF08041049007F021FC069096
:101630007F48B0F87000039007F0E9FD04907C4803
:10164000C06F01460390049807F0E0FB05900699EF
:1016500007F0D6FB07907648006E01460690079883
:1016600007F0D1FB724988600BE0714890F8720076
:10167000401C6F4981F8720003E0FFE76D496C4838
:1016800081606B48806801460790172000F001FCDC
:1016900008900898B0F57A7F54D34FF2B561089856
:1016A00088424FD21721089800F025FC012162489A
:1016B00006F04EFE46E05E480078012826D15F48DD
:1016C000007E322148433C305949A1F874005B4800
:1016D000408B00EB80004000323008610846B0F8D3
:1016E0007400069007F093FD01460790172000F064
:1016F000D0FB08901721089800F0FDFB01214E480F
:1017000006F026FE00204E4948711BE0484800784C
:10171000032817D1C8204649A1F874000846B0F83C
:101720007400069007F073FD01460790172000F043
:10173000B0FB08901721089800F0DDFB01213E481E
:1017400006F006FE3F48006840BB3F480088401C4A
:1017500081B23D480180008840F2DC51884220DDA2
:1017600001F024FB0021F12061236D22CDE900016D
:101770000321002003F032F80020334908800120C3
:1017800030497C3108603149087040F2DC5000F08B
:1017900082F940F2DC5000F07EF902E000202A4994
:1017A000088000F079F82A48008820B1284800888D
:1017B000401E27490880274800781D4909780844B9
:1017C000254909780844254908702548007888B1DA
:1017D00024480078401C23490870084600780528F2
:1017E00008DD0121204807F060F900201C4908703D
:1017F0001C4908701D48008820B11C480088401E04
:101800001A4908801A480088002804DD1848008812
:10181000401E1749088009B000BD10B50121880796
:1018200007F05FF818B10121880707F06BF810BDC9
:10183000D40200200000C8420004004064030020DD
:101840009C0000201801214226000020A400002056
:1018500036000020B40100204402002035000020A2
:10186000A600002032000020004800402C0000208C
:101870002A00002070B505460C4645F2555005F08B
:1018800045FF284605F045FF204605F045FF05F0D9
:1018900046FF05F049FF70BD10B505F040FF10BDD3
:1018A00010B500F0BBF8FFF711F8FEF7C9FDFEF721
:1018B000FFFD00F03FF901F033FA00F09DF94FF41D
:1018C000965002F029FF4FF4E13004F075F9012041
:1018D0003049087000F00CF941F61F410920FFF76C
:1018E0000FF805F07EF940F6B8310620FFF7C2FF89
:1018F00000202949087005F0DFF8284800682849C9
:1019000008602848D0E90010274AC2E9001027489B
:101910000068274908602748D0E90010264AC2E934
:1019200000102648006826490860264800682649B5
:10193000086026480068264908602648006826494D
:10194000086026480068264908602648006826493D
:101950000860264800682649086024480068086036
:101960002448006824490860244800682449086025
:101970002448006824490860244800682449086015
:101980002448006824494860012232210846FEF7B5
:101990006CFD10BD78010020A4000020D0000020C4
:1019A00044000020D800002048000020E000002073
:1019B00078000020E800002050000020F000002007
:1019C0007C000020F400002080000020F8000020AF
:1019D00058000020FC0000205C00002000010020D6
:1019E00060000020040100206400002008010020A5
:1019F000680000200C0100206C0000201001002075
:101A00007000002018010020840000201401002034
:101A100088000020900000209400002010B56FF096
:101A2000040005F018FC2E4800682E49B0FBF1F0C8
:101A30002D4908700846007800EB4001C1EBC0104A
:101A40004FF6FF7101EAC0002849088010BD014629
:101A5000254A12784A434FF0E0235A6100229A61E6
:101A60001A46126942F001021A6100BF4FF0E022EB
:101A7000106900F001021AB100F48032002AF5D09A
:101A80004FF0E022126922F001024FF0E0231A61C8
:101A900000229A6170470146144A12884A434FF067
:101AA000E0235A6100229A611A46126942F001024B
:101AB0001A6100BF4FF0E022106900F001021AB174
:101AC00000F48032002AF5D04FF0E022126922F0B3
:101AD00001024FF0E0231A6100229A617047000072
:101AE0000000002000127A003C0000203E00002090
:101AF00010B500214FF0006005F095FB4FF4A06099
:101B000005F05AFB10BD012080F3138800BF00BF11
:101B10000648006800F4E06005490843001D0349D9
:101B20000860BFF34F8F00BF00BFFEE70CED00E081
:101B30000000FA0508B501215C2005F075FF0121C0
:101B4000084605F071FF0121264805F062FD48F2C4
:101B50002000ADF8000010208DF8030003208DF860
:101B600002006946204805F083FC48F220011E4827
:101B700005F02DFD8020ADF8000010208DF8030049
:101B800003208DF802006946184805F071FC802199
:101B9000164805F01CFD0B20ADF8000010208DF854
:101BA000030003208DF802006946114805F060FC2F
:101BB0000B210F4805F00BFD9520ADF8000010201B
:101BC0008DF8030003208DF802006946094805F0EE
:101BD0004FFC1521074805F0F8FC8021054805F069
:101BE000F6FC08BD0002300000080140000C014076
:101BF00000100140001801401FB501213C2005F0F4
:101C000013FF0121084605F00FFF0121084605F0EA
:101C100018FF0121022005F014FF0121042005F026
:101C200010FF4220ADF80C0018208DF80F000320A3
:101C30008DF80E0003A9FC4805F01AFC0120ADF850
:101C40000C0018208DF80F0003208DF80E0003A95A
:101C5000F64805F00DFC0020F549C8804880087260
:101C60004FF0804006F018F86020F249088001200B
:101C70004880042088800020088148814FF08040FF
:101C800006F047F80821C80606F092FC00214FF044
:101C9000804006F05DFB0020E549C880488008725E
:101CA000E54805F0F9FF6020E249088001204880FE
:101CB00004208880002008814881DF4806F003F96D
:101CC0000821DD4806F093FC0021DB4806F040FBCC
:101CD0000020D7490880C88048800872D74805F09E
:101CE000DBFF6020D34908800120488004208880E1
:101CF000002008814881D14806F00BF80821CF4820
:101D000006F056FC0021CD4806F022FB0220ADF87B
:101D10000C0048208DF80F0003A9C44805F0A8FB6B
:101D20000121002005F0BAFC0220019000208DF86E
:101D3000080008208DF8090001208DF80A0001A88C
:101D400005F0B6FA07208DF8000001208DF801009B
:101D500002208DF8020001208DF80300684605F08E
:101D600030FA0120ADF80C0048208DF80F0003A9CF
:101D7000AD4805F07DFB0021012005F08FFC01201E
:101D8000019000208DF8080008208DF8090001203E
:101D90008DF80A0001A805F08BFA06208DF80000E6
:101DA00001208DF8010003208DF8020001208DF83C
:101DB0000300684605F005FA1020ADF80C00482035
:101DC0008DF80F0003A99E4805F052FB0421022064
:101DD00005F064FC1020019000208DF80800082018
:101DE0008DF8090001208DF80A0001A805F060FABD
:101DF0000A208DF8000001208DF801008DF8020006
:101E00008DF80300684605F0DCF91520ADF80C00EC
:101E100010208DF80F0003208DF80E0003A98948CB
:101E200005F026FB1521874805F0D1FB1020ADF801
:101E30000C008DF80F0003208DF80E0003A97B48DD
:101E400005F016FB2020ADF80C0010208DF80F00D7
:101E500003208DF80E0003A9794805F009FB4FF423
:101E60008050ADF80C0010208DF80F0003208DF885
:101E70000E0003A96C4805F0FBFA4FF4E070ADF8D2
:101E80000C0048208DF80F0003A9684805F0F0FA0F
:101E90001FBD2DE9F04104460D46601C07F0B7F95F
:101EA00007462946384606F0B1FF074639466648D8
:101EB00006F0DEFF80464FF07E5106F0A1FF064699
:101EC000304607F0C7F9BDE8F08170B504460D460D
:101ED0004FF0804006F0F3FCA04204D900214FF0FF
:101EE000804006F0C9FC4FF080418C850D85C4F31D
:101EF0004F00888670BD70B504460D464E4806F00A
:101F0000DEFCA04203D900214B4806F0B5FC4A494B
:101F10002C310C80091F0D80C4F34F00464940311D
:101F2000088070BD70B504460D46444806F0C7FCF5
:101F3000A04203D90021414806F09EFC3F492C31C4
:101F40000C80091F0D80C4F34F003C4934310880D8
:101F500070BD2DE9F05F82468B469146BBF1000FC4
:101F600061D13A48C0F89491394880F88490394852
:101F7000006820B9B9F1000F01D1BDE8F09F3448E5
:101F8000007800284ED13248C0F810A032480CC862
:101F90000020324907F0C3F805460E46504607F0C8
:101FA0004CF907462A46334607F082F95ED24FF4D1
:101FB000FA702749A1F87400B1F874108900A1F5EE
:101FC000C87007F01BF90546254906F051FF204966
:101FD000C867B1F87410C900A1F5487007F00EF990
:101FE0000546204906F044FF194988671E48886065
:101FF00000204860486100240CE00021144818309B
:1020000040F824101C3040F82410203040F82410F0
:10201000601CC4B2072CF0DB02200D4908700120BF
:1020200081F872005FE2AAE0000C01400008014064
:10203000A801002098010020000400400008004092
:1020400000100140001801404054894C0000224219
:10205000B4010020188122424800002000407F4047
:102060000000C84300409C470000C842FA480CC822
:102070000020FA4907F053F805460E46504607F08F
:10208000DCF807462A46334607F012F93BD24FF4F4
:102090004870F349A1F87400B1F874108900A1F5F3
:1020A000C87007F0ABF80546EE4906F0E1FEEC49D2
:1020B000C867B1F87410C900A1F5487007F09EF820
:1020C0000546E94906F0D4FEE5498867E748886097
:1020D00000204860486100240CE00021E0481830EE
:1020E00040F824101C3040F82410203040F8241010
:1020F000601CC4B2072CF0DB0220D9490870012013
:1021000081F87200EFE140F6FC00D549A1F87400B7
:10211000B1F874108900A1F5C87007F06FF8054692
:10212000D34906F0A5FECE49C867B1F87410C900BE
:10213000A1F5487007F062F80546CE4906F098FE12
:10214000C7498867C9488860002048604861002402
:102150000CE00021C248183040F824101C3040F830
:102160002410203040F82410601CC4B2072CF0DB8F
:102170000220BB490870012081F87200B3E1BBF175
:10218000010F7DD1BC48C0F8B091BC4880F8849064
:10219000BB48006818B9B9F1000F00D1EDE6B748A7
:1021A00000780028AED1B548C0F810A0B5480CC8DA
:1021B0000020B54906F0B3FF05460E46504607F02D
:1021C0003CF807462A46334607F072F83AD27820A0
:1021D000AA49A1F87400B1F87410C900A1F5C8703B
:1021E00007F00CF80546A94906F042FEA3498867A6
:1021F000B1F874108900A1F1C80006F0FFFF054690
:102200009A4906F035FE9D49C867A14888600020BC
:102210004860486100240CE000219848183040F8DC
:1022200024101C3040F82410203040F82410601C8A
:10223000C4B2072CF0DB022090490870012081F81D
:10224000720050E18F480CC80020924906F067FFE9
:1022500005460E46504606F0F0FF07462A4633462E
:1022600007F026F83CD2C8208449A1F87400B1F8E0
:102270007410C900A1F5C87006F0C0FF054600E063
:10228000B7E0854906F0F4FD7C498867B1F8741021
:102290008900A1F1C80006F0B1FF05467F4906F0AC
:1022A000E7FD7649C8677A48886000204860486141
:1022B00000240CE000217148183040F824101C3034
:1022C00040F82410203040F82410601CC4B2072CC1
:1022D000F0DB022069490870012081F8720002E1F8
:1022E00068480CC800206E4906F019FF05460E46E6
:1022F000504606F0A2FF07462A46334606F0D8FFAE
:102300003BD24FF416705D49A1F87400B1F8741017
:102310008900A1F1C80006F071FF0546614906F089
:10232000A7FD5649C867B1F87410C900A1F5C87077
:1023300006F064FF05465C4906F09AFD4F49886740
:102340005348886000204860486100240CE0002168
:102350004A48183040F824101C3040F8241020302F
:1023600040F82410601CC4B2072CF0DB0220434963
:102370000870012081F87200B5E04FF4FA603F491F
:10238000A1F87400B1F874108900A1F1C80006F03A
:1023900035FF0546454906F06BFD3849C867B1F879
:1023A0007410C900A1F5C87006F028FF0546404921
:1023B00006F05EFD31498867354888600020486036
:1023C000486100240CE000212C48183040F824100B
:1023D0001C3040F82410203040F82410601CC4B297
:1023E000072CF0DB022025490870012081F87200DB
:1023F00079E03048C0F890912F4880F884900078B8
:1024000040BB2D48C0F810A04FF448702A49A1F8ED
:102410007400B1F874108900A1F5C87006F0EEFEE2
:102420000546204906F024FD2349C867B1F8741019
:10243000C900A1F5487006F0E1FE05461A4906F00C
:1024400017FD1D4988670948886000204860486179
:1024500000243FE047E00000480000200070974063
:10246000B40100200000FA440024F4490000C842EE
:102470000000164500C82F4A008021424402002077
:1024800028012342500000200000594000409C4594
:102490000000484200407F4000409C470000C84385
:1024A00000408F4000007A440024F4480000C844F3
:1024B00000409C4900002142D40200200021FE4837
:1024C00040F824101C3040F82410203040F824102C
:1024D000601CC4B2072CF1DB0220F74918390870E0
:1024E000012081F8720000BF47E52DE9F34F83B06A
:1024F0008A46039806F0A1FECDE90001EF480CC81A
:10250000009806F00CFE074606F0EAFE0290EC4941
:10251000D1F8800006F072FE0746029906F0FCFE34
:102520000ED20126E649D1F8800006F067FE80460B
:10253000029906F068FC074606F08CFE04460DE0A2
:102540000026DF49D1F8800006F058FE8046029947
:1025500006F056FC074606F07DFE0446504606F09F
:102560006CFE0746D7480CC8384606F0D8FDCDE9C2
:10257000000106F0B5FE8346D349D1F8800006F08D
:102580003DFE0746594606F0C7FE0FD24FF001093F
:10259000CD49D1F8800006F031FE8046594606F05C
:1025A00032FC074606F056FE05460EE04FF00009E5
:1025B000C549D1F8800006F021FE8046594606F054
:1025C0001FFC074606F046FE05463246002120461F
:1025D000FFF7BFFC4A4601212846FFF7BAFC05B0C9
:1025E000BDE8F08F10B5B4481838007800287DD0C9
:1025F000B6480068D0BBB548001D0068B0BBB34802
:102600000830006890BBAC48183890F88400012866
:102610002CD1A94818384068C82827D9AC48407937
:1026200020BBAC480078401CAA49087008460078D6
:10263000012808D1A04818380069A7490968401A3C
:102640009D491839486000BF9B4818380078002819
:10265000FAD19949183908700021A04805F078FE90
:1026600000209C490870944918390865974800680B
:10267000C8BB9648001D0068A8BB94480830006895
:1026800088BB8D48183890F8840060BB8A48183899
:102690004068C82827D98E48407920BB90480078E8
:1026A000401C8F49087008460078012808D18248EC
:1026B000183800698B490968401A7F491839486001
:1026C00000BF7D48183800780028FAD17A491839B7
:1026D00008700021814805F03BFE0020764918393A
:1026E00008657F4908708048006800E072E0B0BB70
:1026F0007D481438006890BB7548407901282ED178
:102700006D48183890F8840048BB6B48183840680A
:102710000A2824D972480078401C7149087008467C
:102720000078012806D164481838006928386249C1
:102730001839486000BF6048183800780028FAD17E
:102740005D49183908700021644805F001FE002039
:10275000594918390865624908705D4948716248ED
:102760000068B8BB60481438006898BB5848407986
:1027700001282FD15048183890F88400012829D119
:102780004D48183840680A2824D955480078401C1C
:102790005349087008460078012806D14648183881
:1027A0000069283844491839486000BF4248183841
:1027B00000780028FAD140491839087000214748AC
:1027C00005F0C6FD00203C491839086544490870E9
:1027D0003F49487110BD0122394B83F88420434A98
:1027E00011601A46106100225A6003221A70704765
:1027F00010B53548007858B33B480C38006890B99C
:10280000314890F8840001280DD101223221084678
:10281000FDF72BFE00202C4908700021344805F0FC
:1028200097FD00F0C3FA30481030006880B92648A0
:1028300090F8840001280BD1002023490870002162
:102840002B4805F085FD052232210846FDF70DFED7
:102850002848007801281BD10020264908704FF431
:10286000FA702549088000BF234800880028FBD162
:10287000012122480068FFF7AEFF00BF1048007832
:102880000028FBD10E49C1F88000012010490871D1
:102890000B480078A0B315486038006888BB08482A
:1028A00090F8840068BB00200549087000214FF0B3
:1028B000804005F04DFD25E0EC020020480000209E
:1028C000B401002050000020440200200C8121426D
:1028D0009C000020760000205C00002000040040E6
:1028E00077000020580000202C012342940122424E
:1028F0000008004040000020360000204400002076
:102900001AE004E0052232210846FDF7AEFDF64844
:10291000006888B9F54890F8840001280CD100209F
:10292000F249087000214FF0804005F011FD0122AE
:1029300032210846FDF799FD10BD10B511B10129EE
:102940001AD10CE0EA4B1A60E84B83F8842000238C
:10295000E64C636023461861032323700CE0E54BCB
:102960001A60E54B83F884200023E34C6360234620
:1029700018610323237000BF00BF10BD10B50446CB
:1029800034BBDC48A4380068012813D0D948A038EB
:10299000006801280ED0D7489C380068012809D06B
:1029A000D1480C380068012804D0CF48203800688E
:1029B000012800D110BD0020CD490860CB4981F825
:1029C000840048604CF2503008610320087053E0E6
:1029D000C848A4380068012813D0C648A038006849
:1029E00001280ED0C3489C380068012809D0BE4891
:1029F0000C380068012804D0BB4820380068012842
:102A000000D1D7E70120BB490860BB4981F88400A9
:102A1000C8200861002048600320087018E002F018
:102A2000DAFBB1481838006890B9B34890F88400D0
:102A300001280DD10020B04908700021AF4805F0F1
:102A400087FC00F0B3F9012232210846FDF70DFDA5
:102A5000A94800780028E2D14FF4FA70FFF71BF87C
:102A60000020A4490860A44981F8840048604CF221
:102A7000503008610320087000BF9BE710B50220AA
:102A800004F08DFC99480078002860D09748406891
:102A9000401C96494860084690F88400012806D1F9
:102AA0000846D0F88000401CC1F880000BE08F4839
:102AB000D0F88000002806DD8C48D0F88000401E49
:102AC0008A49C1F880008E48006870B9874890F83C
:102AD000840050B901208B49087000208349087098
:102AE00000214FF0804005F033FC804840687F496A
:102AF000096988422BD300214FF0804005F028FC63
:102B00007D48007810B902207F490870002077497D
:102B1000087048608860C8600861486181F8720088
:102B2000A1F87000A1F874008867C86700240CE061
:102B300000216E48183040F824101C3040F8241052
:102B4000203040F82410601CC4B2072CF0DB10BD0C
:102B500010B5012004F023FC6C48007800283ED01A
:102B60006A484068401C69494860084690F88400FB
:102B7000012804D10846006D401C086504E0634844
:102B8000006D401E61490865604840685F490969F9
:102B9000884224D300215E4805F0DAFB00205B491F
:102BA000087048608860C8600861486181F87200F8
:102BB000A1F87000A1F874008867C86700240CE0D1
:102BC00000215248183040F824101C3040F82410DE
:102BD000203040F82410601CC4B2072CF0DB10BD7C
:102BE00010B5102004F0DBFB43480078002879D0B2
:102BF00041484068401C40494860084690F88400BD
:102C0000012806D10846D0F88000401CC1F8800099
:102C100006E03948D0F88000401E3749C1F88000EE
:102C2000314810380068A8B9334890F8840088B952
:102C30003848007801280DD10020364908702E4907
:102C40000870C1F8800001203349887100212B48A9
:102C500005F07EFB24483438006890B9264890F887
:102C6000840070B92D48807801280AD12B4840682B
:102C70002149C1F880000020087000211F4805F09C
:102C800067FB1D4840681C49096988422AD3002116
:102C90001A4805F05DFB1548007810B902201A4962
:102CA0000870002014490870C86048608860086196
:102CB000486181F87200A1F87000A1F8740088677B
:102CC000C86700240CE000210B48183040F824109D
:102CD0001C3040F82410203040F82410601CC4B28E
:102CE000072CF0DB10BD000038012342B4010020A6
:102CF00094012242B0812142440200200008004099
:102D0000188122424000002075000020D4020020DB
:102D1000000400408C0000209C0000209400002053
:102D200008B50121682004F07FFE3820ADF80000CE
:102D300048208DF803006946184804F099FB4FF4C9
:102D40000050ADF8000048208DF803006946144893
:102D500004F08EFB4FF64070ADF8000048208DF86F
:102D6000030069460F4804F083FB4DF28050ADF834
:102D7000000048208DF8030069460B4804F078FBFA
:102D800048F64820ADF8000048208DF80300694659
:102D9000054804F06DFB08BD70470000000C0140C1
:102DA00000100140001401400018014010B500203F
:102DB000FC49087000214FF0804005F0C9FA00205E
:102DC000F94908700021F94805F0C2FA0020F849D5
:102DD00008700021F74805F0BBFA0020F649C873D7
:102DE0000874888248820120F4490870F249C8704A
:102DF0008870087148718871C87108724872002023
:102E000088730120EE49487000200870C8700120C6
:102E1000EC494870002008700120C87010BD70B5E2
:102E200004460D46E4480079012818D1E24840796B
:102E300001280AD10020E049887348710120DF4948
:102E4000087029462046FFF750FBDC48007802282E
:102E50000AD1D9480079401CD749087104E0012003
:102E6000D54988730871487170BD70B504460D4628
:102E70001646D1488079012874D1CF48C0790128FD
:102E800022D10020CC498873C871012E76D1084622
:102E90004078012802D10846007838B1C648407809
:102EA000022831D1C448007801282DD1012C15D138
:102EB000C5480078A04208D1C348047022460221C8
:102EC000C2480068FFF745F885E0BF480470224615
:102ED0000221BF480068FFF73CF87CE0BA48007860
:102EE000A04208D1B848047022460221B9480068BF
:102EF000FFF72FF86FE0B448047022460221B6486D
:102F00000068FFF726F866E0AB48407801281BD13F
:102F1000A9480078012817D1AB480078A04209D110
:102F2000A948047022460221A84800685030FFF7E3
:102F300010F850E0A448047022460221A44800681A
:102F40005030FFF706F846E09F480078A0420BD1CA
:102F50009D480470224602219E4800685030FEF7CA
:102F6000F8FF38E047E009E0974804702246022164
:102F7000994800685030FEF7ECFF2CE0012C15D189
:102F800091480078A04208D18F480470224602215F
:102F90008E480068FEF7DDFF1DE08B480470224676
:102FA00002218B480068FEF7D4FF14E086480078C1
:102FB000A04208D184480470224602218548006856
:102FC000FEF7C7FF07E080480470224602218248CE
:102FD0000068FEF7BEFF7448007800284ED101203B
:102FE0007549C87108468079401C88714FF4FA70A1
:102FF000FEF751FD42E07048807902281AD16E48F0
:10300000C079012807D100206B49C8710022012135
:103010002846FEF79EFF6648007848BB01206649B7
:10302000C87108468079401C88714FF4FA70FEF729
:1030300032FD23E06048807903281AD15E48C079C8
:1030400001280DD100205C49C87184F001005E495F
:10305000087084F00102022140F6C410FEF779FFE7
:103060005148007820B954488079401C52498871F1
:1030700004E001205049C8718871887370BD5748B9
:10308000006858B901205649086000205549C1F828
:103090008001534908310860012070470020FCE797
:1030A00070B504460D4616464348007A012877D18C
:1030B0004148407A002823D000203F498873487255
:1030C000012E6ED108464078012803D108460078C9
:1030D000102807D038484078022833D13648007885
:1030E00011282FD1012C15D137480078A04208D1E2
:1030F000354804702246022134480068FEF729FF53
:10310000A9E0314804702246022131480068FEF7E8
:1031100020FFA0E02C480078A04209D12A48047082
:10312000224602212B4800681E30FEF712FF92E073
:103130002548047022460221274800681E30FEF709
:1031400008FF88E01C48407801281BD11A48007805
:10315000112817D11C480078A04209D11A480470E0
:1031600022460221194800685030FEF7F2FE72E054
:103170001548047022460221154800685030FEF7B9
:10318000E8FE68E010480078A0422DD10E48047097
:10319000224602210F4800685030FEF7DAFE5AE05E
:1031A00069E02BE0B4010020D402002000040040BC
:1031B0004402002000080040640300207500002045
:1031C0009C00002094000020A30000206800002044
:1031D00064000020700000206C00002030012342B9
:1031E0008401224200002242FE480470224602214D
:1031F000FD4800685030FEF7ACFE2CE0012C15D1E4
:10320000F8480078A04208D1F6480470224602210E
:10321000F6480068FEF79DFE1DE0F2480470224665
:103220000221F3480068FEF794FE14E0ED480078B0
:10323000A04208D1EB48047022460221ED48006804
:10324000FEF787FE07E0E748047022460221E648C1
:103250000068FEF77EFEE848007800287CD1E74849
:10326000007A401CE5490872012048724FF4FA7058
:10327000FEF711FC70E0E148007A02281AD1DF481D
:10328000407A38B10020DD494872012211462846B3
:10329000FEF75FFEDA48007800285DD1D748007A53
:1032A000401CD6490872012048724FF4FA70FEF7AC
:1032B000F2FB51E0D148007A03281BD1CF48407A75
:1032C00068B184F00100C749087084F0010202214E
:1032D0004FF4C860FEF73DFE0020C8494872C6485A
:1032E000007858BB0120C54948720846007A401C46
:1032F000087231E0C148007A042820D1BF48407AE2
:1033000090B184F00100BF49086084F00100BA491F
:1033100081F884004FF47A7008610020486003202F
:1033200008700020B5494872B348007830B90120D0
:10333000B24948720846007A401C08720CE001202D
:10334000AE494872087288734FF4FA70FEF7A3FB17
:103350004FF4FA70FEF79FFB70BD2DE9FC41044667
:103360000D46A648C07B012856D1A448C078012844
:1033700066D1A148007820BBA3480068012804D08A
:10338000A1481438006801281BD1052232210846C3
:10339000FDF76BF801209D49086000209C49C1F8A9
:1033A00080019A4908310860FF2161236D22CDE92F
:1033B0000010032101F012FA06209049C870BDE800
:1033C000FC8100209149086001209149C1F88001E9
:1033D00000208E490831086029462046FFF71FFD6E
:1033E0008648807B0128BFD184480078202814D1EA
:1033F00006208249C8700020052161236D22CDE995
:103400000010032101F0EAF94FF4FA70FEF743FBD4
:103410004FF4FA70FEF73FFBC3E100200221612365
:103420006D22CDE90010032101F0D8F97348C0786E
:10343000401C7249C8704FF4FA70FEF72CFBB0E1E3
:103440006E48C078022871D172480CC800207249B9
:1034500005F065FE064605F011FF804667490978CC
:1034600001F0010181F0010000224146FFF718FE42
:103470006248807B0128CFD15F48007818BB624842
:103480000068012804D060481438006801281AD167
:10349000052232210846FCF7E8FF01205B4908605D
:1034A00000205B49C1F88001584908310860FF21BC
:1034B00061236D22CDE90010032101F08FF908206E
:1034C0004E49C8707BE74D48407880B905223221CB
:1034D0000846FCF7CAFF0020032161236D22CDE9D5
:1034E000001001F07BF908204449C87059E1FFF74A
:1034F000C6FDE0B10020F02161236D22CDE900106E
:10350000032101F06BF9052232210846FCF7ADFFDB
:1035100001203E49086000203D49C1F880013B4937
:103520000831086005203549C870C0E011E000206E
:10353000032161236D22CDE9001001F04FF92F48DE
:10354000C078401C2D49C8704FF4FA70FEF7A3FAFA
:1035500027E12A48C078032834D128484078012838
:1035600003D0264840780228C0D1244A928B3232B8
:1035700091B2224AD08BFFF752FC2048807B012871
:10358000B4D11E48C07A022808DD00201B49C87249
:1035900088720620C8700120487310E700BF1748E2
:1035A000C078401C1549C8700020042161236D2299
:1035B000CDE90010032101F011F94FF4FA70FEF784
:1035C0006AFAEEE00D48C07804286BD111480CC8A7
:1035D0000020124905F0A3FD064605F04FFE804687
:1035E00006491DE0A30000206C00002068000020B8
:1035F0006400002070000020D4020020640300203A
:1036000044020020900121422C01234284012242E5
:10361000000022425000002000003E4000004E40CA
:103620004978491009B9012100E00021084601222A
:103630004146FFF71AFCFE48807B012888D1FD48EF
:10364000007818BBFC480068012804D0FA481438F8
:10365000006801281AD1052232210846FCF705FF2F
:103660000120F64908600020F549C1F88001F349BE
:1036700008310860FF2161236D22CDE9001003218C
:1036800001F0ACF80620EA49C87098E60020052150
:1036900061236D22CDE90010032101F09FF8FFF7AF
:1036A00085FB7EE0E248C07805281BD100BFE049D9
:1036B000097801F0010181F001000022E149096867
:1036C000FFF7D3FBDA48807B01286AD10820D8496C
:1036D000C8704FF4FA70FEF7DEF94FF4FA70FEF797
:1036E000DAF96CE6D248C07806283DD1D048407B54
:1036F000012829D10020CE494873012200215A20F7
:10370000FFF71BF9D0480CC80020D04905F007FD91
:10371000064605F0B3FD804600220121FFF70DF9B2
:103720000120CB498870C820FEF7B5F902E0C82017
:10373000FEF7B1F9C74800780028F8D100221146F9
:103740004CF25030FFF7F9F8C3480079012828D12E
:10375000C248007828BB0020BF4908710720B4493F
:10376000C870012048732AE6B148C078072816D1EE
:10377000AF48407B01280AD10020AD4948730A4672
:10378000928B323291B2AA4AD08BFFF748FBA848FD
:10379000807B012805D10320A549C870FFE6FFF70B
:1037A00005FB00BF0BE62DE9FC4104460D46A04891
:1037B000007C012868D19E488078012865D19C480A
:1037C000407818B903209A49887039E09948007800
:1037D00020BB99480068012804D097481438006835
:1037E00001281BD1052232210846FCF73EFE0120AC
:1037F0009249086000209249C1F880018F49083140
:103800000860FF2161236D22CDE90010032100F043
:10381000E5FF072086498870BDE8FC8100208749C4
:10382000086001208649C1F880010020C1F88C01A0
:103830007F4A928B0A3A91B27D4AD08BFFF7EFFA1A
:103840007B48807B0128B5D17948807A022808DD41
:10385000002077498872C87201200873062088709A
:10386000DAE700BF0020022161236D22CDE90010BC
:10387000032100F0B3FF6E488078401C6C498870CB
:103880004FF4FA70FEF707F9B9E169488078022829
:1038900069D167494978491009B9012100E000213F
:1038A000084601226E4909683231FFF7F9FB60488A
:1038B000807B0128E8D15F48007818BB5E4800682B
:1038C000012804D05C481438006801281AD1052268
:1038D00032210846FCF7C9FD012058490860002044
:1038E0005749C1F88001554908310860FF2161231B
:1038F0006D22CDE90010032100F070FF08204C4933
:10390000887089E7FFF7BBFBD8B10020F021612365
:103910006D22CDE90010032100F060FF0522322165
:103920000846FCF7A2FD01204449086000204449F4
:10393000C1F8800141490831086005203C49887080
:10394000CAE00020032161236D22CDE9001000F0C0
:1039500045FF37488078401C354988704FF4FA702D
:10396000FEF799F84BE13248807803282CD129469C
:103970002046FFF754FA2E48807B012884D12C483A
:103980004078012803D02A484078022809D1002035
:10399000042161236D22CDE90010032100F01EFFF8
:1039A00008E00020022161236D22CDE900100321EF
:1039B00000F014FF1E488078401C1D4988704FF4A9
:1039C000FA70FEF768F81AE11948807804287ED169
:1039D0001D480CC80020234905F0A1FB064605F050
:1039E0004DFC80461249097801F0010181F0010087
:1039F00000224146FFF739FA0D48807B0128B1D1FA
:103A00000C48007898B90C480068012804D00A488E
:103A100014380068012837D1052232210846FCF706
:103A200024FD012005490860002005491CE02BE029
:103A300064030020D40200202C012342840122428E
:103A400000002242840000205000002000805640E8
:103A500094000020B40100209C00002044020020BB
:103A60008800002000003440C1F88001FE49086051
:103A7000FF2161236D22CDE90010032100F0AEFE8D
:103A80000820FA498870C7E6F8484078012803D032
:103A9000F648407802280CD10020052161236D22D0
:103AA000CDE90010032100F099FEFFF77FF908E04F
:103AB0000DE00020032161236D22CDE9001000F00C
:103AC0008DFEEA488078C01CE849887097E0E74896
:103AD000807805282BD100BFE4494978491009B9FD
:103AE000012100E0002108460022E1490968FFF7B2
:103AF000BCF9DE48807B0128E8D1DC488078C01C16
:103B0000DA4988704FF4FA70FDF7C5FF4FF4FA7088
:103B1000FDF7C1FF4FF4FA70FDF7BDFF4FF4FA70E7
:103B2000FDF7B9FF4FF4FA70FDF7B5FF67E0CF4836
:103B3000807806283ED1CD48007B012828D100207E
:103B4000CA490873C820FDF7A6FF012200215A20A8
:103B5000FEF7F3FEC7480CC80020C74905F0DFFA9E
:103B6000064605F08BFB804600220121FEF7E5FEAC
:103B70000120C249887002E0C820FDF78CFFC048D0
:103B800000780028F8D1012200215A20FEF7D5FE46
:103B9000BC480079012832D1BB48007878BB0020AE
:103BA000B6498870B74908710720B049887001206C
:103BB000087331E6AD488078072815D1AB48007B03
:103BC00001280AD10020A94908730A46928B0A3AB3
:103BD00091B2A64AD08BFFF722F9A448807B012836
:103BE0000DD1A24988703DE6FFF7E0F800209F491B
:103BF000087401208870002088734882888200BF82
:103C00000AE670B505460C4625B1012D3AD0022DC5
:103C100069D12AE09D480068012812D09B48001D08
:103C2000006801280DD0994808300068012808D0A4
:103C300097480068012804D0954814380068012886
:103C400005D1012232210846FCF70FFC70BD8C48DB
:103C500080F8844090F8840083490831086000208F
:103C600087494860012008703DE08A4880F8844018
:103C700090F8840088490860002086494860012047
:103C8000087030E081480068012818D07F48001D86
:103C90000068012813D07D480830006801280ED044
:103CA000012C03D17A480C38006840B1784800688C
:103CB000012804D0764814380068012805D1012273
:103CC00032210846FCF7D1FBC0E76F4880F88440FA
:103CD00090F884006D49A431086000206A4948606A
:103CE0000120087000BF00BF00BFAFE71CB56548EA
:103CF000C07801284AD163484078012847D16148FB
:103D00000078002833D101205E49087060480068BF
:103D1000012814D15E481438006880B901205E493A
:103D200008605C4981F8840040F6C41008610020F6
:103D300048600320087001205249487117E0544838
:103D400014380068012812D15148006878B9002061
:103D5000514908604F4981F8840040F6C410086159
:103D600000204860032008700120464948714948F6
:103D700000780028BED143484078401C4149487033
:103D8000002008704FF4FA70FDF785FE10E13D4801
:103D9000407802284DD13B480078002839D13C4872
:103DA0000068012804D03A4814380068012809D175
:103DB0000020FF2161236D22CDE90010032100F0D6
:103DC0000DFD1CBD32480C38006848B130480C3835
:103DD000006801280AD12E48001F0068012805D17B
:103DE00003202849487000200870EAE72848001F8F
:103DF000006870B90120234908702449A431086083
:103E0000214981F88400C82008610020486003200F
:103E100008701D4800780028B8D11A484078401C26
:103E200018494870002008704FF4FA70FDF733FE0F
:103E3000BEE014484078032857D11248007890B962
:103E400001201049087000201049A43108600E4973
:103E500081F8840048604CF25030086103200870FB
:103E600000200E491CE026E08C0122426403002061
:103E70008800002050000020008056409400002060
:103E8000B40100209C000020440200200C8121424B
:103E90002C012342D4020020900121420000224242
:103EA000C1F89401FC4981F8840048604CF250301C
:103EB000086103200870F9480078002878D1F64896
:103EC0000078002874D1F6480079012870D10020CC
:103ED000F349087108464078401C4870002008707B
:103EE0004FF4FA70FDF7D7FD62E0ED484078042802
:103EF00021D1EB48007870B90120E9490870E949FF
:103F00000860E94981F884004FF4FA7008610020E4
:103F1000486003200870E4480078002848D1E04851
:103F20004078401CDE494870002008704FF4FA7059
:103F3000FDF7B1FD3CE0DA484078052824D1D848A7
:103F4000007878B90120D64908700020D54908606A
:103F5000D54981F884004FF47A70086100204860E8
:103F600003200870D048007810BB0020CF490870AB
:103F7000CB484078401CCA494870002008704FF474
:103F8000FA70FDF788FD13E00120C549887048707C
:103F900000200870C870052161236D22CDE9001052
:103FA000032100F01BFC012232210846FCF75DFAD8
:103FB00000BF06E72DE9F04104460D4616461F46B0
:103FC000DDF8188043463A4631462846A047BDE80A
:103FD000F08130B5B64C2468012C12D0B44C241DAD
:103FE0002468012C0DD0B24C08342468012C08D070
:103FF000B04C2468012C04D0AE4C143C2468012C35
:1040000000D130BD0324AC4DEC8220242C706A8298
:10401000AB8200246C70EC83F024AC830124A74DA8
:104020002C70A54DEC73EC700024AC7301242C7142
:104030006C7100BFE5E730B59D4C2468012C12D0AF
:104040009B4C241D2468012C0DD0994C0834246805
:10405000012C08D0974C2468012C04D0954C143CBA
:104060002468012C00D130BD0324934DEC822C46F2
:1040700021706A8203F10A04AC822C466070904C75
:104080002488EC838F4C2488AC8301248B4D2C70C6
:10409000894D2C74AC702C716C71AC71EC712C72FC
:1040A0006C720024AC7300BFDDE730B5804C24682F
:1040B000012C12D07E4C241D2468012C0DD07C4C88
:1040C00008342468012C08D07A4C2468012C04D0D0
:1040D000784C143C2468012C00D130BD0324764D6B
:1040E000EC822C4621706A82A3F10A04AC822C4631
:1040F0006070734C2488EC83724C2488AC83012458
:104100006E4D2C706C4DEC73EC702C716C71AC714D
:10411000EC712C726C720024AC7300BFDDE70120DF
:104120005F49C8700020887070472DE9F0476648E5
:104130000078002878D06448C07806281AD2DFE8D2
:1041400000F0A8031A324B745F484078012807D169
:1041500000205D49487001221146C820FEF7EDFBA2
:104160004E48007830B95848C078401C5649C8704D
:10417000012048708DE054484078012808D1002083
:1041800051494870002201214CF25030FEF7D5FB16
:104190004248007830B94C48C078401C4A49C87041
:1041A0000120487075E048484078012808D1002077
:1041B00045494870012211464CF25030FEF7BDFBD4
:1041C0003C482838006830B93F48C078401C3E4918
:1041D000C870012048705CE03B484078012818D145
:1041E00000203949487039480CC80020384904F08B
:1041F00096FF04460D462949086905F01EF8064653
:1042000022462B4604F013FF804605F037F8234979
:1042100048602248007830B92B48C078401C2A49B1
:10422000C8700120487034E034E027484078012805
:104230000BD1002024494870002201214CF250305B
:10424000FEF77BFB01202049887014480078F8B9FC
:1042500000201249087000211E4804F079F80F4828
:10426000D0F880001C490860C82204211A4802F0D6
:1042700005FE0A48D0F88000134948600120C87044
:10428000487000200870012232210846FCF7EDF842
:1042900000BF00BFBDE8F087B40100204402002049
:1042A0009C00002090012142D4020020A3000020A5
:1042B0000C8121422C012342640300207500002060
:1042C000800000207C00002094000020500000208E
:1042D0000000494000080040900000200346012AE9
:1042E00002D0022A6FD10BE10C2B6DD2DFE803F074
:1042F000061B30455A71869BB0C5DAF00A2910D2E8
:10430000DFE801F005060708090A0B0C0D0E08E0AE
:1043100007E006E005E004E003E002E001E000E081
:1043200000BF00BFEAE00A2910D2DFE801F005066D
:104330000708090A0B0C0D0E08E007E006E005E08F
:1043400004E003E002E001E000E000BF00BFD5E0D0
:104350000A2910D2DFE801F005060708090A0B0C4C
:104360000D0E08E007E006E005E004E003E002E0EF
:1043700001E000E000BF00BFC0E00A2910D2DFE882
:1043800001F005060708090A0B0C0D0E08E007E00E
:1043900006E005E004E003E002E001E000E000BF29
:1043A00000BFABE00A2912D2DFE801F005060708DA
:1043B000090A0B0C0F100AE009E008E007E006E02C
:1043C00005E004E003E0A5E197E000E000BF00BFE6
:1043D00094E00A2910D2DFE801F005060708090A6F
:1043E0000B0C0D0E08E007E006E005E004E003E03A
:1043F00002E001E000E000BF00BF7FE00A2910D228
:10440000DFE801F005060708090A0B0C0D0E08E0AD
:1044100007E006E005E004E003E002E001E000E080
:1044200000BF00BF6AE00A2910D2DFE801F00506EC
:104430000708090A0B0C0D0E08E007E006E005E08E
:1044400004E003E002E001E000E000BF00BF55E04F
:104450000A2910D2DFE801F005060708090A0B0C4B
:104460000D0E08E007E006E005E004E003E002E0EE
:1044700001E000E000BF00BF40E00A2910D2DFE801
:1044800001F005060708090A0B0C0D0E08E007E00D
:1044900006E005E004E003E002E001E000E000BF28
:1044A00000BF2BE00A2910D2DFE801F0050607085B
:1044B000090A0B0C0D0E08E007E006E005E004E039
:1044C00003E002E001E000E000BF00BF16E0FFE70C
:1044D0000A2910D2DFE801F005060708090A0B0CCB
:1044E0000D0E08E007E006E005E004E003E002E06E
:1044F00001E000E000BF00BF00E000BF00BF09E135
:104500000C2B70D2DFE803F0061B30455A70859AF9
:10451000AFC4D9EE0A2910D2DFE801F0050607087A
:10452000090A0B0C0D0E08E007E006E005E004E0C8
:1045300003E002E001E000E000BF00BFE8E00A297C
:1045400010D2DFE801F005060708090A0B0C0D0E72
:1045500008E007E006E005E004E003E002E001E037
:1045600000E000BF00BFD3E00A2910D2DFE801F06D
:1045700005060708090A0B0C0D0E08E007E006E027
:1045800005E004E003E002E001E000E000BF00BF5E
:10459000BEE00A2910D2DFE801F005060708090A83
:1045A0000B0C0D0E08E007E006E005E004E003E078
:1045B00002E001E000E000BF00BFA9E00A2910D23C
:1045C000DFE801F005060708090A0B0C0D0E08E0EC
:1045D00007E006E005E004E003E002E001E000E0BF
:1045E00000BF00BF94E092E00A2910D2DFE801F09A
:1045F00005060708090A0B0C0D0E08E007E006E0A7
:1046000005E004E003E002E001E000E000BF00BFDD
:104610007EE00A2910D2DFE801F005060708090A42
:104620000B0C0D0E08E007E006E005E004E003E0F7
:1046300002E001E000E000BF00BF69E00A2910D2FB
:10464000DFE801F005060708090A0B0C0D0E08E06B
:1046500007E006E005E004E003E002E001E000E03E
:1046600000BF00BF54E00A2910D2DFE801F00506C0
:104670000708090A0B0C0D0E08E007E006E005E04C
:1046800004E003E002E001E000E000BF00BF3FE023
:104690000A2910D2DFE801F005060708090A0B0C09
:1046A0000D0E08E007E006E005E004E003E002E0AC
:1046B00001E000E000BF00BF2AE00A2910D2DFE8D5
:1046C00001F005060708090A0B0C0D0E08E007E0CB
:1046D00006E005E004E003E002E001E000E000BFE6
:1046E00000BF15E00A2910D2DFE801F0050607082F
:1046F000090A0B0C0D0E08E007E006E005E004E0F7
:1047000003E002E001E000E000BF00BF00E000BF06
:1047100000BF00BF00BF704710B586B0044601213E
:10472000880403F08EF90121082003F07DF9FD488B
:1047300004F0ECF84FF48060ADF8140003208DF81D
:10474000160018208DF8170005A9F74802F090FE12
:104750004FF40060ADF8140004208DF8170005A98F
:10476000F14802F085FE01940020ADF80800ADF894
:104770000A00ADF80C00ADF810000C20ADF80E00EA
:1047800001A9E84804F005F90120E8490860802102
:10479000E44804F072FA0121E24804F086F90122AB
:1047A00040F22551DF4804F08CF927208DF80000F5
:1047B00002208DF8010003208DF8020001208DF801
:1047C0000300684602F0FDFC0020D949097801EB9E
:1047D0000111D84A02F8110006B010BD2DE9F05FB2
:1047E0000546884691469A460B9EE80000F10A0766
:1047F000384604F0D1FE04463946204604F0A3FAB8
:10480000AA20207055206070A57084F8038084F879
:10481000049084F805A00A98A071012D18D1307871
:10482000207270786072B078A072F078E07230799F
:10483000207370796073B079A073F079E073A02170
:10484000E800083021545F21E8000930215407E0D6
:10485000A021E800083021545F21E80009302154EC
:10486000022012E0072809D0082101EBC50181428E
:1048700004D0092101EBC501814200D104E0E179B6
:10488000225C1144E17100BF401CE9000A31814201
:10489000E8DC4FF0000B0DE000BF4021A14804F020
:1048A000DFF90128F9D114F80B109E4804F06AF9D9
:1048B0000BF1010BBB45EFD3204604F045FEBDE8EC
:1048C000F09F2DE9FC5F9C48C08A082805D2DFE8EC
:1048D00000F0040506CFFEFDFCFBD7E2FDE797499B
:1048E000D1F8800004F098FC804695480CC84046FA
:1048F00004F0A3FB06460022924B04F0F7FA0446AC
:104900000022914B04F00BFC824604F0B7FC8F4967
:1049100008708A49D1F8800004F07EFCCDE90001DE
:1049200087480CC8009804F088FB06460022854B97
:1049300004F0DCFA04460022854B04F0F0FB8046CC
:1049400004F09CFC00F0FF0A4FEAEA700AEB1060EA
:104950000012AAEB00207D4948707E49D1F8800002
:1049600004F05AFC80467C480CC8404604F065FBC5
:1049700082460022734B04F0B9FA06460022724BBD
:1049800004F0CDFB044604F079FC7049887071494D
:10499000D1F8800004F040FC80466F480CC84046C7
:1049A00004F04BFB06460022664B04F09FFA0446D7
:1049B0000022674B04F0B3FBCDE9000104F05EFC7C
:1049C00000F0FF0A4FEAEA700AEB10600012AAEB4F
:1049D00000205E49C8706148006D002802DA01209D
:1049E000087102E00020594908715C49086D04F023
:1049F00013FC5B4A5B4BCDE9000104F01EFB06464D
:104A00000022504B04F072FA80460022504B04F012
:104A100086FB044604F032FC00F0FF0A4FEAEA701D
:104A20000AEB10600012AAEB002048494871424886
:104A3000408BB0F57A7F04D03F48807E401C88715F
:104A400002E0F020414988713B48007E3F49C8712F
:104A50000846002161236D22CDE9001002210120CA
:104A6000FFF7BCFE012232210846FBF7FEFCAFE354
:104A70003148007811287DD005DC48B101287AD072
:104A8000102879D1E6E0202877D03028F9D191E1BB
:104A90002A480078002871D12E48007800286DD16E
:104AA0002E48007800287DD12F480068012817D0B3
:104AB0002D48001D0068012812D02B4808300068DE
:104AC00001280DD0294803E070E31EE396E2DEE101
:104AD0000068012804D025481438006801280FD147
:104AE0000020FF2161236D22CDE900100321FFF793
:104AF00075FE052232210846FBF7B7FCBDE8FC9F96
:104B00000020012161236D22CDE900100321FFF770
:104B100065FE0120164908700749C873C8700871FE
:104B200048712CE000480040000C0140BC012142CB
:104B3000AF0000208403002064030020B4010020A3
:104B4000480000200000E03F00007040A700002067
:104B50000000F03F4402002050000020D40200205A
:104B60000AD7A3703D0AB73F0C8121422C01234292
:104B700075000020C6E016E087E13BE112E0887195
:104B8000C871087248720846808A0A3888820020F4
:104B900088730846C07A401CC87201223221084638
:104BA000FBF763FC71E1FE480078002851D1FD4815
:104BB000007800284DD1FC480078002849D1FB48F6
:104BC0000068012812D0F948001D006801280DD0A6
:104BD000F64808300068012808D0F5480068012828
:104BE00004D0F3481438006801280ED10020FF21BA
:104BF00061236D22CDE900100321FFF7EFFD0522AF
:104C000032210846FBF731FC78E7002001216123BF
:104C10006D22CDE900100321FFF7E0FD0120E549F9
:104C20000870E549C873C870087148718871C87107
:104C3000087248720846808A0A3888820020887381
:104C40000846C07A401CC872012232210846FBF790
:104C50000CFC1AE1D2480078002852D1D1480078E3
:104C600000284ED1D048007800284AD1CF480068AB
:104C7000012812D0CD48001D006801280DD0CB4876
:104C800008300068012808D0C9480068012804D00D
:104C9000C7481438006801280ED105223221084681
:104CA000FBF7E3FB0020FF2161236D22CDE900101B
:104CB0000321FFF793FD21E70020012161236D22ED
:104CC000CDE900100321FFF789FDBB48807A401C25
:104CD000B94988720120B7490870B74908748870CB
:104CE000087148718871C871087248720020887311
:104CF0000846808A0A308882012232210846FBF762
:104D0000B4FBC2E0A6480078002852D1A54800783C
:104D100000284ED1A448007800284AD1A348006852
:104D2000012812D0A148001D006801280DD09F481D
:104D300008300068012808D09D480068012804D088
:104D40009B481438006801280ED10020FF21612300
:104D50006D22CDE900100321FFF740FD052232212D
:104D60000846FBF782FBC9E60020012161236D2282
:104D7000CDE900100321FFF731FD8F48807A401CF8
:104D80008D49887201208B4908708B49087488709E
:104D9000087148718871C871087248720020887360
:104DA0000846808A0A308882012232210846FBF7B1
:104DB0005CFB6AE07A480078D8B97A480078C0B9D4
:104DC00079480078A8B90020012161236D22CDE93E
:104DD00000100321FFF702FD01207849C870002070
:104DE0008870012076490870012232210846FBF7BD
:104DF0003CFB4AE06A480078F0BB6A480078D8BBC0
:104E000069480078C0BB69480068012812D067482B
:104E1000001D006801280DD0644808300068012892
:104E200008D063480068012804D06148143800683D
:104E300001280ED1052232210846FBF716FB00207F
:104E4000FF2161236D22CDE900100321FFF7C6FC8D
:104E500054E60020012161236D22CDE900100321D9
:104E6000FFF7BCFC0120534908705349C873C87050
:104E700000208873012000E006E0087148710122DB
:104E800032210846FBF7F1FA00BF00BFA0E1012084
:104E9000494948740020012161236D22CDE90010A9
:104EA0000321FFF79BFC4448007800F0300020B15C
:104EB000102850D0202839D139E03C48006801281A
:104EC00012D03A48001D006801280DD0374808303C
:104ED0000068012808D036480068012804D034480A
:104EE0001438006801280ED10020FF2161236D22B3
:104EF000CDE900100321FFF771FC0522322108469D
:104F0000FBF7B3FAFAE52C48007800F0010010B185
:104F100001280AD104E000210846FEF772FE04E0F1
:104F200001210020FEF76DFE00BF00BF5FE02248B8
:104F3000007800F0010010B101280AD104E001213D
:104F40000220FEF75EFE04E000210220FEF759FE7B
:104F500000BF00BF4BE015480068012812D013487D
:104F6000001D006801280DD0104808300068012895
:104F700008D00F480068012804D00D481438006894
:104F8000012822D10020FF2161236D22CDE90010EC
:104F90000321FFF723FC05223221084612E000001E
:104FA000B401002044020020D40200200C812142E0
:104FB0002C01234275000020640300209C00002087
:104FC0008C000020FBF751FA98E5FE48007800F0CD
:104FD000010028B1012808D10021FEF712FE04E0EB
:104FE00001210846FEF70DFE00BF00BF00BF00BF55
:104FF000012232210846FBF738FAE9E000200121BE
:1050000061236D22CDE900100321FFF7E7FBED4896
:1050100000780411002C01DD102400E0002404F0CD
:10502000100010B1102869D12DE0E648007800F09A
:105030000F00082821D2DFE800F02004080C10142B
:10504000181C0020DF4908761BE00120DD490876A6
:1050500017E00220DB49087613E00320D9490876DF
:105060000FE00420D74908760BE00520D5490876E3
:1050700007E00620D349087603E00020D1490876EE
:1050800000BF00BF3AE0CF48007800F0F00000F029
:105090000F0169BB001110282AD2DFE800F02908AF
:1050A0000C1014181C202929292929292924002019
:1050B000C449488320E00120C24948831CE0022003
:1050C000C049488318E00320BE49488314E0042007
:1050D000BC49488310E00520BA4948830CE006200B
:1050E000B849488308E04FF47A70B649488303E032
:1050F0000020B449488300BF00BF00BF00BF0122A9
:1051000032210846FBF7B1F962E00020012161235A
:105110006D22CDE900100621FFF760FBA948007859
:1051200080BB0020A849087000214FF0804003F0A8
:105130000FF90020A54908700021A54803F008F9DF
:105140000020A44908700021A34803F001F90020C1
:105150009C49C87308748882488201209F4908705E
:105160009849C8708870087148718871C871087250
:105170004872002088730120994948700020087007
:10518000C8700DE0FFE70120964908609649087055
:1051900040F2DC50FCF77FFC40F2DC50FCF77BFC7B
:1051A000012232210846FBF760F911E000200121BD
:1051B00061236D22CDE900100721FFF70FFB0020CE
:1051C00082490865012232210846FBF74EF900BFEB
:1051D00000BF00BF92E410B58448007800287DD05D
:1051E00082480078401E00EB0010814901EB40002E
:1051F00090F820107D480078401E00EB00107C4A9B
:1052000002EB4000007A814226D0002177480078E6
:10521000401E00EB001002EB400080F820107348A5
:105220000078401E00EB001002F810106F4909785A
:10523000491E01EB011102EB4101481C1E2103F044
:1052400082FD6A480078401E6849087003223221B6
:105250000846FBF70AF910BD64480078401E00EBD1
:105260000010634901EB400040796D2836D10021E0
:105270005E480078401E00EB00105D4A02EB4000E3
:1052800001725A480078401E00EB001002F810101E
:1052900056480078401E00EB001002EB400080F8FA
:1052A000201052480078401E00EB0010114601EB20
:1052B000400000794349C8824C480078401E00EB0A
:1052C0000010114601EB4000C0793E490870474884
:1052D0000078401E00EB0010114600E08EE001EB6C
:1052E0004000807800285DD040480078401E00EBE8
:1052F000001001EB4000817A3C480078401E00EB32
:10530000001002EB4000407A01EB00202D4948825A
:1053100036480078401E00EB0010114601EB4000BB
:10532000017B32480078401E00EB001002EB400089
:10533000C07A01EB0020234988822C480078401E67
:1053400000EB0010114601EB4000407B1D49487006
:1053500026480078401E00EB0010114601EB40008B
:10536000C17B22480078401E00EB001002EB400099
:10537000807B01EB00201349C8831C480078401E45
:1053800000EB0010114601EB4000417C174800780B
:10539000401E00EB001002EB4000007C01EB0020FF
:1053A0000849888311490978491E01EB0111104A07
:1053B00002EB4101481C1E2103F0C5FC0B4800789C
:1053C000401E17E064030020B4010020D402002036
:1053D0000004004044020020000800407500002046
:1053E0009C00002094012142A4000020AF00002076
:1053F00084030020FE490870FFF763FA00BF2AE724
:1054000010B540F22551FB4803F06AFCF94803F05F
:10541000BDFBF749097801EB0111F74A02EB4101A5
:10542000C877F64800780B2856D2DFE800F0065619
:10543000A6F2F0EFEEEDECEBEA00ED48007800EBC1
:105440000010ED4901EB4000C07FAA2829D1E848AF
:10545000007800EB001001EB4000C17FE4480078C9
:1054600000EB0010E44A02EB4000401CE04A1278D6
:1054700002EB0212E04B13F8122081540120DF49A5
:105480000870DB48007800EB0010194611F8100096
:10549000401CD749097801EB01111A4602F81100A6
:1054A0001AE00020D5490870D149097801EB0111B3
:1054B000D14A02F81100CE49097801EB011102EB43
:1054C000410181F820000120C949097801EB01114F
:1054D00002EB410181F8210065E3C548007800EB4B
:1054E0000010C54901EB4000C07F552829D1C048B4
:1054F000007800EB001001EB4000C17FBC48007851
:1055000000EB0010BC4A02EB4000401CB84A127885
:1055100002EB0212B84B13F8122081540220B74953
:105520000870B348007800EB0010194611F810001D
:10553000401CAF49097801EB01111A4602F811002D
:105540001AE00020AD490870A949097801EB011162
:10555000A94A02F81100A649097801EB011102EBF2
:10556000410181F820000120A149097801EB0111D6
:1055700002EB410181F8210015E39D48007800EB22
:1055800000109D4901EB4000C17F9948007800EB75
:105590000010994A02EB4000401C954A127802EB39
:1055A0000212954B13F8122081540320934908707E
:1055B0008F48007800EB0010194611F81000401CCD
:1055C0008B49097801EB01111A4602F8110088484D
:1055D000007800EB0010114601EB400090F820002D
:1055E0008349097801EB011102EB4101C97F0844AD
:1055F0007F49097801EB011102EB410181F820009C
:10560000D1E27DE22CE27FE11CE1CEE089E044E0E2
:10561000FFE77748007800EB0010774901EB400086
:10562000C17F7348007800EB0010734A02EB400022
:10563000401C6F4A127802EB02126F4B13F81220D3
:10564000815404206D4908706948007800EB00100F
:10565000194611F81000401C6549097801EB011149
:105660001A4602F811006248007800EB001011465B
:1056700001EB400090F820005D49097801EB011131
:1056800002EB4101C97F08445949097801EB011136
:1056900002EB410181F8200085E25548007800EBDB
:1056A0000010554901EB4000C17F5148007800EBE4
:1056B0000010514A02EB4000401C4D4A127802EBA8
:1056C00002124D4B13F81220815405204B490870EB
:1056D0004748007800EB0010194611F81000401CF4
:1056E0004349097801EB01111A4602F811004048BC
:1056F000007800EB0010114601EB400090F820000C
:105700003B49097801EB011102EB4101C97F0844D3
:105710003749097801EB011102EB410181F82000C2
:1057200041E23348007800EB0010334901EB4000C0
:10573000C17F2F48007800EB00102F4A02EB400099
:10574000401C2B4A127802EB02122B4B13F812204A
:1057500081540620294908702548007800EB001084
:10576000194611F81000401C2149097801EB01117C
:105770001A4602F811001E48007800EB001011468E
:1057800001EB400090F820001949097801EB011164
:1057900002EB4101C97F08441549097801EB011169
:1057A00002EB410181F82000FDE11148007800EB97
:1057B0000010114901EB4000C17F0D48007800EB5B
:1057C00000100D4A02EB4000401C094A127802EB1F
:1057D0000212094B13F81220815407200749087060
:1057E0000348007800EB0010194611F8100007E09C
:1057F000AF0000200048004084030020B0000020DB
:10580000401CEA49097801EB01111A4602F811001F
:10581000E648007800EB0010114601EB400090F8DC
:105820002000E249097801EB011102EB4101C97F37
:105830000844DE49097801EB011102EB410181F8CE
:105840002000B0E1D948007800EB0010D84901EB06
:105850004000C17FD548007800EB0010D44A02EB2D
:105860004000401CD14A127802EB0212D04B13F8D0
:10587000122081540820CF490870CC48007800EBF2
:105880000010194611F81000401CC849097801EBB6
:1058900001111A4602F81100C448007800EB00100C
:1058A000114601EB4000C07820B1012806D0022843
:1058B0000CD107E00920BF49087023E00820BD494A
:1058C00008701FE00820BB4908701BE00020B949A0
:1058D0000870B649097801EB0111B54A02F81100C8
:1058E000B249097801EB011102EB410181F8200076
:1058F0000120AE49097801EB011102EB410181F869
:10590000210000BF00BF4EE1A848007800EB001066
:10591000A74901EB4000C078012802D002284DD1F0
:105920004DE0A248007800EB0010A14901EB4000D7
:10593000C17F9E48007800EB00109D4A02EB4000BA
:10594000401C9A4A127802EB0212994B13F812206B
:1059500081549648007800EB0010194611F81000A9
:10596000401C9249097801EB01111A4602F8110016
:105970008E48007800EB0010114601EB400090F8D3
:1059800020008A49097801EB011102EB4101C97F2E
:1059900008448649097801EB011102EB410181F8C5
:1059A00020008248007800EB0010114611F810002A
:1059B000C01F082802D109207E4908704EE07B48AC
:1059C000007800EB00107A4901EB4000C17F774876
:1059D000007800EB0010764A02EB4000401C734A4E
:1059E000127802EB0212724B13F8122081546F48A6
:1059F000007800EB0010194601EB400090F8200001
:105A00006A49097801EB01111A4602EB4101C97F8D
:105A100008446649097801EB011102EB410181F864
:105A200020006248007800EB0010114611F81000C9
:105A3000C01F102802D109205E4908705B48007819
:105A400000EB00105A4911F81000401C5749097822
:105A500001EB0111564A02F8110000BF00BFA2E09D
:105A60005248007800EB0010514901EB4000C07F24
:105A7000A02829D14D48007800EB001001EB400030
:105A8000C17F4A48007800EB0010494A02EB400011
:105A9000401C464A127802EB0212454B13F81220C2
:105AA00081540A20434908704048007800EB0010F8
:105AB000194611F81000401C3C49097801EB01110E
:105AC0001A4602F811001AE000203A4908703749D6
:105AD000097801EB0111364A02F8110033490978BF
